{
	"data": {
		"bytecode": {
			"linkReferences": {},
			"object": "60806040526276a700600355348015610016575f80fd5b50600180556002805460ff1916905561002f5f336100b9565b506100475f805160206151068339815191525f610162565b6100717f22435ed027edf5f902dc0093fbc24cdb50c05b5fd5f311b78c67c1cbaff60e135f610162565b6100885f80516020615106833981519152336100b9565b506100b37f22435ed027edf5f902dc0093fbc24cdb50c05b5fd5f311b78c67c1cbaff60e13336100b9565b506101ac565b5f828152602081815260408083206001600160a01b038516845290915281205460ff16610159575f838152602081815260408083206001600160a01b03861684529091529020805460ff191660011790556101113390565b6001600160a01b0316826001600160a01b0316847f2f8788117e7eff1d82e926ec794901d17c78024a50270940304540a733656f0d60405160405180910390a450600161015c565b505f5b92915050565b5f82815260208190526040808220600101805490849055905190918391839186917fbd79b86ffe0ab8e8776151514217cd7cacd52c909f66475c3af44e129f0b00ff9190a4505050565b614f4d806101b95f395ff3fe608060405234801561000f575f80fd5b50600436106101fd575f3560e01c80637d59229211610114578063ada8f919116100a9578063d547741f11610079578063d547741f146104b9578063df7459f0146104cc578063e88c754c146104ef578063ec6a8ea114610502578063fb0652ea14610522575f80fd5b8063ada8f9191461046d578063b0df789a14610480578063b74dabbe14610493578063bf968a1b146104a6575f80fd5b8063a1ed3e0f116100e4578063a1ed3e0f14610411578063a217fddf14610431578063aac43b2a14610438578063abc2f0651461045a575f80fd5b80637d592292146103b55780637feb4cdc146103d45780638456cb59146103f657806391d14854146103fe575f80fd5b80633f18915311610195578063592ebbe911610165578063592ebbe91461035e5780635c975abb146103715780635feb08b21461037c57806368ba4eaf1461038f5780636f6e326d146103a2575f80fd5b80633f189153146102d65780633f4ba83a146102e957806350c8f239146102f1578063584ddaf01461034b575f80fd5b8063248a9ca3116101d0578063248a9ca31461027b5780632dd98c451461029d5780632f2ff15d146102b057806336568abe146102c3575f80fd5b806301f857d21461020157806301ffc9a71461022c57806307b4766b1461024f5780630d969f2c14610264575b5f80fd5b61021461020f36600461421b565b610552565b6040516102239392919061427b565b60405180910390f35b61023f61023a366004614325565b6105ab565b6040519015158152602001610223565b61026261025d366004614390565b6105e1565b005b61026d60035481565b604051908152602001610223565b61026d6102893660046143d7565b5f9081526020819052604090206001015490565b61026d6102ab3660046143ee565b61083b565b6102626102be366004614435565b610a8a565b6102626102d1366004614435565b610ab4565b6102626102e43660046143d7565b610ae7565b610262610b86565b6103296102ff3660046143d7565b60066020525f9081526040902080546001820154600283015460039093015460ff90921692909184565b6040805194151585526020850193909352918301526060820152608001610223565b61026d61035936600461445f565b610bb8565b61026261036c3660046143d7565b610cd5565b60025460ff1661023f565b61026261038a366004614495565b610d83565b61023f61039d366004614495565b610eba565b61023f6103b0366004614495565b610eea565b61026d6103c33660046143d7565b60056020525f908152604090205481565b6103e76103e236600461421b565b610f24565b6040516102239392919061450d565b610262610f6e565b61023f61040c366004614435565b610fa0565b61042461041f366004614536565b610fc8565b60405161022391906145a8565b61026d5f81565b61044b6104463660046143d7565b6110b4565b6040516102239392919061472e565b61026d610468366004614757565b611152565b61026261047b366004614757565b61118d565b61026261048e366004614770565b611213565b6102626104a1366004614536565b611656565b6102626104b43660046143d7565b6116cc565b6102626104c7366004614435565b6116df565b6104df6104da3660046143d7565b611703565b60405161022394939291906147c9565b6102626104fd3660046143d7565b611811565b610515610510366004614390565b61185e565b6040516102239190614804565b610535610530366004614757565b611a83565b604080519384526020840192909252151590820152606001610223565b60605f80610585846040518060400160405280600d81526020016c3bb7b935b33637bba0b236b4b760991b815250611bea565b61058f8686611c39565b61059c600e878787611cc5565b92509250925093509350939050565b5f6001600160e01b03198216637965db0b60e01b14806105db57506301ffc9a760e01b6001600160e01b03198316145b92915050565b6105e9611f97565b6105f1611ff0565b5f838152600e60205260409020600401548390610640576106406040518060400160405280601781526020017615dbdc9ad99b1bddc8191bd95cc81b9bdd08195e1a5cdd604a1b815250612038565b5f84815260106020526040902054849060ff1615610688576106886040518060400160405280600f81526020016e15dbdc9ad99b1bddc81c185d5cd959608a1b815250612053565b8433610695600e8361206d565b6001600160a01b0316146106d2576106d26040518060400160405280600e81526020016d139bdd08185d5d1a1bdc9a5e995960921b815250612053565b6106de6007868661208b565b610718576107186040518060400160405280601581526020017411195d9a58d9481b9bdd081c9959da5cdd195c9959605a1b8152506120be565b61072560078686896120d9565b6107605761076060405180604001604052806016815260200175446576696365206e6f7420696e20776f726b666c6f7760501b8152506120be565b5f868152600660205260408120600281015490919061078490839089908990612116565b9050806107c1576107c16040518060400160405280601581526020017411195d9a58d9481c995b5bdd985b0819985a5b1959605a1b8152506122f1565b6107ca8861230c565b6107d8600788888b86612395565b506107e4600e8961242f565b336001600160a01b0316887f7c60e8fa020b837cd1142e332837132074a30cf91beaebbcbb9e7533b7133a58898960405161082092919061483e565b60405180910390a3505050505061083660018055565b505050565b5f610844611f97565b61084c611ff0565b5f82815260106020526040902054829060ff1615610894576108946040518060400160405280600f81526020016e15dbdc9ad99b1bddc81c185d5cd959608a1b815250612053565b5f838152600e602052604090206004015483906108e3576108e36040518060400160405280601781526020017615dbdc9ad99b1bddc8191bd95cc81b9bdd08195e1a5cdd604a1b815250612038565b5f6108ef600e8661246a565b90505f60075f018888604051610906929190614851565b9081526020016040518091039020905061092081336126c3565b50604051600990610934908a908a90614851565b90815260408051602092819003830190205f898152925290205460ff16610993576109936040518060400160405280601a81526020017f776f726b666c6f772076616c69646174696f6e206661696c65640000000000008152506120be565b5f601160010189896040516109a9929190614851565b9081526040519081900360200181205491505f906011906109cd908c908c90614851565b908152604051908190036020019020546101208501519091506109f1428483612768565b6109fa826127da565b5f610a0760118d8d612889565b5f8b8152600660205260409020909150610a25818e8e426005612915565b8a8d8d604051610a36929190614851565b604051908190038120848252907fff199341a680b0b35a4dc6d3160e44d2a5574ac10bf2955bcdfe0ec47fbb1e8f9060200160405180910390a350975050505050505050610a8360018055565b9392505050565b5f82815260208190526040902060010154610aa4816129e9565b610aae83836129f3565b50505050565b6001600160a01b0381163314610add5760405163334bd91960e11b815260040160405180910390fd5b6108368282612a82565b610aef611f97565b610af7611ff0565b8033610b04600e8361206d565b6001600160a01b031614610b4157610b416040518060400160405280600e81526020016d139bdd08185d5d1a1bdc9a5e995960921b815250612053565b610b4d600e8333612aeb565b604051339083907f3627fef36ff2b68661b72d09c44779bf195e068a3cc13f8a9d0eec173558188c905f90a350610b8360018055565b50565b7f65d7a28e3265b37a6474929f336521b332c1681b933f6cb9f3376673440d862a610bb0816129e9565b610b83612cbc565b5f610bc1611f97565b610bc9611ff0565b610c2f610bd96020840184614860565b8080601f0160208091040260200160405190810160405280939291908181526020018383808284375f920191909152505060408051808201825260058152647469746c6560d81b60208201529092509050612d0e565b610c98610c3f6060840184614860565b8080601f0160208091040260200160405190810160405280939291908181526020018383808284375f920191909152505060408051808201825260088152671cd8da195b58525960c21b60208201529092509050612d0e565b610cab8260800135603c62015180612d41565b610cc5610cb783614967565b600e90336103e86064612d9c565b9050610cd060018055565b919050565b8033610ce2600e8361206d565b6001600160a01b031614610d1f57610d1f6040518060400160405280600e81526020016d139bdd08185d5d1a1bdc9a5e995960921b815250612053565b5f828152601060205260408120805460ff19811660ff91821615908117909255169050827f118fe3d551b1c2993669aef7bb160b48e99b1390b9e134549cf35810848d46cd82604051610d76911515815260200190565b60405180910390a2505050565b610d8b611ff0565b7f22435ed027edf5f902dc0093fbc24cdb50c05b5fd5f311b78c67c1cbaff60e13610db5816129e9565b610e1383838080601f0160208091040260200160405190810160405280939291908181526020018383808284375f920191909152505060408051808201825260088152671dd85b1b195d125960c21b60208201529092509050612d0e565b5f610e2060078585612f9f565b9050610e558160405180604001604052806011815260200170726567697374657265642064657669636560781b815250611bea565b5f610e6260078686612fd6565b9050336001600160a01b0316826001600160a01b03167f2b49ff5d47e3dbeac0aff9c357d3967a590acd4ca7d9f4fa820d6c5f015d0d00878785604051610eab93929190614a12565b60405180910390a35050505050565b5f610a838383604051610ece929190614851565b60408051918290039091205f9081526008602052205460ff1690565b5f60076006015f8484604051610f01929190614851565b604080519182900390912082526020820192909252015f205460ff169392505050565b60605f80610f57846040518060400160405280600d81526020016c3bb7b935b33637bba0b236b4b760991b815250611bea565b610f618686611c39565b61059c600e878787613061565b7f65d7a28e3265b37a6474929f336521b332c1681b933f6cb9f3376673440d862a610f98816129e9565b610b83613256565b5f918252602082815260408084206001600160a01b0393909316845291905290205460ff1690565b610ff86040518060a00160405280606081526020015f81526020015f81526020015f81526020015f151581525090565b5f838152600e60205260409020600401546110415761104160405180604001604052806013815260200172125b9d985b1a59081ddbdc9ad99b1bddc81251606a1b815250612038565b5f838152600660205260409020600481015461105e908490613293565b5f61106985856132e3565b6040805160a0810182528281526004850154602082018190529181018790526002850154606082015291925060808201906110a690600190614a4b565b861090529250505092915050565b6110bc6140ea565b5f828152600e60205260408120600401548190849061110d5761110d6040518060400160405280601781526020017615dbdc9ad99b1bddc8191bd95cc81b9bdd08195e1a5cdd604a1b815250612038565b611118600e8661246a565b935061113585856101400151600e6134819092919063ffffffff16565b5f8681526010602052604090205490935060ff1693959294505050565b5f611182826040518060400160405280600d81526020016c3bb7b935b33637bba0b236b4b760991b815250611bea565b6105db600e836134d1565b6111975f33610fa0565b6111cf576111cf6040518060400160405280601381526020017221b0b63632b91034b9903737ba1030b236b4b760691b815250612053565b6111fa81604051806040016040528060098152602001683732bb9030b236b4b760b91b815250611bea565b6112045f826129f3565b5061120f5f33612a82565b5050565b61121b611f97565b611223611ff0565b5f848152600e60205260409020600401548490611272576112726040518060400160405280601781526020017615dbdc9ad99b1bddc8191bd95cc81b9bdd08195e1a5cdd604a1b815250612038565b5f85815260106020526040902054859060ff16156112ba576112ba6040518060400160405280600f81526020016e15dbdc9ad99b1bddc81c185d5cd959608a1b815250612053565b85336112c7600e8361206d565b6001600160a01b031614611304576113046040518060400160405280600e81526020016d139bdd08185d5d1a1bdc9a5e995960921b815250612053565b5f8686604051611315929190614851565b60408051918290039091205f818152600d602052919091205490915060ff161561135a5761135a604051806060016040528060278152602001614ef1602791396120be565b5f818152600d6020818152604092839020805460ff1916600117905582518084019093529082526c6465766963654164647265737360981b908201526113a1908690611bea565b6113ff87878080601f0160208091040260200160405190810160405280939291908181526020018383808284375f920191909152505060408051808201825260088152671dd85b1b195d125960c21b60208201529092509050612d0e565b5f61140b600e8a61246a565b90505f8160a0015160028111156114245761142461463f565b14611472575f828152600d6020908152604091829020805460ff1916905581518083019092526013825272576f726b666c6f77206e6f742061637469766560681b90820152611472906120be565b5f8281526008602052604090205460ff16156114db575f828152600d6020908152604091829020805460ff191690558151808301909252601982527f44657669636520616c7265616479207265676973746572656400000000000000908201526114db906120be565b6114e760078989613578565b15611534575f828152600d6020908152604091829020805460ff191690558151808301909252601282527111195d9a58d948189b1858dadb1a5cdd195960721b90820152611534906120be565b61154681606001518260c0015161358d565b61155560078989898d876135d4565b50611561600e8a613789565b6040805160c06020601f8b01819004028201810190925260a081018981525f928291908c908c90819085018382808284375f9201829052509385525050506001600160a01b038a1660208301524260408301819052606083019190915260809091015290506115d08a826137a5565b5f8a8152600660209081526040808320600301548684526005835281842055600d90915290819020805460ff191690555133906001600160a01b038916908c907f044e63d90b13c9452584a9658f63f4ff576a4e45034f63dbec0e8392f9d16eea9061163f908e908e9061483e565b60405180910390a4505050505050610aae60018055565b61165e611f97565b611666611ff0565b8133611673600e8361206d565b6001600160a01b0316146116b0576116b06040518060400160405280600e81526020016d139bdd08185d5d1a1bdc9a5e995960921b815250612053565b6116c2600e8484603c620151806139ab565b5061120f60018055565b5f6116d6816129e9565b61120f82613a04565b5f828152602081905260409020600101546116f9816129e9565b610aae8383612a82565b61170b6140ea565b5f828152600e602052604081206004015481906060906117595761175960405180604001604052806013815260200172125b9d985b1a59081ddbdc9ad99b1bddc81251606a1b815250612038565b611764600e8661246a565b5f868152600660205260409020600481015460028201549296509450909250836001600160401b0381111561179b5761179b6148a2565b6040519080825280602002602001820160405280156117c4578160200160208202803683370190505b5091505f5b84811015611808575f81815260058301602052604090205483518490839081106117f5576117f5614a5e565b60209081029190910101526001016117c9565b50509193509193565b5f61181b816129e9565b62278d0082101561185857611858604051806040016040528060118152602001705468726573686f6c6420746f6f206c6f7760781b8152506120be565b50600355565b611866614156565b5f848152600e602052604090206004015484906118b5576118b56040518060400160405280601781526020017615dbdc9ad99b1bddc8191bd95cc81b9bdd08195e1a5cdd604a1b815250612038565b5f84846040516118c6929190614851565b60408051918290039091205f81815260056020818152848320548b84526006825285842081855292830190915293822092945091905b8154811015611a44578482828154811061191857611918614a5e565b905f5260205f2090600502015f016040516119339190614b18565b604051809103902003611a3c5781818154811061195257611952614a5e565b905f5260205f2090600502016040518060a00160405290815f8201805461197890614a72565b80601f01602080910402602001604051908101604052809291908181526020018280546119a490614a72565b80156119ef5780601f106119c6576101008083540402835291602001916119ef565b820191905f5260205f20905b8154815290600101906020018083116119d257829003601f168201915b505050918352505060018201546001600160a01b0316602082015260028201546040820152600382015460ff16151560608201526004909101546080909101529650611a7b945050505050565b6001016118fc565b50611a766040518060400160405280601081526020016f11195d9a58d9481b9bdd08199bdd5b9960821b815250612038565b505050505b509392505050565b6001600160a01b0381165f908152600c60205260408120805482918291829190611aac90614a72565b80601f0160208091040260200160405190810160405280929190818152602001828054611ad890614a72565b8015611b235780601f10611afa57610100808354040283529160200191611b23565b820191905f5260205f20905b815481529060010190602001808311611b0657829003601f168201915b5050505050905080515f03611b7057611b706040518060400160405280601d81526020017f4465766963652061646472657373206e6f7420726567697374657265640000008152506120be565b5f60075f0182604051611b839190614b3a565b9081526040519081900360200181209150601190611ba2908490614b3a565b9081526040519081900360200181205490601290611bc1908590614b3a565b9081526040519081900360200190205460039092015490955090935060ff169150509193909250565b6001600160a01b03821661120f5780604051602001611c099190614b45565b60408051601f198184030181529082905263a1b63ceb60e01b8252611c3091600401614b7d565b60405180910390fd5b805f03611c795760405163a1b63ceb60e01b815260206004820152600d60248201526c125b9d985b1a59081b1a5b5a5d609a1b6044820152606401611c30565b611c84815f19614a4b565b82111561120f5760405163a1b63ceb60e01b815260206004820152600e60248201526d125b9d985b1a59081bd9999cd95d60921b6044820152606401611c30565b6001600160a01b0381165f908152600185016020526040812060609190819081611cf0876014613a9f565b905081600201545f03611d3d57604080515f8082526020820190925290611d2d565b611d1a61418c565b815260200190600190039081611d125790505b505f809450945094505050611f8d565b875f611d56611d4c8484614b8f565b8560020154613a9f565b905083600201548210611da957604080515f8082526020820190925290611d93565b611d8061418c565b815260200190600190039081611d785790505b5084600201545f96509650965050505050611f8d565b611db38282614a4b565b6001600160401b03811115611dca57611dca6148a2565b604051908082528060200260200182016040528015611e0357816020015b611df061418c565b815260200190600190039081611de85790505b5096505f80611e13846001614b8f565b90505b828111611f7c575f81815260018701602052604090205460ff1615611f6a575f81815260208e8152604091829020825160a0810190935280548352600181018054919392830191611e6690614a72565b80601f0160208091040260200160405190810160405280929190818152602001828054611e9290614a72565b8015611edd5780601f10611eb457610100808354040283529160200191611edd565b820191905f5260205f20905b815481529060010190602001808311611ec057829003601f168201915b50505050508152602001886003015f8581526020019081526020015f205f9054906101000a900460ff16151581526020018f6002015f8581526020019081526020015f205f9054906101000a900460ff161515815260200182600301548152508a8481518110611f4f57611f4f614a5e565b60200260200101819052508280611f6590614ba2565b935050505b80611f7481614ba2565b915050611e16565b505060029093015494505050821190505b9450945094915050565b600260015403611fe95760405162461bcd60e51b815260206004820152601f60248201527f5265656e7472616e637947756172643a207265656e7472616e742063616c6c006044820152606401611c30565b6002600155565b60025460ff16156120365760405162461bcd60e51b815260206004820152601060248201526f14185d5cd8589b194e881c185d5cd95960821b6044820152606401611c30565b565b8060405163d647364f60e01b8152600401611c309190614b7d565b80604051621d3e7f60e01b8152600401611c309190614b7d565b5f90815260209190915260409020600a01546001600160a01b031690565b5f835f01838360405161209f929190614851565b9081526040519081900360200190206003015460ff1690509392505050565b8060405163a1b63ceb60e01b8152600401611c309190614b7d565b5f8460020184846040516120ee929190614851565b90815260408051602092819003830190205f858152925290205460ff1690505b949350505050565b5f805b60048601548110156122e6575f8181526005870160205260408120905b81548110156122dc57868660405161214f929190614851565b604051809103902082828154811061216957612169614a5e565b905f5260205f2090600502015f016040516121849190614b18565b6040518091039020036122d457815461219f90600190614a4b565b811461225657815482906121b590600190614a4b565b815481106121c5576121c5614a5e565b905f5260205f2090600502018282815481106121e3576121e3614a5e565b5f9182526020909120600590910201806121fd8382614c12565b5060018281015490820180546001600160a01b0319166001600160a01b0390921691909117905560028083015490820155600380830154908201805460ff909216151560ff199092169190911790556004918201549101555b8180548061226657612266614ce1565b5f828152602081205f199092019160058302019061228482826141bb565b50600181810180546001600160a01b03191690555f6002830181905560038301805460ff1916905560049092019190915591556122c2908690613aae565b6002890155506001925061210e915050565b600101612136565b5050600101612119565b505f95945050505050565b80604051630313cb6760e61b8152600401611c309190614b7d565b5f81815260066020908152604080832060049092528220600282015491929091900361233b5761083681613ab9565b6001600582015460ff1660028111156123565761235661463f565b1480156123725750600381015461236f90610e10614b8f565b42115b156108365760058101805460ff191690555f600382018190556004909101555050565b5f80865f0186866040516123aa929190614851565b908152604051908190036020018120600301805492151560ff19909316929092179091555f9060028801906123e29088908890614851565b90815260200160405180910390205f8581526020019081526020015f205f6101000a81548160ff0219169083151502179055506124258286868560020154612116565b9695505050505050565b5f818152602083905260409020600301541561120f575f81815260208390526040812060030180549161246183614cf5565b91905055505050565b6124726140ea565b5f8281526020848152604091829020825161016081019093528054835260018101805491928401916124a390614a72565b80601f01602080910402602001604051908101604052809291908181526020018280546124cf90614a72565b801561251a5780601f106124f15761010080835404028352916020019161251a565b820191905f5260205f20905b8154815290600101906020018083116124fd57829003601f168201915b5050505050815260200160028201805461253390614a72565b80601f016020809104026020016040519081016040528092919081815260200182805461255f90614a72565b80156125aa5780601f10612581576101008083540402835291602001916125aa565b820191905f5260205f20905b81548152906001019060200180831161258d57829003601f168201915b50505091835250506003820154602082015260048201546040820152600582015460609091019060ff1660028111156125e5576125e561463f565b60028111156125f6576125f661463f565b81526020016006820154815260200160078201805461261490614a72565b80601f016020809104026020016040519081016040528092919081815260200182805461264090614a72565b801561268b5780601f106126625761010080835404028352916020019161268b565b820191905f5260205f20905b81548152906001019060200180831161266e57829003601f168201915b50505091835250506008820154602082015260098201546040820152600a909101546001600160a01b03166060909101529392505050565b60038201545f9060ff166127115760405163a1b63ceb60e01b8152602060048201526014602482015273446576696365206973206e6f742061637469766560601b6044820152606401611c30565b82546001600160a01b0383811691161461275f5760405163a1b63ceb60e01b815260206004820152600e60248201526d24b73b30b634b21039b2b73232b960911b6044820152606401611c30565b50600192915050565b6127728183614b8f565b83108061277e57508183145b156108365760405163a1b63ceb60e01b815260206004820152602560248201527f457865637574696f6e20636f6f6c646f776e20706572696f64206e6f7420656c604482015264185c1cd95960da1b6064820152608401611c30565b640100000000811061282f5760405163a1b63ceb60e01b815260206004820152601760248201527f457865637574696f6e206c696d697420726561636865640000000000000000006044820152606401611c30565b61283b60015f19614a4b565b8110610b835760405162461bcd60e51b815260206004820181905260248201527f457865637574696f6e20636f756e74657220776f756c64206f766572666c6f776044820152606401611c30565b6040515f904290829086906128a19087908790614851565b9081526040519081900360200190205490505f6128bf826001614b8f565b9050828760010187876040516128d6929190614851565b90815260405190819003602001812091909155819088906128fa9089908990614851565b90815260405190819003602001902055925050509392505050565b5f8484604051612926929190614851565b60408051918290039091205f8181526020859052919091205460048801549192509081106129555750506129e2565b5f8181526005880160205260408120905b81548110156129dd578382828154811061298257612982614a5e565b905f5260205f2090600502015f0160405161299d9190614b18565b6040518091039020036129d557858282815481106129bd576129bd614a5e565b905f5260205f209060050201600401819055506129dd565b600101612966565b505050505b5050505050565b610b838133613af7565b5f6129fe8383610fa0565b612a7b575f838152602081815260408083206001600160a01b03861684529091529020805460ff19166001179055612a333390565b6001600160a01b0316826001600160a01b0316847f2f8788117e7eff1d82e926ec794901d17c78024a50270940304540a733656f0d60405160405180910390a45060016105db565b505f6105db565b5f612a8d8383610fa0565b15612a7b575f838152602081815260408083206001600160a01b0386168085529252808320805460ff1916905551339286917ff6391f5c32d9c69d2a47ea670b442974b53935d1edc7fd64eb21e047a839171b9190a45060016105db565b6001600160a01b0381165f9081526001808501602090815260408084208685529283019091529091205460ff16612b595760405162461bcd60e51b815260206004820152601260248201527115dbdc9ad99b1bddc81b9bdd08199bdd5b9960721b6044820152606401611c30565b5f83815260038201602052604090205460ff1615612bac5760405162461bcd60e51b815260206004820152601060248201526f105b1c9958591e48185c98da1a5d995960821b6044820152606401611c30565b5f5b8154811015612c685783825f018281548110612bcc57612bcc614a5e565b905f5260205f20015403612c60578154612be890600190614a4b565b8114612c375781548290612bfe90600190614a4b565b81548110612c0e57612c0e614a5e565b905f5260205f200154825f018281548110612c2b57612c2b614a5e565b5f918252602090912001555b8154829080612c4857612c48614ce1565b600190038181905f5260205f20015f90559055612c68565b600101612bae565b505f838152600382016020526040808220805460ff19166001179055516001600160a01b0384169185917f3627fef36ff2b68661b72d09c44779bf195e068a3cc13f8a9d0eec173558188c9190a350505050565b612cc4613b30565b6002805460ff191690557f5db9ee0a495bf2e6ff9c91a7834c1ba4fdd244a5e8aa4e537bd38aeae4b073aa335b6040516001600160a01b03909116815260200160405180910390a1565b82515f03612d275780604051602001611c099190614d0a565b81835111156108365780604051602001611c099190614d35565b81831080612d4e57508083115b156108365760405163a1b63ceb60e01b815260206004820152601a60248201527f496e76616c696420657865637574696f6e20696e74657276616c0000000000006044820152606401611c30565b83515f9081526020869052604081206004015415612df257604051636691044960e01b8152602060048201526012602482015271576f726b666c6f772049442065786973747360701b6044820152606401611c30565b604051806101600160405280865f0151815260200186602001518152602001866040015181526020015f81526020014281526020015f6002811115612e3957612e3961463f565b81526020018481526020018660600151815260200183815260200186608001518152602001856001600160a01b0316815250865f015f875f015181526020019081526020015f205f820151815f01556020820151816001019081612e9d9190614d63565b5060408201516002820190612eb29082614d63565b50606082015160038201556080820151600482015560a082015160058201805460ff19166001836002811115612eea57612eea61463f565b021790555060c0820151600682015560e08201516007820190612f0d9082614d63565b506101008201516008820155610120820151600982015561014090910151600a90910180546001600160a01b0319166001600160a01b039092169190911790558451602086015160608701516040517f6df915c5af2c5e4d6e9906fc27dfb18bb42b67d03e5cdb863393dea18a7c703392612f8c929091899190614e09565b60405180910390a2505091519392505050565b5f836004018383604051612fb4929190614851565b908152604051908190036020019020546001600160a01b031690509392505050565b5f836003018383604051612feb929190614851565b9081526040519081900360200181205460ff16159060038601906130129086908690614851565b908152604051908190036020018120805492151560ff199093169290921790915560038501906130459085908590614851565b9081526040519081900360200190205460ff1690509392505050565b6001600160a01b0381165f90815260018501602052604081206060919081908161308c876014613a9f565b90505f8083600201546001600160401b038111156130ac576130ac6148a2565b6040519080825280602002602001820160405280156130d5578160200160208202803683370190505b50905060015b84600201548111613157575f81815260018601602052604090205460ff16801561311457505f81815260038601602052604090205460ff165b15613145578082848151811061312c5761312c614a5e565b60209081029190910101528261314181614ba2565b9350505b8061314f81614ba2565b9150506130db565b50895f61316d6131678684614b8f565b85613a9f565b9050838210613198575050604080515f808252602082019092529750919550909350611f8d92505050565b6131a28282614a4b565b6001600160401b038111156131b9576131b96148a2565b6040519080825280602002602001820160405280156131e2578160200160208202803683370190505b5098505f5b6131f18383614a4b565b81101561324057836132038285614b8f565b8151811061321357613213614a5e565b60200260200101518a828151811061322d5761322d614a5e565b60209081029190910101526001016131e7565b5092965050508411925050509450945094915050565b61325e611ff0565b6002805460ff191660011790557f62e78cea01bee320cd4e420270b5ea74000d11b0c9f74754ebdbfc544b05a258612cf13390565b80821061120f5760405163a1b63ceb60e01b815260206004820152601760248201527f496e76616c696420706172746974696f6e20696e6465780000000000000000006044820152606401611c30565b5f82815260066020908152604080832084845260050190915281208054606092906001600160401b0381111561331b5761331b6148a2565b60405190808252806020026020018201604052801561335457816020015b613341614156565b8152602001906001900390816133395790505b5090505f5b82548110156134785782818154811061337457613374614a5e565b905f5260205f2090600502016040518060a00160405290815f8201805461339a90614a72565b80601f01602080910402602001604051908101604052809291908181526020018280546133c690614a72565b80156134115780601f106133e857610100808354040283529160200191613411565b820191905f5260205f20905b8154815290600101906020018083116133f457829003601f168201915b505050918352505060018201546001600160a01b0316602082015260028201546040820152600382015460ff1615156060820152600490910154608090910152825183908390811061346557613465614a5e565b6020908102919091010152600101613359565b50949350505050565b6001600160a01b0381165f90815260018085016020908152604080842086855292830190915282205460ff1680156134c857505f84815260038201602052604090205460ff165b95945050505050565b6001600160a01b0381165f9081526001830160205260408120600281015482036134fe575f9150506105db565b5f61350e82600201546064613a9f565b90505f60015b82811161356e575f81815260018501602052604090205460ff16801561354957505f81815260038501602052604090205460ff165b1561355c578161355881614ba2565b9250505b8061356681614ba2565b915050613514565b5095945050505050565b5f836003018383604051613045929190614851565b80821061120f5760405163a1b63ceb60e01b815260206004820152601460248201527311195d9a58d9481b1a5b5a5d081c995858da195960621b6044820152606401611c30565b6135dc614156565b5f82815260068801602090815260408083208054600160ff199182168117909255818c0190935292819020805490921683179091555160028901906136249089908990614851565b90815260408051602092819003830181205f88815293529120805460ff191692151592909217909155849060048901906136619089908990614851565b908152604080516020928190038301902080546001600160a01b0319166001600160a01b039485161790559186165f90815260058a01909152206136a6868883614e3c565b505f875f0187876040516136bb929190614851565b908152604080516020928190038301812080546001600160a01b0319166001600160a01b038a16178155426001808301829055600283019190915560038201805460ff1990811690921790555f88815260068e01865284902080549091169055601f8a01849004909302810160c090810190925260a081018981529293509182918a908a90819085018382808284375f9201829052509385525050506001600160a01b0388166020830152426040830181905260608301919091526080909101529150509695505050505050565b5f81815260208390526040812060030180549161246183614ba2565b5f828152600660205260409020805483919060ff16156137ff5760788160010154426137d19190614a4b565b10156137f05760405163f5f519bf60e01b815260040160405180910390fd5b805460ff191681555f60018201555b805460ff191660019081178255429082015560405182907fa2963244bbaf794ba45a53b52ed841e95b90d490e74552eec24f9691454ad8cf905f90a25f8481526006602090815260408083206004909252909120600282015415801590613875575060035460028201546138739042614a4b565b115b15613886576138848287613b79565b505b5f61389083613f26565b9050600a81106138b357604051634d4f62ad60e11b815260040160405180910390fd5b5f81815260058085016020908152604083208054600181018255908452922088518993909202019081906138e79082614d63565b506020828101516001830180546001600160a01b0319166001600160a01b03909216919091179055604080840151600280850191909155606085015160038501805460ff191691151591909117905560809094015160049093019290925588518051908201205f908152600590915290812083905590840180549161396b83614ba2565b9091555050835460ff1916845550506040518391507f5a12de052bebf77870ed9580623033a296d0a68587150e69efcb93b4a2619ca7905f90a250505050565b6139b6838383612d41565b5f8481526020868152604091829020600901859055905184815285917f76db966edafdf2bed93a433ccd1a363344bed4383f40178727cb1ade6eefafc8910160405180910390a25050505050565b5f818152600660205260409020805460ff16613a335760405163eac3aa0b60e01b815260040160405180910390fd5b60788160010154613a449190614b8f565b4211613a635760405163a7550c3f60e01b815260040160405180910390fd5b805460ff191681555f6001820181905560405183917f5a12de052bebf77870ed9580623033a296d0a68587150e69efcb93b4a2619ca791a25050565b5f828218828410028218610a83565b5f610a838284614a4b565b5f808255600180830182905542600280850191909155600384018390556004840192909255600583018054909160ff1990911690835b021790555050565b613b018282610fa0565b61120f5760405163e2517d3f60e01b81526001600160a01b038216600482015260248101839052604401611c30565b60025460ff166120365760405162461bcd60e51b815260206004820152601460248201527314185d5cd8589b194e881b9bdd081c185d5cd95960621b6044820152606401611c30565b5f8181526004602052604081206001600582015460ff166002811115613ba157613ba161463f565b148015613bbe57506003810154613bba90610e10614b8f565b4211155b15613bdc57604051637527577760e11b815260040160405180910390fd5b6032816004015410613bfb57613bf181613ffd565b60019150506105db565b5f5a90505f8060035442613c0f9190614a4b565b90506001600585015460ff166002811115613c2c57613c2c61463f565b14613c3a57613c3a84614027565b83545b600488015481108015613c505750601483105b8015613c68575062030d405a613c669086614a4b565b105b15613eeb575f818152600589016020526040902060018601545b815481108015613c925750601485105b8015613caa575062030d405a613ca89088614a4b565b105b15613ece5783828281548110613cc257613cc2614a5e565b905f5260205f209060050201600401541015613ebc5788828281548110613ceb57613ceb614a5e565b905f5260205f2090600502015f01604051613d069190614b18565b60405180910390207fd7ac20a75fd3931f3ced99a513a0a4fd6324176a1f4af2e9e0ce70137a1082bf848481548110613d4157613d41614a5e565b905f5260205f2090600502016004015442604051613d69929190918252602082015260400190565b60405180910390a38154613d7f90600190614a4b565b811015613e375781548290613d9690600190614a4b565b81548110613da657613da6614a5e565b905f5260205f209060050201828281548110613dc457613dc4614a5e565b5f918252602090912060059091020180613dde8382614c12565b5060018281015490820180546001600160a01b0319166001600160a01b0390921691909117905560028083015490820155600380830154908201805460ff909216151560ff199092169190911790556004918201549101555b81805480613e4757613e47614ce1565b5f828152602081205f1990920191600583020190613e6582826141bb565b506001810180546001600160a01b03191690555f600280830182905560038301805460ff19169055600490920181905591909255908b01805491613ea883614cf5565b91905055508480613eb890614ba2565b9550505b80613ec681614ba2565b915050613c82565b50508085555f600186015580613ee381614ba2565b915050613c3d565b506004870154613efd90600190614a4b565b845410613f1a57613f0d84613ffd565b60019450505050506105db565b505f9695505050505050565b5f805b6004830154811015613f9557826004018181548110613f4a57613f4a614a5e565b5f91825260209091206002600390920201015460ff16158015613f7c57505f8181526005840160205260409020546064115b15613f8d5760039092018290555090565b600101613f29565b505f5b6004830154811015613fce575f8181526005840160205260408120549003613fc65760039092018290555090565b600101613f98565b506004820154600a11613ff45760405163fe6d8f2960e01b815260040160405180910390fd5b6105db82614048565b60058101805460ff1916600290811790915542908201555f80825560018201819055600490910155565b4260038201555f60048201556005810180546001919060ff19168280613aef565b60048101805460408051606081018252428082525f602080840182815284860183815260018089018a5598845282842095516003808a0290970190815591519882019890985596516002909701805460ff19169715159790971790965591860184905582519081529384018190529282917fa713bca924de7ad0ab23342813a8bcc71a1f707ac80db4aba117e9037bbacfcf910160405180910390a292915050565b6040518061016001604052805f815260200160608152602001606081526020015f81526020015f81526020015f60028111156141285761412861463f565b81526020015f8152602001606081526020015f81526020015f81526020015f6001600160a01b031681525090565b6040518060a00160405280606081526020015f6001600160a01b031681526020015f81526020015f151581526020015f81525090565b6040518060a001604052805f8152602001606081526020015f151581526020015f151581526020015f81525090565b5080546141c790614a72565b5f825580601f106141d6575050565b601f0160209004905f5260205f2090810190610b8391905b80821115614201575f81556001016141ee565b5090565b80356001600160a01b0381168114610cd0575f80fd5b5f805f6060848603121561422d575f80fd5b833592506020840135915061424460408501614205565b90509250925092565b5f81518084528060208401602086015e5f602082860101526020601f19601f83011685010191505092915050565b5f606082016060835280865180835260808501915060808160051b8601019250602088015f5b8281101561430b57607f19878603018452815180518652602081015160a060208801526142d160a088018261424d565b60408381015115159089015260608084015115159089015260809283015192909701919091525060209384019391909101906001016142a1565b50505050602083018590528315156040840152905061210e565b5f60208284031215614335575f80fd5b81356001600160e01b031981168114610a83575f80fd5b5f8083601f84011261435c575f80fd5b5081356001600160401b03811115614372575f80fd5b602083019150836020828501011115614389575f80fd5b9250929050565b5f805f604084860312156143a2575f80fd5b8335925060208401356001600160401b038111156143be575f80fd5b6143ca8682870161434c565b9497909650939450505050565b5f602082840312156143e7575f80fd5b5035919050565b5f805f60408486031215614400575f80fd5b83356001600160401b03811115614415575f80fd5b6144218682870161434c565b909790965060209590950135949350505050565b5f8060408385031215614446575f80fd5b8235915061445660208401614205565b90509250929050565b5f6020828403121561446f575f80fd5b81356001600160401b03811115614484575f80fd5b820160a08185031215610a83575f80fd5b5f80602083850312156144a6575f80fd5b82356001600160401b038111156144bb575f80fd5b6144c78582860161434c565b90969095509350505050565b5f8151808452602084019350602083015f5b828110156145035781518652602095860195909101906001016144e5565b5093949350505050565b606081525f61451f60608301866144d3565b602083019490945250901515604090910152919050565b5f8060408385031215614547575f80fd5b50508035926020909101359150565b5f815160a0845261456a60a085018261424d565b6020848101516001600160a01b0316908601526040808501519086015260608085015115159086015260809384015193909401929092525090919050565b602081525f60c08201835160a0602085015281815180845260e08601915060e08160051b87010193506020830192505f5b8181101561460a5760df198786030183526145f5858551614556565b945060209384019392909201916001016145d9565b505050506020840151604084015260408401516060840152606084015160808401526080840151611a7b60a085018215159052565b634e487b7160e01b5f52602160045260245ffd5b6003811061466f57634e487b7160e01b5f52602160045260245ffd5b9052565b805182525f6020820151610160602085015261469361016085018261424d565b9050604083015184820360408601526146ac828261424d565b915050606083015160608501526080830151608085015260a08301516146d560a0860182614653565b5060c083015160c085015260e083015184820360e08601526146f7828261424d565b915050610100830151610100850152610120830151610120850152610140830151611a7b6101408601826001600160a01b03169052565b606081525f6147406060830186614673565b931515602083015250901515604090910152919050565b5f60208284031215614767575f80fd5b610a8382614205565b5f805f8060608587031215614783575f80fd5b8435935060208501356001600160401b0381111561479f575f80fd5b6147ab8782880161434c565b90945092506147be905060408601614205565b905092959194509250565b608081525f6147db6080830187614673565b85602084015284604084015282810360608401526147f981856144d3565b979650505050505050565b602081525f610a836020830184614556565b81835281816020850137505f828201602090810191909152601f909101601f19169091010190565b602081525f61210e602083018486614816565b818382375f9101908152919050565b5f808335601e19843603018112614875575f80fd5b8301803591506001600160401b0382111561488e575f80fd5b602001915036819003821315614389575f80fd5b634e487b7160e01b5f52604160045260245ffd5b60405160a081016001600160401b03811182821017156148d8576148d86148a2565b60405290565b5f82601f8301126148ed575f80fd5b81356001600160401b03811115614906576149066148a2565b604051601f8201601f19908116603f011681016001600160401b0381118282101715614934576149346148a2565b60405281815283820160200185101561494b575f80fd5b816020850160208301375f918101602001919091529392505050565b5f60a08236031215614977575f80fd5b61497f6148b6565b8235815260208301356001600160401b0381111561499b575f80fd5b6149a7368286016148de565b60208301525060408301356001600160401b038111156149c5575f80fd5b6149d1368286016148de565b60408301525060608301356001600160401b038111156149ef575f80fd5b6149fb368286016148de565b606083015250608092830135928101929092525090565b604081525f614a25604083018587614816565b90508215156020830152949350505050565b634e487b7160e01b5f52601160045260245ffd5b818103818111156105db576105db614a37565b634e487b7160e01b5f52603260045260245ffd5b600181811c90821680614a8657607f821691505b602082108103614aa457634e487b7160e01b5f52602260045260245ffd5b50919050565b5f8154614ab681614a72565b600182168015614acd5760018114614ae257614b0f565b60ff1983168652811515820286019350614b0f565b845f5260205f205f5b83811015614b0757815488820152600190910190602001614aeb565b505081860193505b50505092915050565b5f610a838284614aaa565b5f81518060208401855e5f93019283525090919050565b5f610a838284614b23565b5f614b508284614b23565b7f2063616e6e6f74206265207a65726f206164647265737300000000000000000081526017019392505050565b602081525f610a83602083018461424d565b808201808211156105db576105db614a37565b5f60018201614bb357614bb3614a37565b5060010190565b601f82111561083657805f5260205f20601f840160051c81016020851015614bdf5750805b601f840160051c820191505b818110156129e2575f8155600101614beb565b5f19600383901b1c191660019190911b1790565b818103614c1d575050565b614c278254614a72565b6001600160401b03811115614c3e57614c3e6148a2565b614c5281614c4c8454614a72565b84614bba565b5f601f821160018114614c7e575f8315614c6c5750848201545b614c768482614bfe565b8555506129e2565b5f8581526020808220868352908220601f198616925b83811015614cb45782860154825560019586019590910190602001614c94565b5085831015614cd157818501545f19600388901b60f8161c191681555b5050505050600190811b01905550565b634e487b7160e01b5f52603160045260245ffd5b5f81614d0357614d03614a37565b505f190190565b5f614d158284614b23565b6f2063616e6e6f7420626520656d70747960801b81526010019392505050565b5f614d408284614b23565b72040caf0c6cacac8e640dac2f040d8cadccee8d606b1b81526013019392505050565b81516001600160401b03811115614d7c57614d7c6148a2565b614d8a81614c4c8454614a72565b6020601f821160018114614dae575f8315614c6c575084820151614c768482614bfe565b5f84815260208120601f198516915b82811015614ddd5787850151825560209485019460019092019101614dbd565b5084821015614dfa57868401515f19600387901b60f8161c191681555b50505050600190811b01905550565b606081525f614e1b606083018661424d565b6001600160a01b03851660208401528281036040840152612425818561424d565b6001600160401b03831115614e5357614e536148a2565b614e6783614e618354614a72565b83614bba565b5f601f841160018114614e93575f8515614e815750838201355b614e8b8682614bfe565b8455506129e2565b5f83815260208120601f198716915b82811015614ec25786850135825560209485019460019092019101614ea2565b5086821015614ede575f1960f88860031b161c19848701351681555b505060018560011b018355505050505056fe44657669636520726567697374726174696f6e20616c726561647920696e2070726f6772657373a2646970667358221220ecddd78422e40a031d7d7242d05774b07932a318b58a1a976c44b9a5bf6b38fb64736f6c634300081a003365d7a28e3265b37a6474929f336521b332c1681b933f6cb9f3376673440d862a",
			"opcodes": "PUSH1 0x80 PUSH1 0x40 MSTORE PUSH3 0x76A700 PUSH1 0x3 SSTORE CALLVALUE DUP1 ISZERO PUSH2 0x16 JUMPI PUSH0 DUP1 REVERT JUMPDEST POP PUSH1 0x1 DUP1 SSTORE PUSH1 0x2 DUP1 SLOAD PUSH1 0xFF NOT AND SWAP1 SSTORE PUSH2 0x2F PUSH0 CALLER PUSH2 0xB9 JUMP JUMPDEST POP PUSH2 0x47 PUSH0 DUP1 MLOAD PUSH1 0x20 PUSH2 0x5106 DUP4 CODECOPY DUP2 MLOAD SWAP2 MSTORE PUSH0 PUSH2 0x162 JUMP JUMPDEST PUSH2 0x71 PUSH32 0x22435ED027EDF5F902DC0093FBC24CDB50C05B5FD5F311B78C67C1CBAFF60E13 PUSH0 PUSH2 0x162 JUMP JUMPDEST PUSH2 0x88 PUSH0 DUP1 MLOAD PUSH1 0x20 PUSH2 0x5106 DUP4 CODECOPY DUP2 MLOAD SWAP2 MSTORE CALLER PUSH2 0xB9 JUMP JUMPDEST POP PUSH2 0xB3 PUSH32 0x22435ED027EDF5F902DC0093FBC24CDB50C05B5FD5F311B78C67C1CBAFF60E13 CALLER PUSH2 0xB9 JUMP JUMPDEST POP PUSH2 0x1AC JUMP JUMPDEST PUSH0 DUP3 DUP2 MSTORE PUSH1 0x20 DUP2 DUP2 MSTORE PUSH1 0x40 DUP1 DUP4 KECCAK256 PUSH1 0x1 PUSH1 0x1 PUSH1 0xA0 SHL SUB DUP6 AND DUP5 MSTORE SWAP1 SWAP2 MSTORE DUP2 KECCAK256 SLOAD PUSH1 0xFF AND PUSH2 0x159 JUMPI PUSH0 DUP4 DUP2 MSTORE PUSH1 0x20 DUP2 DUP2 MSTORE PUSH1 0x40 DUP1 DUP4 KECCAK256 PUSH1 0x1 PUSH1 0x1 PUSH1 0xA0 SHL SUB DUP7 AND DUP5 MSTORE SWAP1 SWAP2 MSTORE SWAP1 KECCAK256 DUP1 SLOAD PUSH1 0xFF NOT AND PUSH1 0x1 OR SWAP1 SSTORE PUSH2 0x111 CALLER SWAP1 JUMP JUMPDEST PUSH1 0x1 PUSH1 0x1 PUSH1 0xA0 SHL SUB AND DUP3 PUSH1 0x1 PUSH1 0x1 PUSH1 0xA0 SHL SUB AND DUP5 PUSH32 0x2F8788117E7EFF1D82E926EC794901D17C78024A50270940304540A733656F0D PUSH1 0x40 MLOAD PUSH1 0x40 MLOAD DUP1 SWAP2 SUB SWAP1 LOG4 POP PUSH1 0x1 PUSH2 0x15C JUMP JUMPDEST POP PUSH0 JUMPDEST SWAP3 SWAP2 POP POP JUMP JUMPDEST PUSH0 DUP3 DUP2 MSTORE PUSH1 0x20 DUP2 SWAP1 MSTORE PUSH1 0x40 DUP1 DUP3 KECCAK256 PUSH1 0x1 ADD DUP1 SLOAD SWAP1 DUP5 SWAP1 SSTORE SWAP1 MLOAD SWAP1 SWAP2 DUP4 SWAP2 DUP4 SWAP2 DUP7 SWAP2 PUSH32 0xBD79B86FFE0AB8E8776151514217CD7CACD52C909F66475C3AF44E129F0B00FF SWAP2 SWAP1 LOG4 POP POP POP JUMP JUMPDEST PUSH2 0x4F4D DUP1 PUSH2 0x1B9 PUSH0 CODECOPY PUSH0 RETURN INVALID PUSH1 0x80 PUSH1 0x40 MSTORE CALLVALUE DUP1 ISZERO PUSH2 0xF JUMPI PUSH0 DUP1 REVERT JUMPDEST POP PUSH1 0x4 CALLDATASIZE LT PUSH2 0x1FD JUMPI PUSH0 CALLDATALOAD PUSH1 0xE0 SHR DUP1 PUSH4 0x7D592292 GT PUSH2 0x114 JUMPI DUP1 PUSH4 0xADA8F919 GT PUSH2 0xA9 JUMPI DUP1 PUSH4 0xD547741F GT PUSH2 0x79 JUMPI DUP1 PUSH4 0xD547741F EQ PUSH2 0x4B9 JUMPI DUP1 PUSH4 0xDF7459F0 EQ PUSH2 0x4CC JUMPI DUP1 PUSH4 0xE88C754C EQ PUSH2 0x4EF JUMPI DUP1 PUSH4 0xEC6A8EA1 EQ PUSH2 0x502 JUMPI DUP1 PUSH4 0xFB0652EA EQ PUSH2 0x522 JUMPI PUSH0 DUP1 REVERT JUMPDEST DUP1 PUSH4 0xADA8F919 EQ PUSH2 0x46D JUMPI DUP1 PUSH4 0xB0DF789A EQ PUSH2 0x480 JUMPI DUP1 PUSH4 0xB74DABBE EQ PUSH2 0x493 JUMPI DUP1 PUSH4 0xBF968A1B EQ PUSH2 0x4A6 JUMPI PUSH0 DUP1 REVERT JUMPDEST DUP1 PUSH4 0xA1ED3E0F GT PUSH2 0xE4 JUMPI DUP1 PUSH4 0xA1ED3E0F EQ PUSH2 0x411 JUMPI DUP1 PUSH4 0xA217FDDF EQ PUSH2 0x431 JUMPI DUP1 PUSH4 0xAAC43B2A EQ PUSH2 0x438 JUMPI DUP1 PUSH4 0xABC2F065 EQ PUSH2 0x45A JUMPI PUSH0 DUP1 REVERT JUMPDEST DUP1 PUSH4 0x7D592292 EQ PUSH2 0x3B5 JUMPI DUP1 PUSH4 0x7FEB4CDC EQ PUSH2 0x3D4 JUMPI DUP1 PUSH4 0x8456CB59 EQ PUSH2 0x3F6 JUMPI DUP1 PUSH4 0x91D14854 EQ PUSH2 0x3FE JUMPI PUSH0 DUP1 REVERT JUMPDEST DUP1 PUSH4 0x3F189153 GT PUSH2 0x195 JUMPI DUP1 PUSH4 0x592EBBE9 GT PUSH2 0x165 JUMPI DUP1 PUSH4 0x592EBBE9 EQ PUSH2 0x35E JUMPI DUP1 PUSH4 0x5C975ABB EQ PUSH2 0x371 JUMPI DUP1 PUSH4 0x5FEB08B2 EQ PUSH2 0x37C JUMPI DUP1 PUSH4 0x68BA4EAF EQ PUSH2 0x38F JUMPI DUP1 PUSH4 0x6F6E326D EQ PUSH2 0x3A2 JUMPI PUSH0 DUP1 REVERT JUMPDEST DUP1 PUSH4 0x3F189153 EQ PUSH2 0x2D6 JUMPI DUP1 PUSH4 0x3F4BA83A EQ PUSH2 0x2E9 JUMPI DUP1 PUSH4 0x50C8F239 EQ PUSH2 0x2F1 JUMPI DUP1 PUSH4 0x584DDAF0 EQ PUSH2 0x34B JUMPI PUSH0 DUP1 REVERT JUMPDEST DUP1 PUSH4 0x248A9CA3 GT PUSH2 0x1D0 JUMPI DUP1 PUSH4 0x248A9CA3 EQ PUSH2 0x27B JUMPI DUP1 PUSH4 0x2DD98C45 EQ PUSH2 0x29D JUMPI DUP1 PUSH4 0x2F2FF15D EQ PUSH2 0x2B0 JUMPI DUP1 PUSH4 0x36568ABE EQ PUSH2 0x2C3 JUMPI PUSH0 DUP1 REVERT JUMPDEST DUP1 PUSH4 0x1F857D2 EQ PUSH2 0x201 JUMPI DUP1 PUSH4 0x1FFC9A7 EQ PUSH2 0x22C JUMPI DUP1 PUSH4 0x7B4766B EQ PUSH2 0x24F JUMPI DUP1 PUSH4 0xD969F2C EQ PUSH2 0x264 JUMPI JUMPDEST PUSH0 DUP1 REVERT JUMPDEST PUSH2 0x214 PUSH2 0x20F CALLDATASIZE PUSH1 0x4 PUSH2 0x421B JUMP JUMPDEST PUSH2 0x552 JUMP JUMPDEST PUSH1 0x40 MLOAD PUSH2 0x223 SWAP4 SWAP3 SWAP2 SWAP1 PUSH2 0x427B JUMP JUMPDEST PUSH1 0x40 MLOAD DUP1 SWAP2 SUB SWAP1 RETURN JUMPDEST PUSH2 0x23F PUSH2 0x23A CALLDATASIZE PUSH1 0x4 PUSH2 0x4325 JUMP JUMPDEST PUSH2 0x5AB JUMP JUMPDEST PUSH1 0x40 MLOAD SWAP1 ISZERO ISZERO DUP2 MSTORE PUSH1 0x20 ADD PUSH2 0x223 JUMP JUMPDEST PUSH2 0x262 PUSH2 0x25D CALLDATASIZE PUSH1 0x4 PUSH2 0x4390 JUMP JUMPDEST PUSH2 0x5E1 JUMP JUMPDEST STOP JUMPDEST PUSH2 0x26D PUSH1 0x3 SLOAD DUP2 JUMP JUMPDEST PUSH1 0x40 MLOAD SWAP1 DUP2 MSTORE PUSH1 0x20 ADD PUSH2 0x223 JUMP JUMPDEST PUSH2 0x26D PUSH2 0x289 CALLDATASIZE PUSH1 0x4 PUSH2 0x43D7 JUMP JUMPDEST PUSH0 SWAP1 DUP2 MSTORE PUSH1 0x20 DUP2 SWAP1 MSTORE PUSH1 0x40 SWAP1 KECCAK256 PUSH1 0x1 ADD SLOAD SWAP1 JUMP JUMPDEST PUSH2 0x26D PUSH2 0x2AB CALLDATASIZE PUSH1 0x4 PUSH2 0x43EE JUMP JUMPDEST PUSH2 0x83B JUMP JUMPDEST PUSH2 0x262 PUSH2 0x2BE CALLDATASIZE PUSH1 0x4 PUSH2 0x4435 JUMP JUMPDEST PUSH2 0xA8A JUMP JUMPDEST PUSH2 0x262 PUSH2 0x2D1 CALLDATASIZE PUSH1 0x4 PUSH2 0x4435 JUMP JUMPDEST PUSH2 0xAB4 JUMP JUMPDEST PUSH2 0x262 PUSH2 0x2E4 CALLDATASIZE PUSH1 0x4 PUSH2 0x43D7 JUMP JUMPDEST PUSH2 0xAE7 JUMP JUMPDEST PUSH2 0x262 PUSH2 0xB86 JUMP JUMPDEST PUSH2 0x329 PUSH2 0x2FF CALLDATASIZE PUSH1 0x4 PUSH2 0x43D7 JUMP JUMPDEST PUSH1 0x6 PUSH1 0x20 MSTORE PUSH0 SWAP1 DUP2 MSTORE PUSH1 0x40 SWAP1 KECCAK256 DUP1 SLOAD PUSH1 0x1 DUP3 ADD SLOAD PUSH1 0x2 DUP4 ADD SLOAD PUSH1 0x3 SWAP1 SWAP4 ADD SLOAD PUSH1 0xFF SWAP1 SWAP3 AND SWAP3 SWAP1 SWAP2 DUP5 JUMP JUMPDEST PUSH1 0x40 DUP1 MLOAD SWAP5 ISZERO ISZERO DUP6 MSTORE PUSH1 0x20 DUP6 ADD SWAP4 SWAP1 SWAP4 MSTORE SWAP2 DUP4 ADD MSTORE PUSH1 0x60 DUP3 ADD MSTORE PUSH1 0x80 ADD PUSH2 0x223 JUMP JUMPDEST PUSH2 0x26D PUSH2 0x359 CALLDATASIZE PUSH1 0x4 PUSH2 0x445F JUMP JUMPDEST PUSH2 0xBB8 JUMP JUMPDEST PUSH2 0x262 PUSH2 0x36C CALLDATASIZE PUSH1 0x4 PUSH2 0x43D7 JUMP JUMPDEST PUSH2 0xCD5 JUMP JUMPDEST PUSH1 0x2 SLOAD PUSH1 0xFF AND PUSH2 0x23F JUMP JUMPDEST PUSH2 0x262 PUSH2 0x38A CALLDATASIZE PUSH1 0x4 PUSH2 0x4495 JUMP JUMPDEST PUSH2 0xD83 JUMP JUMPDEST PUSH2 0x23F PUSH2 0x39D CALLDATASIZE PUSH1 0x4 PUSH2 0x4495 JUMP JUMPDEST PUSH2 0xEBA JUMP JUMPDEST PUSH2 0x23F PUSH2 0x3B0 CALLDATASIZE PUSH1 0x4 PUSH2 0x4495 JUMP JUMPDEST PUSH2 0xEEA JUMP JUMPDEST PUSH2 0x26D PUSH2 0x3C3 CALLDATASIZE PUSH1 0x4 PUSH2 0x43D7 JUMP JUMPDEST PUSH1 0x5 PUSH1 0x20 MSTORE PUSH0 SWAP1 DUP2 MSTORE PUSH1 0x40 SWAP1 KECCAK256 SLOAD DUP2 JUMP JUMPDEST PUSH2 0x3E7 PUSH2 0x3E2 CALLDATASIZE PUSH1 0x4 PUSH2 0x421B JUMP JUMPDEST PUSH2 0xF24 JUMP JUMPDEST PUSH1 0x40 MLOAD PUSH2 0x223 SWAP4 SWAP3 SWAP2 SWAP1 PUSH2 0x450D JUMP JUMPDEST PUSH2 0x262 PUSH2 0xF6E JUMP JUMPDEST PUSH2 0x23F PUSH2 0x40C CALLDATASIZE PUSH1 0x4 PUSH2 0x4435 JUMP JUMPDEST PUSH2 0xFA0 JUMP JUMPDEST PUSH2 0x424 PUSH2 0x41F CALLDATASIZE PUSH1 0x4 PUSH2 0x4536 JUMP JUMPDEST PUSH2 0xFC8 JUMP JUMPDEST PUSH1 0x40 MLOAD PUSH2 0x223 SWAP2 SWAP1 PUSH2 0x45A8 JUMP JUMPDEST PUSH2 0x26D PUSH0 DUP2 JUMP JUMPDEST PUSH2 0x44B PUSH2 0x446 CALLDATASIZE PUSH1 0x4 PUSH2 0x43D7 JUMP JUMPDEST PUSH2 0x10B4 JUMP JUMPDEST PUSH1 0x40 MLOAD PUSH2 0x223 SWAP4 SWAP3 SWAP2 SWAP1 PUSH2 0x472E JUMP JUMPDEST PUSH2 0x26D PUSH2 0x468 CALLDATASIZE PUSH1 0x4 PUSH2 0x4757 JUMP JUMPDEST PUSH2 0x1152 JUMP JUMPDEST PUSH2 0x262 PUSH2 0x47B CALLDATASIZE PUSH1 0x4 PUSH2 0x4757 JUMP JUMPDEST PUSH2 0x118D JUMP JUMPDEST PUSH2 0x262 PUSH2 0x48E CALLDATASIZE PUSH1 0x4 PUSH2 0x4770 JUMP JUMPDEST PUSH2 0x1213 JUMP JUMPDEST PUSH2 0x262 PUSH2 0x4A1 CALLDATASIZE PUSH1 0x4 PUSH2 0x4536 JUMP JUMPDEST PUSH2 0x1656 JUMP JUMPDEST PUSH2 0x262 PUSH2 0x4B4 CALLDATASIZE PUSH1 0x4 PUSH2 0x43D7 JUMP JUMPDEST PUSH2 0x16CC JUMP JUMPDEST PUSH2 0x262 PUSH2 0x4C7 CALLDATASIZE PUSH1 0x4 PUSH2 0x4435 JUMP JUMPDEST PUSH2 0x16DF JUMP JUMPDEST PUSH2 0x4DF PUSH2 0x4DA CALLDATASIZE PUSH1 0x4 PUSH2 0x43D7 JUMP JUMPDEST PUSH2 0x1703 JUMP JUMPDEST PUSH1 0x40 MLOAD PUSH2 0x223 SWAP5 SWAP4 SWAP3 SWAP2 SWAP1 PUSH2 0x47C9 JUMP JUMPDEST PUSH2 0x262 PUSH2 0x4FD CALLDATASIZE PUSH1 0x4 PUSH2 0x43D7 JUMP JUMPDEST PUSH2 0x1811 JUMP JUMPDEST PUSH2 0x515 PUSH2 0x510 CALLDATASIZE PUSH1 0x4 PUSH2 0x4390 JUMP JUMPDEST PUSH2 0x185E JUMP JUMPDEST PUSH1 0x40 MLOAD PUSH2 0x223 SWAP2 SWAP1 PUSH2 0x4804 JUMP JUMPDEST PUSH2 0x535 PUSH2 0x530 CALLDATASIZE PUSH1 0x4 PUSH2 0x4757 JUMP JUMPDEST PUSH2 0x1A83 JUMP JUMPDEST PUSH1 0x40 DUP1 MLOAD SWAP4 DUP5 MSTORE PUSH1 0x20 DUP5 ADD SWAP3 SWAP1 SWAP3 MSTORE ISZERO ISZERO SWAP1 DUP3 ADD MSTORE PUSH1 0x60 ADD PUSH2 0x223 JUMP JUMPDEST PUSH1 0x60 PUSH0 DUP1 PUSH2 0x585 DUP5 PUSH1 0x40 MLOAD DUP1 PUSH1 0x40 ADD PUSH1 0x40 MSTORE DUP1 PUSH1 0xD DUP2 MSTORE PUSH1 0x20 ADD PUSH13 0x3BB7B935B33637BBA0B236B4B7 PUSH1 0x99 SHL DUP2 MSTORE POP PUSH2 0x1BEA JUMP JUMPDEST PUSH2 0x58F DUP7 DUP7 PUSH2 0x1C39 JUMP JUMPDEST PUSH2 0x59C PUSH1 0xE DUP8 DUP8 DUP8 PUSH2 0x1CC5 JUMP JUMPDEST SWAP3 POP SWAP3 POP SWAP3 POP SWAP4 POP SWAP4 POP SWAP4 SWAP1 POP JUMP JUMPDEST PUSH0 PUSH1 0x1 PUSH1 0x1 PUSH1 0xE0 SHL SUB NOT DUP3 AND PUSH4 0x7965DB0B PUSH1 0xE0 SHL EQ DUP1 PUSH2 0x5DB JUMPI POP PUSH4 0x1FFC9A7 PUSH1 0xE0 SHL PUSH1 0x1 PUSH1 0x1 PUSH1 0xE0 SHL SUB NOT DUP4 AND EQ JUMPDEST SWAP3 SWAP2 POP POP JUMP JUMPDEST PUSH2 0x5E9 PUSH2 0x1F97 JUMP JUMPDEST PUSH2 0x5F1 PUSH2 0x1FF0 JUMP JUMPDEST PUSH0 DUP4 DUP2 MSTORE PUSH1 0xE PUSH1 0x20 MSTORE PUSH1 0x40 SWAP1 KECCAK256 PUSH1 0x4 ADD SLOAD DUP4 SWAP1 PUSH2 0x640 JUMPI PUSH2 0x640 PUSH1 0x40 MLOAD DUP1 PUSH1 0x40 ADD PUSH1 0x40 MSTORE DUP1 PUSH1 0x17 DUP2 MSTORE PUSH1 0x20 ADD PUSH23 0x15DBDC9AD99B1BDDC8191BD95CC81B9BDD08195E1A5CDD PUSH1 0x4A SHL DUP2 MSTORE POP PUSH2 0x2038 JUMP JUMPDEST PUSH0 DUP5 DUP2 MSTORE PUSH1 0x10 PUSH1 0x20 MSTORE PUSH1 0x40 SWAP1 KECCAK256 SLOAD DUP5 SWAP1 PUSH1 0xFF AND ISZERO PUSH2 0x688 JUMPI PUSH2 0x688 PUSH1 0x40 MLOAD DUP1 PUSH1 0x40 ADD PUSH1 0x40 MSTORE DUP1 PUSH1 0xF DUP2 MSTORE PUSH1 0x20 ADD PUSH15 0x15DBDC9AD99B1BDDC81C185D5CD959 PUSH1 0x8A SHL DUP2 MSTORE POP PUSH2 0x2053 JUMP JUMPDEST DUP5 CALLER PUSH2 0x695 PUSH1 0xE DUP4 PUSH2 0x206D JUMP JUMPDEST PUSH1 0x1 PUSH1 0x1 PUSH1 0xA0 SHL SUB AND EQ PUSH2 0x6D2 JUMPI PUSH2 0x6D2 PUSH1 0x40 MLOAD DUP1 PUSH1 0x40 ADD PUSH1 0x40 MSTORE DUP1 PUSH1 0xE DUP2 MSTORE PUSH1 0x20 ADD PUSH14 0x139BDD08185D5D1A1BDC9A5E9959 PUSH1 0x92 SHL DUP2 MSTORE POP PUSH2 0x2053 JUMP JUMPDEST PUSH2 0x6DE PUSH1 0x7 DUP7 DUP7 PUSH2 0x208B JUMP JUMPDEST PUSH2 0x718 JUMPI PUSH2 0x718 PUSH1 0x40 MLOAD DUP1 PUSH1 0x40 ADD PUSH1 0x40 MSTORE DUP1 PUSH1 0x15 DUP2 MSTORE PUSH1 0x20 ADD PUSH21 0x11195D9A58D9481B9BDD081C9959DA5CDD195C9959 PUSH1 0x5A SHL DUP2 MSTORE POP PUSH2 0x20BE JUMP JUMPDEST PUSH2 0x725 PUSH1 0x7 DUP7 DUP7 DUP10 PUSH2 0x20D9 JUMP JUMPDEST PUSH2 0x760 JUMPI PUSH2 0x760 PUSH1 0x40 MLOAD DUP1 PUSH1 0x40 ADD PUSH1 0x40 MSTORE DUP1 PUSH1 0x16 DUP2 MSTORE PUSH1 0x20 ADD PUSH22 0x446576696365206E6F7420696E20776F726B666C6F77 PUSH1 0x50 SHL DUP2 MSTORE POP PUSH2 0x20BE JUMP JUMPDEST PUSH0 DUP7 DUP2 MSTORE PUSH1 0x6 PUSH1 0x20 MSTORE PUSH1 0x40 DUP2 KECCAK256 PUSH1 0x2 DUP2 ADD SLOAD SWAP1 SWAP2 SWAP1 PUSH2 0x784 SWAP1 DUP4 SWAP1 DUP10 SWAP1 DUP10 SWAP1 PUSH2 0x2116 JUMP JUMPDEST SWAP1 POP DUP1 PUSH2 0x7C1 JUMPI PUSH2 0x7C1 PUSH1 0x40 MLOAD DUP1 PUSH1 0x40 ADD PUSH1 0x40 MSTORE DUP1 PUSH1 0x15 DUP2 MSTORE PUSH1 0x20 ADD PUSH21 0x11195D9A58D9481C995B5BDD985B0819985A5B1959 PUSH1 0x5A SHL DUP2 MSTORE POP PUSH2 0x22F1 JUMP JUMPDEST PUSH2 0x7CA DUP9 PUSH2 0x230C JUMP JUMPDEST PUSH2 0x7D8 PUSH1 0x7 DUP9 DUP9 DUP12 DUP7 PUSH2 0x2395 JUMP JUMPDEST POP PUSH2 0x7E4 PUSH1 0xE DUP10 PUSH2 0x242F JUMP JUMPDEST CALLER PUSH1 0x1 PUSH1 0x1 PUSH1 0xA0 SHL SUB AND DUP9 PUSH32 0x7C60E8FA020B837CD1142E332837132074A30CF91BEAEBBCBB9E7533B7133A58 DUP10 DUP10 PUSH1 0x40 MLOAD PUSH2 0x820 SWAP3 SWAP2 SWAP1 PUSH2 0x483E JUMP JUMPDEST PUSH1 0x40 MLOAD DUP1 SWAP2 SUB SWAP1 LOG3 POP POP POP POP POP PUSH2 0x836 PUSH1 0x1 DUP1 SSTORE JUMP JUMPDEST POP POP POP JUMP JUMPDEST PUSH0 PUSH2 0x844 PUSH2 0x1F97 JUMP JUMPDEST PUSH2 0x84C PUSH2 0x1FF0 JUMP JUMPDEST PUSH0 DUP3 DUP2 MSTORE PUSH1 0x10 PUSH1 0x20 MSTORE PUSH1 0x40 SWAP1 KECCAK256 SLOAD DUP3 SWAP1 PUSH1 0xFF AND ISZERO PUSH2 0x894 JUMPI PUSH2 0x894 PUSH1 0x40 MLOAD DUP1 PUSH1 0x40 ADD PUSH1 0x40 MSTORE DUP1 PUSH1 0xF DUP2 MSTORE PUSH1 0x20 ADD PUSH15 0x15DBDC9AD99B1BDDC81C185D5CD959 PUSH1 0x8A SHL DUP2 MSTORE POP PUSH2 0x2053 JUMP JUMPDEST PUSH0 DUP4 DUP2 MSTORE PUSH1 0xE PUSH1 0x20 MSTORE PUSH1 0x40 SWAP1 KECCAK256 PUSH1 0x4 ADD SLOAD DUP4 SWAP1 PUSH2 0x8E3 JUMPI PUSH2 0x8E3 PUSH1 0x40 MLOAD DUP1 PUSH1 0x40 ADD PUSH1 0x40 MSTORE DUP1 PUSH1 0x17 DUP2 MSTORE PUSH1 0x20 ADD PUSH23 0x15DBDC9AD99B1BDDC8191BD95CC81B9BDD08195E1A5CDD PUSH1 0x4A SHL DUP2 MSTORE POP PUSH2 0x2038 JUMP JUMPDEST PUSH0 PUSH2 0x8EF PUSH1 0xE DUP7 PUSH2 0x246A JUMP JUMPDEST SWAP1 POP PUSH0 PUSH1 0x7 PUSH0 ADD DUP9 DUP9 PUSH1 0x40 MLOAD PUSH2 0x906 SWAP3 SWAP2 SWAP1 PUSH2 0x4851 JUMP JUMPDEST SWAP1 DUP2 MSTORE PUSH1 0x20 ADD PUSH1 0x40 MLOAD DUP1 SWAP2 SUB SWAP1 KECCAK256 SWAP1 POP PUSH2 0x920 DUP2 CALLER PUSH2 0x26C3 JUMP JUMPDEST POP PUSH1 0x40 MLOAD PUSH1 0x9 SWAP1 PUSH2 0x934 SWAP1 DUP11 SWAP1 DUP11 SWAP1 PUSH2 0x4851 JUMP JUMPDEST SWAP1 DUP2 MSTORE PUSH1 0x40 DUP1 MLOAD PUSH1 0x20 SWAP3 DUP2 SWAP1 SUB DUP4 ADD SWAP1 KECCAK256 PUSH0 DUP10 DUP2 MSTORE SWAP3 MSTORE SWAP1 KECCAK256 SLOAD PUSH1 0xFF AND PUSH2 0x993 JUMPI PUSH2 0x993 PUSH1 0x40 MLOAD DUP1 PUSH1 0x40 ADD PUSH1 0x40 MSTORE DUP1 PUSH1 0x1A DUP2 MSTORE PUSH1 0x20 ADD PUSH32 0x776F726B666C6F772076616C69646174696F6E206661696C6564000000000000 DUP2 MSTORE POP PUSH2 0x20BE JUMP JUMPDEST PUSH0 PUSH1 0x11 PUSH1 0x1 ADD DUP10 DUP10 PUSH1 0x40 MLOAD PUSH2 0x9A9 SWAP3 SWAP2 SWAP1 PUSH2 0x4851 JUMP JUMPDEST SWAP1 DUP2 MSTORE PUSH1 0x40 MLOAD SWAP1 DUP2 SWAP1 SUB PUSH1 0x20 ADD DUP2 KECCAK256 SLOAD SWAP2 POP PUSH0 SWAP1 PUSH1 0x11 SWAP1 PUSH2 0x9CD SWAP1 DUP13 SWAP1 DUP13 SWAP1 PUSH2 0x4851 JUMP JUMPDEST SWAP1 DUP2 MSTORE PUSH1 0x40 MLOAD SWAP1 DUP2 SWAP1 SUB PUSH1 0x20 ADD SWAP1 KECCAK256 SLOAD PUSH2 0x120 DUP6 ADD MLOAD SWAP1 SWAP2 POP PUSH2 0x9F1 TIMESTAMP DUP5 DUP4 PUSH2 0x2768 JUMP JUMPDEST PUSH2 0x9FA DUP3 PUSH2 0x27DA JUMP JUMPDEST PUSH0 PUSH2 0xA07 PUSH1 0x11 DUP14 DUP14 PUSH2 0x2889 JUMP JUMPDEST PUSH0 DUP12 DUP2 MSTORE PUSH1 0x6 PUSH1 0x20 MSTORE PUSH1 0x40 SWAP1 KECCAK256 SWAP1 SWAP2 POP PUSH2 0xA25 DUP2 DUP15 DUP15 TIMESTAMP PUSH1 0x5 PUSH2 0x2915 JUMP JUMPDEST DUP11 DUP14 DUP14 PUSH1 0x40 MLOAD PUSH2 0xA36 SWAP3 SWAP2 SWAP1 PUSH2 0x4851 JUMP JUMPDEST PUSH1 0x40 MLOAD SWAP1 DUP2 SWAP1 SUB DUP2 KECCAK256 DUP5 DUP3 MSTORE SWAP1 PUSH32 0xFF199341A680B0B35A4DC6D3160E44D2A5574AC10BF2955BCDFE0EC47FBB1E8F SWAP1 PUSH1 0x20 ADD PUSH1 0x40 MLOAD DUP1 SWAP2 SUB SWAP1 LOG3 POP SWAP8 POP POP POP POP POP POP POP POP PUSH2 0xA83 PUSH1 0x1 DUP1 SSTORE JUMP JUMPDEST SWAP4 SWAP3 POP POP POP JUMP JUMPDEST PUSH0 DUP3 DUP2 MSTORE PUSH1 0x20 DUP2 SWAP1 MSTORE PUSH1 0x40 SWAP1 KECCAK256 PUSH1 0x1 ADD SLOAD PUSH2 0xAA4 DUP2 PUSH2 0x29E9 JUMP JUMPDEST PUSH2 0xAAE DUP4 DUP4 PUSH2 0x29F3 JUMP JUMPDEST POP POP POP POP JUMP JUMPDEST PUSH1 0x1 PUSH1 0x1 PUSH1 0xA0 SHL SUB DUP2 AND CALLER EQ PUSH2 0xADD JUMPI PUSH1 0x40 MLOAD PUSH4 0x334BD919 PUSH1 0xE1 SHL DUP2 MSTORE PUSH1 0x4 ADD PUSH1 0x40 MLOAD DUP1 SWAP2 SUB SWAP1 REVERT JUMPDEST PUSH2 0x836 DUP3 DUP3 PUSH2 0x2A82 JUMP JUMPDEST PUSH2 0xAEF PUSH2 0x1F97 JUMP JUMPDEST PUSH2 0xAF7 PUSH2 0x1FF0 JUMP JUMPDEST DUP1 CALLER PUSH2 0xB04 PUSH1 0xE DUP4 PUSH2 0x206D JUMP JUMPDEST PUSH1 0x1 PUSH1 0x1 PUSH1 0xA0 SHL SUB AND EQ PUSH2 0xB41 JUMPI PUSH2 0xB41 PUSH1 0x40 MLOAD DUP1 PUSH1 0x40 ADD PUSH1 0x40 MSTORE DUP1 PUSH1 0xE DUP2 MSTORE PUSH1 0x20 ADD PUSH14 0x139BDD08185D5D1A1BDC9A5E9959 PUSH1 0x92 SHL DUP2 MSTORE POP PUSH2 0x2053 JUMP JUMPDEST PUSH2 0xB4D PUSH1 0xE DUP4 CALLER PUSH2 0x2AEB JUMP JUMPDEST PUSH1 0x40 MLOAD CALLER SWAP1 DUP4 SWAP1 PUSH32 0x3627FEF36FF2B68661B72D09C44779BF195E068A3CC13F8A9D0EEC173558188C SWAP1 PUSH0 SWAP1 LOG3 POP PUSH2 0xB83 PUSH1 0x1 DUP1 SSTORE JUMP JUMPDEST POP JUMP JUMPDEST PUSH32 0x65D7A28E3265B37A6474929F336521B332C1681B933F6CB9F3376673440D862A PUSH2 0xBB0 DUP2 PUSH2 0x29E9 JUMP JUMPDEST PUSH2 0xB83 PUSH2 0x2CBC JUMP JUMPDEST PUSH0 PUSH2 0xBC1 PUSH2 0x1F97 JUMP JUMPDEST PUSH2 0xBC9 PUSH2 0x1FF0 JUMP JUMPDEST PUSH2 0xC2F PUSH2 0xBD9 PUSH1 0x20 DUP5 ADD DUP5 PUSH2 0x4860 JUMP JUMPDEST DUP1 DUP1 PUSH1 0x1F ADD PUSH1 0x20 DUP1 SWAP2 DIV MUL PUSH1 0x20 ADD PUSH1 0x40 MLOAD SWAP1 DUP2 ADD PUSH1 0x40 MSTORE DUP1 SWAP4 SWAP3 SWAP2 SWAP1 DUP2 DUP2 MSTORE PUSH1 0x20 ADD DUP4 DUP4 DUP1 DUP3 DUP5 CALLDATACOPY PUSH0 SWAP3 ADD SWAP2 SWAP1 SWAP2 MSTORE POP POP PUSH1 0x40 DUP1 MLOAD DUP1 DUP3 ADD DUP3 MSTORE PUSH1 0x5 DUP2 MSTORE PUSH5 0x7469746C65 PUSH1 0xD8 SHL PUSH1 0x20 DUP3 ADD MSTORE SWAP1 SWAP3 POP SWAP1 POP PUSH2 0x2D0E JUMP JUMPDEST PUSH2 0xC98 PUSH2 0xC3F PUSH1 0x60 DUP5 ADD DUP5 PUSH2 0x4860 JUMP JUMPDEST DUP1 DUP1 PUSH1 0x1F ADD PUSH1 0x20 DUP1 SWAP2 DIV MUL PUSH1 0x20 ADD PUSH1 0x40 MLOAD SWAP1 DUP2 ADD PUSH1 0x40 MSTORE DUP1 SWAP4 SWAP3 SWAP2 SWAP1 DUP2 DUP2 MSTORE PUSH1 0x20 ADD DUP4 DUP4 DUP1 DUP3 DUP5 CALLDATACOPY PUSH0 SWAP3 ADD SWAP2 SWAP1 SWAP2 MSTORE POP POP PUSH1 0x40 DUP1 MLOAD DUP1 DUP3 ADD DUP3 MSTORE PUSH1 0x8 DUP2 MSTORE PUSH8 0x1CD8DA195B585259 PUSH1 0xC2 SHL PUSH1 0x20 DUP3 ADD MSTORE SWAP1 SWAP3 POP SWAP1 POP PUSH2 0x2D0E JUMP JUMPDEST PUSH2 0xCAB DUP3 PUSH1 0x80 ADD CALLDATALOAD PUSH1 0x3C PUSH3 0x15180 PUSH2 0x2D41 JUMP JUMPDEST PUSH2 0xCC5 PUSH2 0xCB7 DUP4 PUSH2 0x4967 JUMP JUMPDEST PUSH1 0xE SWAP1 CALLER PUSH2 0x3E8 PUSH1 0x64 PUSH2 0x2D9C JUMP JUMPDEST SWAP1 POP PUSH2 0xCD0 PUSH1 0x1 DUP1 SSTORE JUMP JUMPDEST SWAP2 SWAP1 POP JUMP JUMPDEST DUP1 CALLER PUSH2 0xCE2 PUSH1 0xE DUP4 PUSH2 0x206D JUMP JUMPDEST PUSH1 0x1 PUSH1 0x1 PUSH1 0xA0 SHL SUB AND EQ PUSH2 0xD1F JUMPI PUSH2 0xD1F PUSH1 0x40 MLOAD DUP1 PUSH1 0x40 ADD PUSH1 0x40 MSTORE DUP1 PUSH1 0xE DUP2 MSTORE PUSH1 0x20 ADD PUSH14 0x139BDD08185D5D1A1BDC9A5E9959 PUSH1 0x92 SHL DUP2 MSTORE POP PUSH2 0x2053 JUMP JUMPDEST PUSH0 DUP3 DUP2 MSTORE PUSH1 0x10 PUSH1 0x20 MSTORE PUSH1 0x40 DUP2 KECCAK256 DUP1 SLOAD PUSH1 0xFF NOT DUP2 AND PUSH1 0xFF SWAP2 DUP3 AND ISZERO SWAP1 DUP2 OR SWAP1 SWAP3 SSTORE AND SWAP1 POP DUP3 PUSH32 0x118FE3D551B1C2993669AEF7BB160B48E99B1390B9E134549CF35810848D46CD DUP3 PUSH1 0x40 MLOAD PUSH2 0xD76 SWAP2 ISZERO ISZERO DUP2 MSTORE PUSH1 0x20 ADD SWAP1 JUMP JUMPDEST PUSH1 0x40 MLOAD DUP1 SWAP2 SUB SWAP1 LOG2 POP POP POP JUMP JUMPDEST PUSH2 0xD8B PUSH2 0x1FF0 JUMP JUMPDEST PUSH32 0x22435ED027EDF5F902DC0093FBC24CDB50C05B5FD5F311B78C67C1CBAFF60E13 PUSH2 0xDB5 DUP2 PUSH2 0x29E9 JUMP JUMPDEST PUSH2 0xE13 DUP4 DUP4 DUP1 DUP1 PUSH1 0x1F ADD PUSH1 0x20 DUP1 SWAP2 DIV MUL PUSH1 0x20 ADD PUSH1 0x40 MLOAD SWAP1 DUP2 ADD PUSH1 0x40 MSTORE DUP1 SWAP4 SWAP3 SWAP2 SWAP1 DUP2 DUP2 MSTORE PUSH1 0x20 ADD DUP4 DUP4 DUP1 DUP3 DUP5 CALLDATACOPY PUSH0 SWAP3 ADD SWAP2 SWAP1 SWAP2 MSTORE POP POP PUSH1 0x40 DUP1 MLOAD DUP1 DUP3 ADD DUP3 MSTORE PUSH1 0x8 DUP2 MSTORE PUSH8 0x1DD85B1B195D1259 PUSH1 0xC2 SHL PUSH1 0x20 DUP3 ADD MSTORE SWAP1 SWAP3 POP SWAP1 POP PUSH2 0x2D0E JUMP JUMPDEST PUSH0 PUSH2 0xE20 PUSH1 0x7 DUP6 DUP6 PUSH2 0x2F9F JUMP JUMPDEST SWAP1 POP PUSH2 0xE55 DUP2 PUSH1 0x40 MLOAD DUP1 PUSH1 0x40 ADD PUSH1 0x40 MSTORE DUP1 PUSH1 0x11 DUP2 MSTORE PUSH1 0x20 ADD PUSH17 0x7265676973746572656420646576696365 PUSH1 0x78 SHL DUP2 MSTORE POP PUSH2 0x1BEA JUMP JUMPDEST PUSH0 PUSH2 0xE62 PUSH1 0x7 DUP7 DUP7 PUSH2 0x2FD6 JUMP JUMPDEST SWAP1 POP CALLER PUSH1 0x1 PUSH1 0x1 PUSH1 0xA0 SHL SUB AND DUP3 PUSH1 0x1 PUSH1 0x1 PUSH1 0xA0 SHL SUB AND PUSH32 0x2B49FF5D47E3DBEAC0AFF9C357D3967A590ACD4CA7D9F4FA820D6C5F015D0D00 DUP8 DUP8 DUP6 PUSH1 0x40 MLOAD PUSH2 0xEAB SWAP4 SWAP3 SWAP2 SWAP1 PUSH2 0x4A12 JUMP JUMPDEST PUSH1 0x40 MLOAD DUP1 SWAP2 SUB SWAP1 LOG3 POP POP POP POP POP JUMP JUMPDEST PUSH0 PUSH2 0xA83 DUP4 DUP4 PUSH1 0x40 MLOAD PUSH2 0xECE SWAP3 SWAP2 SWAP1 PUSH2 0x4851 JUMP JUMPDEST PUSH1 0x40 DUP1 MLOAD SWAP2 DUP3 SWAP1 SUB SWAP1 SWAP2 KECCAK256 PUSH0 SWAP1 DUP2 MSTORE PUSH1 0x8 PUSH1 0x20 MSTORE KECCAK256 SLOAD PUSH1 0xFF AND SWAP1 JUMP JUMPDEST PUSH0 PUSH1 0x7 PUSH1 0x6 ADD PUSH0 DUP5 DUP5 PUSH1 0x40 MLOAD PUSH2 0xF01 SWAP3 SWAP2 SWAP1 PUSH2 0x4851 JUMP JUMPDEST PUSH1 0x40 DUP1 MLOAD SWAP2 DUP3 SWAP1 SUB SWAP1 SWAP2 KECCAK256 DUP3 MSTORE PUSH1 0x20 DUP3 ADD SWAP3 SWAP1 SWAP3 MSTORE ADD PUSH0 KECCAK256 SLOAD PUSH1 0xFF AND SWAP4 SWAP3 POP POP POP JUMP JUMPDEST PUSH1 0x60 PUSH0 DUP1 PUSH2 0xF57 DUP5 PUSH1 0x40 MLOAD DUP1 PUSH1 0x40 ADD PUSH1 0x40 MSTORE DUP1 PUSH1 0xD DUP2 MSTORE PUSH1 0x20 ADD PUSH13 0x3BB7B935B33637BBA0B236B4B7 PUSH1 0x99 SHL DUP2 MSTORE POP PUSH2 0x1BEA JUMP JUMPDEST PUSH2 0xF61 DUP7 DUP7 PUSH2 0x1C39 JUMP JUMPDEST PUSH2 0x59C PUSH1 0xE DUP8 DUP8 DUP8 PUSH2 0x3061 JUMP JUMPDEST PUSH32 0x65D7A28E3265B37A6474929F336521B332C1681B933F6CB9F3376673440D862A PUSH2 0xF98 DUP2 PUSH2 0x29E9 JUMP JUMPDEST PUSH2 0xB83 PUSH2 0x3256 JUMP JUMPDEST PUSH0 SWAP2 DUP3 MSTORE PUSH1 0x20 DUP3 DUP2 MSTORE PUSH1 0x40 DUP1 DUP5 KECCAK256 PUSH1 0x1 PUSH1 0x1 PUSH1 0xA0 SHL SUB SWAP4 SWAP1 SWAP4 AND DUP5 MSTORE SWAP2 SWAP1 MSTORE SWAP1 KECCAK256 SLOAD PUSH1 0xFF AND SWAP1 JUMP JUMPDEST PUSH2 0xFF8 PUSH1 0x40 MLOAD DUP1 PUSH1 0xA0 ADD PUSH1 0x40 MSTORE DUP1 PUSH1 0x60 DUP2 MSTORE PUSH1 0x20 ADD PUSH0 DUP2 MSTORE PUSH1 0x20 ADD PUSH0 DUP2 MSTORE PUSH1 0x20 ADD PUSH0 DUP2 MSTORE PUSH1 0x20 ADD PUSH0 ISZERO ISZERO DUP2 MSTORE POP SWAP1 JUMP JUMPDEST PUSH0 DUP4 DUP2 MSTORE PUSH1 0xE PUSH1 0x20 MSTORE PUSH1 0x40 SWAP1 KECCAK256 PUSH1 0x4 ADD SLOAD PUSH2 0x1041 JUMPI PUSH2 0x1041 PUSH1 0x40 MLOAD DUP1 PUSH1 0x40 ADD PUSH1 0x40 MSTORE DUP1 PUSH1 0x13 DUP2 MSTORE PUSH1 0x20 ADD PUSH19 0x125B9D985B1A59081DDBDC9AD99B1BDDC81251 PUSH1 0x6A SHL DUP2 MSTORE POP PUSH2 0x2038 JUMP JUMPDEST PUSH0 DUP4 DUP2 MSTORE PUSH1 0x6 PUSH1 0x20 MSTORE PUSH1 0x40 SWAP1 KECCAK256 PUSH1 0x4 DUP2 ADD SLOAD PUSH2 0x105E SWAP1 DUP5 SWAP1 PUSH2 0x3293 JUMP JUMPDEST PUSH0 PUSH2 0x1069 DUP6 DUP6 PUSH2 0x32E3 JUMP JUMPDEST PUSH1 0x40 DUP1 MLOAD PUSH1 0xA0 DUP2 ADD DUP3 MSTORE DUP3 DUP2 MSTORE PUSH1 0x4 DUP6 ADD SLOAD PUSH1 0x20 DUP3 ADD DUP2 SWAP1 MSTORE SWAP2 DUP2 ADD DUP8 SWAP1 MSTORE PUSH1 0x2 DUP6 ADD SLOAD PUSH1 0x60 DUP3 ADD MSTORE SWAP2 SWAP3 POP PUSH1 0x80 DUP3 ADD SWAP1 PUSH2 0x10A6 SWAP1 PUSH1 0x1 SWAP1 PUSH2 0x4A4B JUMP JUMPDEST DUP7 LT SWAP1 MSTORE SWAP3 POP POP POP SWAP3 SWAP2 POP POP JUMP JUMPDEST PUSH2 0x10BC PUSH2 0x40EA JUMP JUMPDEST PUSH0 DUP3 DUP2 MSTORE PUSH1 0xE PUSH1 0x20 MSTORE PUSH1 0x40 DUP2 KECCAK256 PUSH1 0x4 ADD SLOAD DUP2 SWAP1 DUP5 SWAP1 PUSH2 0x110D JUMPI PUSH2 0x110D PUSH1 0x40 MLOAD DUP1 PUSH1 0x40 ADD PUSH1 0x40 MSTORE DUP1 PUSH1 0x17 DUP2 MSTORE PUSH1 0x20 ADD PUSH23 0x15DBDC9AD99B1BDDC8191BD95CC81B9BDD08195E1A5CDD PUSH1 0x4A SHL DUP2 MSTORE POP PUSH2 0x2038 JUMP JUMPDEST PUSH2 0x1118 PUSH1 0xE DUP7 PUSH2 0x246A JUMP JUMPDEST SWAP4 POP PUSH2 0x1135 DUP6 DUP6 PUSH2 0x140 ADD MLOAD PUSH1 0xE PUSH2 0x3481 SWAP1 SWAP3 SWAP2 SWAP1 PUSH4 0xFFFFFFFF AND JUMP JUMPDEST PUSH0 DUP7 DUP2 MSTORE PUSH1 0x10 PUSH1 0x20 MSTORE PUSH1 0x40 SWAP1 KECCAK256 SLOAD SWAP1 SWAP4 POP PUSH1 0xFF AND SWAP4 SWAP6 SWAP3 SWAP5 POP POP POP JUMP JUMPDEST PUSH0 PUSH2 0x1182 DUP3 PUSH1 0x40 MLOAD DUP1 PUSH1 0x40 ADD PUSH1 0x40 MSTORE DUP1 PUSH1 0xD DUP2 MSTORE PUSH1 0x20 ADD PUSH13 0x3BB7B935B33637BBA0B236B4B7 PUSH1 0x99 SHL DUP2 MSTORE POP PUSH2 0x1BEA JUMP JUMPDEST PUSH2 0x5DB PUSH1 0xE DUP4 PUSH2 0x34D1 JUMP JUMPDEST PUSH2 0x1197 PUSH0 CALLER PUSH2 0xFA0 JUMP JUMPDEST PUSH2 0x11CF JUMPI PUSH2 0x11CF PUSH1 0x40 MLOAD DUP1 PUSH1 0x40 ADD PUSH1 0x40 MSTORE DUP1 PUSH1 0x13 DUP2 MSTORE PUSH1 0x20 ADD PUSH19 0x21B0B63632B91034B9903737BA1030B236B4B7 PUSH1 0x69 SHL DUP2 MSTORE POP PUSH2 0x2053 JUMP JUMPDEST PUSH2 0x11FA DUP2 PUSH1 0x40 MLOAD DUP1 PUSH1 0x40 ADD PUSH1 0x40 MSTORE DUP1 PUSH1 0x9 DUP2 MSTORE PUSH1 0x20 ADD PUSH9 0x3732BB9030B236B4B7 PUSH1 0xB9 SHL DUP2 MSTORE POP PUSH2 0x1BEA JUMP JUMPDEST PUSH2 0x1204 PUSH0 DUP3 PUSH2 0x29F3 JUMP JUMPDEST POP PUSH2 0x120F PUSH0 CALLER PUSH2 0x2A82 JUMP JUMPDEST POP POP JUMP JUMPDEST PUSH2 0x121B PUSH2 0x1F97 JUMP JUMPDEST PUSH2 0x1223 PUSH2 0x1FF0 JUMP JUMPDEST PUSH0 DUP5 DUP2 MSTORE PUSH1 0xE PUSH1 0x20 MSTORE PUSH1 0x40 SWAP1 KECCAK256 PUSH1 0x4 ADD SLOAD DUP5 SWAP1 PUSH2 0x1272 JUMPI PUSH2 0x1272 PUSH1 0x40 MLOAD DUP1 PUSH1 0x40 ADD PUSH1 0x40 MSTORE DUP1 PUSH1 0x17 DUP2 MSTORE PUSH1 0x20 ADD PUSH23 0x15DBDC9AD99B1BDDC8191BD95CC81B9BDD08195E1A5CDD PUSH1 0x4A SHL DUP2 MSTORE POP PUSH2 0x2038 JUMP JUMPDEST PUSH0 DUP6 DUP2 MSTORE PUSH1 0x10 PUSH1 0x20 MSTORE PUSH1 0x40 SWAP1 KECCAK256 SLOAD DUP6 SWAP1 PUSH1 0xFF AND ISZERO PUSH2 0x12BA JUMPI PUSH2 0x12BA PUSH1 0x40 MLOAD DUP1 PUSH1 0x40 ADD PUSH1 0x40 MSTORE DUP1 PUSH1 0xF DUP2 MSTORE PUSH1 0x20 ADD PUSH15 0x15DBDC9AD99B1BDDC81C185D5CD959 PUSH1 0x8A SHL DUP2 MSTORE POP PUSH2 0x2053 JUMP JUMPDEST DUP6 CALLER PUSH2 0x12C7 PUSH1 0xE DUP4 PUSH2 0x206D JUMP JUMPDEST PUSH1 0x1 PUSH1 0x1 PUSH1 0xA0 SHL SUB AND EQ PUSH2 0x1304 JUMPI PUSH2 0x1304 PUSH1 0x40 MLOAD DUP1 PUSH1 0x40 ADD PUSH1 0x40 MSTORE DUP1 PUSH1 0xE DUP2 MSTORE PUSH1 0x20 ADD PUSH14 0x139BDD08185D5D1A1BDC9A5E9959 PUSH1 0x92 SHL DUP2 MSTORE POP PUSH2 0x2053 JUMP JUMPDEST PUSH0 DUP7 DUP7 PUSH1 0x40 MLOAD PUSH2 0x1315 SWAP3 SWAP2 SWAP1 PUSH2 0x4851 JUMP JUMPDEST PUSH1 0x40 DUP1 MLOAD SWAP2 DUP3 SWAP1 SUB SWAP1 SWAP2 KECCAK256 PUSH0 DUP2 DUP2 MSTORE PUSH1 0xD PUSH1 0x20 MSTORE SWAP2 SWAP1 SWAP2 KECCAK256 SLOAD SWAP1 SWAP2 POP PUSH1 0xFF AND ISZERO PUSH2 0x135A JUMPI PUSH2 0x135A PUSH1 0x40 MLOAD DUP1 PUSH1 0x60 ADD PUSH1 0x40 MSTORE DUP1 PUSH1 0x27 DUP2 MSTORE PUSH1 0x20 ADD PUSH2 0x4EF1 PUSH1 0x27 SWAP2 CODECOPY PUSH2 0x20BE JUMP JUMPDEST PUSH0 DUP2 DUP2 MSTORE PUSH1 0xD PUSH1 0x20 DUP2 DUP2 MSTORE PUSH1 0x40 SWAP3 DUP4 SWAP1 KECCAK256 DUP1 SLOAD PUSH1 0xFF NOT AND PUSH1 0x1 OR SWAP1 SSTORE DUP3 MLOAD DUP1 DUP5 ADD SWAP1 SWAP4 MSTORE SWAP1 DUP3 MSTORE PUSH13 0x64657669636541646472657373 PUSH1 0x98 SHL SWAP1 DUP3 ADD MSTORE PUSH2 0x13A1 SWAP1 DUP7 SWAP1 PUSH2 0x1BEA JUMP JUMPDEST PUSH2 0x13FF DUP8 DUP8 DUP1 DUP1 PUSH1 0x1F ADD PUSH1 0x20 DUP1 SWAP2 DIV MUL PUSH1 0x20 ADD PUSH1 0x40 MLOAD SWAP1 DUP2 ADD PUSH1 0x40 MSTORE DUP1 SWAP4 SWAP3 SWAP2 SWAP1 DUP2 DUP2 MSTORE PUSH1 0x20 ADD DUP4 DUP4 DUP1 DUP3 DUP5 CALLDATACOPY PUSH0 SWAP3 ADD SWAP2 SWAP1 SWAP2 MSTORE POP POP PUSH1 0x40 DUP1 MLOAD DUP1 DUP3 ADD DUP3 MSTORE PUSH1 0x8 DUP2 MSTORE PUSH8 0x1DD85B1B195D1259 PUSH1 0xC2 SHL PUSH1 0x20 DUP3 ADD MSTORE SWAP1 SWAP3 POP SWAP1 POP PUSH2 0x2D0E JUMP JUMPDEST PUSH0 PUSH2 0x140B PUSH1 0xE DUP11 PUSH2 0x246A JUMP JUMPDEST SWAP1 POP PUSH0 DUP2 PUSH1 0xA0 ADD MLOAD PUSH1 0x2 DUP2 GT ISZERO PUSH2 0x1424 JUMPI PUSH2 0x1424 PUSH2 0x463F JUMP JUMPDEST EQ PUSH2 0x1472 JUMPI PUSH0 DUP3 DUP2 MSTORE PUSH1 0xD PUSH1 0x20 SWAP1 DUP2 MSTORE PUSH1 0x40 SWAP2 DUP3 SWAP1 KECCAK256 DUP1 SLOAD PUSH1 0xFF NOT AND SWAP1 SSTORE DUP2 MLOAD DUP1 DUP4 ADD SWAP1 SWAP3 MSTORE PUSH1 0x13 DUP3 MSTORE PUSH19 0x576F726B666C6F77206E6F7420616374697665 PUSH1 0x68 SHL SWAP1 DUP3 ADD MSTORE PUSH2 0x1472 SWAP1 PUSH2 0x20BE JUMP JUMPDEST PUSH0 DUP3 DUP2 MSTORE PUSH1 0x8 PUSH1 0x20 MSTORE PUSH1 0x40 SWAP1 KECCAK256 SLOAD PUSH1 0xFF AND ISZERO PUSH2 0x14DB JUMPI PUSH0 DUP3 DUP2 MSTORE PUSH1 0xD PUSH1 0x20 SWAP1 DUP2 MSTORE PUSH1 0x40 SWAP2 DUP3 SWAP1 KECCAK256 DUP1 SLOAD PUSH1 0xFF NOT AND SWAP1 SSTORE DUP2 MLOAD DUP1 DUP4 ADD SWAP1 SWAP3 MSTORE PUSH1 0x19 DUP3 MSTORE PUSH32 0x44657669636520616C7265616479207265676973746572656400000000000000 SWAP1 DUP3 ADD MSTORE PUSH2 0x14DB SWAP1 PUSH2 0x20BE JUMP JUMPDEST PUSH2 0x14E7 PUSH1 0x7 DUP10 DUP10 PUSH2 0x3578 JUMP JUMPDEST ISZERO PUSH2 0x1534 JUMPI PUSH0 DUP3 DUP2 MSTORE PUSH1 0xD PUSH1 0x20 SWAP1 DUP2 MSTORE PUSH1 0x40 SWAP2 DUP3 SWAP1 KECCAK256 DUP1 SLOAD PUSH1 0xFF NOT AND SWAP1 SSTORE DUP2 MLOAD DUP1 DUP4 ADD SWAP1 SWAP3 MSTORE PUSH1 0x12 DUP3 MSTORE PUSH18 0x11195D9A58D948189B1858DADB1A5CDD1959 PUSH1 0x72 SHL SWAP1 DUP3 ADD MSTORE PUSH2 0x1534 SWAP1 PUSH2 0x20BE JUMP JUMPDEST PUSH2 0x1546 DUP2 PUSH1 0x60 ADD MLOAD DUP3 PUSH1 0xC0 ADD MLOAD PUSH2 0x358D JUMP JUMPDEST PUSH2 0x1555 PUSH1 0x7 DUP10 DUP10 DUP10 DUP14 DUP8 PUSH2 0x35D4 JUMP JUMPDEST POP PUSH2 0x1561 PUSH1 0xE DUP11 PUSH2 0x3789 JUMP JUMPDEST PUSH1 0x40 DUP1 MLOAD PUSH1 0xC0 PUSH1 0x20 PUSH1 0x1F DUP12 ADD DUP2 SWAP1 DIV MUL DUP3 ADD DUP2 ADD SWAP1 SWAP3 MSTORE PUSH1 0xA0 DUP2 ADD DUP10 DUP2 MSTORE PUSH0 SWAP3 DUP3 SWAP2 SWAP1 DUP13 SWAP1 DUP13 SWAP1 DUP2 SWAP1 DUP6 ADD DUP4 DUP3 DUP1 DUP3 DUP5 CALLDATACOPY PUSH0 SWAP3 ADD DUP3 SWAP1 MSTORE POP SWAP4 DUP6 MSTORE POP POP POP PUSH1 0x1 PUSH1 0x1 PUSH1 0xA0 SHL SUB DUP11 AND PUSH1 0x20 DUP4 ADD MSTORE TIMESTAMP PUSH1 0x40 DUP4 ADD DUP2 SWAP1 MSTORE PUSH1 0x60 DUP4 ADD SWAP2 SWAP1 SWAP2 MSTORE PUSH1 0x80 SWAP1 SWAP2 ADD MSTORE SWAP1 POP PUSH2 0x15D0 DUP11 DUP3 PUSH2 0x37A5 JUMP JUMPDEST PUSH0 DUP11 DUP2 MSTORE PUSH1 0x6 PUSH1 0x20 SWAP1 DUP2 MSTORE PUSH1 0x40 DUP1 DUP4 KECCAK256 PUSH1 0x3 ADD SLOAD DUP7 DUP5 MSTORE PUSH1 0x5 DUP4 MSTORE DUP2 DUP5 KECCAK256 SSTORE PUSH1 0xD SWAP1 SWAP2 MSTORE SWAP1 DUP2 SWAP1 KECCAK256 DUP1 SLOAD PUSH1 0xFF NOT AND SWAP1 SSTORE MLOAD CALLER SWAP1 PUSH1 0x1 PUSH1 0x1 PUSH1 0xA0 SHL SUB DUP10 AND SWAP1 DUP13 SWAP1 PUSH32 0x44E63D90B13C9452584A9658F63F4FF576A4E45034F63DBEC0E8392F9D16EEA SWAP1 PUSH2 0x163F SWAP1 DUP15 SWAP1 DUP15 SWAP1 PUSH2 0x483E JUMP JUMPDEST PUSH1 0x40 MLOAD DUP1 SWAP2 SUB SWAP1 LOG4 POP POP POP POP POP POP PUSH2 0xAAE PUSH1 0x1 DUP1 SSTORE JUMP JUMPDEST PUSH2 0x165E PUSH2 0x1F97 JUMP JUMPDEST PUSH2 0x1666 PUSH2 0x1FF0 JUMP JUMPDEST DUP2 CALLER PUSH2 0x1673 PUSH1 0xE DUP4 PUSH2 0x206D JUMP JUMPDEST PUSH1 0x1 PUSH1 0x1 PUSH1 0xA0 SHL SUB AND EQ PUSH2 0x16B0 JUMPI PUSH2 0x16B0 PUSH1 0x40 MLOAD DUP1 PUSH1 0x40 ADD PUSH1 0x40 MSTORE DUP1 PUSH1 0xE DUP2 MSTORE PUSH1 0x20 ADD PUSH14 0x139BDD08185D5D1A1BDC9A5E9959 PUSH1 0x92 SHL DUP2 MSTORE POP PUSH2 0x2053 JUMP JUMPDEST PUSH2 0x16C2 PUSH1 0xE DUP5 DUP5 PUSH1 0x3C PUSH3 0x15180 PUSH2 0x39AB JUMP JUMPDEST POP PUSH2 0x120F PUSH1 0x1 DUP1 SSTORE JUMP JUMPDEST PUSH0 PUSH2 0x16D6 DUP2 PUSH2 0x29E9 JUMP JUMPDEST PUSH2 0x120F DUP3 PUSH2 0x3A04 JUMP JUMPDEST PUSH0 DUP3 DUP2 MSTORE PUSH1 0x20 DUP2 SWAP1 MSTORE PUSH1 0x40 SWAP1 KECCAK256 PUSH1 0x1 ADD SLOAD PUSH2 0x16F9 DUP2 PUSH2 0x29E9 JUMP JUMPDEST PUSH2 0xAAE DUP4 DUP4 PUSH2 0x2A82 JUMP JUMPDEST PUSH2 0x170B PUSH2 0x40EA JUMP JUMPDEST PUSH0 DUP3 DUP2 MSTORE PUSH1 0xE PUSH1 0x20 MSTORE PUSH1 0x40 DUP2 KECCAK256 PUSH1 0x4 ADD SLOAD DUP2 SWAP1 PUSH1 0x60 SWAP1 PUSH2 0x1759 JUMPI PUSH2 0x1759 PUSH1 0x40 MLOAD DUP1 PUSH1 0x40 ADD PUSH1 0x40 MSTORE DUP1 PUSH1 0x13 DUP2 MSTORE PUSH1 0x20 ADD PUSH19 0x125B9D985B1A59081DDBDC9AD99B1BDDC81251 PUSH1 0x6A SHL DUP2 MSTORE POP PUSH2 0x2038 JUMP JUMPDEST PUSH2 0x1764 PUSH1 0xE DUP7 PUSH2 0x246A JUMP JUMPDEST PUSH0 DUP7 DUP2 MSTORE PUSH1 0x6 PUSH1 0x20 MSTORE PUSH1 0x40 SWAP1 KECCAK256 PUSH1 0x4 DUP2 ADD SLOAD PUSH1 0x2 DUP3 ADD SLOAD SWAP3 SWAP7 POP SWAP5 POP SWAP1 SWAP3 POP DUP4 PUSH1 0x1 PUSH1 0x1 PUSH1 0x40 SHL SUB DUP2 GT ISZERO PUSH2 0x179B JUMPI PUSH2 0x179B PUSH2 0x48A2 JUMP JUMPDEST PUSH1 0x40 MLOAD SWAP1 DUP1 DUP3 MSTORE DUP1 PUSH1 0x20 MUL PUSH1 0x20 ADD DUP3 ADD PUSH1 0x40 MSTORE DUP1 ISZERO PUSH2 0x17C4 JUMPI DUP2 PUSH1 0x20 ADD PUSH1 0x20 DUP3 MUL DUP1 CALLDATASIZE DUP4 CALLDATACOPY ADD SWAP1 POP JUMPDEST POP SWAP2 POP PUSH0 JUMPDEST DUP5 DUP2 LT ISZERO PUSH2 0x1808 JUMPI PUSH0 DUP2 DUP2 MSTORE PUSH1 0x5 DUP4 ADD PUSH1 0x20 MSTORE PUSH1 0x40 SWAP1 KECCAK256 SLOAD DUP4 MLOAD DUP5 SWAP1 DUP4 SWAP1 DUP2 LT PUSH2 0x17F5 JUMPI PUSH2 0x17F5 PUSH2 0x4A5E JUMP JUMPDEST PUSH1 0x20 SWAP1 DUP2 MUL SWAP2 SWAP1 SWAP2 ADD ADD MSTORE PUSH1 0x1 ADD PUSH2 0x17C9 JUMP JUMPDEST POP POP SWAP2 SWAP4 POP SWAP2 SWAP4 JUMP JUMPDEST PUSH0 PUSH2 0x181B DUP2 PUSH2 0x29E9 JUMP JUMPDEST PUSH3 0x278D00 DUP3 LT ISZERO PUSH2 0x1858 JUMPI PUSH2 0x1858 PUSH1 0x40 MLOAD DUP1 PUSH1 0x40 ADD PUSH1 0x40 MSTORE DUP1 PUSH1 0x11 DUP2 MSTORE PUSH1 0x20 ADD PUSH17 0x5468726573686F6C6420746F6F206C6F77 PUSH1 0x78 SHL DUP2 MSTORE POP PUSH2 0x20BE JUMP JUMPDEST POP PUSH1 0x3 SSTORE JUMP JUMPDEST PUSH2 0x1866 PUSH2 0x4156 JUMP JUMPDEST PUSH0 DUP5 DUP2 MSTORE PUSH1 0xE PUSH1 0x20 MSTORE PUSH1 0x40 SWAP1 KECCAK256 PUSH1 0x4 ADD SLOAD DUP5 SWAP1 PUSH2 0x18B5 JUMPI PUSH2 0x18B5 PUSH1 0x40 MLOAD DUP1 PUSH1 0x40 ADD PUSH1 0x40 MSTORE DUP1 PUSH1 0x17 DUP2 MSTORE PUSH1 0x20 ADD PUSH23 0x15DBDC9AD99B1BDDC8191BD95CC81B9BDD08195E1A5CDD PUSH1 0x4A SHL DUP2 MSTORE POP PUSH2 0x2038 JUMP JUMPDEST PUSH0 DUP5 DUP5 PUSH1 0x40 MLOAD PUSH2 0x18C6 SWAP3 SWAP2 SWAP1 PUSH2 0x4851 JUMP JUMPDEST PUSH1 0x40 DUP1 MLOAD SWAP2 DUP3 SWAP1 SUB SWAP1 SWAP2 KECCAK256 PUSH0 DUP2 DUP2 MSTORE PUSH1 0x5 PUSH1 0x20 DUP2 DUP2 MSTORE DUP5 DUP4 KECCAK256 SLOAD DUP12 DUP5 MSTORE PUSH1 0x6 DUP3 MSTORE DUP6 DUP5 KECCAK256 DUP2 DUP6 MSTORE SWAP3 DUP4 ADD SWAP1 SWAP2 MSTORE SWAP4 DUP3 KECCAK256 SWAP3 SWAP5 POP SWAP2 SWAP1 JUMPDEST DUP2 SLOAD DUP2 LT ISZERO PUSH2 0x1A44 JUMPI DUP5 DUP3 DUP3 DUP2 SLOAD DUP2 LT PUSH2 0x1918 JUMPI PUSH2 0x1918 PUSH2 0x4A5E JUMP JUMPDEST SWAP1 PUSH0 MSTORE PUSH1 0x20 PUSH0 KECCAK256 SWAP1 PUSH1 0x5 MUL ADD PUSH0 ADD PUSH1 0x40 MLOAD PUSH2 0x1933 SWAP2 SWAP1 PUSH2 0x4B18 JUMP JUMPDEST PUSH1 0x40 MLOAD DUP1 SWAP2 SUB SWAP1 KECCAK256 SUB PUSH2 0x1A3C JUMPI DUP2 DUP2 DUP2 SLOAD DUP2 LT PUSH2 0x1952 JUMPI PUSH2 0x1952 PUSH2 0x4A5E JUMP JUMPDEST SWAP1 PUSH0 MSTORE PUSH1 0x20 PUSH0 KECCAK256 SWAP1 PUSH1 0x5 MUL ADD PUSH1 0x40 MLOAD DUP1 PUSH1 0xA0 ADD PUSH1 0x40 MSTORE SWAP1 DUP2 PUSH0 DUP3 ADD DUP1 SLOAD PUSH2 0x1978 SWAP1 PUSH2 0x4A72 JUMP JUMPDEST DUP1 PUSH1 0x1F ADD PUSH1 0x20 DUP1 SWAP2 DIV MUL PUSH1 0x20 ADD PUSH1 0x40 MLOAD SWAP1 DUP2 ADD PUSH1 0x40 MSTORE DUP1 SWAP3 SWAP2 SWAP1 DUP2 DUP2 MSTORE PUSH1 0x20 ADD DUP3 DUP1 SLOAD PUSH2 0x19A4 SWAP1 PUSH2 0x4A72 JUMP JUMPDEST DUP1 ISZERO PUSH2 0x19EF JUMPI DUP1 PUSH1 0x1F LT PUSH2 0x19C6 JUMPI PUSH2 0x100 DUP1 DUP4 SLOAD DIV MUL DUP4 MSTORE SWAP2 PUSH1 0x20 ADD SWAP2 PUSH2 0x19EF JUMP JUMPDEST DUP3 ADD SWAP2 SWAP1 PUSH0 MSTORE PUSH1 0x20 PUSH0 KECCAK256 SWAP1 JUMPDEST DUP2 SLOAD DUP2 MSTORE SWAP1 PUSH1 0x1 ADD SWAP1 PUSH1 0x20 ADD DUP1 DUP4 GT PUSH2 0x19D2 JUMPI DUP3 SWAP1 SUB PUSH1 0x1F AND DUP3 ADD SWAP2 JUMPDEST POP POP POP SWAP2 DUP4 MSTORE POP POP PUSH1 0x1 DUP3 ADD SLOAD PUSH1 0x1 PUSH1 0x1 PUSH1 0xA0 SHL SUB AND PUSH1 0x20 DUP3 ADD MSTORE PUSH1 0x2 DUP3 ADD SLOAD PUSH1 0x40 DUP3 ADD MSTORE PUSH1 0x3 DUP3 ADD SLOAD PUSH1 0xFF AND ISZERO ISZERO PUSH1 0x60 DUP3 ADD MSTORE PUSH1 0x4 SWAP1 SWAP2 ADD SLOAD PUSH1 0x80 SWAP1 SWAP2 ADD MSTORE SWAP7 POP PUSH2 0x1A7B SWAP5 POP POP POP POP POP JUMP JUMPDEST PUSH1 0x1 ADD PUSH2 0x18FC JUMP JUMPDEST POP PUSH2 0x1A76 PUSH1 0x40 MLOAD DUP1 PUSH1 0x40 ADD PUSH1 0x40 MSTORE DUP1 PUSH1 0x10 DUP2 MSTORE PUSH1 0x20 ADD PUSH16 0x11195D9A58D9481B9BDD08199BDD5B99 PUSH1 0x82 SHL DUP2 MSTORE POP PUSH2 0x2038 JUMP JUMPDEST POP POP POP POP JUMPDEST POP SWAP4 SWAP3 POP POP POP JUMP JUMPDEST PUSH1 0x1 PUSH1 0x1 PUSH1 0xA0 SHL SUB DUP2 AND PUSH0 SWAP1 DUP2 MSTORE PUSH1 0xC PUSH1 0x20 MSTORE PUSH1 0x40 DUP2 KECCAK256 DUP1 SLOAD DUP3 SWAP2 DUP3 SWAP2 DUP3 SWAP2 SWAP1 PUSH2 0x1AAC SWAP1 PUSH2 0x4A72 JUMP JUMPDEST DUP1 PUSH1 0x1F ADD PUSH1 0x20 DUP1 SWAP2 DIV MUL PUSH1 0x20 ADD PUSH1 0x40 MLOAD SWAP1 DUP2 ADD PUSH1 0x40 MSTORE DUP1 SWAP3 SWAP2 SWAP1 DUP2 DUP2 MSTORE PUSH1 0x20 ADD DUP3 DUP1 SLOAD PUSH2 0x1AD8 SWAP1 PUSH2 0x4A72 JUMP JUMPDEST DUP1 ISZERO PUSH2 0x1B23 JUMPI DUP1 PUSH1 0x1F LT PUSH2 0x1AFA JUMPI PUSH2 0x100 DUP1 DUP4 SLOAD DIV MUL DUP4 MSTORE SWAP2 PUSH1 0x20 ADD SWAP2 PUSH2 0x1B23 JUMP JUMPDEST DUP3 ADD SWAP2 SWAP1 PUSH0 MSTORE PUSH1 0x20 PUSH0 KECCAK256 SWAP1 JUMPDEST DUP2 SLOAD DUP2 MSTORE SWAP1 PUSH1 0x1 ADD SWAP1 PUSH1 0x20 ADD DUP1 DUP4 GT PUSH2 0x1B06 JUMPI DUP3 SWAP1 SUB PUSH1 0x1F AND DUP3 ADD SWAP2 JUMPDEST POP POP POP POP POP SWAP1 POP DUP1 MLOAD PUSH0 SUB PUSH2 0x1B70 JUMPI PUSH2 0x1B70 PUSH1 0x40 MLOAD DUP1 PUSH1 0x40 ADD PUSH1 0x40 MSTORE DUP1 PUSH1 0x1D DUP2 MSTORE PUSH1 0x20 ADD PUSH32 0x4465766963652061646472657373206E6F742072656769737465726564000000 DUP2 MSTORE POP PUSH2 0x20BE JUMP JUMPDEST PUSH0 PUSH1 0x7 PUSH0 ADD DUP3 PUSH1 0x40 MLOAD PUSH2 0x1B83 SWAP2 SWAP1 PUSH2 0x4B3A JUMP JUMPDEST SWAP1 DUP2 MSTORE PUSH1 0x40 MLOAD SWAP1 DUP2 SWAP1 SUB PUSH1 0x20 ADD DUP2 KECCAK256 SWAP2 POP PUSH1 0x11 SWAP1 PUSH2 0x1BA2 SWAP1 DUP5 SWAP1 PUSH2 0x4B3A JUMP JUMPDEST SWAP1 DUP2 MSTORE PUSH1 0x40 MLOAD SWAP1 DUP2 SWAP1 SUB PUSH1 0x20 ADD DUP2 KECCAK256 SLOAD SWAP1 PUSH1 0x12 SWAP1 PUSH2 0x1BC1 SWAP1 DUP6 SWAP1 PUSH2 0x4B3A JUMP JUMPDEST SWAP1 DUP2 MSTORE PUSH1 0x40 MLOAD SWAP1 DUP2 SWAP1 SUB PUSH1 0x20 ADD SWAP1 KECCAK256 SLOAD PUSH1 0x3 SWAP1 SWAP3 ADD SLOAD SWAP1 SWAP6 POP SWAP1 SWAP4 POP PUSH1 0xFF AND SWAP2 POP POP SWAP2 SWAP4 SWAP1 SWAP3 POP JUMP JUMPDEST PUSH1 0x1 PUSH1 0x1 PUSH1 0xA0 SHL SUB DUP3 AND PUSH2 0x120F JUMPI DUP1 PUSH1 0x40 MLOAD PUSH1 0x20 ADD PUSH2 0x1C09 SWAP2 SWAP1 PUSH2 0x4B45 JUMP JUMPDEST PUSH1 0x40 DUP1 MLOAD PUSH1 0x1F NOT DUP2 DUP5 SUB ADD DUP2 MSTORE SWAP1 DUP3 SWAP1 MSTORE PUSH4 0xA1B63CEB PUSH1 0xE0 SHL DUP3 MSTORE PUSH2 0x1C30 SWAP2 PUSH1 0x4 ADD PUSH2 0x4B7D JUMP JUMPDEST PUSH1 0x40 MLOAD DUP1 SWAP2 SUB SWAP1 REVERT JUMPDEST DUP1 PUSH0 SUB PUSH2 0x1C79 JUMPI PUSH1 0x40 MLOAD PUSH4 0xA1B63CEB PUSH1 0xE0 SHL DUP2 MSTORE PUSH1 0x20 PUSH1 0x4 DUP3 ADD MSTORE PUSH1 0xD PUSH1 0x24 DUP3 ADD MSTORE PUSH13 0x125B9D985B1A59081B1A5B5A5D PUSH1 0x9A SHL PUSH1 0x44 DUP3 ADD MSTORE PUSH1 0x64 ADD PUSH2 0x1C30 JUMP JUMPDEST PUSH2 0x1C84 DUP2 PUSH0 NOT PUSH2 0x4A4B JUMP JUMPDEST DUP3 GT ISZERO PUSH2 0x120F JUMPI PUSH1 0x40 MLOAD PUSH4 0xA1B63CEB PUSH1 0xE0 SHL DUP2 MSTORE PUSH1 0x20 PUSH1 0x4 DUP3 ADD MSTORE PUSH1 0xE PUSH1 0x24 DUP3 ADD MSTORE PUSH14 0x125B9D985B1A59081BD9999CD95D PUSH1 0x92 SHL PUSH1 0x44 DUP3 ADD MSTORE PUSH1 0x64 ADD PUSH2 0x1C30 JUMP JUMPDEST PUSH1 0x1 PUSH1 0x1 PUSH1 0xA0 SHL SUB DUP2 AND PUSH0 SWAP1 DUP2 MSTORE PUSH1 0x1 DUP6 ADD PUSH1 0x20 MSTORE PUSH1 0x40 DUP2 KECCAK256 PUSH1 0x60 SWAP2 SWAP1 DUP2 SWAP1 DUP2 PUSH2 0x1CF0 DUP8 PUSH1 0x14 PUSH2 0x3A9F JUMP JUMPDEST SWAP1 POP DUP2 PUSH1 0x2 ADD SLOAD PUSH0 SUB PUSH2 0x1D3D JUMPI PUSH1 0x40 DUP1 MLOAD PUSH0 DUP1 DUP3 MSTORE PUSH1 0x20 DUP3 ADD SWAP1 SWAP3 MSTORE SWAP1 PUSH2 0x1D2D JUMP JUMPDEST PUSH2 0x1D1A PUSH2 0x418C JUMP JUMPDEST DUP2 MSTORE PUSH1 0x20 ADD SWAP1 PUSH1 0x1 SWAP1 SUB SWAP1 DUP2 PUSH2 0x1D12 JUMPI SWAP1 POP JUMPDEST POP PUSH0 DUP1 SWAP5 POP SWAP5 POP SWAP5 POP POP POP PUSH2 0x1F8D JUMP JUMPDEST DUP8 PUSH0 PUSH2 0x1D56 PUSH2 0x1D4C DUP5 DUP5 PUSH2 0x4B8F JUMP JUMPDEST DUP6 PUSH1 0x2 ADD SLOAD PUSH2 0x3A9F JUMP JUMPDEST SWAP1 POP DUP4 PUSH1 0x2 ADD SLOAD DUP3 LT PUSH2 0x1DA9 JUMPI PUSH1 0x40 DUP1 MLOAD PUSH0 DUP1 DUP3 MSTORE PUSH1 0x20 DUP3 ADD SWAP1 SWAP3 MSTORE SWAP1 PUSH2 0x1D93 JUMP JUMPDEST PUSH2 0x1D80 PUSH2 0x418C JUMP JUMPDEST DUP2 MSTORE PUSH1 0x20 ADD SWAP1 PUSH1 0x1 SWAP1 SUB SWAP1 DUP2 PUSH2 0x1D78 JUMPI SWAP1 POP JUMPDEST POP DUP5 PUSH1 0x2 ADD SLOAD PUSH0 SWAP7 POP SWAP7 POP SWAP7 POP POP POP POP POP PUSH2 0x1F8D JUMP JUMPDEST PUSH2 0x1DB3 DUP3 DUP3 PUSH2 0x4A4B JUMP JUMPDEST PUSH1 0x1 PUSH1 0x1 PUSH1 0x40 SHL SUB DUP2 GT ISZERO PUSH2 0x1DCA JUMPI PUSH2 0x1DCA PUSH2 0x48A2 JUMP JUMPDEST PUSH1 0x40 MLOAD SWAP1 DUP1 DUP3 MSTORE DUP1 PUSH1 0x20 MUL PUSH1 0x20 ADD DUP3 ADD PUSH1 0x40 MSTORE DUP1 ISZERO PUSH2 0x1E03 JUMPI DUP2 PUSH1 0x20 ADD JUMPDEST PUSH2 0x1DF0 PUSH2 0x418C JUMP JUMPDEST DUP2 MSTORE PUSH1 0x20 ADD SWAP1 PUSH1 0x1 SWAP1 SUB SWAP1 DUP2 PUSH2 0x1DE8 JUMPI SWAP1 POP JUMPDEST POP SWAP7 POP PUSH0 DUP1 PUSH2 0x1E13 DUP5 PUSH1 0x1 PUSH2 0x4B8F JUMP JUMPDEST SWAP1 POP JUMPDEST DUP3 DUP2 GT PUSH2 0x1F7C JUMPI PUSH0 DUP2 DUP2 MSTORE PUSH1 0x1 DUP8 ADD PUSH1 0x20 MSTORE PUSH1 0x40 SWAP1 KECCAK256 SLOAD PUSH1 0xFF AND ISZERO PUSH2 0x1F6A JUMPI PUSH0 DUP2 DUP2 MSTORE PUSH1 0x20 DUP15 DUP2 MSTORE PUSH1 0x40 SWAP2 DUP3 SWAP1 KECCAK256 DUP3 MLOAD PUSH1 0xA0 DUP2 ADD SWAP1 SWAP4 MSTORE DUP1 SLOAD DUP4 MSTORE PUSH1 0x1 DUP2 ADD DUP1 SLOAD SWAP2 SWAP4 SWAP3 DUP4 ADD SWAP2 PUSH2 0x1E66 SWAP1 PUSH2 0x4A72 JUMP JUMPDEST DUP1 PUSH1 0x1F ADD PUSH1 0x20 DUP1 SWAP2 DIV MUL PUSH1 0x20 ADD PUSH1 0x40 MLOAD SWAP1 DUP2 ADD PUSH1 0x40 MSTORE DUP1 SWAP3 SWAP2 SWAP1 DUP2 DUP2 MSTORE PUSH1 0x20 ADD DUP3 DUP1 SLOAD PUSH2 0x1E92 SWAP1 PUSH2 0x4A72 JUMP JUMPDEST DUP1 ISZERO PUSH2 0x1EDD JUMPI DUP1 PUSH1 0x1F LT PUSH2 0x1EB4 JUMPI PUSH2 0x100 DUP1 DUP4 SLOAD DIV MUL DUP4 MSTORE SWAP2 PUSH1 0x20 ADD SWAP2 PUSH2 0x1EDD JUMP JUMPDEST DUP3 ADD SWAP2 SWAP1 PUSH0 MSTORE PUSH1 0x20 PUSH0 KECCAK256 SWAP1 JUMPDEST DUP2 SLOAD DUP2 MSTORE SWAP1 PUSH1 0x1 ADD SWAP1 PUSH1 0x20 ADD DUP1 DUP4 GT PUSH2 0x1EC0 JUMPI DUP3 SWAP1 SUB PUSH1 0x1F AND DUP3 ADD SWAP2 JUMPDEST POP POP POP POP POP DUP2 MSTORE PUSH1 0x20 ADD DUP9 PUSH1 0x3 ADD PUSH0 DUP6 DUP2 MSTORE PUSH1 0x20 ADD SWAP1 DUP2 MSTORE PUSH1 0x20 ADD PUSH0 KECCAK256 PUSH0 SWAP1 SLOAD SWAP1 PUSH2 0x100 EXP SWAP1 DIV PUSH1 0xFF AND ISZERO ISZERO DUP2 MSTORE PUSH1 0x20 ADD DUP16 PUSH1 0x2 ADD PUSH0 DUP6 DUP2 MSTORE PUSH1 0x20 ADD SWAP1 DUP2 MSTORE PUSH1 0x20 ADD PUSH0 KECCAK256 PUSH0 SWAP1 SLOAD SWAP1 PUSH2 0x100 EXP SWAP1 DIV PUSH1 0xFF AND ISZERO ISZERO DUP2 MSTORE PUSH1 0x20 ADD DUP3 PUSH1 0x3 ADD SLOAD DUP2 MSTORE POP DUP11 DUP5 DUP2 MLOAD DUP2 LT PUSH2 0x1F4F JUMPI PUSH2 0x1F4F PUSH2 0x4A5E JUMP JUMPDEST PUSH1 0x20 MUL PUSH1 0x20 ADD ADD DUP2 SWAP1 MSTORE POP DUP3 DUP1 PUSH2 0x1F65 SWAP1 PUSH2 0x4BA2 JUMP JUMPDEST SWAP4 POP POP POP JUMPDEST DUP1 PUSH2 0x1F74 DUP2 PUSH2 0x4BA2 JUMP JUMPDEST SWAP2 POP POP PUSH2 0x1E16 JUMP JUMPDEST POP POP PUSH1 0x2 SWAP1 SWAP4 ADD SLOAD SWAP5 POP POP POP DUP3 GT SWAP1 POP JUMPDEST SWAP5 POP SWAP5 POP SWAP5 SWAP2 POP POP JUMP JUMPDEST PUSH1 0x2 PUSH1 0x1 SLOAD SUB PUSH2 0x1FE9 JUMPI PUSH1 0x40 MLOAD PUSH3 0x461BCD PUSH1 0xE5 SHL DUP2 MSTORE PUSH1 0x20 PUSH1 0x4 DUP3 ADD MSTORE PUSH1 0x1F PUSH1 0x24 DUP3 ADD MSTORE PUSH32 0x5265656E7472616E637947756172643A207265656E7472616E742063616C6C00 PUSH1 0x44 DUP3 ADD MSTORE PUSH1 0x64 ADD PUSH2 0x1C30 JUMP JUMPDEST PUSH1 0x2 PUSH1 0x1 SSTORE JUMP JUMPDEST PUSH1 0x2 SLOAD PUSH1 0xFF AND ISZERO PUSH2 0x2036 JUMPI PUSH1 0x40 MLOAD PUSH3 0x461BCD PUSH1 0xE5 SHL DUP2 MSTORE PUSH1 0x20 PUSH1 0x4 DUP3 ADD MSTORE PUSH1 0x10 PUSH1 0x24 DUP3 ADD MSTORE PUSH16 0x14185D5CD8589B194E881C185D5CD959 PUSH1 0x82 SHL PUSH1 0x44 DUP3 ADD MSTORE PUSH1 0x64 ADD PUSH2 0x1C30 JUMP JUMPDEST JUMP JUMPDEST DUP1 PUSH1 0x40 MLOAD PUSH4 0xD647364F PUSH1 0xE0 SHL DUP2 MSTORE PUSH1 0x4 ADD PUSH2 0x1C30 SWAP2 SWAP1 PUSH2 0x4B7D JUMP JUMPDEST DUP1 PUSH1 0x40 MLOAD PUSH3 0x1D3E7F PUSH1 0xE0 SHL DUP2 MSTORE PUSH1 0x4 ADD PUSH2 0x1C30 SWAP2 SWAP1 PUSH2 0x4B7D JUMP JUMPDEST PUSH0 SWAP1 DUP2 MSTORE PUSH1 0x20 SWAP2 SWAP1 SWAP2 MSTORE PUSH1 0x40 SWAP1 KECCAK256 PUSH1 0xA ADD SLOAD PUSH1 0x1 PUSH1 0x1 PUSH1 0xA0 SHL SUB AND SWAP1 JUMP JUMPDEST PUSH0 DUP4 PUSH0 ADD DUP4 DUP4 PUSH1 0x40 MLOAD PUSH2 0x209F SWAP3 SWAP2 SWAP1 PUSH2 0x4851 JUMP JUMPDEST SWAP1 DUP2 MSTORE PUSH1 0x40 MLOAD SWAP1 DUP2 SWAP1 SUB PUSH1 0x20 ADD SWAP1 KECCAK256 PUSH1 0x3 ADD SLOAD PUSH1 0xFF AND SWAP1 POP SWAP4 SWAP3 POP POP POP JUMP JUMPDEST DUP1 PUSH1 0x40 MLOAD PUSH4 0xA1B63CEB PUSH1 0xE0 SHL DUP2 MSTORE PUSH1 0x4 ADD PUSH2 0x1C30 SWAP2 SWAP1 PUSH2 0x4B7D JUMP JUMPDEST PUSH0 DUP5 PUSH1 0x2 ADD DUP5 DUP5 PUSH1 0x40 MLOAD PUSH2 0x20EE SWAP3 SWAP2 SWAP1 PUSH2 0x4851 JUMP JUMPDEST SWAP1 DUP2 MSTORE PUSH1 0x40 DUP1 MLOAD PUSH1 0x20 SWAP3 DUP2 SWAP1 SUB DUP4 ADD SWAP1 KECCAK256 PUSH0 DUP6 DUP2 MSTORE SWAP3 MSTORE SWAP1 KECCAK256 SLOAD PUSH1 0xFF AND SWAP1 POP JUMPDEST SWAP5 SWAP4 POP POP POP POP JUMP JUMPDEST PUSH0 DUP1 JUMPDEST PUSH1 0x4 DUP7 ADD SLOAD DUP2 LT ISZERO PUSH2 0x22E6 JUMPI PUSH0 DUP2 DUP2 MSTORE PUSH1 0x5 DUP8 ADD PUSH1 0x20 MSTORE PUSH1 0x40 DUP2 KECCAK256 SWAP1 JUMPDEST DUP2 SLOAD DUP2 LT ISZERO PUSH2 0x22DC JUMPI DUP7 DUP7 PUSH1 0x40 MLOAD PUSH2 0x214F SWAP3 SWAP2 SWAP1 PUSH2 0x4851 JUMP JUMPDEST PUSH1 0x40 MLOAD DUP1 SWAP2 SUB SWAP1 KECCAK256 DUP3 DUP3 DUP2 SLOAD DUP2 LT PUSH2 0x2169 JUMPI PUSH2 0x2169 PUSH2 0x4A5E JUMP JUMPDEST SWAP1 PUSH0 MSTORE PUSH1 0x20 PUSH0 KECCAK256 SWAP1 PUSH1 0x5 MUL ADD PUSH0 ADD PUSH1 0x40 MLOAD PUSH2 0x2184 SWAP2 SWAP1 PUSH2 0x4B18 JUMP JUMPDEST PUSH1 0x40 MLOAD DUP1 SWAP2 SUB SWAP1 KECCAK256 SUB PUSH2 0x22D4 JUMPI DUP2 SLOAD PUSH2 0x219F SWAP1 PUSH1 0x1 SWAP1 PUSH2 0x4A4B JUMP JUMPDEST DUP2 EQ PUSH2 0x2256 JUMPI DUP2 SLOAD DUP3 SWAP1 PUSH2 0x21B5 SWAP1 PUSH1 0x1 SWAP1 PUSH2 0x4A4B JUMP JUMPDEST DUP2 SLOAD DUP2 LT PUSH2 0x21C5 JUMPI PUSH2 0x21C5 PUSH2 0x4A5E JUMP JUMPDEST SWAP1 PUSH0 MSTORE PUSH1 0x20 PUSH0 KECCAK256 SWAP1 PUSH1 0x5 MUL ADD DUP3 DUP3 DUP2 SLOAD DUP2 LT PUSH2 0x21E3 JUMPI PUSH2 0x21E3 PUSH2 0x4A5E JUMP JUMPDEST PUSH0 SWAP2 DUP3 MSTORE PUSH1 0x20 SWAP1 SWAP2 KECCAK256 PUSH1 0x5 SWAP1 SWAP2 MUL ADD DUP1 PUSH2 0x21FD DUP4 DUP3 PUSH2 0x4C12 JUMP JUMPDEST POP PUSH1 0x1 DUP3 DUP2 ADD SLOAD SWAP1 DUP3 ADD DUP1 SLOAD PUSH1 0x1 PUSH1 0x1 PUSH1 0xA0 SHL SUB NOT AND PUSH1 0x1 PUSH1 0x1 PUSH1 0xA0 SHL SUB SWAP1 SWAP3 AND SWAP2 SWAP1 SWAP2 OR SWAP1 SSTORE PUSH1 0x2 DUP1 DUP4 ADD SLOAD SWAP1 DUP3 ADD SSTORE PUSH1 0x3 DUP1 DUP4 ADD SLOAD SWAP1 DUP3 ADD DUP1 SLOAD PUSH1 0xFF SWAP1 SWAP3 AND ISZERO ISZERO PUSH1 0xFF NOT SWAP1 SWAP3 AND SWAP2 SWAP1 SWAP2 OR SWAP1 SSTORE PUSH1 0x4 SWAP2 DUP3 ADD SLOAD SWAP2 ADD SSTORE JUMPDEST DUP2 DUP1 SLOAD DUP1 PUSH2 0x2266 JUMPI PUSH2 0x2266 PUSH2 0x4CE1 JUMP JUMPDEST PUSH0 DUP3 DUP2 MSTORE PUSH1 0x20 DUP2 KECCAK256 PUSH0 NOT SWAP1 SWAP3 ADD SWAP2 PUSH1 0x5 DUP4 MUL ADD SWAP1 PUSH2 0x2284 DUP3 DUP3 PUSH2 0x41BB JUMP JUMPDEST POP PUSH1 0x1 DUP2 DUP2 ADD DUP1 SLOAD PUSH1 0x1 PUSH1 0x1 PUSH1 0xA0 SHL SUB NOT AND SWAP1 SSTORE PUSH0 PUSH1 0x2 DUP4 ADD DUP2 SWAP1 SSTORE PUSH1 0x3 DUP4 ADD DUP1 SLOAD PUSH1 0xFF NOT AND SWAP1 SSTORE PUSH1 0x4 SWAP1 SWAP3 ADD SWAP2 SWAP1 SWAP2 SSTORE SWAP2 SSTORE PUSH2 0x22C2 SWAP1 DUP7 SWAP1 PUSH2 0x3AAE JUMP JUMPDEST PUSH1 0x2 DUP10 ADD SSTORE POP PUSH1 0x1 SWAP3 POP PUSH2 0x210E SWAP2 POP POP JUMP JUMPDEST PUSH1 0x1 ADD PUSH2 0x2136 JUMP JUMPDEST POP POP PUSH1 0x1 ADD PUSH2 0x2119 JUMP JUMPDEST POP PUSH0 SWAP6 SWAP5 POP POP POP POP POP JUMP JUMPDEST DUP1 PUSH1 0x40 MLOAD PUSH4 0x313CB67 PUSH1 0xE6 SHL DUP2 MSTORE PUSH1 0x4 ADD PUSH2 0x1C30 SWAP2 SWAP1 PUSH2 0x4B7D JUMP JUMPDEST PUSH0 DUP2 DUP2 MSTORE PUSH1 0x6 PUSH1 0x20 SWAP1 DUP2 MSTORE PUSH1 0x40 DUP1 DUP4 KECCAK256 PUSH1 0x4 SWAP1 SWAP3 MSTORE DUP3 KECCAK256 PUSH1 0x2 DUP3 ADD SLOAD SWAP2 SWAP3 SWAP1 SWAP2 SWAP1 SUB PUSH2 0x233B JUMPI PUSH2 0x836 DUP2 PUSH2 0x3AB9 JUMP JUMPDEST PUSH1 0x1 PUSH1 0x5 DUP3 ADD SLOAD PUSH1 0xFF AND PUSH1 0x2 DUP2 GT ISZERO PUSH2 0x2356 JUMPI PUSH2 0x2356 PUSH2 0x463F JUMP JUMPDEST EQ DUP1 ISZERO PUSH2 0x2372 JUMPI POP PUSH1 0x3 DUP2 ADD SLOAD PUSH2 0x236F SWAP1 PUSH2 0xE10 PUSH2 0x4B8F JUMP JUMPDEST TIMESTAMP GT JUMPDEST ISZERO PUSH2 0x836 JUMPI PUSH1 0x5 DUP2 ADD DUP1 SLOAD PUSH1 0xFF NOT AND SWAP1 SSTORE PUSH0 PUSH1 0x3 DUP3 ADD DUP2 SWAP1 SSTORE PUSH1 0x4 SWAP1 SWAP2 ADD SSTORE POP POP JUMP JUMPDEST PUSH0 DUP1 DUP7 PUSH0 ADD DUP7 DUP7 PUSH1 0x40 MLOAD PUSH2 0x23AA SWAP3 SWAP2 SWAP1 PUSH2 0x4851 JUMP JUMPDEST SWAP1 DUP2 MSTORE PUSH1 0x40 MLOAD SWAP1 DUP2 SWAP1 SUB PUSH1 0x20 ADD DUP2 KECCAK256 PUSH1 0x3 ADD DUP1 SLOAD SWAP3 ISZERO ISZERO PUSH1 0xFF NOT SWAP1 SWAP4 AND SWAP3 SWAP1 SWAP3 OR SWAP1 SWAP2 SSTORE PUSH0 SWAP1 PUSH1 0x2 DUP9 ADD SWAP1 PUSH2 0x23E2 SWAP1 DUP9 SWAP1 DUP9 SWAP1 PUSH2 0x4851 JUMP JUMPDEST SWAP1 DUP2 MSTORE PUSH1 0x20 ADD PUSH1 0x40 MLOAD DUP1 SWAP2 SUB SWAP1 KECCAK256 PUSH0 DUP6 DUP2 MSTORE PUSH1 0x20 ADD SWAP1 DUP2 MSTORE PUSH1 0x20 ADD PUSH0 KECCAK256 PUSH0 PUSH2 0x100 EXP DUP2 SLOAD DUP2 PUSH1 0xFF MUL NOT AND SWAP1 DUP4 ISZERO ISZERO MUL OR SWAP1 SSTORE POP PUSH2 0x2425 DUP3 DUP7 DUP7 DUP6 PUSH1 0x2 ADD SLOAD PUSH2 0x2116 JUMP JUMPDEST SWAP7 SWAP6 POP POP POP POP POP POP JUMP JUMPDEST PUSH0 DUP2 DUP2 MSTORE PUSH1 0x20 DUP4 SWAP1 MSTORE PUSH1 0x40 SWAP1 KECCAK256 PUSH1 0x3 ADD SLOAD ISZERO PUSH2 0x120F JUMPI PUSH0 DUP2 DUP2 MSTORE PUSH1 0x20 DUP4 SWAP1 MSTORE PUSH1 0x40 DUP2 KECCAK256 PUSH1 0x3 ADD DUP1 SLOAD SWAP2 PUSH2 0x2461 DUP4 PUSH2 0x4CF5 JUMP JUMPDEST SWAP2 SWAP1 POP SSTORE POP POP POP JUMP JUMPDEST PUSH2 0x2472 PUSH2 0x40EA JUMP JUMPDEST PUSH0 DUP3 DUP2 MSTORE PUSH1 0x20 DUP5 DUP2 MSTORE PUSH1 0x40 SWAP2 DUP3 SWAP1 KECCAK256 DUP3 MLOAD PUSH2 0x160 DUP2 ADD SWAP1 SWAP4 MSTORE DUP1 SLOAD DUP4 MSTORE PUSH1 0x1 DUP2 ADD DUP1 SLOAD SWAP2 SWAP3 DUP5 ADD SWAP2 PUSH2 0x24A3 SWAP1 PUSH2 0x4A72 JUMP JUMPDEST DUP1 PUSH1 0x1F ADD PUSH1 0x20 DUP1 SWAP2 DIV MUL PUSH1 0x20 ADD PUSH1 0x40 MLOAD SWAP1 DUP2 ADD PUSH1 0x40 MSTORE DUP1 SWAP3 SWAP2 SWAP1 DUP2 DUP2 MSTORE PUSH1 0x20 ADD DUP3 DUP1 SLOAD PUSH2 0x24CF SWAP1 PUSH2 0x4A72 JUMP JUMPDEST DUP1 ISZERO PUSH2 0x251A JUMPI DUP1 PUSH1 0x1F LT PUSH2 0x24F1 JUMPI PUSH2 0x100 DUP1 DUP4 SLOAD DIV MUL DUP4 MSTORE SWAP2 PUSH1 0x20 ADD SWAP2 PUSH2 0x251A JUMP JUMPDEST DUP3 ADD SWAP2 SWAP1 PUSH0 MSTORE PUSH1 0x20 PUSH0 KECCAK256 SWAP1 JUMPDEST DUP2 SLOAD DUP2 MSTORE SWAP1 PUSH1 0x1 ADD SWAP1 PUSH1 0x20 ADD DUP1 DUP4 GT PUSH2 0x24FD JUMPI DUP3 SWAP1 SUB PUSH1 0x1F AND DUP3 ADD SWAP2 JUMPDEST POP POP POP POP POP DUP2 MSTORE PUSH1 0x20 ADD PUSH1 0x2 DUP3 ADD DUP1 SLOAD PUSH2 0x2533 SWAP1 PUSH2 0x4A72 JUMP JUMPDEST DUP1 PUSH1 0x1F ADD PUSH1 0x20 DUP1 SWAP2 DIV MUL PUSH1 0x20 ADD PUSH1 0x40 MLOAD SWAP1 DUP2 ADD PUSH1 0x40 MSTORE DUP1 SWAP3 SWAP2 SWAP1 DUP2 DUP2 MSTORE PUSH1 0x20 ADD DUP3 DUP1 SLOAD PUSH2 0x255F SWAP1 PUSH2 0x4A72 JUMP JUMPDEST DUP1 ISZERO PUSH2 0x25AA JUMPI DUP1 PUSH1 0x1F LT PUSH2 0x2581 JUMPI PUSH2 0x100 DUP1 DUP4 SLOAD DIV MUL DUP4 MSTORE SWAP2 PUSH1 0x20 ADD SWAP2 PUSH2 0x25AA JUMP JUMPDEST DUP3 ADD SWAP2 SWAP1 PUSH0 MSTORE PUSH1 0x20 PUSH0 KECCAK256 SWAP1 JUMPDEST DUP2 SLOAD DUP2 MSTORE SWAP1 PUSH1 0x1 ADD SWAP1 PUSH1 0x20 ADD DUP1 DUP4 GT PUSH2 0x258D JUMPI DUP3 SWAP1 SUB PUSH1 0x1F AND DUP3 ADD SWAP2 JUMPDEST POP POP POP SWAP2 DUP4 MSTORE POP POP PUSH1 0x3 DUP3 ADD SLOAD PUSH1 0x20 DUP3 ADD MSTORE PUSH1 0x4 DUP3 ADD SLOAD PUSH1 0x40 DUP3 ADD MSTORE PUSH1 0x5 DUP3 ADD SLOAD PUSH1 0x60 SWAP1 SWAP2 ADD SWAP1 PUSH1 0xFF AND PUSH1 0x2 DUP2 GT ISZERO PUSH2 0x25E5 JUMPI PUSH2 0x25E5 PUSH2 0x463F JUMP JUMPDEST PUSH1 0x2 DUP2 GT ISZERO PUSH2 0x25F6 JUMPI PUSH2 0x25F6 PUSH2 0x463F JUMP JUMPDEST DUP2 MSTORE PUSH1 0x20 ADD PUSH1 0x6 DUP3 ADD SLOAD DUP2 MSTORE PUSH1 0x20 ADD PUSH1 0x7 DUP3 ADD DUP1 SLOAD PUSH2 0x2614 SWAP1 PUSH2 0x4A72 JUMP JUMPDEST DUP1 PUSH1 0x1F ADD PUSH1 0x20 DUP1 SWAP2 DIV MUL PUSH1 0x20 ADD PUSH1 0x40 MLOAD SWAP1 DUP2 ADD PUSH1 0x40 MSTORE DUP1 SWAP3 SWAP2 SWAP1 DUP2 DUP2 MSTORE PUSH1 0x20 ADD DUP3 DUP1 SLOAD PUSH2 0x2640 SWAP1 PUSH2 0x4A72 JUMP JUMPDEST DUP1 ISZERO PUSH2 0x268B JUMPI DUP1 PUSH1 0x1F LT PUSH2 0x2662 JUMPI PUSH2 0x100 DUP1 DUP4 SLOAD DIV MUL DUP4 MSTORE SWAP2 PUSH1 0x20 ADD SWAP2 PUSH2 0x268B JUMP JUMPDEST DUP3 ADD SWAP2 SWAP1 PUSH0 MSTORE PUSH1 0x20 PUSH0 KECCAK256 SWAP1 JUMPDEST DUP2 SLOAD DUP2 MSTORE SWAP1 PUSH1 0x1 ADD SWAP1 PUSH1 0x20 ADD DUP1 DUP4 GT PUSH2 0x266E JUMPI DUP3 SWAP1 SUB PUSH1 0x1F AND DUP3 ADD SWAP2 JUMPDEST POP POP POP SWAP2 DUP4 MSTORE POP POP PUSH1 0x8 DUP3 ADD SLOAD PUSH1 0x20 DUP3 ADD MSTORE PUSH1 0x9 DUP3 ADD SLOAD PUSH1 0x40 DUP3 ADD MSTORE PUSH1 0xA SWAP1 SWAP2 ADD SLOAD PUSH1 0x1 PUSH1 0x1 PUSH1 0xA0 SHL SUB AND PUSH1 0x60 SWAP1 SWAP2 ADD MSTORE SWAP4 SWAP3 POP POP POP JUMP JUMPDEST PUSH1 0x3 DUP3 ADD SLOAD PUSH0 SWAP1 PUSH1 0xFF AND PUSH2 0x2711 JUMPI PUSH1 0x40 MLOAD PUSH4 0xA1B63CEB PUSH1 0xE0 SHL DUP2 MSTORE PUSH1 0x20 PUSH1 0x4 DUP3 ADD MSTORE PUSH1 0x14 PUSH1 0x24 DUP3 ADD MSTORE PUSH20 0x446576696365206973206E6F7420616374697665 PUSH1 0x60 SHL PUSH1 0x44 DUP3 ADD MSTORE PUSH1 0x64 ADD PUSH2 0x1C30 JUMP JUMPDEST DUP3 SLOAD PUSH1 0x1 PUSH1 0x1 PUSH1 0xA0 SHL SUB DUP4 DUP2 AND SWAP2 AND EQ PUSH2 0x275F JUMPI PUSH1 0x40 MLOAD PUSH4 0xA1B63CEB PUSH1 0xE0 SHL DUP2 MSTORE PUSH1 0x20 PUSH1 0x4 DUP3 ADD MSTORE PUSH1 0xE PUSH1 0x24 DUP3 ADD MSTORE PUSH14 0x24B73B30B634B21039B2B73232B9 PUSH1 0x91 SHL PUSH1 0x44 DUP3 ADD MSTORE PUSH1 0x64 ADD PUSH2 0x1C30 JUMP JUMPDEST POP PUSH1 0x1 SWAP3 SWAP2 POP POP JUMP JUMPDEST PUSH2 0x2772 DUP2 DUP4 PUSH2 0x4B8F JUMP JUMPDEST DUP4 LT DUP1 PUSH2 0x277E JUMPI POP DUP2 DUP4 EQ JUMPDEST ISZERO PUSH2 0x836 JUMPI PUSH1 0x40 MLOAD PUSH4 0xA1B63CEB PUSH1 0xE0 SHL DUP2 MSTORE PUSH1 0x20 PUSH1 0x4 DUP3 ADD MSTORE PUSH1 0x25 PUSH1 0x24 DUP3 ADD MSTORE PUSH32 0x457865637574696F6E20636F6F6C646F776E20706572696F64206E6F7420656C PUSH1 0x44 DUP3 ADD MSTORE PUSH5 0x185C1CD959 PUSH1 0xDA SHL PUSH1 0x64 DUP3 ADD MSTORE PUSH1 0x84 ADD PUSH2 0x1C30 JUMP JUMPDEST PUSH5 0x100000000 DUP2 LT PUSH2 0x282F JUMPI PUSH1 0x40 MLOAD PUSH4 0xA1B63CEB PUSH1 0xE0 SHL DUP2 MSTORE PUSH1 0x20 PUSH1 0x4 DUP3 ADD MSTORE PUSH1 0x17 PUSH1 0x24 DUP3 ADD MSTORE PUSH32 0x457865637574696F6E206C696D69742072656163686564000000000000000000 PUSH1 0x44 DUP3 ADD MSTORE PUSH1 0x64 ADD PUSH2 0x1C30 JUMP JUMPDEST PUSH2 0x283B PUSH1 0x1 PUSH0 NOT PUSH2 0x4A4B JUMP JUMPDEST DUP2 LT PUSH2 0xB83 JUMPI PUSH1 0x40 MLOAD PUSH3 0x461BCD PUSH1 0xE5 SHL DUP2 MSTORE PUSH1 0x20 PUSH1 0x4 DUP3 ADD DUP2 SWAP1 MSTORE PUSH1 0x24 DUP3 ADD MSTORE PUSH32 0x457865637574696F6E20636F756E74657220776F756C64206F766572666C6F77 PUSH1 0x44 DUP3 ADD MSTORE PUSH1 0x64 ADD PUSH2 0x1C30 JUMP JUMPDEST PUSH1 0x40 MLOAD PUSH0 SWAP1 TIMESTAMP SWAP1 DUP3 SWAP1 DUP7 SWAP1 PUSH2 0x28A1 SWAP1 DUP8 SWAP1 DUP8 SWAP1 PUSH2 0x4851 JUMP JUMPDEST SWAP1 DUP2 MSTORE PUSH1 0x40 MLOAD SWAP1 DUP2 SWAP1 SUB PUSH1 0x20 ADD SWAP1 KECCAK256 SLOAD SWAP1 POP PUSH0 PUSH2 0x28BF DUP3 PUSH1 0x1 PUSH2 0x4B8F JUMP JUMPDEST SWAP1 POP DUP3 DUP8 PUSH1 0x1 ADD DUP8 DUP8 PUSH1 0x40 MLOAD PUSH2 0x28D6 SWAP3 SWAP2 SWAP1 PUSH2 0x4851 JUMP JUMPDEST SWAP1 DUP2 MSTORE PUSH1 0x40 MLOAD SWAP1 DUP2 SWAP1 SUB PUSH1 0x20 ADD DUP2 KECCAK256 SWAP2 SWAP1 SWAP2 SSTORE DUP2 SWAP1 DUP9 SWAP1 PUSH2 0x28FA SWAP1 DUP10 SWAP1 DUP10 SWAP1 PUSH2 0x4851 JUMP JUMPDEST SWAP1 DUP2 MSTORE PUSH1 0x40 MLOAD SWAP1 DUP2 SWAP1 SUB PUSH1 0x20 ADD SWAP1 KECCAK256 SSTORE SWAP3 POP POP POP SWAP4 SWAP3 POP POP POP JUMP JUMPDEST PUSH0 DUP5 DUP5 PUSH1 0x40 MLOAD PUSH2 0x2926 SWAP3 SWAP2 SWAP1 PUSH2 0x4851 JUMP JUMPDEST PUSH1 0x40 DUP1 MLOAD SWAP2 DUP3 SWAP1 SUB SWAP1 SWAP2 KECCAK256 PUSH0 DUP2 DUP2 MSTORE PUSH1 0x20 DUP6 SWAP1 MSTORE SWAP2 SWAP1 SWAP2 KECCAK256 SLOAD PUSH1 0x4 DUP9 ADD SLOAD SWAP2 SWAP3 POP SWAP1 DUP2 LT PUSH2 0x2955 JUMPI POP POP PUSH2 0x29E2 JUMP JUMPDEST PUSH0 DUP2 DUP2 MSTORE PUSH1 0x5 DUP9 ADD PUSH1 0x20 MSTORE PUSH1 0x40 DUP2 KECCAK256 SWAP1 JUMPDEST DUP2 SLOAD DUP2 LT ISZERO PUSH2 0x29DD JUMPI DUP4 DUP3 DUP3 DUP2 SLOAD DUP2 LT PUSH2 0x2982 JUMPI PUSH2 0x2982 PUSH2 0x4A5E JUMP JUMPDEST SWAP1 PUSH0 MSTORE PUSH1 0x20 PUSH0 KECCAK256 SWAP1 PUSH1 0x5 MUL ADD PUSH0 ADD PUSH1 0x40 MLOAD PUSH2 0x299D SWAP2 SWAP1 PUSH2 0x4B18 JUMP JUMPDEST PUSH1 0x40 MLOAD DUP1 SWAP2 SUB SWAP1 KECCAK256 SUB PUSH2 0x29D5 JUMPI DUP6 DUP3 DUP3 DUP2 SLOAD DUP2 LT PUSH2 0x29BD JUMPI PUSH2 0x29BD PUSH2 0x4A5E JUMP JUMPDEST SWAP1 PUSH0 MSTORE PUSH1 0x20 PUSH0 KECCAK256 SWAP1 PUSH1 0x5 MUL ADD PUSH1 0x4 ADD DUP2 SWAP1 SSTORE POP PUSH2 0x29DD JUMP JUMPDEST PUSH1 0x1 ADD PUSH2 0x2966 JUMP JUMPDEST POP POP POP POP JUMPDEST POP POP POP POP POP JUMP JUMPDEST PUSH2 0xB83 DUP2 CALLER PUSH2 0x3AF7 JUMP JUMPDEST PUSH0 PUSH2 0x29FE DUP4 DUP4 PUSH2 0xFA0 JUMP JUMPDEST PUSH2 0x2A7B JUMPI PUSH0 DUP4 DUP2 MSTORE PUSH1 0x20 DUP2 DUP2 MSTORE PUSH1 0x40 DUP1 DUP4 KECCAK256 PUSH1 0x1 PUSH1 0x1 PUSH1 0xA0 SHL SUB DUP7 AND DUP5 MSTORE SWAP1 SWAP2 MSTORE SWAP1 KECCAK256 DUP1 SLOAD PUSH1 0xFF NOT AND PUSH1 0x1 OR SWAP1 SSTORE PUSH2 0x2A33 CALLER SWAP1 JUMP JUMPDEST PUSH1 0x1 PUSH1 0x1 PUSH1 0xA0 SHL SUB AND DUP3 PUSH1 0x1 PUSH1 0x1 PUSH1 0xA0 SHL SUB AND DUP5 PUSH32 0x2F8788117E7EFF1D82E926EC794901D17C78024A50270940304540A733656F0D PUSH1 0x40 MLOAD PUSH1 0x40 MLOAD DUP1 SWAP2 SUB SWAP1 LOG4 POP PUSH1 0x1 PUSH2 0x5DB JUMP JUMPDEST POP PUSH0 PUSH2 0x5DB JUMP JUMPDEST PUSH0 PUSH2 0x2A8D DUP4 DUP4 PUSH2 0xFA0 JUMP JUMPDEST ISZERO PUSH2 0x2A7B JUMPI PUSH0 DUP4 DUP2 MSTORE PUSH1 0x20 DUP2 DUP2 MSTORE PUSH1 0x40 DUP1 DUP4 KECCAK256 PUSH1 0x1 PUSH1 0x1 PUSH1 0xA0 SHL SUB DUP7 AND DUP1 DUP6 MSTORE SWAP3 MSTORE DUP1 DUP4 KECCAK256 DUP1 SLOAD PUSH1 0xFF NOT AND SWAP1 SSTORE MLOAD CALLER SWAP3 DUP7 SWAP2 PUSH32 0xF6391F5C32D9C69D2A47EA670B442974B53935D1EDC7FD64EB21E047A839171B SWAP2 SWAP1 LOG4 POP PUSH1 0x1 PUSH2 0x5DB JUMP JUMPDEST PUSH1 0x1 PUSH1 0x1 PUSH1 0xA0 SHL SUB DUP2 AND PUSH0 SWAP1 DUP2 MSTORE PUSH1 0x1 DUP1 DUP6 ADD PUSH1 0x20 SWAP1 DUP2 MSTORE PUSH1 0x40 DUP1 DUP5 KECCAK256 DUP7 DUP6 MSTORE SWAP3 DUP4 ADD SWAP1 SWAP2 MSTORE SWAP1 SWAP2 KECCAK256 SLOAD PUSH1 0xFF AND PUSH2 0x2B59 JUMPI PUSH1 0x40 MLOAD PUSH3 0x461BCD PUSH1 0xE5 SHL DUP2 MSTORE PUSH1 0x20 PUSH1 0x4 DUP3 ADD MSTORE PUSH1 0x12 PUSH1 0x24 DUP3 ADD MSTORE PUSH18 0x15DBDC9AD99B1BDDC81B9BDD08199BDD5B99 PUSH1 0x72 SHL PUSH1 0x44 DUP3 ADD MSTORE PUSH1 0x64 ADD PUSH2 0x1C30 JUMP JUMPDEST PUSH0 DUP4 DUP2 MSTORE PUSH1 0x3 DUP3 ADD PUSH1 0x20 MSTORE PUSH1 0x40 SWAP1 KECCAK256 SLOAD PUSH1 0xFF AND ISZERO PUSH2 0x2BAC JUMPI PUSH1 0x40 MLOAD PUSH3 0x461BCD PUSH1 0xE5 SHL DUP2 MSTORE PUSH1 0x20 PUSH1 0x4 DUP3 ADD MSTORE PUSH1 0x10 PUSH1 0x24 DUP3 ADD MSTORE PUSH16 0x105B1C9958591E48185C98DA1A5D9959 PUSH1 0x82 SHL PUSH1 0x44 DUP3 ADD MSTORE PUSH1 0x64 ADD PUSH2 0x1C30 JUMP JUMPDEST PUSH0 JUMPDEST DUP2 SLOAD DUP2 LT ISZERO PUSH2 0x2C68 JUMPI DUP4 DUP3 PUSH0 ADD DUP3 DUP2 SLOAD DUP2 LT PUSH2 0x2BCC JUMPI PUSH2 0x2BCC PUSH2 0x4A5E JUMP JUMPDEST SWAP1 PUSH0 MSTORE PUSH1 0x20 PUSH0 KECCAK256 ADD SLOAD SUB PUSH2 0x2C60 JUMPI DUP2 SLOAD PUSH2 0x2BE8 SWAP1 PUSH1 0x1 SWAP1 PUSH2 0x4A4B JUMP JUMPDEST DUP2 EQ PUSH2 0x2C37 JUMPI DUP2 SLOAD DUP3 SWAP1 PUSH2 0x2BFE SWAP1 PUSH1 0x1 SWAP1 PUSH2 0x4A4B JUMP JUMPDEST DUP2 SLOAD DUP2 LT PUSH2 0x2C0E JUMPI PUSH2 0x2C0E PUSH2 0x4A5E JUMP JUMPDEST SWAP1 PUSH0 MSTORE PUSH1 0x20 PUSH0 KECCAK256 ADD SLOAD DUP3 PUSH0 ADD DUP3 DUP2 SLOAD DUP2 LT PUSH2 0x2C2B JUMPI PUSH2 0x2C2B PUSH2 0x4A5E JUMP JUMPDEST PUSH0 SWAP2 DUP3 MSTORE PUSH1 0x20 SWAP1 SWAP2 KECCAK256 ADD SSTORE JUMPDEST DUP2 SLOAD DUP3 SWAP1 DUP1 PUSH2 0x2C48 JUMPI PUSH2 0x2C48 PUSH2 0x4CE1 JUMP JUMPDEST PUSH1 0x1 SWAP1 SUB DUP2 DUP2 SWAP1 PUSH0 MSTORE PUSH1 0x20 PUSH0 KECCAK256 ADD PUSH0 SWAP1 SSTORE SWAP1 SSTORE PUSH2 0x2C68 JUMP JUMPDEST PUSH1 0x1 ADD PUSH2 0x2BAE JUMP JUMPDEST POP PUSH0 DUP4 DUP2 MSTORE PUSH1 0x3 DUP3 ADD PUSH1 0x20 MSTORE PUSH1 0x40 DUP1 DUP3 KECCAK256 DUP1 SLOAD PUSH1 0xFF NOT AND PUSH1 0x1 OR SWAP1 SSTORE MLOAD PUSH1 0x1 PUSH1 0x1 PUSH1 0xA0 SHL SUB DUP5 AND SWAP2 DUP6 SWAP2 PUSH32 0x3627FEF36FF2B68661B72D09C44779BF195E068A3CC13F8A9D0EEC173558188C SWAP2 SWAP1 LOG3 POP POP POP POP JUMP JUMPDEST PUSH2 0x2CC4 PUSH2 0x3B30 JUMP JUMPDEST PUSH1 0x2 DUP1 SLOAD PUSH1 0xFF NOT AND SWAP1 SSTORE PUSH32 0x5DB9EE0A495BF2E6FF9C91A7834C1BA4FDD244A5E8AA4E537BD38AEAE4B073AA CALLER JUMPDEST PUSH1 0x40 MLOAD PUSH1 0x1 PUSH1 0x1 PUSH1 0xA0 SHL SUB SWAP1 SWAP2 AND DUP2 MSTORE PUSH1 0x20 ADD PUSH1 0x40 MLOAD DUP1 SWAP2 SUB SWAP1 LOG1 JUMP JUMPDEST DUP3 MLOAD PUSH0 SUB PUSH2 0x2D27 JUMPI DUP1 PUSH1 0x40 MLOAD PUSH1 0x20 ADD PUSH2 0x1C09 SWAP2 SWAP1 PUSH2 0x4D0A JUMP JUMPDEST DUP2 DUP4 MLOAD GT ISZERO PUSH2 0x836 JUMPI DUP1 PUSH1 0x40 MLOAD PUSH1 0x20 ADD PUSH2 0x1C09 SWAP2 SWAP1 PUSH2 0x4D35 JUMP JUMPDEST DUP2 DUP4 LT DUP1 PUSH2 0x2D4E JUMPI POP DUP1 DUP4 GT JUMPDEST ISZERO PUSH2 0x836 JUMPI PUSH1 0x40 MLOAD PUSH4 0xA1B63CEB PUSH1 0xE0 SHL DUP2 MSTORE PUSH1 0x20 PUSH1 0x4 DUP3 ADD MSTORE PUSH1 0x1A PUSH1 0x24 DUP3 ADD MSTORE PUSH32 0x496E76616C696420657865637574696F6E20696E74657276616C000000000000 PUSH1 0x44 DUP3 ADD MSTORE PUSH1 0x64 ADD PUSH2 0x1C30 JUMP JUMPDEST DUP4 MLOAD PUSH0 SWAP1 DUP2 MSTORE PUSH1 0x20 DUP7 SWAP1 MSTORE PUSH1 0x40 DUP2 KECCAK256 PUSH1 0x4 ADD SLOAD ISZERO PUSH2 0x2DF2 JUMPI PUSH1 0x40 MLOAD PUSH4 0x66910449 PUSH1 0xE0 SHL DUP2 MSTORE PUSH1 0x20 PUSH1 0x4 DUP3 ADD MSTORE PUSH1 0x12 PUSH1 0x24 DUP3 ADD MSTORE PUSH18 0x576F726B666C6F7720494420657869737473 PUSH1 0x70 SHL PUSH1 0x44 DUP3 ADD MSTORE PUSH1 0x64 ADD PUSH2 0x1C30 JUMP JUMPDEST PUSH1 0x40 MLOAD DUP1 PUSH2 0x160 ADD PUSH1 0x40 MSTORE DUP1 DUP7 PUSH0 ADD MLOAD DUP2 MSTORE PUSH1 0x20 ADD DUP7 PUSH1 0x20 ADD MLOAD DUP2 MSTORE PUSH1 0x20 ADD DUP7 PUSH1 0x40 ADD MLOAD DUP2 MSTORE PUSH1 0x20 ADD PUSH0 DUP2 MSTORE PUSH1 0x20 ADD TIMESTAMP DUP2 MSTORE PUSH1 0x20 ADD PUSH0 PUSH1 0x2 DUP2 GT ISZERO PUSH2 0x2E39 JUMPI PUSH2 0x2E39 PUSH2 0x463F JUMP JUMPDEST DUP2 MSTORE PUSH1 0x20 ADD DUP5 DUP2 MSTORE PUSH1 0x20 ADD DUP7 PUSH1 0x60 ADD MLOAD DUP2 MSTORE PUSH1 0x20 ADD DUP4 DUP2 MSTORE PUSH1 0x20 ADD DUP7 PUSH1 0x80 ADD MLOAD DUP2 MSTORE PUSH1 0x20 ADD DUP6 PUSH1 0x1 PUSH1 0x1 PUSH1 0xA0 SHL SUB AND DUP2 MSTORE POP DUP7 PUSH0 ADD PUSH0 DUP8 PUSH0 ADD MLOAD DUP2 MSTORE PUSH1 0x20 ADD SWAP1 DUP2 MSTORE PUSH1 0x20 ADD PUSH0 KECCAK256 PUSH0 DUP3 ADD MLOAD DUP2 PUSH0 ADD SSTORE PUSH1 0x20 DUP3 ADD MLOAD DUP2 PUSH1 0x1 ADD SWAP1 DUP2 PUSH2 0x2E9D SWAP2 SWAP1 PUSH2 0x4D63 JUMP JUMPDEST POP PUSH1 0x40 DUP3 ADD MLOAD PUSH1 0x2 DUP3 ADD SWAP1 PUSH2 0x2EB2 SWAP1 DUP3 PUSH2 0x4D63 JUMP JUMPDEST POP PUSH1 0x60 DUP3 ADD MLOAD PUSH1 0x3 DUP3 ADD SSTORE PUSH1 0x80 DUP3 ADD MLOAD PUSH1 0x4 DUP3 ADD SSTORE PUSH1 0xA0 DUP3 ADD MLOAD PUSH1 0x5 DUP3 ADD DUP1 SLOAD PUSH1 0xFF NOT AND PUSH1 0x1 DUP4 PUSH1 0x2 DUP2 GT ISZERO PUSH2 0x2EEA JUMPI PUSH2 0x2EEA PUSH2 0x463F JUMP JUMPDEST MUL OR SWAP1 SSTORE POP PUSH1 0xC0 DUP3 ADD MLOAD PUSH1 0x6 DUP3 ADD SSTORE PUSH1 0xE0 DUP3 ADD MLOAD PUSH1 0x7 DUP3 ADD SWAP1 PUSH2 0x2F0D SWAP1 DUP3 PUSH2 0x4D63 JUMP JUMPDEST POP PUSH2 0x100 DUP3 ADD MLOAD PUSH1 0x8 DUP3 ADD SSTORE PUSH2 0x120 DUP3 ADD MLOAD PUSH1 0x9 DUP3 ADD SSTORE PUSH2 0x140 SWAP1 SWAP2 ADD MLOAD PUSH1 0xA SWAP1 SWAP2 ADD DUP1 SLOAD PUSH1 0x1 PUSH1 0x1 PUSH1 0xA0 SHL SUB NOT AND PUSH1 0x1 PUSH1 0x1 PUSH1 0xA0 SHL SUB SWAP1 SWAP3 AND SWAP2 SWAP1 SWAP2 OR SWAP1 SSTORE DUP5 MLOAD PUSH1 0x20 DUP7 ADD MLOAD PUSH1 0x60 DUP8 ADD MLOAD PUSH1 0x40 MLOAD PUSH32 0x6DF915C5AF2C5E4D6E9906FC27DFB18BB42B67D03E5CDB863393DEA18A7C7033 SWAP3 PUSH2 0x2F8C SWAP3 SWAP1 SWAP2 DUP10 SWAP2 SWAP1 PUSH2 0x4E09 JUMP JUMPDEST PUSH1 0x40 MLOAD DUP1 SWAP2 SUB SWAP1 LOG2 POP POP SWAP2 MLOAD SWAP4 SWAP3 POP POP POP JUMP JUMPDEST PUSH0 DUP4 PUSH1 0x4 ADD DUP4 DUP4 PUSH1 0x40 MLOAD PUSH2 0x2FB4 SWAP3 SWAP2 SWAP1 PUSH2 0x4851 JUMP JUMPDEST SWAP1 DUP2 MSTORE PUSH1 0x40 MLOAD SWAP1 DUP2 SWAP1 SUB PUSH1 0x20 ADD SWAP1 KECCAK256 SLOAD PUSH1 0x1 PUSH1 0x1 PUSH1 0xA0 SHL SUB AND SWAP1 POP SWAP4 SWAP3 POP POP POP JUMP JUMPDEST PUSH0 DUP4 PUSH1 0x3 ADD DUP4 DUP4 PUSH1 0x40 MLOAD PUSH2 0x2FEB SWAP3 SWAP2 SWAP1 PUSH2 0x4851 JUMP JUMPDEST SWAP1 DUP2 MSTORE PUSH1 0x40 MLOAD SWAP1 DUP2 SWAP1 SUB PUSH1 0x20 ADD DUP2 KECCAK256 SLOAD PUSH1 0xFF AND ISZERO SWAP1 PUSH1 0x3 DUP7 ADD SWAP1 PUSH2 0x3012 SWAP1 DUP7 SWAP1 DUP7 SWAP1 PUSH2 0x4851 JUMP JUMPDEST SWAP1 DUP2 MSTORE PUSH1 0x40 MLOAD SWAP1 DUP2 SWAP1 SUB PUSH1 0x20 ADD DUP2 KECCAK256 DUP1 SLOAD SWAP3 ISZERO ISZERO PUSH1 0xFF NOT SWAP1 SWAP4 AND SWAP3 SWAP1 SWAP3 OR SWAP1 SWAP2 SSTORE PUSH1 0x3 DUP6 ADD SWAP1 PUSH2 0x3045 SWAP1 DUP6 SWAP1 DUP6 SWAP1 PUSH2 0x4851 JUMP JUMPDEST SWAP1 DUP2 MSTORE PUSH1 0x40 MLOAD SWAP1 DUP2 SWAP1 SUB PUSH1 0x20 ADD SWAP1 KECCAK256 SLOAD PUSH1 0xFF AND SWAP1 POP SWAP4 SWAP3 POP POP POP JUMP JUMPDEST PUSH1 0x1 PUSH1 0x1 PUSH1 0xA0 SHL SUB DUP2 AND PUSH0 SWAP1 DUP2 MSTORE PUSH1 0x1 DUP6 ADD PUSH1 0x20 MSTORE PUSH1 0x40 DUP2 KECCAK256 PUSH1 0x60 SWAP2 SWAP1 DUP2 SWAP1 DUP2 PUSH2 0x308C DUP8 PUSH1 0x14 PUSH2 0x3A9F JUMP JUMPDEST SWAP1 POP PUSH0 DUP1 DUP4 PUSH1 0x2 ADD SLOAD PUSH1 0x1 PUSH1 0x1 PUSH1 0x40 SHL SUB DUP2 GT ISZERO PUSH2 0x30AC JUMPI PUSH2 0x30AC PUSH2 0x48A2 JUMP JUMPDEST PUSH1 0x40 MLOAD SWAP1 DUP1 DUP3 MSTORE DUP1 PUSH1 0x20 MUL PUSH1 0x20 ADD DUP3 ADD PUSH1 0x40 MSTORE DUP1 ISZERO PUSH2 0x30D5 JUMPI DUP2 PUSH1 0x20 ADD PUSH1 0x20 DUP3 MUL DUP1 CALLDATASIZE DUP4 CALLDATACOPY ADD SWAP1 POP JUMPDEST POP SWAP1 POP PUSH1 0x1 JUMPDEST DUP5 PUSH1 0x2 ADD SLOAD DUP2 GT PUSH2 0x3157 JUMPI PUSH0 DUP2 DUP2 MSTORE PUSH1 0x1 DUP7 ADD PUSH1 0x20 MSTORE PUSH1 0x40 SWAP1 KECCAK256 SLOAD PUSH1 0xFF AND DUP1 ISZERO PUSH2 0x3114 JUMPI POP PUSH0 DUP2 DUP2 MSTORE PUSH1 0x3 DUP7 ADD PUSH1 0x20 MSTORE PUSH1 0x40 SWAP1 KECCAK256 SLOAD PUSH1 0xFF AND JUMPDEST ISZERO PUSH2 0x3145 JUMPI DUP1 DUP3 DUP5 DUP2 MLOAD DUP2 LT PUSH2 0x312C JUMPI PUSH2 0x312C PUSH2 0x4A5E JUMP JUMPDEST PUSH1 0x20 SWAP1 DUP2 MUL SWAP2 SWAP1 SWAP2 ADD ADD MSTORE DUP3 PUSH2 0x3141 DUP2 PUSH2 0x4BA2 JUMP JUMPDEST SWAP4 POP POP JUMPDEST DUP1 PUSH2 0x314F DUP2 PUSH2 0x4BA2 JUMP JUMPDEST SWAP2 POP POP PUSH2 0x30DB JUMP JUMPDEST POP DUP10 PUSH0 PUSH2 0x316D PUSH2 0x3167 DUP7 DUP5 PUSH2 0x4B8F JUMP JUMPDEST DUP6 PUSH2 0x3A9F JUMP JUMPDEST SWAP1 POP DUP4 DUP3 LT PUSH2 0x3198 JUMPI POP POP PUSH1 0x40 DUP1 MLOAD PUSH0 DUP1 DUP3 MSTORE PUSH1 0x20 DUP3 ADD SWAP1 SWAP3 MSTORE SWAP8 POP SWAP2 SWAP6 POP SWAP1 SWAP4 POP PUSH2 0x1F8D SWAP3 POP POP POP JUMP JUMPDEST PUSH2 0x31A2 DUP3 DUP3 PUSH2 0x4A4B JUMP JUMPDEST PUSH1 0x1 PUSH1 0x1 PUSH1 0x40 SHL SUB DUP2 GT ISZERO PUSH2 0x31B9 JUMPI PUSH2 0x31B9 PUSH2 0x48A2 JUMP JUMPDEST PUSH1 0x40 MLOAD SWAP1 DUP1 DUP3 MSTORE DUP1 PUSH1 0x20 MUL PUSH1 0x20 ADD DUP3 ADD PUSH1 0x40 MSTORE DUP1 ISZERO PUSH2 0x31E2 JUMPI DUP2 PUSH1 0x20 ADD PUSH1 0x20 DUP3 MUL DUP1 CALLDATASIZE DUP4 CALLDATACOPY ADD SWAP1 POP JUMPDEST POP SWAP9 POP PUSH0 JUMPDEST PUSH2 0x31F1 DUP4 DUP4 PUSH2 0x4A4B JUMP JUMPDEST DUP2 LT ISZERO PUSH2 0x3240 JUMPI DUP4 PUSH2 0x3203 DUP3 DUP6 PUSH2 0x4B8F JUMP JUMPDEST DUP2 MLOAD DUP2 LT PUSH2 0x3213 JUMPI PUSH2 0x3213 PUSH2 0x4A5E JUMP JUMPDEST PUSH1 0x20 MUL PUSH1 0x20 ADD ADD MLOAD DUP11 DUP3 DUP2 MLOAD DUP2 LT PUSH2 0x322D JUMPI PUSH2 0x322D PUSH2 0x4A5E JUMP JUMPDEST PUSH1 0x20 SWAP1 DUP2 MUL SWAP2 SWAP1 SWAP2 ADD ADD MSTORE PUSH1 0x1 ADD PUSH2 0x31E7 JUMP JUMPDEST POP SWAP3 SWAP7 POP POP POP DUP5 GT SWAP3 POP POP POP SWAP5 POP SWAP5 POP SWAP5 SWAP2 POP POP JUMP JUMPDEST PUSH2 0x325E PUSH2 0x1FF0 JUMP JUMPDEST PUSH1 0x2 DUP1 SLOAD PUSH1 0xFF NOT AND PUSH1 0x1 OR SWAP1 SSTORE PUSH32 0x62E78CEA01BEE320CD4E420270B5EA74000D11B0C9F74754EBDBFC544B05A258 PUSH2 0x2CF1 CALLER SWAP1 JUMP JUMPDEST DUP1 DUP3 LT PUSH2 0x120F JUMPI PUSH1 0x40 MLOAD PUSH4 0xA1B63CEB PUSH1 0xE0 SHL DUP2 MSTORE PUSH1 0x20 PUSH1 0x4 DUP3 ADD MSTORE PUSH1 0x17 PUSH1 0x24 DUP3 ADD MSTORE PUSH32 0x496E76616C696420706172746974696F6E20696E646578000000000000000000 PUSH1 0x44 DUP3 ADD MSTORE PUSH1 0x64 ADD PUSH2 0x1C30 JUMP JUMPDEST PUSH0 DUP3 DUP2 MSTORE PUSH1 0x6 PUSH1 0x20 SWAP1 DUP2 MSTORE PUSH1 0x40 DUP1 DUP4 KECCAK256 DUP5 DUP5 MSTORE PUSH1 0x5 ADD SWAP1 SWAP2 MSTORE DUP2 KECCAK256 DUP1 SLOAD PUSH1 0x60 SWAP3 SWAP1 PUSH1 0x1 PUSH1 0x1 PUSH1 0x40 SHL SUB DUP2 GT ISZERO PUSH2 0x331B JUMPI PUSH2 0x331B PUSH2 0x48A2 JUMP JUMPDEST PUSH1 0x40 MLOAD SWAP1 DUP1 DUP3 MSTORE DUP1 PUSH1 0x20 MUL PUSH1 0x20 ADD DUP3 ADD PUSH1 0x40 MSTORE DUP1 ISZERO PUSH2 0x3354 JUMPI DUP2 PUSH1 0x20 ADD JUMPDEST PUSH2 0x3341 PUSH2 0x4156 JUMP JUMPDEST DUP2 MSTORE PUSH1 0x20 ADD SWAP1 PUSH1 0x1 SWAP1 SUB SWAP1 DUP2 PUSH2 0x3339 JUMPI SWAP1 POP JUMPDEST POP SWAP1 POP PUSH0 JUMPDEST DUP3 SLOAD DUP2 LT ISZERO PUSH2 0x3478 JUMPI DUP3 DUP2 DUP2 SLOAD DUP2 LT PUSH2 0x3374 JUMPI PUSH2 0x3374 PUSH2 0x4A5E JUMP JUMPDEST SWAP1 PUSH0 MSTORE PUSH1 0x20 PUSH0 KECCAK256 SWAP1 PUSH1 0x5 MUL ADD PUSH1 0x40 MLOAD DUP1 PUSH1 0xA0 ADD PUSH1 0x40 MSTORE SWAP1 DUP2 PUSH0 DUP3 ADD DUP1 SLOAD PUSH2 0x339A SWAP1 PUSH2 0x4A72 JUMP JUMPDEST DUP1 PUSH1 0x1F ADD PUSH1 0x20 DUP1 SWAP2 DIV MUL PUSH1 0x20 ADD PUSH1 0x40 MLOAD SWAP1 DUP2 ADD PUSH1 0x40 MSTORE DUP1 SWAP3 SWAP2 SWAP1 DUP2 DUP2 MSTORE PUSH1 0x20 ADD DUP3 DUP1 SLOAD PUSH2 0x33C6 SWAP1 PUSH2 0x4A72 JUMP JUMPDEST DUP1 ISZERO PUSH2 0x3411 JUMPI DUP1 PUSH1 0x1F LT PUSH2 0x33E8 JUMPI PUSH2 0x100 DUP1 DUP4 SLOAD DIV MUL DUP4 MSTORE SWAP2 PUSH1 0x20 ADD SWAP2 PUSH2 0x3411 JUMP JUMPDEST DUP3 ADD SWAP2 SWAP1 PUSH0 MSTORE PUSH1 0x20 PUSH0 KECCAK256 SWAP1 JUMPDEST DUP2 SLOAD DUP2 MSTORE SWAP1 PUSH1 0x1 ADD SWAP1 PUSH1 0x20 ADD DUP1 DUP4 GT PUSH2 0x33F4 JUMPI DUP3 SWAP1 SUB PUSH1 0x1F AND DUP3 ADD SWAP2 JUMPDEST POP POP POP SWAP2 DUP4 MSTORE POP POP PUSH1 0x1 DUP3 ADD SLOAD PUSH1 0x1 PUSH1 0x1 PUSH1 0xA0 SHL SUB AND PUSH1 0x20 DUP3 ADD MSTORE PUSH1 0x2 DUP3 ADD SLOAD PUSH1 0x40 DUP3 ADD MSTORE PUSH1 0x3 DUP3 ADD SLOAD PUSH1 0xFF AND ISZERO ISZERO PUSH1 0x60 DUP3 ADD MSTORE PUSH1 0x4 SWAP1 SWAP2 ADD SLOAD PUSH1 0x80 SWAP1 SWAP2 ADD MSTORE DUP3 MLOAD DUP4 SWAP1 DUP4 SWAP1 DUP2 LT PUSH2 0x3465 JUMPI PUSH2 0x3465 PUSH2 0x4A5E JUMP JUMPDEST PUSH1 0x20 SWAP1 DUP2 MUL SWAP2 SWAP1 SWAP2 ADD ADD MSTORE PUSH1 0x1 ADD PUSH2 0x3359 JUMP JUMPDEST POP SWAP5 SWAP4 POP POP POP POP JUMP JUMPDEST PUSH1 0x1 PUSH1 0x1 PUSH1 0xA0 SHL SUB DUP2 AND PUSH0 SWAP1 DUP2 MSTORE PUSH1 0x1 DUP1 DUP6 ADD PUSH1 0x20 SWAP1 DUP2 MSTORE PUSH1 0x40 DUP1 DUP5 KECCAK256 DUP7 DUP6 MSTORE SWAP3 DUP4 ADD SWAP1 SWAP2 MSTORE DUP3 KECCAK256 SLOAD PUSH1 0xFF AND DUP1 ISZERO PUSH2 0x34C8 JUMPI POP PUSH0 DUP5 DUP2 MSTORE PUSH1 0x3 DUP3 ADD PUSH1 0x20 MSTORE PUSH1 0x40 SWAP1 KECCAK256 SLOAD PUSH1 0xFF AND JUMPDEST SWAP6 SWAP5 POP POP POP POP POP JUMP JUMPDEST PUSH1 0x1 PUSH1 0x1 PUSH1 0xA0 SHL SUB DUP2 AND PUSH0 SWAP1 DUP2 MSTORE PUSH1 0x1 DUP4 ADD PUSH1 0x20 MSTORE PUSH1 0x40 DUP2 KECCAK256 PUSH1 0x2 DUP2 ADD SLOAD DUP3 SUB PUSH2 0x34FE JUMPI PUSH0 SWAP2 POP POP PUSH2 0x5DB JUMP JUMPDEST PUSH0 PUSH2 0x350E DUP3 PUSH1 0x2 ADD SLOAD PUSH1 0x64 PUSH2 0x3A9F JUMP JUMPDEST SWAP1 POP PUSH0 PUSH1 0x1 JUMPDEST DUP3 DUP2 GT PUSH2 0x356E JUMPI PUSH0 DUP2 DUP2 MSTORE PUSH1 0x1 DUP6 ADD PUSH1 0x20 MSTORE PUSH1 0x40 SWAP1 KECCAK256 SLOAD PUSH1 0xFF AND DUP1 ISZERO PUSH2 0x3549 JUMPI POP PUSH0 DUP2 DUP2 MSTORE PUSH1 0x3 DUP6 ADD PUSH1 0x20 MSTORE PUSH1 0x40 SWAP1 KECCAK256 SLOAD PUSH1 0xFF AND JUMPDEST ISZERO PUSH2 0x355C JUMPI DUP2 PUSH2 0x3558 DUP2 PUSH2 0x4BA2 JUMP JUMPDEST SWAP3 POP POP JUMPDEST DUP1 PUSH2 0x3566 DUP2 PUSH2 0x4BA2 JUMP JUMPDEST SWAP2 POP POP PUSH2 0x3514 JUMP JUMPDEST POP SWAP6 SWAP5 POP POP POP POP POP JUMP JUMPDEST PUSH0 DUP4 PUSH1 0x3 ADD DUP4 DUP4 PUSH1 0x40 MLOAD PUSH2 0x3045 SWAP3 SWAP2 SWAP1 PUSH2 0x4851 JUMP JUMPDEST DUP1 DUP3 LT PUSH2 0x120F JUMPI PUSH1 0x40 MLOAD PUSH4 0xA1B63CEB PUSH1 0xE0 SHL DUP2 MSTORE PUSH1 0x20 PUSH1 0x4 DUP3 ADD MSTORE PUSH1 0x14 PUSH1 0x24 DUP3 ADD MSTORE PUSH20 0x11195D9A58D9481B1A5B5A5D081C995858DA1959 PUSH1 0x62 SHL PUSH1 0x44 DUP3 ADD MSTORE PUSH1 0x64 ADD PUSH2 0x1C30 JUMP JUMPDEST PUSH2 0x35DC PUSH2 0x4156 JUMP JUMPDEST PUSH0 DUP3 DUP2 MSTORE PUSH1 0x6 DUP9 ADD PUSH1 0x20 SWAP1 DUP2 MSTORE PUSH1 0x40 DUP1 DUP4 KECCAK256 DUP1 SLOAD PUSH1 0x1 PUSH1 0xFF NOT SWAP2 DUP3 AND DUP2 OR SWAP1 SWAP3 SSTORE DUP2 DUP13 ADD SWAP1 SWAP4 MSTORE SWAP3 DUP2 SWAP1 KECCAK256 DUP1 SLOAD SWAP1 SWAP3 AND DUP4 OR SWAP1 SWAP2 SSTORE MLOAD PUSH1 0x2 DUP10 ADD SWAP1 PUSH2 0x3624 SWAP1 DUP10 SWAP1 DUP10 SWAP1 PUSH2 0x4851 JUMP JUMPDEST SWAP1 DUP2 MSTORE PUSH1 0x40 DUP1 MLOAD PUSH1 0x20 SWAP3 DUP2 SWAP1 SUB DUP4 ADD DUP2 KECCAK256 PUSH0 DUP9 DUP2 MSTORE SWAP4 MSTORE SWAP2 KECCAK256 DUP1 SLOAD PUSH1 0xFF NOT AND SWAP3 ISZERO ISZERO SWAP3 SWAP1 SWAP3 OR SWAP1 SWAP2 SSTORE DUP5 SWAP1 PUSH1 0x4 DUP10 ADD SWAP1 PUSH2 0x3661 SWAP1 DUP10 SWAP1 DUP10 SWAP1 PUSH2 0x4851 JUMP JUMPDEST SWAP1 DUP2 MSTORE PUSH1 0x40 DUP1 MLOAD PUSH1 0x20 SWAP3 DUP2 SWAP1 SUB DUP4 ADD SWAP1 KECCAK256 DUP1 SLOAD PUSH1 0x1 PUSH1 0x1 PUSH1 0xA0 SHL SUB NOT AND PUSH1 0x1 PUSH1 0x1 PUSH1 0xA0 SHL SUB SWAP5 DUP6 AND OR SWAP1 SSTORE SWAP2 DUP7 AND PUSH0 SWAP1 DUP2 MSTORE PUSH1 0x5 DUP11 ADD SWAP1 SWAP2 MSTORE KECCAK256 PUSH2 0x36A6 DUP7 DUP9 DUP4 PUSH2 0x4E3C JUMP JUMPDEST POP PUSH0 DUP8 PUSH0 ADD DUP8 DUP8 PUSH1 0x40 MLOAD PUSH2 0x36BB SWAP3 SWAP2 SWAP1 PUSH2 0x4851 JUMP JUMPDEST SWAP1 DUP2 MSTORE PUSH1 0x40 DUP1 MLOAD PUSH1 0x20 SWAP3 DUP2 SWAP1 SUB DUP4 ADD DUP2 KECCAK256 DUP1 SLOAD PUSH1 0x1 PUSH1 0x1 PUSH1 0xA0 SHL SUB NOT AND PUSH1 0x1 PUSH1 0x1 PUSH1 0xA0 SHL SUB DUP11 AND OR DUP2 SSTORE TIMESTAMP PUSH1 0x1 DUP1 DUP4 ADD DUP3 SWAP1 SSTORE PUSH1 0x2 DUP4 ADD SWAP2 SWAP1 SWAP2 SSTORE PUSH1 0x3 DUP3 ADD DUP1 SLOAD PUSH1 0xFF NOT SWAP1 DUP2 AND SWAP1 SWAP3 OR SWAP1 SSTORE PUSH0 DUP9 DUP2 MSTORE PUSH1 0x6 DUP15 ADD DUP7 MSTORE DUP5 SWAP1 KECCAK256 DUP1 SLOAD SWAP1 SWAP2 AND SWAP1 SSTORE PUSH1 0x1F DUP11 ADD DUP5 SWAP1 DIV SWAP1 SWAP4 MUL DUP2 ADD PUSH1 0xC0 SWAP1 DUP2 ADD SWAP1 SWAP3 MSTORE PUSH1 0xA0 DUP2 ADD DUP10 DUP2 MSTORE SWAP3 SWAP4 POP SWAP2 DUP3 SWAP2 DUP11 SWAP1 DUP11 SWAP1 DUP2 SWAP1 DUP6 ADD DUP4 DUP3 DUP1 DUP3 DUP5 CALLDATACOPY PUSH0 SWAP3 ADD DUP3 SWAP1 MSTORE POP SWAP4 DUP6 MSTORE POP POP POP PUSH1 0x1 PUSH1 0x1 PUSH1 0xA0 SHL SUB DUP9 AND PUSH1 0x20 DUP4 ADD MSTORE TIMESTAMP PUSH1 0x40 DUP4 ADD DUP2 SWAP1 MSTORE PUSH1 0x60 DUP4 ADD SWAP2 SWAP1 SWAP2 MSTORE PUSH1 0x80 SWAP1 SWAP2 ADD MSTORE SWAP2 POP POP SWAP7 SWAP6 POP POP POP POP POP POP JUMP JUMPDEST PUSH0 DUP2 DUP2 MSTORE PUSH1 0x20 DUP4 SWAP1 MSTORE PUSH1 0x40 DUP2 KECCAK256 PUSH1 0x3 ADD DUP1 SLOAD SWAP2 PUSH2 0x2461 DUP4 PUSH2 0x4BA2 JUMP JUMPDEST PUSH0 DUP3 DUP2 MSTORE PUSH1 0x6 PUSH1 0x20 MSTORE PUSH1 0x40 SWAP1 KECCAK256 DUP1 SLOAD DUP4 SWAP2 SWAP1 PUSH1 0xFF AND ISZERO PUSH2 0x37FF JUMPI PUSH1 0x78 DUP2 PUSH1 0x1 ADD SLOAD TIMESTAMP PUSH2 0x37D1 SWAP2 SWAP1 PUSH2 0x4A4B JUMP JUMPDEST LT ISZERO PUSH2 0x37F0 JUMPI PUSH1 0x40 MLOAD PUSH4 0xF5F519BF PUSH1 0xE0 SHL DUP2 MSTORE PUSH1 0x4 ADD PUSH1 0x40 MLOAD DUP1 SWAP2 SUB SWAP1 REVERT JUMPDEST DUP1 SLOAD PUSH1 0xFF NOT AND DUP2 SSTORE PUSH0 PUSH1 0x1 DUP3 ADD SSTORE JUMPDEST DUP1 SLOAD PUSH1 0xFF NOT AND PUSH1 0x1 SWAP1 DUP2 OR DUP3 SSTORE TIMESTAMP SWAP1 DUP3 ADD SSTORE PUSH1 0x40 MLOAD DUP3 SWAP1 PUSH32 0xA2963244BBAF794BA45A53B52ED841E95B90D490E74552EEC24F9691454AD8CF SWAP1 PUSH0 SWAP1 LOG2 PUSH0 DUP5 DUP2 MSTORE PUSH1 0x6 PUSH1 0x20 SWAP1 DUP2 MSTORE PUSH1 0x40 DUP1 DUP4 KECCAK256 PUSH1 0x4 SWAP1 SWAP3 MSTORE SWAP1 SWAP2 KECCAK256 PUSH1 0x2 DUP3 ADD SLOAD ISZERO DUP1 ISZERO SWAP1 PUSH2 0x3875 JUMPI POP PUSH1 0x3 SLOAD PUSH1 0x2 DUP3 ADD SLOAD PUSH2 0x3873 SWAP1 TIMESTAMP PUSH2 0x4A4B JUMP JUMPDEST GT JUMPDEST ISZERO PUSH2 0x3886 JUMPI PUSH2 0x3884 DUP3 DUP8 PUSH2 0x3B79 JUMP JUMPDEST POP JUMPDEST PUSH0 PUSH2 0x3890 DUP4 PUSH2 0x3F26 JUMP JUMPDEST SWAP1 POP PUSH1 0xA DUP2 LT PUSH2 0x38B3 JUMPI PUSH1 0x40 MLOAD PUSH4 0x4D4F62AD PUSH1 0xE1 SHL DUP2 MSTORE PUSH1 0x4 ADD PUSH1 0x40 MLOAD DUP1 SWAP2 SUB SWAP1 REVERT JUMPDEST PUSH0 DUP2 DUP2 MSTORE PUSH1 0x5 DUP1 DUP6 ADD PUSH1 0x20 SWAP1 DUP2 MSTORE PUSH1 0x40 DUP4 KECCAK256 DUP1 SLOAD PUSH1 0x1 DUP2 ADD DUP3 SSTORE SWAP1 DUP5 MSTORE SWAP3 KECCAK256 DUP9 MLOAD DUP10 SWAP4 SWAP1 SWAP3 MUL ADD SWAP1 DUP2 SWAP1 PUSH2 0x38E7 SWAP1 DUP3 PUSH2 0x4D63 JUMP JUMPDEST POP PUSH1 0x20 DUP3 DUP2 ADD MLOAD PUSH1 0x1 DUP4 ADD DUP1 SLOAD PUSH1 0x1 PUSH1 0x1 PUSH1 0xA0 SHL SUB NOT AND PUSH1 0x1 PUSH1 0x1 PUSH1 0xA0 SHL SUB SWAP1 SWAP3 AND SWAP2 SWAP1 SWAP2 OR SWAP1 SSTORE PUSH1 0x40 DUP1 DUP5 ADD MLOAD PUSH1 0x2 DUP1 DUP6 ADD SWAP2 SWAP1 SWAP2 SSTORE PUSH1 0x60 DUP6 ADD MLOAD PUSH1 0x3 DUP6 ADD DUP1 SLOAD PUSH1 0xFF NOT AND SWAP2 ISZERO ISZERO SWAP2 SWAP1 SWAP2 OR SWAP1 SSTORE PUSH1 0x80 SWAP1 SWAP5 ADD MLOAD PUSH1 0x4 SWAP1 SWAP4 ADD SWAP3 SWAP1 SWAP3 SSTORE DUP9 MLOAD DUP1 MLOAD SWAP1 DUP3 ADD KECCAK256 PUSH0 SWAP1 DUP2 MSTORE PUSH1 0x5 SWAP1 SWAP2 MSTORE SWAP1 DUP2 KECCAK256 DUP4 SWAP1 SSTORE SWAP1 DUP5 ADD DUP1 SLOAD SWAP2 PUSH2 0x396B DUP4 PUSH2 0x4BA2 JUMP JUMPDEST SWAP1 SWAP2 SSTORE POP POP DUP4 SLOAD PUSH1 0xFF NOT AND DUP5 SSTORE POP POP PUSH1 0x40 MLOAD DUP4 SWAP2 POP PUSH32 0x5A12DE052BEBF77870ED9580623033A296D0A68587150E69EFCB93B4A2619CA7 SWAP1 PUSH0 SWAP1 LOG2 POP POP POP POP JUMP JUMPDEST PUSH2 0x39B6 DUP4 DUP4 DUP4 PUSH2 0x2D41 JUMP JUMPDEST PUSH0 DUP5 DUP2 MSTORE PUSH1 0x20 DUP7 DUP2 MSTORE PUSH1 0x40 SWAP2 DUP3 SWAP1 KECCAK256 PUSH1 0x9 ADD DUP6 SWAP1 SSTORE SWAP1 MLOAD DUP5 DUP2 MSTORE DUP6 SWAP2 PUSH32 0x76DB966EDAFDF2BED93A433CCD1A363344BED4383F40178727CB1ADE6EEFAFC8 SWAP2 ADD PUSH1 0x40 MLOAD DUP1 SWAP2 SUB SWAP1 LOG2 POP POP POP POP POP JUMP JUMPDEST PUSH0 DUP2 DUP2 MSTORE PUSH1 0x6 PUSH1 0x20 MSTORE PUSH1 0x40 SWAP1 KECCAK256 DUP1 SLOAD PUSH1 0xFF AND PUSH2 0x3A33 JUMPI PUSH1 0x40 MLOAD PUSH4 0xEAC3AA0B PUSH1 0xE0 SHL DUP2 MSTORE PUSH1 0x4 ADD PUSH1 0x40 MLOAD DUP1 SWAP2 SUB SWAP1 REVERT JUMPDEST PUSH1 0x78 DUP2 PUSH1 0x1 ADD SLOAD PUSH2 0x3A44 SWAP2 SWAP1 PUSH2 0x4B8F JUMP JUMPDEST TIMESTAMP GT PUSH2 0x3A63 JUMPI PUSH1 0x40 MLOAD PUSH4 0xA7550C3F PUSH1 0xE0 SHL DUP2 MSTORE PUSH1 0x4 ADD PUSH1 0x40 MLOAD DUP1 SWAP2 SUB SWAP1 REVERT JUMPDEST DUP1 SLOAD PUSH1 0xFF NOT AND DUP2 SSTORE PUSH0 PUSH1 0x1 DUP3 ADD DUP2 SWAP1 SSTORE PUSH1 0x40 MLOAD DUP4 SWAP2 PUSH32 0x5A12DE052BEBF77870ED9580623033A296D0A68587150E69EFCB93B4A2619CA7 SWAP2 LOG2 POP POP JUMP JUMPDEST PUSH0 DUP3 DUP3 XOR DUP3 DUP5 LT MUL DUP3 XOR PUSH2 0xA83 JUMP JUMPDEST PUSH0 PUSH2 0xA83 DUP3 DUP5 PUSH2 0x4A4B JUMP JUMPDEST PUSH0 DUP1 DUP3 SSTORE PUSH1 0x1 DUP1 DUP4 ADD DUP3 SWAP1 SSTORE TIMESTAMP PUSH1 0x2 DUP1 DUP6 ADD SWAP2 SWAP1 SWAP2 SSTORE PUSH1 0x3 DUP5 ADD DUP4 SWAP1 SSTORE PUSH1 0x4 DUP5 ADD SWAP3 SWAP1 SWAP3 SSTORE PUSH1 0x5 DUP4 ADD DUP1 SLOAD SWAP1 SWAP2 PUSH1 0xFF NOT SWAP1 SWAP2 AND SWAP1 DUP4 JUMPDEST MUL OR SWAP1 SSTORE POP POP JUMP JUMPDEST PUSH2 0x3B01 DUP3 DUP3 PUSH2 0xFA0 JUMP JUMPDEST PUSH2 0x120F JUMPI PUSH1 0x40 MLOAD PUSH4 0xE2517D3F PUSH1 0xE0 SHL DUP2 MSTORE PUSH1 0x1 PUSH1 0x1 PUSH1 0xA0 SHL SUB DUP3 AND PUSH1 0x4 DUP3 ADD MSTORE PUSH1 0x24 DUP2 ADD DUP4 SWAP1 MSTORE PUSH1 0x44 ADD PUSH2 0x1C30 JUMP JUMPDEST PUSH1 0x2 SLOAD PUSH1 0xFF AND PUSH2 0x2036 JUMPI PUSH1 0x40 MLOAD PUSH3 0x461BCD PUSH1 0xE5 SHL DUP2 MSTORE PUSH1 0x20 PUSH1 0x4 DUP3 ADD MSTORE PUSH1 0x14 PUSH1 0x24 DUP3 ADD MSTORE PUSH20 0x14185D5CD8589B194E881B9BDD081C185D5CD959 PUSH1 0x62 SHL PUSH1 0x44 DUP3 ADD MSTORE PUSH1 0x64 ADD PUSH2 0x1C30 JUMP JUMPDEST PUSH0 DUP2 DUP2 MSTORE PUSH1 0x4 PUSH1 0x20 MSTORE PUSH1 0x40 DUP2 KECCAK256 PUSH1 0x1 PUSH1 0x5 DUP3 ADD SLOAD PUSH1 0xFF AND PUSH1 0x2 DUP2 GT ISZERO PUSH2 0x3BA1 JUMPI PUSH2 0x3BA1 PUSH2 0x463F JUMP JUMPDEST EQ DUP1 ISZERO PUSH2 0x3BBE JUMPI POP PUSH1 0x3 DUP2 ADD SLOAD PUSH2 0x3BBA SWAP1 PUSH2 0xE10 PUSH2 0x4B8F JUMP JUMPDEST TIMESTAMP GT ISZERO JUMPDEST ISZERO PUSH2 0x3BDC JUMPI PUSH1 0x40 MLOAD PUSH4 0x75275777 PUSH1 0xE1 SHL DUP2 MSTORE PUSH1 0x4 ADD PUSH1 0x40 MLOAD DUP1 SWAP2 SUB SWAP1 REVERT JUMPDEST PUSH1 0x32 DUP2 PUSH1 0x4 ADD SLOAD LT PUSH2 0x3BFB JUMPI PUSH2 0x3BF1 DUP2 PUSH2 0x3FFD JUMP JUMPDEST PUSH1 0x1 SWAP2 POP POP PUSH2 0x5DB JUMP JUMPDEST PUSH0 GAS SWAP1 POP PUSH0 DUP1 PUSH1 0x3 SLOAD TIMESTAMP PUSH2 0x3C0F SWAP2 SWAP1 PUSH2 0x4A4B JUMP JUMPDEST SWAP1 POP PUSH1 0x1 PUSH1 0x5 DUP6 ADD SLOAD PUSH1 0xFF AND PUSH1 0x2 DUP2 GT ISZERO PUSH2 0x3C2C JUMPI PUSH2 0x3C2C PUSH2 0x463F JUMP JUMPDEST EQ PUSH2 0x3C3A JUMPI PUSH2 0x3C3A DUP5 PUSH2 0x4027 JUMP JUMPDEST DUP4 SLOAD JUMPDEST PUSH1 0x4 DUP9 ADD SLOAD DUP2 LT DUP1 ISZERO PUSH2 0x3C50 JUMPI POP PUSH1 0x14 DUP4 LT JUMPDEST DUP1 ISZERO PUSH2 0x3C68 JUMPI POP PUSH3 0x30D40 GAS PUSH2 0x3C66 SWAP1 DUP7 PUSH2 0x4A4B JUMP JUMPDEST LT JUMPDEST ISZERO PUSH2 0x3EEB JUMPI PUSH0 DUP2 DUP2 MSTORE PUSH1 0x5 DUP10 ADD PUSH1 0x20 MSTORE PUSH1 0x40 SWAP1 KECCAK256 PUSH1 0x1 DUP7 ADD SLOAD JUMPDEST DUP2 SLOAD DUP2 LT DUP1 ISZERO PUSH2 0x3C92 JUMPI POP PUSH1 0x14 DUP6 LT JUMPDEST DUP1 ISZERO PUSH2 0x3CAA JUMPI POP PUSH3 0x30D40 GAS PUSH2 0x3CA8 SWAP1 DUP9 PUSH2 0x4A4B JUMP JUMPDEST LT JUMPDEST ISZERO PUSH2 0x3ECE JUMPI DUP4 DUP3 DUP3 DUP2 SLOAD DUP2 LT PUSH2 0x3CC2 JUMPI PUSH2 0x3CC2 PUSH2 0x4A5E JUMP JUMPDEST SWAP1 PUSH0 MSTORE PUSH1 0x20 PUSH0 KECCAK256 SWAP1 PUSH1 0x5 MUL ADD PUSH1 0x4 ADD SLOAD LT ISZERO PUSH2 0x3EBC JUMPI DUP9 DUP3 DUP3 DUP2 SLOAD DUP2 LT PUSH2 0x3CEB JUMPI PUSH2 0x3CEB PUSH2 0x4A5E JUMP JUMPDEST SWAP1 PUSH0 MSTORE PUSH1 0x20 PUSH0 KECCAK256 SWAP1 PUSH1 0x5 MUL ADD PUSH0 ADD PUSH1 0x40 MLOAD PUSH2 0x3D06 SWAP2 SWAP1 PUSH2 0x4B18 JUMP JUMPDEST PUSH1 0x40 MLOAD DUP1 SWAP2 SUB SWAP1 KECCAK256 PUSH32 0xD7AC20A75FD3931F3CED99A513A0A4FD6324176A1F4AF2E9E0CE70137A1082BF DUP5 DUP5 DUP2 SLOAD DUP2 LT PUSH2 0x3D41 JUMPI PUSH2 0x3D41 PUSH2 0x4A5E JUMP JUMPDEST SWAP1 PUSH0 MSTORE PUSH1 0x20 PUSH0 KECCAK256 SWAP1 PUSH1 0x5 MUL ADD PUSH1 0x4 ADD SLOAD TIMESTAMP PUSH1 0x40 MLOAD PUSH2 0x3D69 SWAP3 SWAP2 SWAP1 SWAP2 DUP3 MSTORE PUSH1 0x20 DUP3 ADD MSTORE PUSH1 0x40 ADD SWAP1 JUMP JUMPDEST PUSH1 0x40 MLOAD DUP1 SWAP2 SUB SWAP1 LOG3 DUP2 SLOAD PUSH2 0x3D7F SWAP1 PUSH1 0x1 SWAP1 PUSH2 0x4A4B JUMP JUMPDEST DUP2 LT ISZERO PUSH2 0x3E37 JUMPI DUP2 SLOAD DUP3 SWAP1 PUSH2 0x3D96 SWAP1 PUSH1 0x1 SWAP1 PUSH2 0x4A4B JUMP JUMPDEST DUP2 SLOAD DUP2 LT PUSH2 0x3DA6 JUMPI PUSH2 0x3DA6 PUSH2 0x4A5E JUMP JUMPDEST SWAP1 PUSH0 MSTORE PUSH1 0x20 PUSH0 KECCAK256 SWAP1 PUSH1 0x5 MUL ADD DUP3 DUP3 DUP2 SLOAD DUP2 LT PUSH2 0x3DC4 JUMPI PUSH2 0x3DC4 PUSH2 0x4A5E JUMP JUMPDEST PUSH0 SWAP2 DUP3 MSTORE PUSH1 0x20 SWAP1 SWAP2 KECCAK256 PUSH1 0x5 SWAP1 SWAP2 MUL ADD DUP1 PUSH2 0x3DDE DUP4 DUP3 PUSH2 0x4C12 JUMP JUMPDEST POP PUSH1 0x1 DUP3 DUP2 ADD SLOAD SWAP1 DUP3 ADD DUP1 SLOAD PUSH1 0x1 PUSH1 0x1 PUSH1 0xA0 SHL SUB NOT AND PUSH1 0x1 PUSH1 0x1 PUSH1 0xA0 SHL SUB SWAP1 SWAP3 AND SWAP2 SWAP1 SWAP2 OR SWAP1 SSTORE PUSH1 0x2 DUP1 DUP4 ADD SLOAD SWAP1 DUP3 ADD SSTORE PUSH1 0x3 DUP1 DUP4 ADD SLOAD SWAP1 DUP3 ADD DUP1 SLOAD PUSH1 0xFF SWAP1 SWAP3 AND ISZERO ISZERO PUSH1 0xFF NOT SWAP1 SWAP3 AND SWAP2 SWAP1 SWAP2 OR SWAP1 SSTORE PUSH1 0x4 SWAP2 DUP3 ADD SLOAD SWAP2 ADD SSTORE JUMPDEST DUP2 DUP1 SLOAD DUP1 PUSH2 0x3E47 JUMPI PUSH2 0x3E47 PUSH2 0x4CE1 JUMP JUMPDEST PUSH0 DUP3 DUP2 MSTORE PUSH1 0x20 DUP2 KECCAK256 PUSH0 NOT SWAP1 SWAP3 ADD SWAP2 PUSH1 0x5 DUP4 MUL ADD SWAP1 PUSH2 0x3E65 DUP3 DUP3 PUSH2 0x41BB JUMP JUMPDEST POP PUSH1 0x1 DUP2 ADD DUP1 SLOAD PUSH1 0x1 PUSH1 0x1 PUSH1 0xA0 SHL SUB NOT AND SWAP1 SSTORE PUSH0 PUSH1 0x2 DUP1 DUP4 ADD DUP3 SWAP1 SSTORE PUSH1 0x3 DUP4 ADD DUP1 SLOAD PUSH1 0xFF NOT AND SWAP1 SSTORE PUSH1 0x4 SWAP1 SWAP3 ADD DUP2 SWAP1 SSTORE SWAP2 SWAP1 SWAP3 SSTORE SWAP1 DUP12 ADD DUP1 SLOAD SWAP2 PUSH2 0x3EA8 DUP4 PUSH2 0x4CF5 JUMP JUMPDEST SWAP2 SWAP1 POP SSTORE POP DUP5 DUP1 PUSH2 0x3EB8 SWAP1 PUSH2 0x4BA2 JUMP JUMPDEST SWAP6 POP POP JUMPDEST DUP1 PUSH2 0x3EC6 DUP2 PUSH2 0x4BA2 JUMP JUMPDEST SWAP2 POP POP PUSH2 0x3C82 JUMP JUMPDEST POP POP DUP1 DUP6 SSTORE PUSH0 PUSH1 0x1 DUP7 ADD SSTORE DUP1 PUSH2 0x3EE3 DUP2 PUSH2 0x4BA2 JUMP JUMPDEST SWAP2 POP POP PUSH2 0x3C3D JUMP JUMPDEST POP PUSH1 0x4 DUP8 ADD SLOAD PUSH2 0x3EFD SWAP1 PUSH1 0x1 SWAP1 PUSH2 0x4A4B JUMP JUMPDEST DUP5 SLOAD LT PUSH2 0x3F1A JUMPI PUSH2 0x3F0D DUP5 PUSH2 0x3FFD JUMP JUMPDEST PUSH1 0x1 SWAP5 POP POP POP POP POP PUSH2 0x5DB JUMP JUMPDEST POP PUSH0 SWAP7 SWAP6 POP POP POP POP POP POP JUMP JUMPDEST PUSH0 DUP1 JUMPDEST PUSH1 0x4 DUP4 ADD SLOAD DUP2 LT ISZERO PUSH2 0x3F95 JUMPI DUP3 PUSH1 0x4 ADD DUP2 DUP2 SLOAD DUP2 LT PUSH2 0x3F4A JUMPI PUSH2 0x3F4A PUSH2 0x4A5E JUMP JUMPDEST PUSH0 SWAP2 DUP3 MSTORE PUSH1 0x20 SWAP1 SWAP2 KECCAK256 PUSH1 0x2 PUSH1 0x3 SWAP1 SWAP3 MUL ADD ADD SLOAD PUSH1 0xFF AND ISZERO DUP1 ISZERO PUSH2 0x3F7C JUMPI POP PUSH0 DUP2 DUP2 MSTORE PUSH1 0x5 DUP5 ADD PUSH1 0x20 MSTORE PUSH1 0x40 SWAP1 KECCAK256 SLOAD PUSH1 0x64 GT JUMPDEST ISZERO PUSH2 0x3F8D JUMPI PUSH1 0x3 SWAP1 SWAP3 ADD DUP3 SWAP1 SSTORE POP SWAP1 JUMP JUMPDEST PUSH1 0x1 ADD PUSH2 0x3F29 JUMP JUMPDEST POP PUSH0 JUMPDEST PUSH1 0x4 DUP4 ADD SLOAD DUP2 LT ISZERO PUSH2 0x3FCE JUMPI PUSH0 DUP2 DUP2 MSTORE PUSH1 0x5 DUP5 ADD PUSH1 0x20 MSTORE PUSH1 0x40 DUP2 KECCAK256 SLOAD SWAP1 SUB PUSH2 0x3FC6 JUMPI PUSH1 0x3 SWAP1 SWAP3 ADD DUP3 SWAP1 SSTORE POP SWAP1 JUMP JUMPDEST PUSH1 0x1 ADD PUSH2 0x3F98 JUMP JUMPDEST POP PUSH1 0x4 DUP3 ADD SLOAD PUSH1 0xA GT PUSH2 0x3FF4 JUMPI PUSH1 0x40 MLOAD PUSH4 0xFE6D8F29 PUSH1 0xE0 SHL DUP2 MSTORE PUSH1 0x4 ADD PUSH1 0x40 MLOAD DUP1 SWAP2 SUB SWAP1 REVERT JUMPDEST PUSH2 0x5DB DUP3 PUSH2 0x4048 JUMP JUMPDEST PUSH1 0x5 DUP2 ADD DUP1 SLOAD PUSH1 0xFF NOT AND PUSH1 0x2 SWAP1 DUP2 OR SWAP1 SWAP2 SSTORE TIMESTAMP SWAP1 DUP3 ADD SSTORE PUSH0 DUP1 DUP3 SSTORE PUSH1 0x1 DUP3 ADD DUP2 SWAP1 SSTORE PUSH1 0x4 SWAP1 SWAP2 ADD SSTORE JUMP JUMPDEST TIMESTAMP PUSH1 0x3 DUP3 ADD SSTORE PUSH0 PUSH1 0x4 DUP3 ADD SSTORE PUSH1 0x5 DUP2 ADD DUP1 SLOAD PUSH1 0x1 SWAP2 SWAP1 PUSH1 0xFF NOT AND DUP3 DUP1 PUSH2 0x3AEF JUMP JUMPDEST PUSH1 0x4 DUP2 ADD DUP1 SLOAD PUSH1 0x40 DUP1 MLOAD PUSH1 0x60 DUP2 ADD DUP3 MSTORE TIMESTAMP DUP1 DUP3 MSTORE PUSH0 PUSH1 0x20 DUP1 DUP5 ADD DUP3 DUP2 MSTORE DUP5 DUP7 ADD DUP4 DUP2 MSTORE PUSH1 0x1 DUP1 DUP10 ADD DUP11 SSTORE SWAP9 DUP5 MSTORE DUP3 DUP5 KECCAK256 SWAP6 MLOAD PUSH1 0x3 DUP1 DUP11 MUL SWAP1 SWAP8 ADD SWAP1 DUP2 SSTORE SWAP2 MLOAD SWAP9 DUP3 ADD SWAP9 SWAP1 SWAP9 SSTORE SWAP7 MLOAD PUSH1 0x2 SWAP1 SWAP8 ADD DUP1 SLOAD PUSH1 0xFF NOT AND SWAP8 ISZERO ISZERO SWAP8 SWAP1 SWAP8 OR SWAP1 SWAP7 SSTORE SWAP2 DUP7 ADD DUP5 SWAP1 SSTORE DUP3 MLOAD SWAP1 DUP2 MSTORE SWAP4 DUP5 ADD DUP2 SWAP1 MSTORE SWAP3 DUP3 SWAP2 PUSH32 0xA713BCA924DE7AD0AB23342813A8BCC71A1F707AC80DB4ABA117E9037BBACFCF SWAP2 ADD PUSH1 0x40 MLOAD DUP1 SWAP2 SUB SWAP1 LOG2 SWAP3 SWAP2 POP POP JUMP JUMPDEST PUSH1 0x40 MLOAD DUP1 PUSH2 0x160 ADD PUSH1 0x40 MSTORE DUP1 PUSH0 DUP2 MSTORE PUSH1 0x20 ADD PUSH1 0x60 DUP2 MSTORE PUSH1 0x20 ADD PUSH1 0x60 DUP2 MSTORE PUSH1 0x20 ADD PUSH0 DUP2 MSTORE PUSH1 0x20 ADD PUSH0 DUP2 MSTORE PUSH1 0x20 ADD PUSH0 PUSH1 0x2 DUP2 GT ISZERO PUSH2 0x4128 JUMPI PUSH2 0x4128 PUSH2 0x463F JUMP JUMPDEST DUP2 MSTORE PUSH1 0x20 ADD PUSH0 DUP2 MSTORE PUSH1 0x20 ADD PUSH1 0x60 DUP2 MSTORE PUSH1 0x20 ADD PUSH0 DUP2 MSTORE PUSH1 0x20 ADD PUSH0 DUP2 MSTORE PUSH1 0x20 ADD PUSH0 PUSH1 0x1 PUSH1 0x1 PUSH1 0xA0 SHL SUB AND DUP2 MSTORE POP SWAP1 JUMP JUMPDEST PUSH1 0x40 MLOAD DUP1 PUSH1 0xA0 ADD PUSH1 0x40 MSTORE DUP1 PUSH1 0x60 DUP2 MSTORE PUSH1 0x20 ADD PUSH0 PUSH1 0x1 PUSH1 0x1 PUSH1 0xA0 SHL SUB AND DUP2 MSTORE PUSH1 0x20 ADD PUSH0 DUP2 MSTORE PUSH1 0x20 ADD PUSH0 ISZERO ISZERO DUP2 MSTORE PUSH1 0x20 ADD PUSH0 DUP2 MSTORE POP SWAP1 JUMP JUMPDEST PUSH1 0x40 MLOAD DUP1 PUSH1 0xA0 ADD PUSH1 0x40 MSTORE DUP1 PUSH0 DUP2 MSTORE PUSH1 0x20 ADD PUSH1 0x60 DUP2 MSTORE PUSH1 0x20 ADD PUSH0 ISZERO ISZERO DUP2 MSTORE PUSH1 0x20 ADD PUSH0 ISZERO ISZERO DUP2 MSTORE PUSH1 0x20 ADD PUSH0 DUP2 MSTORE POP SWAP1 JUMP JUMPDEST POP DUP1 SLOAD PUSH2 0x41C7 SWAP1 PUSH2 0x4A72 JUMP JUMPDEST PUSH0 DUP3 SSTORE DUP1 PUSH1 0x1F LT PUSH2 0x41D6 JUMPI POP POP JUMP JUMPDEST PUSH1 0x1F ADD PUSH1 0x20 SWAP1 DIV SWAP1 PUSH0 MSTORE PUSH1 0x20 PUSH0 KECCAK256 SWAP1 DUP2 ADD SWAP1 PUSH2 0xB83 SWAP2 SWAP1 JUMPDEST DUP1 DUP3 GT ISZERO PUSH2 0x4201 JUMPI PUSH0 DUP2 SSTORE PUSH1 0x1 ADD PUSH2 0x41EE JUMP JUMPDEST POP SWAP1 JUMP JUMPDEST DUP1 CALLDATALOAD PUSH1 0x1 PUSH1 0x1 PUSH1 0xA0 SHL SUB DUP2 AND DUP2 EQ PUSH2 0xCD0 JUMPI PUSH0 DUP1 REVERT JUMPDEST PUSH0 DUP1 PUSH0 PUSH1 0x60 DUP5 DUP7 SUB SLT ISZERO PUSH2 0x422D JUMPI PUSH0 DUP1 REVERT JUMPDEST DUP4 CALLDATALOAD SWAP3 POP PUSH1 0x20 DUP5 ADD CALLDATALOAD SWAP2 POP PUSH2 0x4244 PUSH1 0x40 DUP6 ADD PUSH2 0x4205 JUMP JUMPDEST SWAP1 POP SWAP3 POP SWAP3 POP SWAP3 JUMP JUMPDEST PUSH0 DUP2 MLOAD DUP1 DUP5 MSTORE DUP1 PUSH1 0x20 DUP5 ADD PUSH1 0x20 DUP7 ADD MCOPY PUSH0 PUSH1 0x20 DUP3 DUP7 ADD ADD MSTORE PUSH1 0x20 PUSH1 0x1F NOT PUSH1 0x1F DUP4 ADD AND DUP6 ADD ADD SWAP2 POP POP SWAP3 SWAP2 POP POP JUMP JUMPDEST PUSH0 PUSH1 0x60 DUP3 ADD PUSH1 0x60 DUP4 MSTORE DUP1 DUP7 MLOAD DUP1 DUP4 MSTORE PUSH1 0x80 DUP6 ADD SWAP2 POP PUSH1 0x80 DUP2 PUSH1 0x5 SHL DUP7 ADD ADD SWAP3 POP PUSH1 0x20 DUP9 ADD PUSH0 JUMPDEST DUP3 DUP2 LT ISZERO PUSH2 0x430B JUMPI PUSH1 0x7F NOT DUP8 DUP7 SUB ADD DUP5 MSTORE DUP2 MLOAD DUP1 MLOAD DUP7 MSTORE PUSH1 0x20 DUP2 ADD MLOAD PUSH1 0xA0 PUSH1 0x20 DUP9 ADD MSTORE PUSH2 0x42D1 PUSH1 0xA0 DUP9 ADD DUP3 PUSH2 0x424D JUMP JUMPDEST PUSH1 0x40 DUP4 DUP2 ADD MLOAD ISZERO ISZERO SWAP1 DUP10 ADD MSTORE PUSH1 0x60 DUP1 DUP5 ADD MLOAD ISZERO ISZERO SWAP1 DUP10 ADD MSTORE PUSH1 0x80 SWAP3 DUP4 ADD MLOAD SWAP3 SWAP1 SWAP8 ADD SWAP2 SWAP1 SWAP2 MSTORE POP PUSH1 0x20 SWAP4 DUP5 ADD SWAP4 SWAP2 SWAP1 SWAP2 ADD SWAP1 PUSH1 0x1 ADD PUSH2 0x42A1 JUMP JUMPDEST POP POP POP POP PUSH1 0x20 DUP4 ADD DUP6 SWAP1 MSTORE DUP4 ISZERO ISZERO PUSH1 0x40 DUP5 ADD MSTORE SWAP1 POP PUSH2 0x210E JUMP JUMPDEST PUSH0 PUSH1 0x20 DUP3 DUP5 SUB SLT ISZERO PUSH2 0x4335 JUMPI PUSH0 DUP1 REVERT JUMPDEST DUP2 CALLDATALOAD PUSH1 0x1 PUSH1 0x1 PUSH1 0xE0 SHL SUB NOT DUP2 AND DUP2 EQ PUSH2 0xA83 JUMPI PUSH0 DUP1 REVERT JUMPDEST PUSH0 DUP1 DUP4 PUSH1 0x1F DUP5 ADD SLT PUSH2 0x435C JUMPI PUSH0 DUP1 REVERT JUMPDEST POP DUP2 CALLDATALOAD PUSH1 0x1 PUSH1 0x1 PUSH1 0x40 SHL SUB DUP2 GT ISZERO PUSH2 0x4372 JUMPI PUSH0 DUP1 REVERT JUMPDEST PUSH1 0x20 DUP4 ADD SWAP2 POP DUP4 PUSH1 0x20 DUP3 DUP6 ADD ADD GT ISZERO PUSH2 0x4389 JUMPI PUSH0 DUP1 REVERT JUMPDEST SWAP3 POP SWAP3 SWAP1 POP JUMP JUMPDEST PUSH0 DUP1 PUSH0 PUSH1 0x40 DUP5 DUP7 SUB SLT ISZERO PUSH2 0x43A2 JUMPI PUSH0 DUP1 REVERT JUMPDEST DUP4 CALLDATALOAD SWAP3 POP PUSH1 0x20 DUP5 ADD CALLDATALOAD PUSH1 0x1 PUSH1 0x1 PUSH1 0x40 SHL SUB DUP2 GT ISZERO PUSH2 0x43BE JUMPI PUSH0 DUP1 REVERT JUMPDEST PUSH2 0x43CA DUP7 DUP3 DUP8 ADD PUSH2 0x434C JUMP JUMPDEST SWAP5 SWAP8 SWAP1 SWAP7 POP SWAP4 SWAP5 POP POP POP POP JUMP JUMPDEST PUSH0 PUSH1 0x20 DUP3 DUP5 SUB SLT ISZERO PUSH2 0x43E7 JUMPI PUSH0 DUP1 REVERT JUMPDEST POP CALLDATALOAD SWAP2 SWAP1 POP JUMP JUMPDEST PUSH0 DUP1 PUSH0 PUSH1 0x40 DUP5 DUP7 SUB SLT ISZERO PUSH2 0x4400 JUMPI PUSH0 DUP1 REVERT JUMPDEST DUP4 CALLDATALOAD PUSH1 0x1 PUSH1 0x1 PUSH1 0x40 SHL SUB DUP2 GT ISZERO PUSH2 0x4415 JUMPI PUSH0 DUP1 REVERT JUMPDEST PUSH2 0x4421 DUP7 DUP3 DUP8 ADD PUSH2 0x434C JUMP JUMPDEST SWAP1 SWAP8 SWAP1 SWAP7 POP PUSH1 0x20 SWAP6 SWAP1 SWAP6 ADD CALLDATALOAD SWAP5 SWAP4 POP POP POP POP JUMP JUMPDEST PUSH0 DUP1 PUSH1 0x40 DUP4 DUP6 SUB SLT ISZERO PUSH2 0x4446 JUMPI PUSH0 DUP1 REVERT JUMPDEST DUP3 CALLDATALOAD SWAP2 POP PUSH2 0x4456 PUSH1 0x20 DUP5 ADD PUSH2 0x4205 JUMP JUMPDEST SWAP1 POP SWAP3 POP SWAP3 SWAP1 POP JUMP JUMPDEST PUSH0 PUSH1 0x20 DUP3 DUP5 SUB SLT ISZERO PUSH2 0x446F JUMPI PUSH0 DUP1 REVERT JUMPDEST DUP2 CALLDATALOAD PUSH1 0x1 PUSH1 0x1 PUSH1 0x40 SHL SUB DUP2 GT ISZERO PUSH2 0x4484 JUMPI PUSH0 DUP1 REVERT JUMPDEST DUP3 ADD PUSH1 0xA0 DUP2 DUP6 SUB SLT ISZERO PUSH2 0xA83 JUMPI PUSH0 DUP1 REVERT JUMPDEST PUSH0 DUP1 PUSH1 0x20 DUP4 DUP6 SUB SLT ISZERO PUSH2 0x44A6 JUMPI PUSH0 DUP1 REVERT JUMPDEST DUP3 CALLDATALOAD PUSH1 0x1 PUSH1 0x1 PUSH1 0x40 SHL SUB DUP2 GT ISZERO PUSH2 0x44BB JUMPI PUSH0 DUP1 REVERT JUMPDEST PUSH2 0x44C7 DUP6 DUP3 DUP7 ADD PUSH2 0x434C JUMP JUMPDEST SWAP1 SWAP7 SWAP1 SWAP6 POP SWAP4 POP POP POP POP JUMP JUMPDEST PUSH0 DUP2 MLOAD DUP1 DUP5 MSTORE PUSH1 0x20 DUP5 ADD SWAP4 POP PUSH1 0x20 DUP4 ADD PUSH0 JUMPDEST DUP3 DUP2 LT ISZERO PUSH2 0x4503 JUMPI DUP2 MLOAD DUP7 MSTORE PUSH1 0x20 SWAP6 DUP7 ADD SWAP6 SWAP1 SWAP2 ADD SWAP1 PUSH1 0x1 ADD PUSH2 0x44E5 JUMP JUMPDEST POP SWAP4 SWAP5 SWAP4 POP POP POP POP JUMP JUMPDEST PUSH1 0x60 DUP2 MSTORE PUSH0 PUSH2 0x451F PUSH1 0x60 DUP4 ADD DUP7 PUSH2 0x44D3 JUMP JUMPDEST PUSH1 0x20 DUP4 ADD SWAP5 SWAP1 SWAP5 MSTORE POP SWAP1 ISZERO ISZERO PUSH1 0x40 SWAP1 SWAP2 ADD MSTORE SWAP2 SWAP1 POP JUMP JUMPDEST PUSH0 DUP1 PUSH1 0x40 DUP4 DUP6 SUB SLT ISZERO PUSH2 0x4547 JUMPI PUSH0 DUP1 REVERT JUMPDEST POP POP DUP1 CALLDATALOAD SWAP3 PUSH1 0x20 SWAP1 SWAP2 ADD CALLDATALOAD SWAP2 POP JUMP JUMPDEST PUSH0 DUP2 MLOAD PUSH1 0xA0 DUP5 MSTORE PUSH2 0x456A PUSH1 0xA0 DUP6 ADD DUP3 PUSH2 0x424D JUMP JUMPDEST PUSH1 0x20 DUP5 DUP2 ADD MLOAD PUSH1 0x1 PUSH1 0x1 PUSH1 0xA0 SHL SUB AND SWAP1 DUP7 ADD MSTORE PUSH1 0x40 DUP1 DUP6 ADD MLOAD SWAP1 DUP7 ADD MSTORE PUSH1 0x60 DUP1 DUP6 ADD MLOAD ISZERO ISZERO SWAP1 DUP7 ADD MSTORE PUSH1 0x80 SWAP4 DUP5 ADD MLOAD SWAP4 SWAP1 SWAP5 ADD SWAP3 SWAP1 SWAP3 MSTORE POP SWAP1 SWAP2 SWAP1 POP JUMP JUMPDEST PUSH1 0x20 DUP2 MSTORE PUSH0 PUSH1 0xC0 DUP3 ADD DUP4 MLOAD PUSH1 0xA0 PUSH1 0x20 DUP6 ADD MSTORE DUP2 DUP2 MLOAD DUP1 DUP5 MSTORE PUSH1 0xE0 DUP7 ADD SWAP2 POP PUSH1 0xE0 DUP2 PUSH1 0x5 SHL DUP8 ADD ADD SWAP4 POP PUSH1 0x20 DUP4 ADD SWAP3 POP PUSH0 JUMPDEST DUP2 DUP2 LT ISZERO PUSH2 0x460A JUMPI PUSH1 0xDF NOT DUP8 DUP7 SUB ADD DUP4 MSTORE PUSH2 0x45F5 DUP6 DUP6 MLOAD PUSH2 0x4556 JUMP JUMPDEST SWAP5 POP PUSH1 0x20 SWAP4 DUP5 ADD SWAP4 SWAP3 SWAP1 SWAP3 ADD SWAP2 PUSH1 0x1 ADD PUSH2 0x45D9 JUMP JUMPDEST POP POP POP POP PUSH1 0x20 DUP5 ADD MLOAD PUSH1 0x40 DUP5 ADD MSTORE PUSH1 0x40 DUP5 ADD MLOAD PUSH1 0x60 DUP5 ADD MSTORE PUSH1 0x60 DUP5 ADD MLOAD PUSH1 0x80 DUP5 ADD MSTORE PUSH1 0x80 DUP5 ADD MLOAD PUSH2 0x1A7B PUSH1 0xA0 DUP6 ADD DUP3 ISZERO ISZERO SWAP1 MSTORE JUMP JUMPDEST PUSH4 0x4E487B71 PUSH1 0xE0 SHL PUSH0 MSTORE PUSH1 0x21 PUSH1 0x4 MSTORE PUSH1 0x24 PUSH0 REVERT JUMPDEST PUSH1 0x3 DUP2 LT PUSH2 0x466F JUMPI PUSH4 0x4E487B71 PUSH1 0xE0 SHL PUSH0 MSTORE PUSH1 0x21 PUSH1 0x4 MSTORE PUSH1 0x24 PUSH0 REVERT JUMPDEST SWAP1 MSTORE JUMP JUMPDEST DUP1 MLOAD DUP3 MSTORE PUSH0 PUSH1 0x20 DUP3 ADD MLOAD PUSH2 0x160 PUSH1 0x20 DUP6 ADD MSTORE PUSH2 0x4693 PUSH2 0x160 DUP6 ADD DUP3 PUSH2 0x424D JUMP JUMPDEST SWAP1 POP PUSH1 0x40 DUP4 ADD MLOAD DUP5 DUP3 SUB PUSH1 0x40 DUP7 ADD MSTORE PUSH2 0x46AC DUP3 DUP3 PUSH2 0x424D JUMP JUMPDEST SWAP2 POP POP PUSH1 0x60 DUP4 ADD MLOAD PUSH1 0x60 DUP6 ADD MSTORE PUSH1 0x80 DUP4 ADD MLOAD PUSH1 0x80 DUP6 ADD MSTORE PUSH1 0xA0 DUP4 ADD MLOAD PUSH2 0x46D5 PUSH1 0xA0 DUP7 ADD DUP3 PUSH2 0x4653 JUMP JUMPDEST POP PUSH1 0xC0 DUP4 ADD MLOAD PUSH1 0xC0 DUP6 ADD MSTORE PUSH1 0xE0 DUP4 ADD MLOAD DUP5 DUP3 SUB PUSH1 0xE0 DUP7 ADD MSTORE PUSH2 0x46F7 DUP3 DUP3 PUSH2 0x424D JUMP JUMPDEST SWAP2 POP POP PUSH2 0x100 DUP4 ADD MLOAD PUSH2 0x100 DUP6 ADD MSTORE PUSH2 0x120 DUP4 ADD MLOAD PUSH2 0x120 DUP6 ADD MSTORE PUSH2 0x140 DUP4 ADD MLOAD PUSH2 0x1A7B PUSH2 0x140 DUP7 ADD DUP3 PUSH1 0x1 PUSH1 0x1 PUSH1 0xA0 SHL SUB AND SWAP1 MSTORE JUMP JUMPDEST PUSH1 0x60 DUP2 MSTORE PUSH0 PUSH2 0x4740 PUSH1 0x60 DUP4 ADD DUP7 PUSH2 0x4673 JUMP JUMPDEST SWAP4 ISZERO ISZERO PUSH1 0x20 DUP4 ADD MSTORE POP SWAP1 ISZERO ISZERO PUSH1 0x40 SWAP1 SWAP2 ADD MSTORE SWAP2 SWAP1 POP JUMP JUMPDEST PUSH0 PUSH1 0x20 DUP3 DUP5 SUB SLT ISZERO PUSH2 0x4767 JUMPI PUSH0 DUP1 REVERT JUMPDEST PUSH2 0xA83 DUP3 PUSH2 0x4205 JUMP JUMPDEST PUSH0 DUP1 PUSH0 DUP1 PUSH1 0x60 DUP6 DUP8 SUB SLT ISZERO PUSH2 0x4783 JUMPI PUSH0 DUP1 REVERT JUMPDEST DUP5 CALLDATALOAD SWAP4 POP PUSH1 0x20 DUP6 ADD CALLDATALOAD PUSH1 0x1 PUSH1 0x1 PUSH1 0x40 SHL SUB DUP2 GT ISZERO PUSH2 0x479F JUMPI PUSH0 DUP1 REVERT JUMPDEST PUSH2 0x47AB DUP8 DUP3 DUP9 ADD PUSH2 0x434C JUMP JUMPDEST SWAP1 SWAP5 POP SWAP3 POP PUSH2 0x47BE SWAP1 POP PUSH1 0x40 DUP7 ADD PUSH2 0x4205 JUMP JUMPDEST SWAP1 POP SWAP3 SWAP6 SWAP2 SWAP5 POP SWAP3 POP JUMP JUMPDEST PUSH1 0x80 DUP2 MSTORE PUSH0 PUSH2 0x47DB PUSH1 0x80 DUP4 ADD DUP8 PUSH2 0x4673 JUMP JUMPDEST DUP6 PUSH1 0x20 DUP5 ADD MSTORE DUP5 PUSH1 0x40 DUP5 ADD MSTORE DUP3 DUP2 SUB PUSH1 0x60 DUP5 ADD MSTORE PUSH2 0x47F9 DUP2 DUP6 PUSH2 0x44D3 JUMP JUMPDEST SWAP8 SWAP7 POP POP POP POP POP POP POP JUMP JUMPDEST PUSH1 0x20 DUP2 MSTORE PUSH0 PUSH2 0xA83 PUSH1 0x20 DUP4 ADD DUP5 PUSH2 0x4556 JUMP JUMPDEST DUP2 DUP4 MSTORE DUP2 DUP2 PUSH1 0x20 DUP6 ADD CALLDATACOPY POP PUSH0 DUP3 DUP3 ADD PUSH1 0x20 SWAP1 DUP2 ADD SWAP2 SWAP1 SWAP2 MSTORE PUSH1 0x1F SWAP1 SWAP2 ADD PUSH1 0x1F NOT AND SWAP1 SWAP2 ADD ADD SWAP1 JUMP JUMPDEST PUSH1 0x20 DUP2 MSTORE PUSH0 PUSH2 0x210E PUSH1 0x20 DUP4 ADD DUP5 DUP7 PUSH2 0x4816 JUMP JUMPDEST DUP2 DUP4 DUP3 CALLDATACOPY PUSH0 SWAP2 ADD SWAP1 DUP2 MSTORE SWAP2 SWAP1 POP JUMP JUMPDEST PUSH0 DUP1 DUP4 CALLDATALOAD PUSH1 0x1E NOT DUP5 CALLDATASIZE SUB ADD DUP2 SLT PUSH2 0x4875 JUMPI PUSH0 DUP1 REVERT JUMPDEST DUP4 ADD DUP1 CALLDATALOAD SWAP2 POP PUSH1 0x1 PUSH1 0x1 PUSH1 0x40 SHL SUB DUP3 GT ISZERO PUSH2 0x488E JUMPI PUSH0 DUP1 REVERT JUMPDEST PUSH1 0x20 ADD SWAP2 POP CALLDATASIZE DUP2 SWAP1 SUB DUP3 SGT ISZERO PUSH2 0x4389 JUMPI PUSH0 DUP1 REVERT JUMPDEST PUSH4 0x4E487B71 PUSH1 0xE0 SHL PUSH0 MSTORE PUSH1 0x41 PUSH1 0x4 MSTORE PUSH1 0x24 PUSH0 REVERT JUMPDEST PUSH1 0x40 MLOAD PUSH1 0xA0 DUP2 ADD PUSH1 0x1 PUSH1 0x1 PUSH1 0x40 SHL SUB DUP2 GT DUP3 DUP3 LT OR ISZERO PUSH2 0x48D8 JUMPI PUSH2 0x48D8 PUSH2 0x48A2 JUMP JUMPDEST PUSH1 0x40 MSTORE SWAP1 JUMP JUMPDEST PUSH0 DUP3 PUSH1 0x1F DUP4 ADD SLT PUSH2 0x48ED JUMPI PUSH0 DUP1 REVERT JUMPDEST DUP2 CALLDATALOAD PUSH1 0x1 PUSH1 0x1 PUSH1 0x40 SHL SUB DUP2 GT ISZERO PUSH2 0x4906 JUMPI PUSH2 0x4906 PUSH2 0x48A2 JUMP JUMPDEST PUSH1 0x40 MLOAD PUSH1 0x1F DUP3 ADD PUSH1 0x1F NOT SWAP1 DUP2 AND PUSH1 0x3F ADD AND DUP2 ADD PUSH1 0x1 PUSH1 0x1 PUSH1 0x40 SHL SUB DUP2 GT DUP3 DUP3 LT OR ISZERO PUSH2 0x4934 JUMPI PUSH2 0x4934 PUSH2 0x48A2 JUMP JUMPDEST PUSH1 0x40 MSTORE DUP2 DUP2 MSTORE DUP4 DUP3 ADD PUSH1 0x20 ADD DUP6 LT ISZERO PUSH2 0x494B JUMPI PUSH0 DUP1 REVERT JUMPDEST DUP2 PUSH1 0x20 DUP6 ADD PUSH1 0x20 DUP4 ADD CALLDATACOPY PUSH0 SWAP2 DUP2 ADD PUSH1 0x20 ADD SWAP2 SWAP1 SWAP2 MSTORE SWAP4 SWAP3 POP POP POP JUMP JUMPDEST PUSH0 PUSH1 0xA0 DUP3 CALLDATASIZE SUB SLT ISZERO PUSH2 0x4977 JUMPI PUSH0 DUP1 REVERT JUMPDEST PUSH2 0x497F PUSH2 0x48B6 JUMP JUMPDEST DUP3 CALLDATALOAD DUP2 MSTORE PUSH1 0x20 DUP4 ADD CALLDATALOAD PUSH1 0x1 PUSH1 0x1 PUSH1 0x40 SHL SUB DUP2 GT ISZERO PUSH2 0x499B JUMPI PUSH0 DUP1 REVERT JUMPDEST PUSH2 0x49A7 CALLDATASIZE DUP3 DUP7 ADD PUSH2 0x48DE JUMP JUMPDEST PUSH1 0x20 DUP4 ADD MSTORE POP PUSH1 0x40 DUP4 ADD CALLDATALOAD PUSH1 0x1 PUSH1 0x1 PUSH1 0x40 SHL SUB DUP2 GT ISZERO PUSH2 0x49C5 JUMPI PUSH0 DUP1 REVERT JUMPDEST PUSH2 0x49D1 CALLDATASIZE DUP3 DUP7 ADD PUSH2 0x48DE JUMP JUMPDEST PUSH1 0x40 DUP4 ADD MSTORE POP PUSH1 0x60 DUP4 ADD CALLDATALOAD PUSH1 0x1 PUSH1 0x1 PUSH1 0x40 SHL SUB DUP2 GT ISZERO PUSH2 0x49EF JUMPI PUSH0 DUP1 REVERT JUMPDEST PUSH2 0x49FB CALLDATASIZE DUP3 DUP7 ADD PUSH2 0x48DE JUMP JUMPDEST PUSH1 0x60 DUP4 ADD MSTORE POP PUSH1 0x80 SWAP3 DUP4 ADD CALLDATALOAD SWAP3 DUP2 ADD SWAP3 SWAP1 SWAP3 MSTORE POP SWAP1 JUMP JUMPDEST PUSH1 0x40 DUP2 MSTORE PUSH0 PUSH2 0x4A25 PUSH1 0x40 DUP4 ADD DUP6 DUP8 PUSH2 0x4816 JUMP JUMPDEST SWAP1 POP DUP3 ISZERO ISZERO PUSH1 0x20 DUP4 ADD MSTORE SWAP5 SWAP4 POP POP POP POP JUMP JUMPDEST PUSH4 0x4E487B71 PUSH1 0xE0 SHL PUSH0 MSTORE PUSH1 0x11 PUSH1 0x4 MSTORE PUSH1 0x24 PUSH0 REVERT JUMPDEST DUP2 DUP2 SUB DUP2 DUP2 GT ISZERO PUSH2 0x5DB JUMPI PUSH2 0x5DB PUSH2 0x4A37 JUMP JUMPDEST PUSH4 0x4E487B71 PUSH1 0xE0 SHL PUSH0 MSTORE PUSH1 0x32 PUSH1 0x4 MSTORE PUSH1 0x24 PUSH0 REVERT JUMPDEST PUSH1 0x1 DUP2 DUP2 SHR SWAP1 DUP3 AND DUP1 PUSH2 0x4A86 JUMPI PUSH1 0x7F DUP3 AND SWAP2 POP JUMPDEST PUSH1 0x20 DUP3 LT DUP2 SUB PUSH2 0x4AA4 JUMPI PUSH4 0x4E487B71 PUSH1 0xE0 SHL PUSH0 MSTORE PUSH1 0x22 PUSH1 0x4 MSTORE PUSH1 0x24 PUSH0 REVERT JUMPDEST POP SWAP2 SWAP1 POP JUMP JUMPDEST PUSH0 DUP2 SLOAD PUSH2 0x4AB6 DUP2 PUSH2 0x4A72 JUMP JUMPDEST PUSH1 0x1 DUP3 AND DUP1 ISZERO PUSH2 0x4ACD JUMPI PUSH1 0x1 DUP2 EQ PUSH2 0x4AE2 JUMPI PUSH2 0x4B0F JUMP JUMPDEST PUSH1 0xFF NOT DUP4 AND DUP7 MSTORE DUP2 ISZERO ISZERO DUP3 MUL DUP7 ADD SWAP4 POP PUSH2 0x4B0F JUMP JUMPDEST DUP5 PUSH0 MSTORE PUSH1 0x20 PUSH0 KECCAK256 PUSH0 JUMPDEST DUP4 DUP2 LT ISZERO PUSH2 0x4B07 JUMPI DUP2 SLOAD DUP9 DUP3 ADD MSTORE PUSH1 0x1 SWAP1 SWAP2 ADD SWAP1 PUSH1 0x20 ADD PUSH2 0x4AEB JUMP JUMPDEST POP POP DUP2 DUP7 ADD SWAP4 POP JUMPDEST POP POP POP SWAP3 SWAP2 POP POP JUMP JUMPDEST PUSH0 PUSH2 0xA83 DUP3 DUP5 PUSH2 0x4AAA JUMP JUMPDEST PUSH0 DUP2 MLOAD DUP1 PUSH1 0x20 DUP5 ADD DUP6 MCOPY PUSH0 SWAP4 ADD SWAP3 DUP4 MSTORE POP SWAP1 SWAP2 SWAP1 POP JUMP JUMPDEST PUSH0 PUSH2 0xA83 DUP3 DUP5 PUSH2 0x4B23 JUMP JUMPDEST PUSH0 PUSH2 0x4B50 DUP3 DUP5 PUSH2 0x4B23 JUMP JUMPDEST PUSH32 0x2063616E6E6F74206265207A65726F2061646472657373000000000000000000 DUP2 MSTORE PUSH1 0x17 ADD SWAP4 SWAP3 POP POP POP JUMP JUMPDEST PUSH1 0x20 DUP2 MSTORE PUSH0 PUSH2 0xA83 PUSH1 0x20 DUP4 ADD DUP5 PUSH2 0x424D JUMP JUMPDEST DUP1 DUP3 ADD DUP1 DUP3 GT ISZERO PUSH2 0x5DB JUMPI PUSH2 0x5DB PUSH2 0x4A37 JUMP JUMPDEST PUSH0 PUSH1 0x1 DUP3 ADD PUSH2 0x4BB3 JUMPI PUSH2 0x4BB3 PUSH2 0x4A37 JUMP JUMPDEST POP PUSH1 0x1 ADD SWAP1 JUMP JUMPDEST PUSH1 0x1F DUP3 GT ISZERO PUSH2 0x836 JUMPI DUP1 PUSH0 MSTORE PUSH1 0x20 PUSH0 KECCAK256 PUSH1 0x1F DUP5 ADD PUSH1 0x5 SHR DUP2 ADD PUSH1 0x20 DUP6 LT ISZERO PUSH2 0x4BDF JUMPI POP DUP1 JUMPDEST PUSH1 0x1F DUP5 ADD PUSH1 0x5 SHR DUP3 ADD SWAP2 POP JUMPDEST DUP2 DUP2 LT ISZERO PUSH2 0x29E2 JUMPI PUSH0 DUP2 SSTORE PUSH1 0x1 ADD PUSH2 0x4BEB JUMP JUMPDEST PUSH0 NOT PUSH1 0x3 DUP4 SWAP1 SHL SHR NOT AND PUSH1 0x1 SWAP2 SWAP1 SWAP2 SHL OR SWAP1 JUMP JUMPDEST DUP2 DUP2 SUB PUSH2 0x4C1D JUMPI POP POP JUMP JUMPDEST PUSH2 0x4C27 DUP3 SLOAD PUSH2 0x4A72 JUMP JUMPDEST PUSH1 0x1 PUSH1 0x1 PUSH1 0x40 SHL SUB DUP2 GT ISZERO PUSH2 0x4C3E JUMPI PUSH2 0x4C3E PUSH2 0x48A2 JUMP JUMPDEST PUSH2 0x4C52 DUP2 PUSH2 0x4C4C DUP5 SLOAD PUSH2 0x4A72 JUMP JUMPDEST DUP5 PUSH2 0x4BBA JUMP JUMPDEST PUSH0 PUSH1 0x1F DUP3 GT PUSH1 0x1 DUP2 EQ PUSH2 0x4C7E JUMPI PUSH0 DUP4 ISZERO PUSH2 0x4C6C JUMPI POP DUP5 DUP3 ADD SLOAD JUMPDEST PUSH2 0x4C76 DUP5 DUP3 PUSH2 0x4BFE JUMP JUMPDEST DUP6 SSTORE POP PUSH2 0x29E2 JUMP JUMPDEST PUSH0 DUP6 DUP2 MSTORE PUSH1 0x20 DUP1 DUP3 KECCAK256 DUP7 DUP4 MSTORE SWAP1 DUP3 KECCAK256 PUSH1 0x1F NOT DUP7 AND SWAP3 JUMPDEST DUP4 DUP2 LT ISZERO PUSH2 0x4CB4 JUMPI DUP3 DUP7 ADD SLOAD DUP3 SSTORE PUSH1 0x1 SWAP6 DUP7 ADD SWAP6 SWAP1 SWAP2 ADD SWAP1 PUSH1 0x20 ADD PUSH2 0x4C94 JUMP JUMPDEST POP DUP6 DUP4 LT ISZERO PUSH2 0x4CD1 JUMPI DUP2 DUP6 ADD SLOAD PUSH0 NOT PUSH1 0x3 DUP9 SWAP1 SHL PUSH1 0xF8 AND SHR NOT AND DUP2 SSTORE JUMPDEST POP POP POP POP POP PUSH1 0x1 SWAP1 DUP2 SHL ADD SWAP1 SSTORE POP JUMP JUMPDEST PUSH4 0x4E487B71 PUSH1 0xE0 SHL PUSH0 MSTORE PUSH1 0x31 PUSH1 0x4 MSTORE PUSH1 0x24 PUSH0 REVERT JUMPDEST PUSH0 DUP2 PUSH2 0x4D03 JUMPI PUSH2 0x4D03 PUSH2 0x4A37 JUMP JUMPDEST POP PUSH0 NOT ADD SWAP1 JUMP JUMPDEST PUSH0 PUSH2 0x4D15 DUP3 DUP5 PUSH2 0x4B23 JUMP JUMPDEST PUSH16 0x2063616E6E6F7420626520656D707479 PUSH1 0x80 SHL DUP2 MSTORE PUSH1 0x10 ADD SWAP4 SWAP3 POP POP POP JUMP JUMPDEST PUSH0 PUSH2 0x4D40 DUP3 DUP5 PUSH2 0x4B23 JUMP JUMPDEST PUSH19 0x40CAF0C6CACAC8E640DAC2F040D8CADCCEE8D PUSH1 0x6B SHL DUP2 MSTORE PUSH1 0x13 ADD SWAP4 SWAP3 POP POP POP JUMP JUMPDEST DUP2 MLOAD PUSH1 0x1 PUSH1 0x1 PUSH1 0x40 SHL SUB DUP2 GT ISZERO PUSH2 0x4D7C JUMPI PUSH2 0x4D7C PUSH2 0x48A2 JUMP JUMPDEST PUSH2 0x4D8A DUP2 PUSH2 0x4C4C DUP5 SLOAD PUSH2 0x4A72 JUMP JUMPDEST PUSH1 0x20 PUSH1 0x1F DUP3 GT PUSH1 0x1 DUP2 EQ PUSH2 0x4DAE JUMPI PUSH0 DUP4 ISZERO PUSH2 0x4C6C JUMPI POP DUP5 DUP3 ADD MLOAD PUSH2 0x4C76 DUP5 DUP3 PUSH2 0x4BFE JUMP JUMPDEST PUSH0 DUP5 DUP2 MSTORE PUSH1 0x20 DUP2 KECCAK256 PUSH1 0x1F NOT DUP6 AND SWAP2 JUMPDEST DUP3 DUP2 LT ISZERO PUSH2 0x4DDD JUMPI DUP8 DUP6 ADD MLOAD DUP3 SSTORE PUSH1 0x20 SWAP5 DUP6 ADD SWAP5 PUSH1 0x1 SWAP1 SWAP3 ADD SWAP2 ADD PUSH2 0x4DBD JUMP JUMPDEST POP DUP5 DUP3 LT ISZERO PUSH2 0x4DFA JUMPI DUP7 DUP5 ADD MLOAD PUSH0 NOT PUSH1 0x3 DUP8 SWAP1 SHL PUSH1 0xF8 AND SHR NOT AND DUP2 SSTORE JUMPDEST POP POP POP POP PUSH1 0x1 SWAP1 DUP2 SHL ADD SWAP1 SSTORE POP JUMP JUMPDEST PUSH1 0x60 DUP2 MSTORE PUSH0 PUSH2 0x4E1B PUSH1 0x60 DUP4 ADD DUP7 PUSH2 0x424D JUMP JUMPDEST PUSH1 0x1 PUSH1 0x1 PUSH1 0xA0 SHL SUB DUP6 AND PUSH1 0x20 DUP5 ADD MSTORE DUP3 DUP2 SUB PUSH1 0x40 DUP5 ADD MSTORE PUSH2 0x2425 DUP2 DUP6 PUSH2 0x424D JUMP JUMPDEST PUSH1 0x1 PUSH1 0x1 PUSH1 0x40 SHL SUB DUP4 GT ISZERO PUSH2 0x4E53 JUMPI PUSH2 0x4E53 PUSH2 0x48A2 JUMP JUMPDEST PUSH2 0x4E67 DUP4 PUSH2 0x4E61 DUP4 SLOAD PUSH2 0x4A72 JUMP JUMPDEST DUP4 PUSH2 0x4BBA JUMP JUMPDEST PUSH0 PUSH1 0x1F DUP5 GT PUSH1 0x1 DUP2 EQ PUSH2 0x4E93 JUMPI PUSH0 DUP6 ISZERO PUSH2 0x4E81 JUMPI POP DUP4 DUP3 ADD CALLDATALOAD JUMPDEST PUSH2 0x4E8B DUP7 DUP3 PUSH2 0x4BFE JUMP JUMPDEST DUP5 SSTORE POP PUSH2 0x29E2 JUMP JUMPDEST PUSH0 DUP4 DUP2 MSTORE PUSH1 0x20 DUP2 KECCAK256 PUSH1 0x1F NOT DUP8 AND SWAP2 JUMPDEST DUP3 DUP2 LT ISZERO PUSH2 0x4EC2 JUMPI DUP7 DUP6 ADD CALLDATALOAD DUP3 SSTORE PUSH1 0x20 SWAP5 DUP6 ADD SWAP5 PUSH1 0x1 SWAP1 SWAP3 ADD SWAP2 ADD PUSH2 0x4EA2 JUMP JUMPDEST POP DUP7 DUP3 LT ISZERO PUSH2 0x4EDE JUMPI PUSH0 NOT PUSH1 0xF8 DUP9 PUSH1 0x3 SHL AND SHR NOT DUP5 DUP8 ADD CALLDATALOAD AND DUP2 SSTORE JUMPDEST POP POP PUSH1 0x1 DUP6 PUSH1 0x1 SHL ADD DUP4 SSTORE POP POP POP POP POP JUMP INVALID PREVRANDAO PUSH6 0x766963652072 PUSH6 0x676973747261 PUSH21 0x696F6E20616C726561647920696E2070726F677265 PUSH20 0x73A2646970667358221220ECDDD78422E40A031D PUSH30 0x7242D05774B07932A318B58A1A976C44B9A5BF6B38FB64736F6C63430008 BYTE STOP CALLER PUSH6 0xD7A28E3265B3 PUSH27 0x6474929F336521B332C1681B933F6CB9F3376673440D862A000000 "
		},
		"gasEstimates": {
			"creation": {
				"codeDepositCost": "4060200",
				"executionCost": "infinite",
				"totalCost": "infinite"
			},
			"external": {
				"DEFAULT_ADMIN_ROLE()": "260",
				"archiveWorkflow(uint256)": "infinite",
				"cleanupThresholdPeriod()": "2407",
				"createWorkflow((uint256,string,string,string,uint256))": "infinite",
				"deregisterDevice(uint256,string)": "infinite",
				"devStore(uint256)": "8942",
				"forceUnlock(uint256)": "infinite",
				"getAllWorkflows(uint256,uint256,address)": "infinite",
				"getArchivedWorkflowCount(address)": "infinite",
				"getArchivedWorkflows(uint256,uint256,address)": "infinite",
				"getDetailedWorkflow(uint256)": "infinite",
				"getDevice(uint256,string)": "infinite",
				"getDeviceExecution(address)": "infinite",
				"getRoleAdmin(bytes32)": "2490",
				"getWorkflowDevices(uint256,uint256)": "infinite",
				"getWorkflowInfo(uint256)": "infinite",
				"grantRole(bytes32,address)": "infinite",
				"hasRole(bytes32,address)": "2771",
				"isDeviceRegistered(string)": "infinite",
				"isRegistrationInProgress(string)": "infinite",
				"partIndex(bytes32)": "2481",
				"pause()": "infinite",
				"paused()": "2370",
				"registerDevice(uint256,string,address)": "infinite",
				"renounceRole(bytes32,address)": "29130",
				"revokeRole(bytes32,address)": "infinite",
				"setCleanupThreshold(uint256)": "infinite",
				"submitRecord(string,uint256)": "infinite",
				"supportsInterface(bytes4)": "503",
				"toggleDeviceBlacklist(string)": "infinite",
				"toggleWorkflowPause(uint256)": "infinite",
				"transferAdminRole(address)": "infinite",
				"unpause()": "infinite",
				"updateWorkflowExecutionInterval(uint256,uint256)": "infinite"
			}
		},
		"methodIdentifiers": {
			"DEFAULT_ADMIN_ROLE()": "a217fddf",
			"archiveWorkflow(uint256)": "3f189153",
			"cleanupThresholdPeriod()": "0d969f2c",
			"createWorkflow((uint256,string,string,string,uint256))": "584ddaf0",
			"deregisterDevice(uint256,string)": "07b4766b",
			"devStore(uint256)": "50c8f239",
			"forceUnlock(uint256)": "bf968a1b",
			"getAllWorkflows(uint256,uint256,address)": "01f857d2",
			"getArchivedWorkflowCount(address)": "abc2f065",
			"getArchivedWorkflows(uint256,uint256,address)": "7feb4cdc",
			"getDetailedWorkflow(uint256)": "aac43b2a",
			"getDevice(uint256,string)": "ec6a8ea1",
			"getDeviceExecution(address)": "fb0652ea",
			"getRoleAdmin(bytes32)": "248a9ca3",
			"getWorkflowDevices(uint256,uint256)": "a1ed3e0f",
			"getWorkflowInfo(uint256)": "df7459f0",
			"grantRole(bytes32,address)": "2f2ff15d",
			"hasRole(bytes32,address)": "91d14854",
			"isDeviceRegistered(string)": "68ba4eaf",
			"isRegistrationInProgress(string)": "6f6e326d",
			"partIndex(bytes32)": "7d592292",
			"pause()": "8456cb59",
			"paused()": "5c975abb",
			"registerDevice(uint256,string,address)": "b0df789a",
			"renounceRole(bytes32,address)": "36568abe",
			"revokeRole(bytes32,address)": "d547741f",
			"setCleanupThreshold(uint256)": "e88c754c",
			"submitRecord(string,uint256)": "2dd98c45",
			"supportsInterface(bytes4)": "01ffc9a7",
			"toggleDeviceBlacklist(string)": "5feb08b2",
			"toggleWorkflowPause(uint256)": "592ebbe9",
			"transferAdminRole(address)": "ada8f919",
			"unpause()": "3f4ba83a",
			"updateWorkflowExecutionInterval(uint256,uint256)": "b74dabbe"
		}
	},
	"abi": [
		{
			"inputs": [],
			"stateMutability": "nonpayable",
			"type": "constructor"
		},
		{
			"inputs": [],
			"name": "AccessControlBadConfirmation",
			"type": "error"
		},
		{
			"inputs": [
				{
					"internalType": "address",
					"name": "account",
					"type": "address"
				},
				{
					"internalType": "bytes32",
					"name": "neededRole",
					"type": "bytes32"
				}
			],
			"name": "AccessControlUnauthorizedAccount",
			"type": "error"
		},
		{
			"inputs": [],
			"name": "CleanupInProgress",
			"type": "error"
		},
		{
			"inputs": [
				{
					"internalType": "string",
					"name": "message",
					"type": "string"
				}
			],
			"name": "GenericError",
			"type": "error"
		},
		{
			"inputs": [
				{
					"internalType": "string",
					"name": "message",
					"type": "string"
				}
			],
			"name": "InvalidInput",
			"type": "error"
		},
		{
			"inputs": [],
			"name": "InvalidPartitionIndex",
			"type": "error"
		},
		{
			"inputs": [],
			"name": "LockTimeoutActive",
			"type": "error"
		},
		{
			"inputs": [],
			"name": "MaxPartitionsReached",
			"type": "error"
		},
		{
			"inputs": [
				{
					"internalType": "string",
					"name": "message",
					"type": "string"
				}
			],
			"name": "SecurityError",
			"type": "error"
		},
		{
			"inputs": [],
			"name": "StorageNotLocked",
			"type": "error"
		},
		{
			"inputs": [],
			"name": "TimeoutNotElapsed",
			"type": "error"
		},
		{
			"inputs": [
				{
					"internalType": "string",
					"name": "message",
					"type": "string"
				}
			],
			"name": "ValidationError",
			"type": "error"
		},
		{
			"inputs": [
				{
					"internalType": "string",
					"name": "message",
					"type": "string"
				}
			],
			"name": "ValidationError",
			"type": "error"
		},
		{
			"inputs": [
				{
					"internalType": "string",
					"name": "message",
					"type": "string"
				}
			],
			"name": "WorkflowError",
			"type": "error"
		},
		{
			"anonymous": false,
			"inputs": [
				{
					"indexed": false,
					"internalType": "string",
					"name": "walletId",
					"type": "string"
				},
				{
					"indexed": true,
					"internalType": "address",
					"name": "deviceAddress",
					"type": "address"
				},
				{
					"indexed": true,
					"internalType": "address",
					"name": "blacklister",
					"type": "address"
				},
				{
					"indexed": false,
					"internalType": "bool",
					"name": "status",
					"type": "bool"
				}
			],
			"name": "DeviceBlacklisted",
			"type": "event"
		},
		{
			"anonymous": false,
			"inputs": [
				{
					"indexed": true,
					"internalType": "string",
					"name": "walletId",
					"type": "string"
				},
				{
					"indexed": true,
					"internalType": "uint256",
					"name": "workflowId",
					"type": "uint256"
				},
				{
					"indexed": false,
					"internalType": "uint256",
					"name": "lastActiveTimestamp",
					"type": "uint256"
				},
				{
					"indexed": false,
					"internalType": "uint256",
					"name": "cleanupTimestamp",
					"type": "uint256"
				}
			],
			"name": "DeviceCleanedUp",
			"type": "event"
		},
		{
			"anonymous": false,
			"inputs": [
				{
					"indexed": true,
					"internalType": "uint256",
					"name": "workflowId",
					"type": "uint256"
				},
				{
					"indexed": false,
					"internalType": "string",
					"name": "walletId",
					"type": "string"
				},
				{
					"indexed": true,
					"internalType": "address",
					"name": "deregistrar",
					"type": "address"
				}
			],
			"name": "DeviceDeregistered",
			"type": "event"
		},
		{
			"anonymous": false,
			"inputs": [
				{
					"indexed": true,
					"internalType": "uint256",
					"name": "partitionIndex",
					"type": "uint256"
				},
				{
					"indexed": false,
					"internalType": "uint256",
					"name": "startBlock",
					"type": "uint256"
				},
				{
					"indexed": false,
					"internalType": "uint256",
					"name": "endBlock",
					"type": "uint256"
				}
			],
			"name": "DevicePartitionCreated",
			"type": "event"
		},
		{
			"anonymous": false,
			"inputs": [
				{
					"indexed": true,
					"internalType": "uint256",
					"name": "partitionIndex",
					"type": "uint256"
				}
			],
			"name": "DevicePartitionFilled",
			"type": "event"
		},
		{
			"anonymous": false,
			"inputs": [
				{
					"indexed": true,
					"internalType": "uint256",
					"name": "workflowId",
					"type": "uint256"
				},
				{
					"indexed": false,
					"internalType": "string",
					"name": "walletId",
					"type": "string"
				},
				{
					"indexed": true,
					"internalType": "address",
					"name": "deviceAddress",
					"type": "address"
				},
				{
					"indexed": true,
					"internalType": "address",
					"name": "registrar",
					"type": "address"
				}
			],
			"name": "DeviceRegistered",
			"type": "event"
		},
		{
			"anonymous": false,
			"inputs": [
				{
					"indexed": true,
					"internalType": "uint256",
					"name": "workflowId",
					"type": "uint256"
				},
				{
					"indexed": false,
					"internalType": "string",
					"name": "walletId",
					"type": "string"
				},
				{
					"indexed": false,
					"internalType": "uint256",
					"name": "partition",
					"type": "uint256"
				},
				{
					"indexed": false,
					"internalType": "uint256",
					"name": "timestamp",
					"type": "uint256"
				}
			],
			"name": "DeviceRemoved",
			"type": "event"
		},
		{
			"anonymous": false,
			"inputs": [
				{
					"indexed": false,
					"internalType": "address",
					"name": "account",
					"type": "address"
				}
			],
			"name": "Paused",
			"type": "event"
		},
		{
			"anonymous": false,
			"inputs": [
				{
					"indexed": true,
					"internalType": "string",
					"name": "walletId",
					"type": "string"
				},
				{
					"indexed": true,
					"internalType": "uint256",
					"name": "workflowId",
					"type": "uint256"
				},
				{
					"indexed": false,
					"internalType": "uint256",
					"name": "counter",
					"type": "uint256"
				}
			],
			"name": "RecordUpdated",
			"type": "event"
		},
		{
			"anonymous": false,
			"inputs": [
				{
					"indexed": true,
					"internalType": "bytes32",
					"name": "role",
					"type": "bytes32"
				},
				{
					"indexed": true,
					"internalType": "bytes32",
					"name": "previousAdminRole",
					"type": "bytes32"
				},
				{
					"indexed": true,
					"internalType": "bytes32",
					"name": "newAdminRole",
					"type": "bytes32"
				}
			],
			"name": "RoleAdminChanged",
			"type": "event"
		},
		{
			"anonymous": false,
			"inputs": [
				{
					"indexed": true,
					"internalType": "bytes32",
					"name": "role",
					"type": "bytes32"
				},
				{
					"indexed": true,
					"internalType": "address",
					"name": "account",
					"type": "address"
				},
				{
					"indexed": true,
					"internalType": "address",
					"name": "sender",
					"type": "address"
				}
			],
			"name": "RoleGranted",
			"type": "event"
		},
		{
			"anonymous": false,
			"inputs": [
				{
					"indexed": true,
					"internalType": "bytes32",
					"name": "role",
					"type": "bytes32"
				},
				{
					"indexed": true,
					"internalType": "address",
					"name": "account",
					"type": "address"
				},
				{
					"indexed": true,
					"internalType": "address",
					"name": "sender",
					"type": "address"
				}
			],
			"name": "RoleRevoked",
			"type": "event"
		},
		{
			"anonymous": false,
			"inputs": [
				{
					"indexed": true,
					"internalType": "address",
					"name": "user",
					"type": "address"
				},
				{
					"indexed": true,
					"internalType": "uint256",
					"name": "workflowId",
					"type": "uint256"
				},
				{
					"indexed": false,
					"internalType": "uint256",
					"name": "deletedCount",
					"type": "uint256"
				},
				{
					"indexed": false,
					"internalType": "uint256",
					"name": "timestamp",
					"type": "uint256"
				}
			],
			"name": "StorageCleanup",
			"type": "event"
		},
		{
			"anonymous": false,
			"inputs": [
				{
					"indexed": true,
					"internalType": "uint256",
					"name": "workflowId",
					"type": "uint256"
				}
			],
			"name": "StorageLocked",
			"type": "event"
		},
		{
			"anonymous": false,
			"inputs": [
				{
					"indexed": true,
					"internalType": "uint256",
					"name": "workflowId",
					"type": "uint256"
				}
			],
			"name": "StorageUnlocked",
			"type": "event"
		},
		{
			"anonymous": false,
			"inputs": [
				{
					"indexed": false,
					"internalType": "address",
					"name": "account",
					"type": "address"
				}
			],
			"name": "Unpaused",
			"type": "event"
		},
		{
			"anonymous": false,
			"inputs": [
				{
					"indexed": true,
					"internalType": "uint256",
					"name": "workflowId",
					"type": "uint256"
				},
				{
					"indexed": true,
					"internalType": "address",
					"name": "owner",
					"type": "address"
				}
			],
			"name": "WorkflowArchived",
			"type": "event"
		},
		{
			"anonymous": false,
			"inputs": [
				{
					"indexed": true,
					"internalType": "uint256",
					"name": "id",
					"type": "uint256"
				},
				{
					"indexed": false,
					"internalType": "string",
					"name": "title",
					"type": "string"
				},
				{
					"indexed": false,
					"internalType": "address",
					"name": "owner",
					"type": "address"
				},
				{
					"indexed": false,
					"internalType": "string",
					"name": "schemaId",
					"type": "string"
				}
			],
			"name": "WorkflowCreated",
			"type": "event"
		},
		{
			"anonymous": false,
			"inputs": [
				{
					"indexed": true,
					"internalType": "uint256",
					"name": "workflowId",
					"type": "uint256"
				},
				{
					"indexed": false,
					"internalType": "uint256",
					"name": "newInterval",
					"type": "uint256"
				}
			],
			"name": "WorkflowExecutionIntervalUpdated",
			"type": "event"
		},
		{
			"anonymous": false,
			"inputs": [
				{
					"indexed": true,
					"internalType": "uint256",
					"name": "workflowId",
					"type": "uint256"
				},
				{
					"indexed": false,
					"internalType": "bool",
					"name": "isPaused",
					"type": "bool"
				}
			],
			"name": "WorkflowPauseToggled",
			"type": "event"
		},
		{
			"inputs": [],
			"name": "DEFAULT_ADMIN_ROLE",
			"outputs": [
				{
					"internalType": "bytes32",
					"name": "",
					"type": "bytes32"
				}
			],
			"stateMutability": "view",
			"type": "function"
		},
		{
			"inputs": [
				{
					"internalType": "uint256",
					"name": "workflowId",
					"type": "uint256"
				}
			],
			"name": "archiveWorkflow",
			"outputs": [],
			"stateMutability": "nonpayable",
			"type": "function"
		},
		{
			"inputs": [],
			"name": "cleanupThresholdPeriod",
			"outputs": [
				{
					"internalType": "uint256",
					"name": "",
					"type": "uint256"
				}
			],
			"stateMutability": "view",
			"type": "function"
		},
		{
			"inputs": [
				{
					"components": [
						{
							"internalType": "uint256",
							"name": "wid",
							"type": "uint256"
						},
						{
							"internalType": "string",
							"name": "title",
							"type": "string"
						},
						{
							"internalType": "string",
							"name": "description",
							"type": "string"
						},
						{
							"internalType": "string",
							"name": "schemaId",
							"type": "string"
						},
						{
							"internalType": "uint256",
							"name": "executionInterval",
							"type": "uint256"
						}
					],
					"internalType": "struct IWorkflow.CreateWorkflowInput",
					"name": "input",
					"type": "tuple"
				}
			],
			"name": "createWorkflow",
			"outputs": [
				{
					"internalType": "uint256",
					"name": "",
					"type": "uint256"
				}
			],
			"stateMutability": "nonpayable",
			"type": "function"
		},
		{
			"inputs": [
				{
					"internalType": "uint256",
					"name": "workflowId",
					"type": "uint256"
				},
				{
					"internalType": "string",
					"name": "walletId",
					"type": "string"
				}
			],
			"name": "deregisterDevice",
			"outputs": [],
			"stateMutability": "nonpayable",
			"type": "function"
		},
		{
			"inputs": [
				{
					"internalType": "uint256",
					"name": "",
					"type": "uint256"
				}
			],
			"name": "devStore",
			"outputs": [
				{
					"internalType": "bool",
					"name": "locked",
					"type": "bool"
				},
				{
					"internalType": "uint256",
					"name": "lockTime",
					"type": "uint256"
				},
				{
					"internalType": "uint256",
					"name": "totalDevs",
					"type": "uint256"
				},
				{
					"internalType": "uint256",
					"name": "activeIdx",
					"type": "uint256"
				}
			],
			"stateMutability": "view",
			"type": "function"
		},
		{
			"inputs": [
				{
					"internalType": "uint256",
					"name": "workflowId",
					"type": "uint256"
				}
			],
			"name": "forceUnlock",
			"outputs": [],
			"stateMutability": "nonpayable",
			"type": "function"
		},
		{
			"inputs": [
				{
					"internalType": "uint256",
					"name": "offset",
					"type": "uint256"
				},
				{
					"internalType": "uint256",
					"name": "limit",
					"type": "uint256"
				},
				{
					"internalType": "address",
					"name": "adminAddress",
					"type": "address"
				}
			],
			"name": "getAllWorkflows",
			"outputs": [
				{
					"components": [
						{
							"internalType": "uint256",
							"name": "id",
							"type": "uint256"
						},
						{
							"internalType": "string",
							"name": "title",
							"type": "string"
						},
						{
							"internalType": "bool",
							"name": "isArchived",
							"type": "bool"
						},
						{
							"internalType": "bool",
							"name": "isPaused",
							"type": "bool"
						},
						{
							"internalType": "uint256",
							"name": "contributorCount",
							"type": "uint256"
						}
					],
					"internalType": "struct IWorkflow.WorkflowListItem[]",
					"name": "workflows",
					"type": "tuple[]"
				},
				{
					"internalType": "uint256",
					"name": "total",
					"type": "uint256"
				},
				{
					"internalType": "bool",
					"name": "hasMore",
					"type": "bool"
				}
			],
			"stateMutability": "view",
			"type": "function"
		},
		{
			"inputs": [
				{
					"internalType": "address",
					"name": "adminAddress",
					"type": "address"
				}
			],
			"name": "getArchivedWorkflowCount",
			"outputs": [
				{
					"internalType": "uint256",
					"name": "",
					"type": "uint256"
				}
			],
			"stateMutability": "view",
			"type": "function"
		},
		{
			"inputs": [
				{
					"internalType": "uint256",
					"name": "offset",
					"type": "uint256"
				},
				{
					"internalType": "uint256",
					"name": "limit",
					"type": "uint256"
				},
				{
					"internalType": "address",
					"name": "adminAddress",
					"type": "address"
				}
			],
			"name": "getArchivedWorkflows",
			"outputs": [
				{
					"internalType": "uint256[]",
					"name": "workflows",
					"type": "uint256[]"
				},
				{
					"internalType": "uint256",
					"name": "total",
					"type": "uint256"
				},
				{
					"internalType": "bool",
					"name": "hasMore",
					"type": "bool"
				}
			],
			"stateMutability": "view",
			"type": "function"
		},
		{
			"inputs": [
				{
					"internalType": "uint256",
					"name": "workflowId",
					"type": "uint256"
				}
			],
			"name": "getDetailedWorkflow",
			"outputs": [
				{
					"components": [
						{
							"internalType": "uint256",
							"name": "id",
							"type": "uint256"
						},
						{
							"internalType": "string",
							"name": "title",
							"type": "string"
						},
						{
							"internalType": "string",
							"name": "description",
							"type": "string"
						},
						{
							"internalType": "uint256",
							"name": "contributorCount",
							"type": "uint256"
						},
						{
							"internalType": "uint256",
							"name": "timestamp",
							"type": "uint256"
						},
						{
							"internalType": "enum IWorkflow.WorkflowStatus",
							"name": "status",
							"type": "uint8"
						},
						{
							"internalType": "uint256",
							"name": "deviceLimit",
							"type": "uint256"
						},
						{
							"internalType": "string",
							"name": "schemaId",
							"type": "string"
						},
						{
							"internalType": "uint256",
							"name": "partitionSize",
							"type": "uint256"
						},
						{
							"internalType": "uint256",
							"name": "executionInterval",
							"type": "uint256"
						},
						{
							"internalType": "address",
							"name": "owner",
							"type": "address"
						}
					],
					"internalType": "struct IWorkflow.Workflow",
					"name": "workflow",
					"type": "tuple"
				},
				{
					"internalType": "bool",
					"name": "isArchived",
					"type": "bool"
				},
				{
					"internalType": "bool",
					"name": "isPaused",
					"type": "bool"
				}
			],
			"stateMutability": "view",
			"type": "function"
		},
		{
			"inputs": [
				{
					"internalType": "uint256",
					"name": "workflowId",
					"type": "uint256"
				},
				{
					"internalType": "string",
					"name": "walletId",
					"type": "string"
				}
			],
			"name": "getDevice",
			"outputs": [
				{
					"components": [
						{
							"internalType": "string",
							"name": "walletId",
							"type": "string"
						},
						{
							"internalType": "address",
							"name": "deviceAddress",
							"type": "address"
						},
						{
							"internalType": "uint256",
							"name": "registeredAt",
							"type": "uint256"
						},
						{
							"internalType": "bool",
							"name": "blacklisted",
							"type": "bool"
						},
						{
							"internalType": "uint256",
							"name": "lastActive",
							"type": "uint256"
						}
					],
					"internalType": "struct IMedusaStorage.Device",
					"name": "",
					"type": "tuple"
				}
			],
			"stateMutability": "view",
			"type": "function"
		},
		{
			"inputs": [
				{
					"internalType": "address",
					"name": "deviceAddress",
					"type": "address"
				}
			],
			"name": "getDeviceExecution",
			"outputs": [
				{
					"internalType": "uint256",
					"name": "count",
					"type": "uint256"
				},
				{
					"internalType": "uint256",
					"name": "lastExecuted",
					"type": "uint256"
				},
				{
					"internalType": "bool",
					"name": "isActive",
					"type": "bool"
				}
			],
			"stateMutability": "view",
			"type": "function"
		},
		{
			"inputs": [
				{
					"internalType": "bytes32",
					"name": "role",
					"type": "bytes32"
				}
			],
			"name": "getRoleAdmin",
			"outputs": [
				{
					"internalType": "bytes32",
					"name": "",
					"type": "bytes32"
				}
			],
			"stateMutability": "view",
			"type": "function"
		},
		{
			"inputs": [
				{
					"internalType": "uint256",
					"name": "workflowId",
					"type": "uint256"
				},
				{
					"internalType": "uint256",
					"name": "partitionIndex",
					"type": "uint256"
				}
			],
			"name": "getWorkflowDevices",
			"outputs": [
				{
					"components": [
						{
							"components": [
								{
									"internalType": "string",
									"name": "walletId",
									"type": "string"
								},
								{
									"internalType": "address",
									"name": "deviceAddress",
									"type": "address"
								},
								{
									"internalType": "uint256",
									"name": "registeredAt",
									"type": "uint256"
								},
								{
									"internalType": "bool",
									"name": "blacklisted",
									"type": "bool"
								},
								{
									"internalType": "uint256",
									"name": "lastActive",
									"type": "uint256"
								}
							],
							"internalType": "struct IMedusaStorage.Device[]",
							"name": "devices",
							"type": "tuple[]"
						},
						{
							"internalType": "uint256",
							"name": "totalPartitions",
							"type": "uint256"
						},
						{
							"internalType": "uint256",
							"name": "currentPartition",
							"type": "uint256"
						},
						{
							"internalType": "uint256",
							"name": "totalDevices",
							"type": "uint256"
						},
						{
							"internalType": "bool",
							"name": "hasMore",
							"type": "bool"
						}
					],
					"internalType": "struct IMedusaStorage.PaginatedDevices",
					"name": "",
					"type": "tuple"
				}
			],
			"stateMutability": "view",
			"type": "function"
		},
		{
			"inputs": [
				{
					"internalType": "uint256",
					"name": "workflowId",
					"type": "uint256"
				}
			],
			"name": "getWorkflowInfo",
			"outputs": [
				{
					"components": [
						{
							"internalType": "uint256",
							"name": "id",
							"type": "uint256"
						},
						{
							"internalType": "string",
							"name": "title",
							"type": "string"
						},
						{
							"internalType": "string",
							"name": "description",
							"type": "string"
						},
						{
							"internalType": "uint256",
							"name": "contributorCount",
							"type": "uint256"
						},
						{
							"internalType": "uint256",
							"name": "timestamp",
							"type": "uint256"
						},
						{
							"internalType": "enum IWorkflow.WorkflowStatus",
							"name": "status",
							"type": "uint8"
						},
						{
							"internalType": "uint256",
							"name": "deviceLimit",
							"type": "uint256"
						},
						{
							"internalType": "string",
							"name": "schemaId",
							"type": "string"
						},
						{
							"internalType": "uint256",
							"name": "partitionSize",
							"type": "uint256"
						},
						{
							"internalType": "uint256",
							"name": "executionInterval",
							"type": "uint256"
						},
						{
							"internalType": "address",
							"name": "owner",
							"type": "address"
						}
					],
					"internalType": "struct IWorkflow.Workflow",
					"name": "workflow",
					"type": "tuple"
				},
				{
					"internalType": "uint256",
					"name": "totalPartitions",
					"type": "uint256"
				},
				{
					"internalType": "uint256",
					"name": "totalDevices",
					"type": "uint256"
				},
				{
					"internalType": "uint256[]",
					"name": "devicesPerPartition",
					"type": "uint256[]"
				}
			],
			"stateMutability": "view",
			"type": "function"
		},
		{
			"inputs": [
				{
					"internalType": "bytes32",
					"name": "role",
					"type": "bytes32"
				},
				{
					"internalType": "address",
					"name": "account",
					"type": "address"
				}
			],
			"name": "grantRole",
			"outputs": [],
			"stateMutability": "nonpayable",
			"type": "function"
		},
		{
			"inputs": [
				{
					"internalType": "bytes32",
					"name": "role",
					"type": "bytes32"
				},
				{
					"internalType": "address",
					"name": "account",
					"type": "address"
				}
			],
			"name": "hasRole",
			"outputs": [
				{
					"internalType": "bool",
					"name": "",
					"type": "bool"
				}
			],
			"stateMutability": "view",
			"type": "function"
		},
		{
			"inputs": [
				{
					"internalType": "string",
					"name": "walletId",
					"type": "string"
				}
			],
			"name": "isDeviceRegistered",
			"outputs": [
				{
					"internalType": "bool",
					"name": "",
					"type": "bool"
				}
			],
			"stateMutability": "view",
			"type": "function"
		},
		{
			"inputs": [
				{
					"internalType": "string",
					"name": "walletId",
					"type": "string"
				}
			],
			"name": "isRegistrationInProgress",
			"outputs": [
				{
					"internalType": "bool",
					"name": "",
					"type": "bool"
				}
			],
			"stateMutability": "view",
			"type": "function"
		},
		{
			"inputs": [
				{
					"internalType": "bytes32",
					"name": "",
					"type": "bytes32"
				}
			],
			"name": "partIndex",
			"outputs": [
				{
					"internalType": "uint256",
					"name": "",
					"type": "uint256"
				}
			],
			"stateMutability": "view",
			"type": "function"
		},
		{
			"inputs": [],
			"name": "pause",
			"outputs": [],
			"stateMutability": "nonpayable",
			"type": "function"
		},
		{
			"inputs": [],
			"name": "paused",
			"outputs": [
				{
					"internalType": "bool",
					"name": "",
					"type": "bool"
				}
			],
			"stateMutability": "view",
			"type": "function"
		},
		{
			"inputs": [
				{
					"internalType": "uint256",
					"name": "workflowId",
					"type": "uint256"
				},
				{
					"internalType": "string",
					"name": "walletId",
					"type": "string"
				},
				{
					"internalType": "address",
					"name": "deviceAddress",
					"type": "address"
				}
			],
			"name": "registerDevice",
			"outputs": [],
			"stateMutability": "nonpayable",
			"type": "function"
		},
		{
			"inputs": [
				{
					"internalType": "bytes32",
					"name": "role",
					"type": "bytes32"
				},
				{
					"internalType": "address",
					"name": "callerConfirmation",
					"type": "address"
				}
			],
			"name": "renounceRole",
			"outputs": [],
			"stateMutability": "nonpayable",
			"type": "function"
		},
		{
			"inputs": [
				{
					"internalType": "bytes32",
					"name": "role",
					"type": "bytes32"
				},
				{
					"internalType": "address",
					"name": "account",
					"type": "address"
				}
			],
			"name": "revokeRole",
			"outputs": [],
			"stateMutability": "nonpayable",
			"type": "function"
		},
		{
			"inputs": [
				{
					"internalType": "uint256",
					"name": "newThreshold",
					"type": "uint256"
				}
			],
			"name": "setCleanupThreshold",
			"outputs": [],
			"stateMutability": "nonpayable",
			"type": "function"
		},
		{
			"inputs": [
				{
					"internalType": "string",
					"name": "walletId",
					"type": "string"
				},
				{
					"internalType": "uint256",
					"name": "workflowId",
					"type": "uint256"
				}
			],
			"name": "submitRecord",
			"outputs": [
				{
					"internalType": "uint256",
					"name": "",
					"type": "uint256"
				}
			],
			"stateMutability": "nonpayable",
			"type": "function"
		},
		{
			"inputs": [
				{
					"internalType": "bytes4",
					"name": "interfaceId",
					"type": "bytes4"
				}
			],
			"name": "supportsInterface",
			"outputs": [
				{
					"internalType": "bool",
					"name": "",
					"type": "bool"
				}
			],
			"stateMutability": "view",
			"type": "function"
		},
		{
			"inputs": [
				{
					"internalType": "string",
					"name": "walletId",
					"type": "string"
				}
			],
			"name": "toggleDeviceBlacklist",
			"outputs": [],
			"stateMutability": "nonpayable",
			"type": "function"
		},
		{
			"inputs": [
				{
					"internalType": "uint256",
					"name": "workflowId",
					"type": "uint256"
				}
			],
			"name": "toggleWorkflowPause",
			"outputs": [],
			"stateMutability": "nonpayable",
			"type": "function"
		},
		{
			"inputs": [
				{
					"internalType": "address",
					"name": "newAdmin",
					"type": "address"
				}
			],
			"name": "transferAdminRole",
			"outputs": [],
			"stateMutability": "nonpayable",
			"type": "function"
		},
		{
			"inputs": [],
			"name": "unpause",
			"outputs": [],
			"stateMutability": "nonpayable",
			"type": "function"
		},
		{
			"inputs": [
				{
					"internalType": "uint256",
					"name": "workflowId",
					"type": "uint256"
				},
				{
					"internalType": "uint256",
					"name": "newInterval",
					"type": "uint256"
				}
			],
			"name": "updateWorkflowExecutionInterval",
			"outputs": [],
			"stateMutability": "nonpayable",
			"type": "function"
		}
	]
}