{
	"data": {
		"bytecode": {
			"linkReferences": {},
			"object": "60806040526276a7006003556276a70060075534801561001d575f80fd5b50600180556002805460ff191690556100365f336100c0565b5061004e5f805160206146668339815191525f610169565b6100787f22435ed027edf5f902dc0093fbc24cdb50c05b5fd5f311b78c67c1cbaff60e135f610169565b61008f5f80516020614666833981519152336100c0565b506100ba7f22435ed027edf5f902dc0093fbc24cdb50c05b5fd5f311b78c67c1cbaff60e13336100c0565b506101b3565b5f828152602081815260408083206001600160a01b038516845290915281205460ff16610160575f838152602081815260408083206001600160a01b03861684529091529020805460ff191660011790556101183390565b6001600160a01b0316826001600160a01b0316847f2f8788117e7eff1d82e926ec794901d17c78024a50270940304540a733656f0d60405160405180910390a4506001610163565b505f5b92915050565b5f82815260208190526040808220600101805490849055905190918391839186917fbd79b86ffe0ab8e8776151514217cd7cacd52c909f66475c3af44e129f0b00ff9190a4505050565b6144a6806101c05f395ff3fe608060405234801561000f575f80fd5b50600436106101dc575f3560e01c80635feb08b211610109578063a217fddf1161009e578063d547741f1161006e578063d547741f1461046b578063df7459f01461047e578063e88c754c146104a1578063ec6a8ea1146104b4575f80fd5b8063a217fddf1461042b578063ada8f91914610432578063b0df789a14610445578063b74dabbe14610458575f80fd5b80637d592292116100d95780637d592292146103e85780638456cb59146104075780638e0bb5dd1461040f57806391d1485414610418575f80fd5b80635feb08b214610390578063636702d1146103a357806368ba4eaf146103c25780636f6e326d146103d5575f80fd5b80632f2ff15d1161017f578063584ddaf01161014f578063584ddaf01461034c578063592ebbe91461035f5780635c7700df146103725780635c975abb14610385575f80fd5b80632f2ff15d146102fe57806336568abe146103115780633f4ba83a146103245780634cfb5e791461032c575f80fd5b8063248a9ca3116101ba578063248a9ca314610234578063273bb6a414610256578063291a8d1d146102bb5780632dd98c45146102eb575f80fd5b806301ffc9a7146101e057806307b4766b146102085780630d969f2c1461021d575b5f80fd5b6101f36101ee366004613837565b6104d4565b60405190151581526020015b60405180910390f35b61021b6102163660046138a2565b61050a565b005b61022660075481565b6040519081526020016101ff565b6102266102423660046138e9565b5f9081526020819052604090206001015490565b610299610264366004613916565b600860209081525f9283526040808420909152908252902080546001820154600283015460039093015460ff90921692909184565b60408051941515855260208501939093529183015260608201526080016101ff565b6102ce6102c936600461393e565b610771565b6040805193845260208401929092521515908201526060016101ff565b6102266102f9366004613957565b6108d9565b61021b61030c36600461399e565b610b35565b61021b61031f36600461399e565b610b5f565b61021b610b92565b61033f61033a3660046139c8565b610bc7565b6040516101ff9190613a7b565b61022661035a366004613b12565b610cca565b61021b61036d3660046138e9565b610de7565b61021b610380366004613916565b610e95565b60025460ff166101f3565b61021b61039e366004613b48565b610ea9565b6102266103b13660046138e9565b60066020525f908152604090205481565b6101f36103d0366004613b48565b610fe0565b6101f36103e3366004613b48565b611010565b6102266103f63660046138e9565b60046020525f908152604090205481565b61021b61104a565b61022660035481565b6101f361042636600461399e565b61107c565b6102265f81565b61021b61044036600461393e565b6110a4565b61021b610453366004613b86565b61112a565b61021b610466366004613bdf565b611576565b61021b61047936600461399e565b6115ec565b61049161048c3660046138e9565b611610565b6040516101ff9493929190613c6d565b61021b6104af3660046138e9565b611737565b6104c76104c23660046138a2565b611784565b6040516101ff9190613d5d565b5f6001600160e01b03198216637965db0b60e01b148061050457506301ffc9a760e01b6001600160e01b03198316145b92915050565b6105126119cc565b61051a611a2a565b5f838152601060205260409020600401548390610569576105696040518060400160405280601781526020017615dbdc9ad99b1bddc8191bd95cc81b9bdd08195e1a5cdd604a1b815250611a72565b5f84815260116020526040902054849060ff16156105b1576105b16040518060400160405280600f81526020016e15dbdc9ad99b1bddc81c185d5cd959608a1b815250611a8d565b84336105be601083611aa7565b6001600160a01b0316146105fb576105fb6040518060400160405280600e81526020016d139bdd08185d5d1a1bdc9a5e995960921b815250611a8d565b61060760098686611ac5565b610641576106416040518060400160405280601581526020017411195d9a58d9481b9bdd081c9959da5cdd195c9959605a1b815250611af9565b61064e6009868689611b14565b6106895761068960405180604001604052806016815260200175446576696365206e6f7420696e20776f726b666c6f7760501b815250611af9565b335f908152600860209081526040808320898452909152812060028101549091906106b990839089908990611b51565b9050806106f6576106f66040518060400160405280601581526020017411195d9a58d9481c995b5bdd985b0819985a5b1959605a1b815250611d2c565b6107003389611d47565b61070e600988888b86611df3565b5061071a601089611e8e565b336001600160a01b0316887f7c60e8fa020b837cd1142e332837132074a30cf91beaebbcbb9e7533b7133a588989604051610756929190613d97565b60405180910390a3505050505061076c60018055565b505050565b6001600160a01b0381165f908152600e6020526040812080548291829182919061079a90613daa565b80601f01602080910402602001604051908101604052809291908181526020018280546107c690613daa565b80156108115780601f106107e857610100808354040283529160200191610811565b820191905f5260205f20905b8154815290600101906020018083116107f457829003601f168201915b5050505050905080515f0361085e5761085e6040518060400160405280601d81526020017f4465766963652061646472657373206e6f742072656769737465726564000000815250611af9565b5f6009600101826040516108729190613df9565b9081526040519081900360200181209150601290610891908490613df9565b90815260405190819003602001812054906013906108b0908590613df9565b9081526040519081900360200190205460039092015490955090935060ff169150509193909250565b5f6108e26119cc565b6108ea611a2a565b5f82815260116020526040902054829060ff1615610932576109326040518060400160405280600f81526020016e15dbdc9ad99b1bddc81c185d5cd959608a1b815250611a8d565b5f838152601060205260409020600401548390610981576109816040518060400160405280601781526020017615dbdc9ad99b1bddc8191bd95cc81b9bdd08195e1a5cdd604a1b815250611a72565b5f61098d601086611ec9565b90505f600960010188886040516109a5929190613e04565b908152602001604051809103902090506109bf8133612125565b50604051600b906109d3908a908a90613e04565b90815260408051602092819003830190205f898152925290205460ff16610a3257610a326040518060400160405280601a81526020017f776f726b666c6f772076616c69646174696f6e206661696c6564000000000000815250611af9565b5f60126001018989604051610a48929190613e04565b9081526040519081900360200181205491505f90601290610a6c908c908c90613e04565b90815260405190819003602001902054610140850151909150610a904284836121ca565b610a998261223c565b5f610aa660128d8d6122eb565b335f9081526008602090815260408083208e84529091529020909150610ad0818e8e426004612377565b8a8d8d604051610ae1929190613e04565b604051908190038120848252907fff199341a680b0b35a4dc6d3160e44d2a5574ac10bf2955bcdfe0ec47fbb1e8f9060200160405180910390a350975050505050505050610b2e60018055565b9392505050565b5f82815260208190526040902060010154610b4f8161244b565b610b598383612455565b50505050565b6001600160a01b0381163314610b885760405163334bd91960e11b815260040160405180910390fd5b61076c82826124e4565b7f65d7a28e3265b37a6474929f336521b332c1681b933f6cb9f3376673440d862a610bbc8161244b565b610bc461254d565b50565b610bf76040518060a00160405280606081526020015f81526020015f81526020015f81526020015f151581525090565b5f84815260106020526040902060040154610c4057610c4060405180604001604052806013815260200172125b9d985b1a59081ddbdc9ad99b1bddc81251606a1b815250611a72565b6001600160a01b0383165f90815260086020908152604080832087845290915290206004810154610c7290849061259f565b5f610c7e8587866125ef565b6040805160a081018252828152600485015460208201819052918101879052600285015460608201529192506080820190610cbb90600190613e27565b86109052925050509392505050565b5f610cd36119cc565b610cdb611a2a565b610d41610ceb6020840184613e3a565b8080601f0160208091040260200160405190810160405280939291908181526020018383808284375f920191909152505060408051808201825260058152647469746c6560d81b602082015290925090506127a0565b610daa610d516060840184613e3a565b8080601f0160208091040260200160405190810160405280939291908181526020018383808284375f920191909152505060408051808201825260088152671cd8da195b58525960c21b602082015290925090506127a0565b610dbd8260800135603c620151806127fa565b610dd7610dc983613f41565b601090336103e86064612855565b9050610de260018055565b919050565b8033610df4601083611aa7565b6001600160a01b031614610e3157610e316040518060400160405280600e81526020016d139bdd08185d5d1a1bdc9a5e995960921b815250611a8d565b5f828152601160205260408120805460ff19811660ff91821615908117909255169050827f118fe3d551b1c2993669aef7bb160b48e99b1390b9e134549cf35810848d46cd82604051610e88911515815260200190565b60405180910390a2505050565b5f610e9f8161244b565b61076c8383612a58565b610eb1611a2a565b7f22435ed027edf5f902dc0093fbc24cdb50c05b5fd5f311b78c67c1cbaff60e13610edb8161244b565b610f3983838080601f0160208091040260200160405190810160405280939291908181526020018383808284375f920191909152505060408051808201825260088152671dd85b1b195d125960c21b602082015290925090506127a0565b5f610f4660098585612b15565b9050610f7b8160405180604001604052806011815260200170726567697374657265642064657669636560781b815250612b4c565b5f610f8860098686612b6b565b9050336001600160a01b0316826001600160a01b03167f2b49ff5d47e3dbeac0aff9c357d3967a590acd4ca7d9f4fa820d6c5f015d0d00878785604051610fd193929190613fec565b60405180910390a35050505050565b5f610b2e8383604051610ff4929190613e04565b60408051918290039091205f9081526009602052205460ff1690565b5f60096006015f8484604051611027929190613e04565b604080519182900390912082526020820192909252015f205460ff169392505050565b7f65d7a28e3265b37a6474929f336521b332c1681b933f6cb9f3376673440d862a6110748161244b565b610bc4612bf6565b5f918252602082815260408084206001600160a01b0393909316845291905290205460ff1690565b6110ae5f3361107c565b6110e6576110e66040518060400160405280601381526020017221b0b63632b91034b9903737ba1030b236b4b760691b815250611a8d565b61111181604051806040016040528060098152602001683732bb9030b236b4b760b91b815250612b4c565b61111b5f82612455565b506111265f336124e4565b5050565b6111326119cc565b61113a611a2a565b5f848152601060205260409020600401548490611189576111896040518060400160405280601781526020017615dbdc9ad99b1bddc8191bd95cc81b9bdd08195e1a5cdd604a1b815250611a72565b5f85815260116020526040902054859060ff16156111d1576111d16040518060400160405280600f81526020016e15dbdc9ad99b1bddc81c185d5cd959608a1b815250611a8d565b85336111de601083611aa7565b6001600160a01b03161461121b5761121b6040518060400160405280600e81526020016d139bdd08185d5d1a1bdc9a5e995960921b815250611a8d565b5f868660405161122c929190613e04565b60408051918290039091205f818152600f602052919091205490915060ff16156112715761127160405180606001604052806027815260200161444a60279139611af9565b5f818152600f6020908152604091829020805460ff191660011790558151808301909252600d82526c6465766963654164647265737360981b908201526112b9908690612b4c565b61131787878080601f0160208091040260200160405190810160405280939291908181526020018383808284375f920191909152505060408051808201825260088152671dd85b1b195d125960c21b602082015290925090506127a0565b5f61132360108a611ec9565b90505f8160a00151600281111561133c5761133c613bff565b1461138a575f828152600f6020908152604091829020805460ff1916905581518083019092526013825272576f726b666c6f77206e6f742061637469766560681b9082015261138a90611af9565b5f8281526009602052604090205460ff16156113f3575f828152600f6020908152604091829020805460ff191690558151808301909252601982527f44657669636520616c7265616479207265676973746572656400000000000000908201526113f390611af9565b6113ff60098989612c33565b1561144c575f828152600f6020908152604091829020805460ff191690558151808301909252601282527111195d9a58d948189b1858dadb1a5cdd195960721b9082015261144c90611af9565b61145e81606001518260c00151612c48565b61146d60098989898d87612c8f565b5061147960108a612e43565b6040805160c06020601f8b01819004028201810190925260a081018981525f928291908c908c90819085018382808284375f9201829052509385525050506001600160a01b038a1660208301524260408301819052606083019190915260809091015290506114e9338b83612e5f565b335f8181526008602090815260408083208e84528252808320600301548784526004835281842055600f90915290819020805460ff19169055516001600160a01b038916908c907f044e63d90b13c9452584a9658f63f4ff576a4e45034f63dbec0e8392f9d16eea9061155f908e908e90613d97565b60405180910390a4505050505050610b5960018055565b61157e6119cc565b611586611a2a565b8133611593601083611aa7565b6001600160a01b0316146115d0576115d06040518060400160405280600e81526020016d139bdd08185d5d1a1bdc9a5e995960921b815250611a8d565b6115e260108484603c620151806130aa565b5061112660018055565b5f828152602081905260409020600101546116068161244b565b610b5983836124e4565b61161861374b565b5f8281526010602052604081206004015481906060906116665761166660405180604001604052806013815260200172125b9d985b1a59081ddbdc9ad99b1bddc81251606a1b815250611a72565b611671601086611ec9565b60e08101516001600160a01b03165f9081526008602090815260408083208984529091529020600481015460028201549296509450909250836001600160401b038111156116c1576116c1613e7c565b6040519080825280602002602001820160405280156116ea578160200160208202803683370190505b5091505f5b8481101561172e575f818152600583016020526040902054835184908390811061171b5761171b614011565b60209081029190910101526001016116ef565b50509193509193565b5f6117418161244b565b62278d0082101561177e5761177e604051806040016040528060118152602001705468726573686f6c6420746f6f206c6f7760781b815250611af9565b50600755565b61178c6137b7565b5f8481526010602052604090206004015484906117db576117db6040518060400160405280601781526020017615dbdc9ad99b1bddc8191bd95cc81b9bdd08195e1a5cdd604a1b815250611a72565b5f84846040516117ec929190613e04565b60405190819003902090505f611803601088611aa7565b5f838152600460209081526040808320546001600160a01b0385168452600883528184208c85528352818420818552600581019093529083209394509290915b815481101561198c578582828154811061185f5761185f614011565b905f5260205f2090600502015f0160405161187a9190614093565b6040518091039020036119845781818154811061189957611899614011565b905f5260205f2090600502016040518060a00160405290815f820180546118bf90613daa565b80601f01602080910402602001604051908101604052809291908181526020018280546118eb90613daa565b80156119365780601f1061190d57610100808354040283529160200191611936565b820191905f5260205f20905b81548152906001019060200180831161191957829003601f168201915b505050918352505060018201546001600160a01b0316602082015260028201546040820152600382015460ff161515606082015260049091015460809091015297506119c495505050505050565b600101611843565b506119be6040518060400160405280601081526020016f11195d9a58d9481b9bdd08199bdd5b9960821b815250611a72565b50505050505b509392505050565b600260015403611a235760405162461bcd60e51b815260206004820152601f60248201527f5265656e7472616e637947756172643a207265656e7472616e742063616c6c0060448201526064015b60405180910390fd5b6002600155565b60025460ff1615611a705760405162461bcd60e51b815260206004820152601060248201526f14185d5cd8589b194e881c185d5cd95960821b6044820152606401611a1a565b565b8060405163d647364f60e01b8152600401611a1a919061409e565b80604051621d3e7f60e01b8152600401611a1a919061409e565b5f90815260209190915260409020600701546001600160a01b031690565b5f836001018383604051611ada929190613e04565b9081526040519081900360200190206003015460ff1690509392505050565b8060405163a1b63ceb60e01b8152600401611a1a919061409e565b5f846002018484604051611b29929190613e04565b90815260408051602092819003830190205f858152925290205460ff1690505b949350505050565b5f805b6004860154811015611d21575f8181526005870160205260408120905b8154811015611d17578686604051611b8a929190613e04565b6040518091039020828281548110611ba457611ba4614011565b905f5260205f2090600502015f01604051611bbf9190614093565b604051809103902003611d0f578154611bda90600190613e27565b8114611c915781548290611bf090600190613e27565b81548110611c0057611c00614011565b905f5260205f209060050201828281548110611c1e57611c1e614011565b5f918252602090912060059091020180611c388382614108565b5060018281015490820180546001600160a01b0319166001600160a01b0390921691909117905560028083015490820155600380830154908201805460ff909216151560ff199092169190911790556004918201549101555b81805480611ca157611ca16141d7565b5f828152602081205f1990920191600583020190611cbf82826137ed565b50600181810180546001600160a01b03191690555f6002830181905560038301805460ff191690556004909201919091559155611cfd908690613103565b60028901555060019250611b49915050565b600101611b71565b5050600101611b54565b505f95945050505050565b80604051630313cb6760e61b8152600401611a1a919061409e565b6001600160a01b0382165f90815260086020908152604080832084845282528083203384526005835281842085855290925282206002820154919290919003611d9857611d938161310e565b610b59565b6001600582015460ff166002811115611db357611db3613bff565b148015611dcf57506003810154611dcc90610e106141eb565b42115b15610b595760058101805460ff191690555f60038201819055600490910155505050565b5f80866001018686604051611e09929190613e04565b908152604051908190036020018120600301805492151560ff19909316929092179091555f906002880190611e419088908890613e04565b90815260200160405180910390205f8581526020019081526020015f205f6101000a81548160ff021916908315150217905550611e848286868560020154611b51565b9695505050505050565b5f8181526020839052604090206003015415611126575f818152602083905260408120600301805491611ec0836141fe565b91905055505050565b611ed161374b565b5f828152602084815260409182902082516101608101909352805483526001810180549192840191611f0290613daa565b80601f0160208091040260200160405190810160405280929190818152602001828054611f2e90613daa565b8015611f795780601f10611f5057610100808354040283529160200191611f79565b820191905f5260205f20905b815481529060010190602001808311611f5c57829003601f168201915b50505050508152602001600282018054611f9290613daa565b80601f0160208091040260200160405190810160405280929190818152602001828054611fbe90613daa565b80156120095780601f10611fe057610100808354040283529160200191612009565b820191905f5260205f20905b815481529060010190602001808311611fec57829003601f168201915b50505091835250506003820154602082015260048201546040820152600582015460609091019060ff16600281111561204457612044613bff565b600281111561205557612055613bff565b81526006820154602082015260078201546001600160a01b0316604082015260088201805460609092019161208990613daa565b80601f01602080910402602001604051908101604052809291908181526020018280546120b590613daa565b80156121005780601f106120d757610100808354040283529160200191612100565b820191905f5260205f20905b8154815290600101906020018083116120e357829003601f168201915b5050505050815260200160098201548152602001600a82015481525050905092915050565b60038201545f9060ff166121735760405163a1b63ceb60e01b8152602060048201526014602482015273446576696365206973206e6f742061637469766560601b6044820152606401611a1a565b82546001600160a01b038381169116146121c15760405163a1b63ceb60e01b815260206004820152600e60248201526d24b73b30b634b21039b2b73232b960911b6044820152606401611a1a565b50600192915050565b6121d481836141eb565b8310806121e057508183145b1561076c5760405163a1b63ceb60e01b815260206004820152602560248201527f457865637574696f6e20636f6f6c646f776e20706572696f64206e6f7420656c604482015264185c1cd95960da1b6064820152608401611a1a565b64010000000081106122915760405163a1b63ceb60e01b815260206004820152601760248201527f457865637574696f6e206c696d697420726561636865640000000000000000006044820152606401611a1a565b61229d60015f19613e27565b8110610bc45760405162461bcd60e51b815260206004820181905260248201527f457865637574696f6e20636f756e74657220776f756c64206f766572666c6f776044820152606401611a1a565b6040515f904290829086906123039087908790613e04565b9081526040519081900360200190205490505f6123218260016141eb565b905082876001018787604051612338929190613e04565b908152604051908190036020018120919091558190889061235c9089908990613e04565b90815260405190819003602001902055925050509392505050565b5f8484604051612388929190613e04565b60408051918290039091205f8181526020859052919091205460048801549192509081106123b7575050612444565b5f8181526005880160205260408120905b815481101561243f57838282815481106123e4576123e4614011565b905f5260205f2090600502015f016040516123ff9190614093565b604051809103902003612437578582828154811061241f5761241f614011565b905f5260205f2090600502016004018190555061243f565b6001016123c8565b505050505b5050505050565b610bc4813361314c565b5f612460838361107c565b6124dd575f838152602081815260408083206001600160a01b03861684529091529020805460ff191660011790556124953390565b6001600160a01b0316826001600160a01b0316847f2f8788117e7eff1d82e926ec794901d17c78024a50270940304540a733656f0d60405160405180910390a4506001610504565b505f610504565b5f6124ef838361107c565b156124dd575f838152602081815260408083206001600160a01b0386168085529252808320805460ff1916905551339286917ff6391f5c32d9c69d2a47ea670b442974b53935d1edc7fd64eb21e047a839171b9190a4506001610504565b612555613185565b6002805460ff191690557f5db9ee0a495bf2e6ff9c91a7834c1ba4fdd244a5e8aa4e537bd38aeae4b073aa335b6040516001600160a01b03909116815260200160405180910390a1565b8082106111265760405163a1b63ceb60e01b815260206004820152601760248201527f496e76616c696420706172746974696f6e20696e6465780000000000000000006044820152606401611a1a565b6001600160a01b0383165f908152600860209081526040808320858452825280832084845260050190915281208054606092906001600160401b0381111561263957612639613e7c565b60405190808252806020026020018201604052801561267257816020015b61265f6137b7565b8152602001906001900390816126575790505b5090505f5b82548110156127965782818154811061269257612692614011565b905f5260205f2090600502016040518060a00160405290815f820180546126b890613daa565b80601f01602080910402602001604051908101604052809291908181526020018280546126e490613daa565b801561272f5780601f106127065761010080835404028352916020019161272f565b820191905f5260205f20905b81548152906001019060200180831161271257829003601f168201915b505050918352505060018201546001600160a01b0316602082015260028201546040820152600382015460ff1615156060820152600490910154608090910152825183908390811061278357612783614011565b6020908102919091010152600101612677565b5095945050505050565b82515f036127e057806040516020016127b99190614213565b60408051601f198184030181529082905263a1b63ceb60e01b8252611a1a9160040161409e565b818351111561076c57806040516020016127b9919061423e565b8183108061280757508083115b1561076c5760405163a1b63ceb60e01b815260206004820152601a60248201527f496e76616c696420657865637574696f6e20696e74657276616c0000000000006044820152606401611a1a565b83515f90815260208690526040812060040154156128ab57604051636691044960e01b8152602060048201526012602482015271576f726b666c6f772049442065786973747360701b6044820152606401611a1a565b604051806101600160405280865f0151815260200186602001518152602001866040015181526020015f81526020014281526020015f60028111156128f2576128f2613bff565b8152602001848152602001856001600160a01b03168152602001866060015181526020018381526020018660800151815250865f015f875f015181526020019081526020015f205f820151815f01556020820151816001019081612956919061426c565b506040820151600282019061296b908261426c565b50606082015160038201556080820151600482015560a082015160058201805460ff191660018360028111156129a3576129a3613bff565b021790555060c0820151600682015560e08201516007820180546001600160a01b0319166001600160a01b0390921691909117905561010082015160088201906129ed908261426c565b50610120820151600982015561014090910151600a909101558451602086015160608701516040517f6df915c5af2c5e4d6e9906fc27dfb18bb42b67d03e5cdb863393dea18a7c703392612a45929091899190614312565b60405180910390a2505091519392505050565b6001600160a01b0382165f9081526008602090815260408083208484529091529020805460ff16612a9c5760405163eac3aa0b60e01b815260040160405180910390fd5b60788160010154612aad91906141eb565b4211612acc5760405163a7550c3f60e01b815260040160405180910390fd5b805460ff191681555f6001820181905560405183916001600160a01b038616917faa004840f90269f5ea81b7bcb20124c08e35ccef4f3548f1e8bd19f23438159f9190a3505050565b5f836004018383604051612b2a929190613e04565b908152604051908190036020019020546001600160a01b031690509392505050565b6001600160a01b03821661112657806040516020016127b99190614345565b5f836003018383604051612b80929190613e04565b9081526040519081900360200181205460ff1615906003860190612ba79086908690613e04565b908152604051908190036020018120805492151560ff19909316929092179091556003850190612bda9085908590613e04565b9081526040519081900360200190205460ff1690509392505050565b612bfe611a2a565b6002805460ff191660011790557f62e78cea01bee320cd4e420270b5ea74000d11b0c9f74754ebdbfc544b05a2586125823390565b5f836003018383604051612bda929190613e04565b8082106111265760405163a1b63ceb60e01b815260206004820152601460248201527311195d9a58d9481b1a5b5a5d081c995858da195960621b6044820152606401611a1a565b612c976137b7565b5f82815260068801602090815260408083208054600160ff199182168117909255928b90529281902080549092168317909155516002890190612cdd9089908990613e04565b90815260408051602092819003830181205f88815293529120805460ff19169215159290921790915584906004890190612d1a9089908990613e04565b908152604080516020928190038301902080546001600160a01b0319166001600160a01b039485161790559186165f90815260058a0190915220612d5f86888361437d565b505f876001018787604051612d75929190613e04565b908152604080516020928190038301812080546001600160a01b0319166001600160a01b038a16178155426001808301829055600283019190915560038201805460ff1990811690921790555f88815260068e01865284902080549091169055601f8a01849004909302810160c090810190925260a081018981529293509182918a908a90819085018382808284375f9201829052509385525050506001600160a01b0388166020830152426040830181905260608301919091526080909101529150509695505050505050565b5f818152602083905260408120600301805491611ec083614431565b6001600160a01b0383165f908152600860209081526040808320858452909152902080548491849160ff1615612ecf576078816001015442612ea19190613e27565b1015612ec05760405163f5f519bf60e01b815260040160405180910390fd5b805460ff191681555f60018201555b805460ff191660019081178255429082015560405182906001600160a01b038516907fce898ecadc9f6924b3113028ee92ae575bd48a726aaf0a91385d5a7a77ce7ba2905f90a36001600160a01b0386165f8181526008602090815260408083208984528252808320938352600582528083208984529091529020600282015415801590612f6c57506003546002820154612f6a9042613e27565b115b15612f7d57612f7b82886131ce565b505b5f612f8783613587565b9050600a8110612faa57604051634d4f62ad60e11b815260040160405180910390fd5b5f81815260058085016020908152604083208054600181018255908452922089518a9390920201908190612fde908261426c565b506020828101516001830180546001600160a01b0319166001600160a01b03909216919091179055604080840151600280850191909155606085015160038501805460ff19169115159190911790556080909401516004938401558a518051908301205f90815292909152812083905590840180549161305d83614431565b9091555050835460ff1916845550506040518391506001600160a01b038516907faa004840f90269f5ea81b7bcb20124c08e35ccef4f3548f1e8bd19f23438159f905f90a3505050505050565b6130b58383836127fa565b5f8481526020868152604091829020600a01859055905184815285917f76db966edafdf2bed93a433ccd1a363344bed4383f40178727cb1ade6eefafc8910160405180910390a25050505050565b5f610b2e8284613e27565b5f808255600180830182905542600280850191909155600384018390556004840192909255600583018054909160ff1990911690835b021790555050565b613156828261107c565b6111265760405163e2517d3f60e01b81526001600160a01b038216600482015260248101839052604401611a1a565b60025460ff16611a705760405162461bcd60e51b815260206004820152601460248201527314185d5cd8589b194e881b9bdd081c185d5cd95960621b6044820152606401611a1a565b335f90815260056020908152604080832084845290915281206001600582015460ff16600281111561320257613202613bff565b14801561321f5750600381015461321b90610e106141eb565b4211155b1561323d57604051637527577760e11b815260040160405180910390fd5b603281600401541061325c576132528161365e565b6001915050610504565b5f5a90505f80600354426132709190613e27565b90506001600585015460ff16600281111561328d5761328d613bff565b1461329b5761329b84613688565b83545b6004880154811080156132b15750601483105b80156132c9575062030d405a6132c79086613e27565b105b1561354c575f818152600589016020526040902060018601545b8154811080156132f35750601485105b801561330b575062030d405a6133099088613e27565b105b1561352f578382828154811061332357613323614011565b905f5260205f20906005020160040154101561351d578882828154811061334c5761334c614011565b905f5260205f2090600502015f016040516133679190614093565b60405180910390207fd7ac20a75fd3931f3ced99a513a0a4fd6324176a1f4af2e9e0ce70137a1082bf8484815481106133a2576133a2614011565b905f5260205f20906005020160040154426040516133ca929190918252602082015260400190565b60405180910390a381546133e090600190613e27565b81101561349857815482906133f790600190613e27565b8154811061340757613407614011565b905f5260205f20906005020182828154811061342557613425614011565b5f91825260209091206005909102018061343f8382614108565b5060018281015490820180546001600160a01b0319166001600160a01b0390921691909117905560028083015490820155600380830154908201805460ff909216151560ff199092169190911790556004918201549101555b818054806134a8576134a86141d7565b5f828152602081205f19909201916005830201906134c682826137ed565b506001810180546001600160a01b03191690555f600280830182905560038301805460ff19169055600490920181905591909255908b01805491613509836141fe565b9190505550848061351990614431565b9550505b8061352781614431565b9150506132e3565b50508085555f60018601558061354481614431565b91505061329e565b50600487015461355e90600190613e27565b84541061357b5761356e8461365e565b6001945050505050610504565b505f9695505050505050565b5f805b60048301548110156135f6578260040181815481106135ab576135ab614011565b5f91825260209091206002600390920201015460ff161580156135dd57505f8181526005840160205260409020546064115b156135ee5760039092018290555090565b60010161358a565b505f5b600483015481101561362f575f81815260058401602052604081205490036136275760039092018290555090565b6001016135f9565b506004820154600a116136555760405163fe6d8f2960e01b815260040160405180910390fd5b610504826136a9565b60058101805460ff1916600290811790915542908201555f80825560018201819055600490910155565b4260038201555f60048201556005810180546001919060ff19168280613144565b60048101805460408051606081018252428082525f602080840182815284860183815260018089018a5598845282842095516003808a0290970190815591519882019890985596516002909701805460ff19169715159790971790965591860184905582519081529384018190529282917fa713bca924de7ad0ab23342813a8bcc71a1f707ac80db4aba117e9037bbacfcf910160405180910390a292915050565b6040518061016001604052805f815260200160608152602001606081526020015f81526020015f81526020015f600281111561378957613789613bff565b81526020015f81526020015f6001600160a01b03168152602001606081526020015f81526020015f81525090565b6040518060a00160405280606081526020015f6001600160a01b031681526020015f81526020015f151581526020015f81525090565b5080546137f990613daa565b5f825580601f10613808575050565b601f0160209004905f5260205f2090810190610bc491905b80821115613833575f8155600101613820565b5090565b5f60208284031215613847575f80fd5b81356001600160e01b031981168114610b2e575f80fd5b5f8083601f84011261386e575f80fd5b5081356001600160401b03811115613884575f80fd5b60208301915083602082850101111561389b575f80fd5b9250929050565b5f805f604084860312156138b4575f80fd5b8335925060208401356001600160401b038111156138d0575f80fd5b6138dc8682870161385e565b9497909650939450505050565b5f602082840312156138f9575f80fd5b5035919050565b80356001600160a01b0381168114610de2575f80fd5b5f8060408385031215613927575f80fd5b61393083613900565b946020939093013593505050565b5f6020828403121561394e575f80fd5b610b2e82613900565b5f805f60408486031215613969575f80fd5b83356001600160401b0381111561397e575f80fd5b61398a8682870161385e565b909790965060209590950135949350505050565b5f80604083850312156139af575f80fd5b823591506139bf60208401613900565b90509250929050565b5f805f606084860312156139da575f80fd5b833592506139ea60208501613900565b929592945050506040919091013590565b5f81518084528060208401602086015e5f602082860101526020601f19601f83011685010191505092915050565b5f815160a08452613a3d60a08501826139fb565b6020848101516001600160a01b0316908601526040808501519086015260608085015115159086015260809384015193909401929092525090919050565b602081525f60c08201835160a0602085015281815180845260e08601915060e08160051b87010193506020830192505f5b81811015613add5760df19878603018352613ac8858551613a29565b94506020938401939290920191600101613aac565b5050505060208401516040840152604084015160608401526060840151608084015260808401516119c460a085018215159052565b5f60208284031215613b22575f80fd5b81356001600160401b03811115613b37575f80fd5b820160a08185031215610b2e575f80fd5b5f8060208385031215613b59575f80fd5b82356001600160401b03811115613b6e575f80fd5b613b7a8582860161385e565b90969095509350505050565b5f805f8060608587031215613b99575f80fd5b8435935060208501356001600160401b03811115613bb5575f80fd5b613bc18782880161385e565b9094509250613bd4905060408601613900565b905092959194509250565b5f8060408385031215613bf0575f80fd5b50508035926020909101359150565b634e487b7160e01b5f52602160045260245ffd5b60038110613c2f57634e487b7160e01b5f52602160045260245ffd5b9052565b5f8151808452602084019350602083015f5b82811015613c63578151865260209586019590910190600101613c45565b5093949350505050565b60808152845160808201525f602086015161016060a0840152613c946101e08401826139fb565b90506040870151607f198483030160c0850152613cb182826139fb565b915050606087015160e0840152608087015161010084015260a0870151613cdc610120850182613c13565b5060c087015161014084015260e08701516001600160a01b0316610160840152610100870151838203607f1901610180850152613d1982826139fb565b9150506101208701516101a08401526101408701516101c08401528560208401528460408401528281036060840152613d528185613c33565b979650505050505050565b602081525f610b2e6020830184613a29565b81835281816020850137505f828201602090810191909152601f909101601f19169091010190565b602081525f611b49602083018486613d6f565b600181811c90821680613dbe57607f821691505b602082108103613ddc57634e487b7160e01b5f52602260045260245ffd5b50919050565b5f81518060208401855e5f93019283525090919050565b5f610b2e8284613de2565b818382375f9101908152919050565b634e487b7160e01b5f52601160045260245ffd5b8181038181111561050457610504613e13565b5f808335601e19843603018112613e4f575f80fd5b8301803591506001600160401b03821115613e68575f80fd5b60200191503681900382131561389b575f80fd5b634e487b7160e01b5f52604160045260245ffd5b60405160a081016001600160401b0381118282101715613eb257613eb2613e7c565b60405290565b5f82601f830112613ec7575f80fd5b81356001600160401b03811115613ee057613ee0613e7c565b604051601f8201601f19908116603f011681016001600160401b0381118282101715613f0e57613f0e613e7c565b604052818152838201602001851015613f25575f80fd5b816020850160208301375f918101602001919091529392505050565b5f60a08236031215613f51575f80fd5b613f59613e90565b8235815260208301356001600160401b03811115613f75575f80fd5b613f8136828601613eb8565b60208301525060408301356001600160401b03811115613f9f575f80fd5b613fab36828601613eb8565b60408301525060608301356001600160401b03811115613fc9575f80fd5b613fd536828601613eb8565b606083015250608092830135928101929092525090565b604081525f613fff604083018587613d6f565b90508215156020830152949350505050565b634e487b7160e01b5f52603260045260245ffd5b5f815461403181613daa565b600182168015614048576001811461405d5761408a565b60ff198316865281151582028601935061408a565b845f5260205f205f5b8381101561408257815488820152600190910190602001614066565b505081860193505b50505092915050565b5f610b2e8284614025565b602081525f610b2e60208301846139fb565b601f82111561076c57805f5260205f20601f840160051c810160208510156140d55750805b601f840160051c820191505b81811015612444575f81556001016140e1565b5f19600383901b1c191660019190911b1790565b818103614113575050565b61411d8254613daa565b6001600160401b0381111561413457614134613e7c565b614148816141428454613daa565b846140b0565b5f601f821160018114614174575f83156141625750848201545b61416c84826140f4565b855550612444565b5f8581526020808220868352908220601f198616925b838110156141aa578286015482556001958601959091019060200161418a565b50858310156141c757818501545f19600388901b60f8161c191681555b5050505050600190811b01905550565b634e487b7160e01b5f52603160045260245ffd5b8082018082111561050457610504613e13565b5f8161420c5761420c613e13565b505f190190565b5f61421e8284613de2565b6f2063616e6e6f7420626520656d70747960801b81526010019392505050565b5f6142498284613de2565b72040caf0c6cacac8e640dac2f040d8cadccee8d606b1b81526013019392505050565b81516001600160401b0381111561428557614285613e7c565b614293816141428454613daa565b6020601f8211600181146142b7575f831561416257508482015161416c84826140f4565b5f84815260208120601f198516915b828110156142e657878501518255602094850194600190920191016142c6565b508482101561430357868401515f19600387901b60f8161c191681555b50505050600190811b01905550565b606081525f61432460608301866139fb565b6001600160a01b03851660208401528281036040840152611e8481856139fb565b5f6143508284613de2565b7f2063616e6e6f74206265207a65726f206164647265737300000000000000000081526017019392505050565b6001600160401b0383111561439457614394613e7c565b6143a8836143a28354613daa565b836140b0565b5f601f8411600181146143d4575f85156143c25750838201355b6143cc86826140f4565b845550612444565b5f83815260208120601f198716915b8281101561440357868501358255602094850194600190920191016143e3565b508682101561441f575f1960f88860031b161c19848701351681555b505060018560011b0183555050505050565b5f6001820161444257614442613e13565b506001019056fe44657669636520726567697374726174696f6e20616c726561647920696e2070726f6772657373a26469706673582212208593dc462fa56857a379595cc09e41de35396cec07114134f1da03785428f0e264736f6c634300081a003365d7a28e3265b37a6474929f336521b332c1681b933f6cb9f3376673440d862a",
			"opcodes": "PUSH1 0x80 PUSH1 0x40 MSTORE PUSH3 0x76A700 PUSH1 0x3 SSTORE PUSH3 0x76A700 PUSH1 0x7 SSTORE CALLVALUE DUP1 ISZERO PUSH2 0x1D JUMPI PUSH0 DUP1 REVERT JUMPDEST POP PUSH1 0x1 DUP1 SSTORE PUSH1 0x2 DUP1 SLOAD PUSH1 0xFF NOT AND SWAP1 SSTORE PUSH2 0x36 PUSH0 CALLER PUSH2 0xC0 JUMP JUMPDEST POP PUSH2 0x4E PUSH0 DUP1 MLOAD PUSH1 0x20 PUSH2 0x4666 DUP4 CODECOPY DUP2 MLOAD SWAP2 MSTORE PUSH0 PUSH2 0x169 JUMP JUMPDEST PUSH2 0x78 PUSH32 0x22435ED027EDF5F902DC0093FBC24CDB50C05B5FD5F311B78C67C1CBAFF60E13 PUSH0 PUSH2 0x169 JUMP JUMPDEST PUSH2 0x8F PUSH0 DUP1 MLOAD PUSH1 0x20 PUSH2 0x4666 DUP4 CODECOPY DUP2 MLOAD SWAP2 MSTORE CALLER PUSH2 0xC0 JUMP JUMPDEST POP PUSH2 0xBA PUSH32 0x22435ED027EDF5F902DC0093FBC24CDB50C05B5FD5F311B78C67C1CBAFF60E13 CALLER PUSH2 0xC0 JUMP JUMPDEST POP PUSH2 0x1B3 JUMP JUMPDEST PUSH0 DUP3 DUP2 MSTORE PUSH1 0x20 DUP2 DUP2 MSTORE PUSH1 0x40 DUP1 DUP4 KECCAK256 PUSH1 0x1 PUSH1 0x1 PUSH1 0xA0 SHL SUB DUP6 AND DUP5 MSTORE SWAP1 SWAP2 MSTORE DUP2 KECCAK256 SLOAD PUSH1 0xFF AND PUSH2 0x160 JUMPI PUSH0 DUP4 DUP2 MSTORE PUSH1 0x20 DUP2 DUP2 MSTORE PUSH1 0x40 DUP1 DUP4 KECCAK256 PUSH1 0x1 PUSH1 0x1 PUSH1 0xA0 SHL SUB DUP7 AND DUP5 MSTORE SWAP1 SWAP2 MSTORE SWAP1 KECCAK256 DUP1 SLOAD PUSH1 0xFF NOT AND PUSH1 0x1 OR SWAP1 SSTORE PUSH2 0x118 CALLER SWAP1 JUMP JUMPDEST PUSH1 0x1 PUSH1 0x1 PUSH1 0xA0 SHL SUB AND DUP3 PUSH1 0x1 PUSH1 0x1 PUSH1 0xA0 SHL SUB AND DUP5 PUSH32 0x2F8788117E7EFF1D82E926EC794901D17C78024A50270940304540A733656F0D PUSH1 0x40 MLOAD PUSH1 0x40 MLOAD DUP1 SWAP2 SUB SWAP1 LOG4 POP PUSH1 0x1 PUSH2 0x163 JUMP JUMPDEST POP PUSH0 JUMPDEST SWAP3 SWAP2 POP POP JUMP JUMPDEST PUSH0 DUP3 DUP2 MSTORE PUSH1 0x20 DUP2 SWAP1 MSTORE PUSH1 0x40 DUP1 DUP3 KECCAK256 PUSH1 0x1 ADD DUP1 SLOAD SWAP1 DUP5 SWAP1 SSTORE SWAP1 MLOAD SWAP1 SWAP2 DUP4 SWAP2 DUP4 SWAP2 DUP7 SWAP2 PUSH32 0xBD79B86FFE0AB8E8776151514217CD7CACD52C909F66475C3AF44E129F0B00FF SWAP2 SWAP1 LOG4 POP POP POP JUMP JUMPDEST PUSH2 0x44A6 DUP1 PUSH2 0x1C0 PUSH0 CODECOPY PUSH0 RETURN INVALID PUSH1 0x80 PUSH1 0x40 MSTORE CALLVALUE DUP1 ISZERO PUSH2 0xF JUMPI PUSH0 DUP1 REVERT JUMPDEST POP PUSH1 0x4 CALLDATASIZE LT PUSH2 0x1DC JUMPI PUSH0 CALLDATALOAD PUSH1 0xE0 SHR DUP1 PUSH4 0x5FEB08B2 GT PUSH2 0x109 JUMPI DUP1 PUSH4 0xA217FDDF GT PUSH2 0x9E JUMPI DUP1 PUSH4 0xD547741F GT PUSH2 0x6E JUMPI DUP1 PUSH4 0xD547741F EQ PUSH2 0x46B JUMPI DUP1 PUSH4 0xDF7459F0 EQ PUSH2 0x47E JUMPI DUP1 PUSH4 0xE88C754C EQ PUSH2 0x4A1 JUMPI DUP1 PUSH4 0xEC6A8EA1 EQ PUSH2 0x4B4 JUMPI PUSH0 DUP1 REVERT JUMPDEST DUP1 PUSH4 0xA217FDDF EQ PUSH2 0x42B JUMPI DUP1 PUSH4 0xADA8F919 EQ PUSH2 0x432 JUMPI DUP1 PUSH4 0xB0DF789A EQ PUSH2 0x445 JUMPI DUP1 PUSH4 0xB74DABBE EQ PUSH2 0x458 JUMPI PUSH0 DUP1 REVERT JUMPDEST DUP1 PUSH4 0x7D592292 GT PUSH2 0xD9 JUMPI DUP1 PUSH4 0x7D592292 EQ PUSH2 0x3E8 JUMPI DUP1 PUSH4 0x8456CB59 EQ PUSH2 0x407 JUMPI DUP1 PUSH4 0x8E0BB5DD EQ PUSH2 0x40F JUMPI DUP1 PUSH4 0x91D14854 EQ PUSH2 0x418 JUMPI PUSH0 DUP1 REVERT JUMPDEST DUP1 PUSH4 0x5FEB08B2 EQ PUSH2 0x390 JUMPI DUP1 PUSH4 0x636702D1 EQ PUSH2 0x3A3 JUMPI DUP1 PUSH4 0x68BA4EAF EQ PUSH2 0x3C2 JUMPI DUP1 PUSH4 0x6F6E326D EQ PUSH2 0x3D5 JUMPI PUSH0 DUP1 REVERT JUMPDEST DUP1 PUSH4 0x2F2FF15D GT PUSH2 0x17F JUMPI DUP1 PUSH4 0x584DDAF0 GT PUSH2 0x14F JUMPI DUP1 PUSH4 0x584DDAF0 EQ PUSH2 0x34C JUMPI DUP1 PUSH4 0x592EBBE9 EQ PUSH2 0x35F JUMPI DUP1 PUSH4 0x5C7700DF EQ PUSH2 0x372 JUMPI DUP1 PUSH4 0x5C975ABB EQ PUSH2 0x385 JUMPI PUSH0 DUP1 REVERT JUMPDEST DUP1 PUSH4 0x2F2FF15D EQ PUSH2 0x2FE JUMPI DUP1 PUSH4 0x36568ABE EQ PUSH2 0x311 JUMPI DUP1 PUSH4 0x3F4BA83A EQ PUSH2 0x324 JUMPI DUP1 PUSH4 0x4CFB5E79 EQ PUSH2 0x32C JUMPI PUSH0 DUP1 REVERT JUMPDEST DUP1 PUSH4 0x248A9CA3 GT PUSH2 0x1BA JUMPI DUP1 PUSH4 0x248A9CA3 EQ PUSH2 0x234 JUMPI DUP1 PUSH4 0x273BB6A4 EQ PUSH2 0x256 JUMPI DUP1 PUSH4 0x291A8D1D EQ PUSH2 0x2BB JUMPI DUP1 PUSH4 0x2DD98C45 EQ PUSH2 0x2EB JUMPI PUSH0 DUP1 REVERT JUMPDEST DUP1 PUSH4 0x1FFC9A7 EQ PUSH2 0x1E0 JUMPI DUP1 PUSH4 0x7B4766B EQ PUSH2 0x208 JUMPI DUP1 PUSH4 0xD969F2C EQ PUSH2 0x21D JUMPI JUMPDEST PUSH0 DUP1 REVERT JUMPDEST PUSH2 0x1F3 PUSH2 0x1EE CALLDATASIZE PUSH1 0x4 PUSH2 0x3837 JUMP JUMPDEST PUSH2 0x4D4 JUMP JUMPDEST PUSH1 0x40 MLOAD SWAP1 ISZERO ISZERO DUP2 MSTORE PUSH1 0x20 ADD JUMPDEST PUSH1 0x40 MLOAD DUP1 SWAP2 SUB SWAP1 RETURN JUMPDEST PUSH2 0x21B PUSH2 0x216 CALLDATASIZE PUSH1 0x4 PUSH2 0x38A2 JUMP JUMPDEST PUSH2 0x50A JUMP JUMPDEST STOP JUMPDEST PUSH2 0x226 PUSH1 0x7 SLOAD DUP2 JUMP JUMPDEST PUSH1 0x40 MLOAD SWAP1 DUP2 MSTORE PUSH1 0x20 ADD PUSH2 0x1FF JUMP JUMPDEST PUSH2 0x226 PUSH2 0x242 CALLDATASIZE PUSH1 0x4 PUSH2 0x38E9 JUMP JUMPDEST PUSH0 SWAP1 DUP2 MSTORE PUSH1 0x20 DUP2 SWAP1 MSTORE PUSH1 0x40 SWAP1 KECCAK256 PUSH1 0x1 ADD SLOAD SWAP1 JUMP JUMPDEST PUSH2 0x299 PUSH2 0x264 CALLDATASIZE PUSH1 0x4 PUSH2 0x3916 JUMP JUMPDEST PUSH1 0x8 PUSH1 0x20 SWAP1 DUP2 MSTORE PUSH0 SWAP3 DUP4 MSTORE PUSH1 0x40 DUP1 DUP5 KECCAK256 SWAP1 SWAP2 MSTORE SWAP1 DUP3 MSTORE SWAP1 KECCAK256 DUP1 SLOAD PUSH1 0x1 DUP3 ADD SLOAD PUSH1 0x2 DUP4 ADD SLOAD PUSH1 0x3 SWAP1 SWAP4 ADD SLOAD PUSH1 0xFF SWAP1 SWAP3 AND SWAP3 SWAP1 SWAP2 DUP5 JUMP JUMPDEST PUSH1 0x40 DUP1 MLOAD SWAP5 ISZERO ISZERO DUP6 MSTORE PUSH1 0x20 DUP6 ADD SWAP4 SWAP1 SWAP4 MSTORE SWAP2 DUP4 ADD MSTORE PUSH1 0x60 DUP3 ADD MSTORE PUSH1 0x80 ADD PUSH2 0x1FF JUMP JUMPDEST PUSH2 0x2CE PUSH2 0x2C9 CALLDATASIZE PUSH1 0x4 PUSH2 0x393E JUMP JUMPDEST PUSH2 0x771 JUMP JUMPDEST PUSH1 0x40 DUP1 MLOAD SWAP4 DUP5 MSTORE PUSH1 0x20 DUP5 ADD SWAP3 SWAP1 SWAP3 MSTORE ISZERO ISZERO SWAP1 DUP3 ADD MSTORE PUSH1 0x60 ADD PUSH2 0x1FF JUMP JUMPDEST PUSH2 0x226 PUSH2 0x2F9 CALLDATASIZE PUSH1 0x4 PUSH2 0x3957 JUMP JUMPDEST PUSH2 0x8D9 JUMP JUMPDEST PUSH2 0x21B PUSH2 0x30C CALLDATASIZE PUSH1 0x4 PUSH2 0x399E JUMP JUMPDEST PUSH2 0xB35 JUMP JUMPDEST PUSH2 0x21B PUSH2 0x31F CALLDATASIZE PUSH1 0x4 PUSH2 0x399E JUMP JUMPDEST PUSH2 0xB5F JUMP JUMPDEST PUSH2 0x21B PUSH2 0xB92 JUMP JUMPDEST PUSH2 0x33F PUSH2 0x33A CALLDATASIZE PUSH1 0x4 PUSH2 0x39C8 JUMP JUMPDEST PUSH2 0xBC7 JUMP JUMPDEST PUSH1 0x40 MLOAD PUSH2 0x1FF SWAP2 SWAP1 PUSH2 0x3A7B JUMP JUMPDEST PUSH2 0x226 PUSH2 0x35A CALLDATASIZE PUSH1 0x4 PUSH2 0x3B12 JUMP JUMPDEST PUSH2 0xCCA JUMP JUMPDEST PUSH2 0x21B PUSH2 0x36D CALLDATASIZE PUSH1 0x4 PUSH2 0x38E9 JUMP JUMPDEST PUSH2 0xDE7 JUMP JUMPDEST PUSH2 0x21B PUSH2 0x380 CALLDATASIZE PUSH1 0x4 PUSH2 0x3916 JUMP JUMPDEST PUSH2 0xE95 JUMP JUMPDEST PUSH1 0x2 SLOAD PUSH1 0xFF AND PUSH2 0x1F3 JUMP JUMPDEST PUSH2 0x21B PUSH2 0x39E CALLDATASIZE PUSH1 0x4 PUSH2 0x3B48 JUMP JUMPDEST PUSH2 0xEA9 JUMP JUMPDEST PUSH2 0x226 PUSH2 0x3B1 CALLDATASIZE PUSH1 0x4 PUSH2 0x38E9 JUMP JUMPDEST PUSH1 0x6 PUSH1 0x20 MSTORE PUSH0 SWAP1 DUP2 MSTORE PUSH1 0x40 SWAP1 KECCAK256 SLOAD DUP2 JUMP JUMPDEST PUSH2 0x1F3 PUSH2 0x3D0 CALLDATASIZE PUSH1 0x4 PUSH2 0x3B48 JUMP JUMPDEST PUSH2 0xFE0 JUMP JUMPDEST PUSH2 0x1F3 PUSH2 0x3E3 CALLDATASIZE PUSH1 0x4 PUSH2 0x3B48 JUMP JUMPDEST PUSH2 0x1010 JUMP JUMPDEST PUSH2 0x226 PUSH2 0x3F6 CALLDATASIZE PUSH1 0x4 PUSH2 0x38E9 JUMP JUMPDEST PUSH1 0x4 PUSH1 0x20 MSTORE PUSH0 SWAP1 DUP2 MSTORE PUSH1 0x40 SWAP1 KECCAK256 SLOAD DUP2 JUMP JUMPDEST PUSH2 0x21B PUSH2 0x104A JUMP JUMPDEST PUSH2 0x226 PUSH1 0x3 SLOAD DUP2 JUMP JUMPDEST PUSH2 0x1F3 PUSH2 0x426 CALLDATASIZE PUSH1 0x4 PUSH2 0x399E JUMP JUMPDEST PUSH2 0x107C JUMP JUMPDEST PUSH2 0x226 PUSH0 DUP2 JUMP JUMPDEST PUSH2 0x21B PUSH2 0x440 CALLDATASIZE PUSH1 0x4 PUSH2 0x393E JUMP JUMPDEST PUSH2 0x10A4 JUMP JUMPDEST PUSH2 0x21B PUSH2 0x453 CALLDATASIZE PUSH1 0x4 PUSH2 0x3B86 JUMP JUMPDEST PUSH2 0x112A JUMP JUMPDEST PUSH2 0x21B PUSH2 0x466 CALLDATASIZE PUSH1 0x4 PUSH2 0x3BDF JUMP JUMPDEST PUSH2 0x1576 JUMP JUMPDEST PUSH2 0x21B PUSH2 0x479 CALLDATASIZE PUSH1 0x4 PUSH2 0x399E JUMP JUMPDEST PUSH2 0x15EC JUMP JUMPDEST PUSH2 0x491 PUSH2 0x48C CALLDATASIZE PUSH1 0x4 PUSH2 0x38E9 JUMP JUMPDEST PUSH2 0x1610 JUMP JUMPDEST PUSH1 0x40 MLOAD PUSH2 0x1FF SWAP5 SWAP4 SWAP3 SWAP2 SWAP1 PUSH2 0x3C6D JUMP JUMPDEST PUSH2 0x21B PUSH2 0x4AF CALLDATASIZE PUSH1 0x4 PUSH2 0x38E9 JUMP JUMPDEST PUSH2 0x1737 JUMP JUMPDEST PUSH2 0x4C7 PUSH2 0x4C2 CALLDATASIZE PUSH1 0x4 PUSH2 0x38A2 JUMP JUMPDEST PUSH2 0x1784 JUMP JUMPDEST PUSH1 0x40 MLOAD PUSH2 0x1FF SWAP2 SWAP1 PUSH2 0x3D5D JUMP JUMPDEST PUSH0 PUSH1 0x1 PUSH1 0x1 PUSH1 0xE0 SHL SUB NOT DUP3 AND PUSH4 0x7965DB0B PUSH1 0xE0 SHL EQ DUP1 PUSH2 0x504 JUMPI POP PUSH4 0x1FFC9A7 PUSH1 0xE0 SHL PUSH1 0x1 PUSH1 0x1 PUSH1 0xE0 SHL SUB NOT DUP4 AND EQ JUMPDEST SWAP3 SWAP2 POP POP JUMP JUMPDEST PUSH2 0x512 PUSH2 0x19CC JUMP JUMPDEST PUSH2 0x51A PUSH2 0x1A2A JUMP JUMPDEST PUSH0 DUP4 DUP2 MSTORE PUSH1 0x10 PUSH1 0x20 MSTORE PUSH1 0x40 SWAP1 KECCAK256 PUSH1 0x4 ADD SLOAD DUP4 SWAP1 PUSH2 0x569 JUMPI PUSH2 0x569 PUSH1 0x40 MLOAD DUP1 PUSH1 0x40 ADD PUSH1 0x40 MSTORE DUP1 PUSH1 0x17 DUP2 MSTORE PUSH1 0x20 ADD PUSH23 0x15DBDC9AD99B1BDDC8191BD95CC81B9BDD08195E1A5CDD PUSH1 0x4A SHL DUP2 MSTORE POP PUSH2 0x1A72 JUMP JUMPDEST PUSH0 DUP5 DUP2 MSTORE PUSH1 0x11 PUSH1 0x20 MSTORE PUSH1 0x40 SWAP1 KECCAK256 SLOAD DUP5 SWAP1 PUSH1 0xFF AND ISZERO PUSH2 0x5B1 JUMPI PUSH2 0x5B1 PUSH1 0x40 MLOAD DUP1 PUSH1 0x40 ADD PUSH1 0x40 MSTORE DUP1 PUSH1 0xF DUP2 MSTORE PUSH1 0x20 ADD PUSH15 0x15DBDC9AD99B1BDDC81C185D5CD959 PUSH1 0x8A SHL DUP2 MSTORE POP PUSH2 0x1A8D JUMP JUMPDEST DUP5 CALLER PUSH2 0x5BE PUSH1 0x10 DUP4 PUSH2 0x1AA7 JUMP JUMPDEST PUSH1 0x1 PUSH1 0x1 PUSH1 0xA0 SHL SUB AND EQ PUSH2 0x5FB JUMPI PUSH2 0x5FB PUSH1 0x40 MLOAD DUP1 PUSH1 0x40 ADD PUSH1 0x40 MSTORE DUP1 PUSH1 0xE DUP2 MSTORE PUSH1 0x20 ADD PUSH14 0x139BDD08185D5D1A1BDC9A5E9959 PUSH1 0x92 SHL DUP2 MSTORE POP PUSH2 0x1A8D JUMP JUMPDEST PUSH2 0x607 PUSH1 0x9 DUP7 DUP7 PUSH2 0x1AC5 JUMP JUMPDEST PUSH2 0x641 JUMPI PUSH2 0x641 PUSH1 0x40 MLOAD DUP1 PUSH1 0x40 ADD PUSH1 0x40 MSTORE DUP1 PUSH1 0x15 DUP2 MSTORE PUSH1 0x20 ADD PUSH21 0x11195D9A58D9481B9BDD081C9959DA5CDD195C9959 PUSH1 0x5A SHL DUP2 MSTORE POP PUSH2 0x1AF9 JUMP JUMPDEST PUSH2 0x64E PUSH1 0x9 DUP7 DUP7 DUP10 PUSH2 0x1B14 JUMP JUMPDEST PUSH2 0x689 JUMPI PUSH2 0x689 PUSH1 0x40 MLOAD DUP1 PUSH1 0x40 ADD PUSH1 0x40 MSTORE DUP1 PUSH1 0x16 DUP2 MSTORE PUSH1 0x20 ADD PUSH22 0x446576696365206E6F7420696E20776F726B666C6F77 PUSH1 0x50 SHL DUP2 MSTORE POP PUSH2 0x1AF9 JUMP JUMPDEST CALLER PUSH0 SWAP1 DUP2 MSTORE PUSH1 0x8 PUSH1 0x20 SWAP1 DUP2 MSTORE PUSH1 0x40 DUP1 DUP4 KECCAK256 DUP10 DUP5 MSTORE SWAP1 SWAP2 MSTORE DUP2 KECCAK256 PUSH1 0x2 DUP2 ADD SLOAD SWAP1 SWAP2 SWAP1 PUSH2 0x6B9 SWAP1 DUP4 SWAP1 DUP10 SWAP1 DUP10 SWAP1 PUSH2 0x1B51 JUMP JUMPDEST SWAP1 POP DUP1 PUSH2 0x6F6 JUMPI PUSH2 0x6F6 PUSH1 0x40 MLOAD DUP1 PUSH1 0x40 ADD PUSH1 0x40 MSTORE DUP1 PUSH1 0x15 DUP2 MSTORE PUSH1 0x20 ADD PUSH21 0x11195D9A58D9481C995B5BDD985B0819985A5B1959 PUSH1 0x5A SHL DUP2 MSTORE POP PUSH2 0x1D2C JUMP JUMPDEST PUSH2 0x700 CALLER DUP10 PUSH2 0x1D47 JUMP JUMPDEST PUSH2 0x70E PUSH1 0x9 DUP9 DUP9 DUP12 DUP7 PUSH2 0x1DF3 JUMP JUMPDEST POP PUSH2 0x71A PUSH1 0x10 DUP10 PUSH2 0x1E8E JUMP JUMPDEST CALLER PUSH1 0x1 PUSH1 0x1 PUSH1 0xA0 SHL SUB AND DUP9 PUSH32 0x7C60E8FA020B837CD1142E332837132074A30CF91BEAEBBCBB9E7533B7133A58 DUP10 DUP10 PUSH1 0x40 MLOAD PUSH2 0x756 SWAP3 SWAP2 SWAP1 PUSH2 0x3D97 JUMP JUMPDEST PUSH1 0x40 MLOAD DUP1 SWAP2 SUB SWAP1 LOG3 POP POP POP POP POP PUSH2 0x76C PUSH1 0x1 DUP1 SSTORE JUMP JUMPDEST POP POP POP JUMP JUMPDEST PUSH1 0x1 PUSH1 0x1 PUSH1 0xA0 SHL SUB DUP2 AND PUSH0 SWAP1 DUP2 MSTORE PUSH1 0xE PUSH1 0x20 MSTORE PUSH1 0x40 DUP2 KECCAK256 DUP1 SLOAD DUP3 SWAP2 DUP3 SWAP2 DUP3 SWAP2 SWAP1 PUSH2 0x79A SWAP1 PUSH2 0x3DAA JUMP JUMPDEST DUP1 PUSH1 0x1F ADD PUSH1 0x20 DUP1 SWAP2 DIV MUL PUSH1 0x20 ADD PUSH1 0x40 MLOAD SWAP1 DUP2 ADD PUSH1 0x40 MSTORE DUP1 SWAP3 SWAP2 SWAP1 DUP2 DUP2 MSTORE PUSH1 0x20 ADD DUP3 DUP1 SLOAD PUSH2 0x7C6 SWAP1 PUSH2 0x3DAA JUMP JUMPDEST DUP1 ISZERO PUSH2 0x811 JUMPI DUP1 PUSH1 0x1F LT PUSH2 0x7E8 JUMPI PUSH2 0x100 DUP1 DUP4 SLOAD DIV MUL DUP4 MSTORE SWAP2 PUSH1 0x20 ADD SWAP2 PUSH2 0x811 JUMP JUMPDEST DUP3 ADD SWAP2 SWAP1 PUSH0 MSTORE PUSH1 0x20 PUSH0 KECCAK256 SWAP1 JUMPDEST DUP2 SLOAD DUP2 MSTORE SWAP1 PUSH1 0x1 ADD SWAP1 PUSH1 0x20 ADD DUP1 DUP4 GT PUSH2 0x7F4 JUMPI DUP3 SWAP1 SUB PUSH1 0x1F AND DUP3 ADD SWAP2 JUMPDEST POP POP POP POP POP SWAP1 POP DUP1 MLOAD PUSH0 SUB PUSH2 0x85E JUMPI PUSH2 0x85E PUSH1 0x40 MLOAD DUP1 PUSH1 0x40 ADD PUSH1 0x40 MSTORE DUP1 PUSH1 0x1D DUP2 MSTORE PUSH1 0x20 ADD PUSH32 0x4465766963652061646472657373206E6F742072656769737465726564000000 DUP2 MSTORE POP PUSH2 0x1AF9 JUMP JUMPDEST PUSH0 PUSH1 0x9 PUSH1 0x1 ADD DUP3 PUSH1 0x40 MLOAD PUSH2 0x872 SWAP2 SWAP1 PUSH2 0x3DF9 JUMP JUMPDEST SWAP1 DUP2 MSTORE PUSH1 0x40 MLOAD SWAP1 DUP2 SWAP1 SUB PUSH1 0x20 ADD DUP2 KECCAK256 SWAP2 POP PUSH1 0x12 SWAP1 PUSH2 0x891 SWAP1 DUP5 SWAP1 PUSH2 0x3DF9 JUMP JUMPDEST SWAP1 DUP2 MSTORE PUSH1 0x40 MLOAD SWAP1 DUP2 SWAP1 SUB PUSH1 0x20 ADD DUP2 KECCAK256 SLOAD SWAP1 PUSH1 0x13 SWAP1 PUSH2 0x8B0 SWAP1 DUP6 SWAP1 PUSH2 0x3DF9 JUMP JUMPDEST SWAP1 DUP2 MSTORE PUSH1 0x40 MLOAD SWAP1 DUP2 SWAP1 SUB PUSH1 0x20 ADD SWAP1 KECCAK256 SLOAD PUSH1 0x3 SWAP1 SWAP3 ADD SLOAD SWAP1 SWAP6 POP SWAP1 SWAP4 POP PUSH1 0xFF AND SWAP2 POP POP SWAP2 SWAP4 SWAP1 SWAP3 POP JUMP JUMPDEST PUSH0 PUSH2 0x8E2 PUSH2 0x19CC JUMP JUMPDEST PUSH2 0x8EA PUSH2 0x1A2A JUMP JUMPDEST PUSH0 DUP3 DUP2 MSTORE PUSH1 0x11 PUSH1 0x20 MSTORE PUSH1 0x40 SWAP1 KECCAK256 SLOAD DUP3 SWAP1 PUSH1 0xFF AND ISZERO PUSH2 0x932 JUMPI PUSH2 0x932 PUSH1 0x40 MLOAD DUP1 PUSH1 0x40 ADD PUSH1 0x40 MSTORE DUP1 PUSH1 0xF DUP2 MSTORE PUSH1 0x20 ADD PUSH15 0x15DBDC9AD99B1BDDC81C185D5CD959 PUSH1 0x8A SHL DUP2 MSTORE POP PUSH2 0x1A8D JUMP JUMPDEST PUSH0 DUP4 DUP2 MSTORE PUSH1 0x10 PUSH1 0x20 MSTORE PUSH1 0x40 SWAP1 KECCAK256 PUSH1 0x4 ADD SLOAD DUP4 SWAP1 PUSH2 0x981 JUMPI PUSH2 0x981 PUSH1 0x40 MLOAD DUP1 PUSH1 0x40 ADD PUSH1 0x40 MSTORE DUP1 PUSH1 0x17 DUP2 MSTORE PUSH1 0x20 ADD PUSH23 0x15DBDC9AD99B1BDDC8191BD95CC81B9BDD08195E1A5CDD PUSH1 0x4A SHL DUP2 MSTORE POP PUSH2 0x1A72 JUMP JUMPDEST PUSH0 PUSH2 0x98D PUSH1 0x10 DUP7 PUSH2 0x1EC9 JUMP JUMPDEST SWAP1 POP PUSH0 PUSH1 0x9 PUSH1 0x1 ADD DUP9 DUP9 PUSH1 0x40 MLOAD PUSH2 0x9A5 SWAP3 SWAP2 SWAP1 PUSH2 0x3E04 JUMP JUMPDEST SWAP1 DUP2 MSTORE PUSH1 0x20 ADD PUSH1 0x40 MLOAD DUP1 SWAP2 SUB SWAP1 KECCAK256 SWAP1 POP PUSH2 0x9BF DUP2 CALLER PUSH2 0x2125 JUMP JUMPDEST POP PUSH1 0x40 MLOAD PUSH1 0xB SWAP1 PUSH2 0x9D3 SWAP1 DUP11 SWAP1 DUP11 SWAP1 PUSH2 0x3E04 JUMP JUMPDEST SWAP1 DUP2 MSTORE PUSH1 0x40 DUP1 MLOAD PUSH1 0x20 SWAP3 DUP2 SWAP1 SUB DUP4 ADD SWAP1 KECCAK256 PUSH0 DUP10 DUP2 MSTORE SWAP3 MSTORE SWAP1 KECCAK256 SLOAD PUSH1 0xFF AND PUSH2 0xA32 JUMPI PUSH2 0xA32 PUSH1 0x40 MLOAD DUP1 PUSH1 0x40 ADD PUSH1 0x40 MSTORE DUP1 PUSH1 0x1A DUP2 MSTORE PUSH1 0x20 ADD PUSH32 0x776F726B666C6F772076616C69646174696F6E206661696C6564000000000000 DUP2 MSTORE POP PUSH2 0x1AF9 JUMP JUMPDEST PUSH0 PUSH1 0x12 PUSH1 0x1 ADD DUP10 DUP10 PUSH1 0x40 MLOAD PUSH2 0xA48 SWAP3 SWAP2 SWAP1 PUSH2 0x3E04 JUMP JUMPDEST SWAP1 DUP2 MSTORE PUSH1 0x40 MLOAD SWAP1 DUP2 SWAP1 SUB PUSH1 0x20 ADD DUP2 KECCAK256 SLOAD SWAP2 POP PUSH0 SWAP1 PUSH1 0x12 SWAP1 PUSH2 0xA6C SWAP1 DUP13 SWAP1 DUP13 SWAP1 PUSH2 0x3E04 JUMP JUMPDEST SWAP1 DUP2 MSTORE PUSH1 0x40 MLOAD SWAP1 DUP2 SWAP1 SUB PUSH1 0x20 ADD SWAP1 KECCAK256 SLOAD PUSH2 0x140 DUP6 ADD MLOAD SWAP1 SWAP2 POP PUSH2 0xA90 TIMESTAMP DUP5 DUP4 PUSH2 0x21CA JUMP JUMPDEST PUSH2 0xA99 DUP3 PUSH2 0x223C JUMP JUMPDEST PUSH0 PUSH2 0xAA6 PUSH1 0x12 DUP14 DUP14 PUSH2 0x22EB JUMP JUMPDEST CALLER PUSH0 SWAP1 DUP2 MSTORE PUSH1 0x8 PUSH1 0x20 SWAP1 DUP2 MSTORE PUSH1 0x40 DUP1 DUP4 KECCAK256 DUP15 DUP5 MSTORE SWAP1 SWAP2 MSTORE SWAP1 KECCAK256 SWAP1 SWAP2 POP PUSH2 0xAD0 DUP2 DUP15 DUP15 TIMESTAMP PUSH1 0x4 PUSH2 0x2377 JUMP JUMPDEST DUP11 DUP14 DUP14 PUSH1 0x40 MLOAD PUSH2 0xAE1 SWAP3 SWAP2 SWAP1 PUSH2 0x3E04 JUMP JUMPDEST PUSH1 0x40 MLOAD SWAP1 DUP2 SWAP1 SUB DUP2 KECCAK256 DUP5 DUP3 MSTORE SWAP1 PUSH32 0xFF199341A680B0B35A4DC6D3160E44D2A5574AC10BF2955BCDFE0EC47FBB1E8F SWAP1 PUSH1 0x20 ADD PUSH1 0x40 MLOAD DUP1 SWAP2 SUB SWAP1 LOG3 POP SWAP8 POP POP POP POP POP POP POP POP PUSH2 0xB2E PUSH1 0x1 DUP1 SSTORE JUMP JUMPDEST SWAP4 SWAP3 POP POP POP JUMP JUMPDEST PUSH0 DUP3 DUP2 MSTORE PUSH1 0x20 DUP2 SWAP1 MSTORE PUSH1 0x40 SWAP1 KECCAK256 PUSH1 0x1 ADD SLOAD PUSH2 0xB4F DUP2 PUSH2 0x244B JUMP JUMPDEST PUSH2 0xB59 DUP4 DUP4 PUSH2 0x2455 JUMP JUMPDEST POP POP POP POP JUMP JUMPDEST PUSH1 0x1 PUSH1 0x1 PUSH1 0xA0 SHL SUB DUP2 AND CALLER EQ PUSH2 0xB88 JUMPI PUSH1 0x40 MLOAD PUSH4 0x334BD919 PUSH1 0xE1 SHL DUP2 MSTORE PUSH1 0x4 ADD PUSH1 0x40 MLOAD DUP1 SWAP2 SUB SWAP1 REVERT JUMPDEST PUSH2 0x76C DUP3 DUP3 PUSH2 0x24E4 JUMP JUMPDEST PUSH32 0x65D7A28E3265B37A6474929F336521B332C1681B933F6CB9F3376673440D862A PUSH2 0xBBC DUP2 PUSH2 0x244B JUMP JUMPDEST PUSH2 0xBC4 PUSH2 0x254D JUMP JUMPDEST POP JUMP JUMPDEST PUSH2 0xBF7 PUSH1 0x40 MLOAD DUP1 PUSH1 0xA0 ADD PUSH1 0x40 MSTORE DUP1 PUSH1 0x60 DUP2 MSTORE PUSH1 0x20 ADD PUSH0 DUP2 MSTORE PUSH1 0x20 ADD PUSH0 DUP2 MSTORE PUSH1 0x20 ADD PUSH0 DUP2 MSTORE PUSH1 0x20 ADD PUSH0 ISZERO ISZERO DUP2 MSTORE POP SWAP1 JUMP JUMPDEST PUSH0 DUP5 DUP2 MSTORE PUSH1 0x10 PUSH1 0x20 MSTORE PUSH1 0x40 SWAP1 KECCAK256 PUSH1 0x4 ADD SLOAD PUSH2 0xC40 JUMPI PUSH2 0xC40 PUSH1 0x40 MLOAD DUP1 PUSH1 0x40 ADD PUSH1 0x40 MSTORE DUP1 PUSH1 0x13 DUP2 MSTORE PUSH1 0x20 ADD PUSH19 0x125B9D985B1A59081DDBDC9AD99B1BDDC81251 PUSH1 0x6A SHL DUP2 MSTORE POP PUSH2 0x1A72 JUMP JUMPDEST PUSH1 0x1 PUSH1 0x1 PUSH1 0xA0 SHL SUB DUP4 AND PUSH0 SWAP1 DUP2 MSTORE PUSH1 0x8 PUSH1 0x20 SWAP1 DUP2 MSTORE PUSH1 0x40 DUP1 DUP4 KECCAK256 DUP8 DUP5 MSTORE SWAP1 SWAP2 MSTORE SWAP1 KECCAK256 PUSH1 0x4 DUP2 ADD SLOAD PUSH2 0xC72 SWAP1 DUP5 SWAP1 PUSH2 0x259F JUMP JUMPDEST PUSH0 PUSH2 0xC7E DUP6 DUP8 DUP7 PUSH2 0x25EF JUMP JUMPDEST PUSH1 0x40 DUP1 MLOAD PUSH1 0xA0 DUP2 ADD DUP3 MSTORE DUP3 DUP2 MSTORE PUSH1 0x4 DUP6 ADD SLOAD PUSH1 0x20 DUP3 ADD DUP2 SWAP1 MSTORE SWAP2 DUP2 ADD DUP8 SWAP1 MSTORE PUSH1 0x2 DUP6 ADD SLOAD PUSH1 0x60 DUP3 ADD MSTORE SWAP2 SWAP3 POP PUSH1 0x80 DUP3 ADD SWAP1 PUSH2 0xCBB SWAP1 PUSH1 0x1 SWAP1 PUSH2 0x3E27 JUMP JUMPDEST DUP7 LT SWAP1 MSTORE SWAP3 POP POP POP SWAP4 SWAP3 POP POP POP JUMP JUMPDEST PUSH0 PUSH2 0xCD3 PUSH2 0x19CC JUMP JUMPDEST PUSH2 0xCDB PUSH2 0x1A2A JUMP JUMPDEST PUSH2 0xD41 PUSH2 0xCEB PUSH1 0x20 DUP5 ADD DUP5 PUSH2 0x3E3A JUMP JUMPDEST DUP1 DUP1 PUSH1 0x1F ADD PUSH1 0x20 DUP1 SWAP2 DIV MUL PUSH1 0x20 ADD PUSH1 0x40 MLOAD SWAP1 DUP2 ADD PUSH1 0x40 MSTORE DUP1 SWAP4 SWAP3 SWAP2 SWAP1 DUP2 DUP2 MSTORE PUSH1 0x20 ADD DUP4 DUP4 DUP1 DUP3 DUP5 CALLDATACOPY PUSH0 SWAP3 ADD SWAP2 SWAP1 SWAP2 MSTORE POP POP PUSH1 0x40 DUP1 MLOAD DUP1 DUP3 ADD DUP3 MSTORE PUSH1 0x5 DUP2 MSTORE PUSH5 0x7469746C65 PUSH1 0xD8 SHL PUSH1 0x20 DUP3 ADD MSTORE SWAP1 SWAP3 POP SWAP1 POP PUSH2 0x27A0 JUMP JUMPDEST PUSH2 0xDAA PUSH2 0xD51 PUSH1 0x60 DUP5 ADD DUP5 PUSH2 0x3E3A JUMP JUMPDEST DUP1 DUP1 PUSH1 0x1F ADD PUSH1 0x20 DUP1 SWAP2 DIV MUL PUSH1 0x20 ADD PUSH1 0x40 MLOAD SWAP1 DUP2 ADD PUSH1 0x40 MSTORE DUP1 SWAP4 SWAP3 SWAP2 SWAP1 DUP2 DUP2 MSTORE PUSH1 0x20 ADD DUP4 DUP4 DUP1 DUP3 DUP5 CALLDATACOPY PUSH0 SWAP3 ADD SWAP2 SWAP1 SWAP2 MSTORE POP POP PUSH1 0x40 DUP1 MLOAD DUP1 DUP3 ADD DUP3 MSTORE PUSH1 0x8 DUP2 MSTORE PUSH8 0x1CD8DA195B585259 PUSH1 0xC2 SHL PUSH1 0x20 DUP3 ADD MSTORE SWAP1 SWAP3 POP SWAP1 POP PUSH2 0x27A0 JUMP JUMPDEST PUSH2 0xDBD DUP3 PUSH1 0x80 ADD CALLDATALOAD PUSH1 0x3C PUSH3 0x15180 PUSH2 0x27FA JUMP JUMPDEST PUSH2 0xDD7 PUSH2 0xDC9 DUP4 PUSH2 0x3F41 JUMP JUMPDEST PUSH1 0x10 SWAP1 CALLER PUSH2 0x3E8 PUSH1 0x64 PUSH2 0x2855 JUMP JUMPDEST SWAP1 POP PUSH2 0xDE2 PUSH1 0x1 DUP1 SSTORE JUMP JUMPDEST SWAP2 SWAP1 POP JUMP JUMPDEST DUP1 CALLER PUSH2 0xDF4 PUSH1 0x10 DUP4 PUSH2 0x1AA7 JUMP JUMPDEST PUSH1 0x1 PUSH1 0x1 PUSH1 0xA0 SHL SUB AND EQ PUSH2 0xE31 JUMPI PUSH2 0xE31 PUSH1 0x40 MLOAD DUP1 PUSH1 0x40 ADD PUSH1 0x40 MSTORE DUP1 PUSH1 0xE DUP2 MSTORE PUSH1 0x20 ADD PUSH14 0x139BDD08185D5D1A1BDC9A5E9959 PUSH1 0x92 SHL DUP2 MSTORE POP PUSH2 0x1A8D JUMP JUMPDEST PUSH0 DUP3 DUP2 MSTORE PUSH1 0x11 PUSH1 0x20 MSTORE PUSH1 0x40 DUP2 KECCAK256 DUP1 SLOAD PUSH1 0xFF NOT DUP2 AND PUSH1 0xFF SWAP2 DUP3 AND ISZERO SWAP1 DUP2 OR SWAP1 SWAP3 SSTORE AND SWAP1 POP DUP3 PUSH32 0x118FE3D551B1C2993669AEF7BB160B48E99B1390B9E134549CF35810848D46CD DUP3 PUSH1 0x40 MLOAD PUSH2 0xE88 SWAP2 ISZERO ISZERO DUP2 MSTORE PUSH1 0x20 ADD SWAP1 JUMP JUMPDEST PUSH1 0x40 MLOAD DUP1 SWAP2 SUB SWAP1 LOG2 POP POP POP JUMP JUMPDEST PUSH0 PUSH2 0xE9F DUP2 PUSH2 0x244B JUMP JUMPDEST PUSH2 0x76C DUP4 DUP4 PUSH2 0x2A58 JUMP JUMPDEST PUSH2 0xEB1 PUSH2 0x1A2A JUMP JUMPDEST PUSH32 0x22435ED027EDF5F902DC0093FBC24CDB50C05B5FD5F311B78C67C1CBAFF60E13 PUSH2 0xEDB DUP2 PUSH2 0x244B JUMP JUMPDEST PUSH2 0xF39 DUP4 DUP4 DUP1 DUP1 PUSH1 0x1F ADD PUSH1 0x20 DUP1 SWAP2 DIV MUL PUSH1 0x20 ADD PUSH1 0x40 MLOAD SWAP1 DUP2 ADD PUSH1 0x40 MSTORE DUP1 SWAP4 SWAP3 SWAP2 SWAP1 DUP2 DUP2 MSTORE PUSH1 0x20 ADD DUP4 DUP4 DUP1 DUP3 DUP5 CALLDATACOPY PUSH0 SWAP3 ADD SWAP2 SWAP1 SWAP2 MSTORE POP POP PUSH1 0x40 DUP1 MLOAD DUP1 DUP3 ADD DUP3 MSTORE PUSH1 0x8 DUP2 MSTORE PUSH8 0x1DD85B1B195D1259 PUSH1 0xC2 SHL PUSH1 0x20 DUP3 ADD MSTORE SWAP1 SWAP3 POP SWAP1 POP PUSH2 0x27A0 JUMP JUMPDEST PUSH0 PUSH2 0xF46 PUSH1 0x9 DUP6 DUP6 PUSH2 0x2B15 JUMP JUMPDEST SWAP1 POP PUSH2 0xF7B DUP2 PUSH1 0x40 MLOAD DUP1 PUSH1 0x40 ADD PUSH1 0x40 MSTORE DUP1 PUSH1 0x11 DUP2 MSTORE PUSH1 0x20 ADD PUSH17 0x7265676973746572656420646576696365 PUSH1 0x78 SHL DUP2 MSTORE POP PUSH2 0x2B4C JUMP JUMPDEST PUSH0 PUSH2 0xF88 PUSH1 0x9 DUP7 DUP7 PUSH2 0x2B6B JUMP JUMPDEST SWAP1 POP CALLER PUSH1 0x1 PUSH1 0x1 PUSH1 0xA0 SHL SUB AND DUP3 PUSH1 0x1 PUSH1 0x1 PUSH1 0xA0 SHL SUB AND PUSH32 0x2B49FF5D47E3DBEAC0AFF9C357D3967A590ACD4CA7D9F4FA820D6C5F015D0D00 DUP8 DUP8 DUP6 PUSH1 0x40 MLOAD PUSH2 0xFD1 SWAP4 SWAP3 SWAP2 SWAP1 PUSH2 0x3FEC JUMP JUMPDEST PUSH1 0x40 MLOAD DUP1 SWAP2 SUB SWAP1 LOG3 POP POP POP POP POP JUMP JUMPDEST PUSH0 PUSH2 0xB2E DUP4 DUP4 PUSH1 0x40 MLOAD PUSH2 0xFF4 SWAP3 SWAP2 SWAP1 PUSH2 0x3E04 JUMP JUMPDEST PUSH1 0x40 DUP1 MLOAD SWAP2 DUP3 SWAP1 SUB SWAP1 SWAP2 KECCAK256 PUSH0 SWAP1 DUP2 MSTORE PUSH1 0x9 PUSH1 0x20 MSTORE KECCAK256 SLOAD PUSH1 0xFF AND SWAP1 JUMP JUMPDEST PUSH0 PUSH1 0x9 PUSH1 0x6 ADD PUSH0 DUP5 DUP5 PUSH1 0x40 MLOAD PUSH2 0x1027 SWAP3 SWAP2 SWAP1 PUSH2 0x3E04 JUMP JUMPDEST PUSH1 0x40 DUP1 MLOAD SWAP2 DUP3 SWAP1 SUB SWAP1 SWAP2 KECCAK256 DUP3 MSTORE PUSH1 0x20 DUP3 ADD SWAP3 SWAP1 SWAP3 MSTORE ADD PUSH0 KECCAK256 SLOAD PUSH1 0xFF AND SWAP4 SWAP3 POP POP POP JUMP JUMPDEST PUSH32 0x65D7A28E3265B37A6474929F336521B332C1681B933F6CB9F3376673440D862A PUSH2 0x1074 DUP2 PUSH2 0x244B JUMP JUMPDEST PUSH2 0xBC4 PUSH2 0x2BF6 JUMP JUMPDEST PUSH0 SWAP2 DUP3 MSTORE PUSH1 0x20 DUP3 DUP2 MSTORE PUSH1 0x40 DUP1 DUP5 KECCAK256 PUSH1 0x1 PUSH1 0x1 PUSH1 0xA0 SHL SUB SWAP4 SWAP1 SWAP4 AND DUP5 MSTORE SWAP2 SWAP1 MSTORE SWAP1 KECCAK256 SLOAD PUSH1 0xFF AND SWAP1 JUMP JUMPDEST PUSH2 0x10AE PUSH0 CALLER PUSH2 0x107C JUMP JUMPDEST PUSH2 0x10E6 JUMPI PUSH2 0x10E6 PUSH1 0x40 MLOAD DUP1 PUSH1 0x40 ADD PUSH1 0x40 MSTORE DUP1 PUSH1 0x13 DUP2 MSTORE PUSH1 0x20 ADD PUSH19 0x21B0B63632B91034B9903737BA1030B236B4B7 PUSH1 0x69 SHL DUP2 MSTORE POP PUSH2 0x1A8D JUMP JUMPDEST PUSH2 0x1111 DUP2 PUSH1 0x40 MLOAD DUP1 PUSH1 0x40 ADD PUSH1 0x40 MSTORE DUP1 PUSH1 0x9 DUP2 MSTORE PUSH1 0x20 ADD PUSH9 0x3732BB9030B236B4B7 PUSH1 0xB9 SHL DUP2 MSTORE POP PUSH2 0x2B4C JUMP JUMPDEST PUSH2 0x111B PUSH0 DUP3 PUSH2 0x2455 JUMP JUMPDEST POP PUSH2 0x1126 PUSH0 CALLER PUSH2 0x24E4 JUMP JUMPDEST POP POP JUMP JUMPDEST PUSH2 0x1132 PUSH2 0x19CC JUMP JUMPDEST PUSH2 0x113A PUSH2 0x1A2A JUMP JUMPDEST PUSH0 DUP5 DUP2 MSTORE PUSH1 0x10 PUSH1 0x20 MSTORE PUSH1 0x40 SWAP1 KECCAK256 PUSH1 0x4 ADD SLOAD DUP5 SWAP1 PUSH2 0x1189 JUMPI PUSH2 0x1189 PUSH1 0x40 MLOAD DUP1 PUSH1 0x40 ADD PUSH1 0x40 MSTORE DUP1 PUSH1 0x17 DUP2 MSTORE PUSH1 0x20 ADD PUSH23 0x15DBDC9AD99B1BDDC8191BD95CC81B9BDD08195E1A5CDD PUSH1 0x4A SHL DUP2 MSTORE POP PUSH2 0x1A72 JUMP JUMPDEST PUSH0 DUP6 DUP2 MSTORE PUSH1 0x11 PUSH1 0x20 MSTORE PUSH1 0x40 SWAP1 KECCAK256 SLOAD DUP6 SWAP1 PUSH1 0xFF AND ISZERO PUSH2 0x11D1 JUMPI PUSH2 0x11D1 PUSH1 0x40 MLOAD DUP1 PUSH1 0x40 ADD PUSH1 0x40 MSTORE DUP1 PUSH1 0xF DUP2 MSTORE PUSH1 0x20 ADD PUSH15 0x15DBDC9AD99B1BDDC81C185D5CD959 PUSH1 0x8A SHL DUP2 MSTORE POP PUSH2 0x1A8D JUMP JUMPDEST DUP6 CALLER PUSH2 0x11DE PUSH1 0x10 DUP4 PUSH2 0x1AA7 JUMP JUMPDEST PUSH1 0x1 PUSH1 0x1 PUSH1 0xA0 SHL SUB AND EQ PUSH2 0x121B JUMPI PUSH2 0x121B PUSH1 0x40 MLOAD DUP1 PUSH1 0x40 ADD PUSH1 0x40 MSTORE DUP1 PUSH1 0xE DUP2 MSTORE PUSH1 0x20 ADD PUSH14 0x139BDD08185D5D1A1BDC9A5E9959 PUSH1 0x92 SHL DUP2 MSTORE POP PUSH2 0x1A8D JUMP JUMPDEST PUSH0 DUP7 DUP7 PUSH1 0x40 MLOAD PUSH2 0x122C SWAP3 SWAP2 SWAP1 PUSH2 0x3E04 JUMP JUMPDEST PUSH1 0x40 DUP1 MLOAD SWAP2 DUP3 SWAP1 SUB SWAP1 SWAP2 KECCAK256 PUSH0 DUP2 DUP2 MSTORE PUSH1 0xF PUSH1 0x20 MSTORE SWAP2 SWAP1 SWAP2 KECCAK256 SLOAD SWAP1 SWAP2 POP PUSH1 0xFF AND ISZERO PUSH2 0x1271 JUMPI PUSH2 0x1271 PUSH1 0x40 MLOAD DUP1 PUSH1 0x60 ADD PUSH1 0x40 MSTORE DUP1 PUSH1 0x27 DUP2 MSTORE PUSH1 0x20 ADD PUSH2 0x444A PUSH1 0x27 SWAP2 CODECOPY PUSH2 0x1AF9 JUMP JUMPDEST PUSH0 DUP2 DUP2 MSTORE PUSH1 0xF PUSH1 0x20 SWAP1 DUP2 MSTORE PUSH1 0x40 SWAP2 DUP3 SWAP1 KECCAK256 DUP1 SLOAD PUSH1 0xFF NOT AND PUSH1 0x1 OR SWAP1 SSTORE DUP2 MLOAD DUP1 DUP4 ADD SWAP1 SWAP3 MSTORE PUSH1 0xD DUP3 MSTORE PUSH13 0x64657669636541646472657373 PUSH1 0x98 SHL SWAP1 DUP3 ADD MSTORE PUSH2 0x12B9 SWAP1 DUP7 SWAP1 PUSH2 0x2B4C JUMP JUMPDEST PUSH2 0x1317 DUP8 DUP8 DUP1 DUP1 PUSH1 0x1F ADD PUSH1 0x20 DUP1 SWAP2 DIV MUL PUSH1 0x20 ADD PUSH1 0x40 MLOAD SWAP1 DUP2 ADD PUSH1 0x40 MSTORE DUP1 SWAP4 SWAP3 SWAP2 SWAP1 DUP2 DUP2 MSTORE PUSH1 0x20 ADD DUP4 DUP4 DUP1 DUP3 DUP5 CALLDATACOPY PUSH0 SWAP3 ADD SWAP2 SWAP1 SWAP2 MSTORE POP POP PUSH1 0x40 DUP1 MLOAD DUP1 DUP3 ADD DUP3 MSTORE PUSH1 0x8 DUP2 MSTORE PUSH8 0x1DD85B1B195D1259 PUSH1 0xC2 SHL PUSH1 0x20 DUP3 ADD MSTORE SWAP1 SWAP3 POP SWAP1 POP PUSH2 0x27A0 JUMP JUMPDEST PUSH0 PUSH2 0x1323 PUSH1 0x10 DUP11 PUSH2 0x1EC9 JUMP JUMPDEST SWAP1 POP PUSH0 DUP2 PUSH1 0xA0 ADD MLOAD PUSH1 0x2 DUP2 GT ISZERO PUSH2 0x133C JUMPI PUSH2 0x133C PUSH2 0x3BFF JUMP JUMPDEST EQ PUSH2 0x138A JUMPI PUSH0 DUP3 DUP2 MSTORE PUSH1 0xF PUSH1 0x20 SWAP1 DUP2 MSTORE PUSH1 0x40 SWAP2 DUP3 SWAP1 KECCAK256 DUP1 SLOAD PUSH1 0xFF NOT AND SWAP1 SSTORE DUP2 MLOAD DUP1 DUP4 ADD SWAP1 SWAP3 MSTORE PUSH1 0x13 DUP3 MSTORE PUSH19 0x576F726B666C6F77206E6F7420616374697665 PUSH1 0x68 SHL SWAP1 DUP3 ADD MSTORE PUSH2 0x138A SWAP1 PUSH2 0x1AF9 JUMP JUMPDEST PUSH0 DUP3 DUP2 MSTORE PUSH1 0x9 PUSH1 0x20 MSTORE PUSH1 0x40 SWAP1 KECCAK256 SLOAD PUSH1 0xFF AND ISZERO PUSH2 0x13F3 JUMPI PUSH0 DUP3 DUP2 MSTORE PUSH1 0xF PUSH1 0x20 SWAP1 DUP2 MSTORE PUSH1 0x40 SWAP2 DUP3 SWAP1 KECCAK256 DUP1 SLOAD PUSH1 0xFF NOT AND SWAP1 SSTORE DUP2 MLOAD DUP1 DUP4 ADD SWAP1 SWAP3 MSTORE PUSH1 0x19 DUP3 MSTORE PUSH32 0x44657669636520616C7265616479207265676973746572656400000000000000 SWAP1 DUP3 ADD MSTORE PUSH2 0x13F3 SWAP1 PUSH2 0x1AF9 JUMP JUMPDEST PUSH2 0x13FF PUSH1 0x9 DUP10 DUP10 PUSH2 0x2C33 JUMP JUMPDEST ISZERO PUSH2 0x144C JUMPI PUSH0 DUP3 DUP2 MSTORE PUSH1 0xF PUSH1 0x20 SWAP1 DUP2 MSTORE PUSH1 0x40 SWAP2 DUP3 SWAP1 KECCAK256 DUP1 SLOAD PUSH1 0xFF NOT AND SWAP1 SSTORE DUP2 MLOAD DUP1 DUP4 ADD SWAP1 SWAP3 MSTORE PUSH1 0x12 DUP3 MSTORE PUSH18 0x11195D9A58D948189B1858DADB1A5CDD1959 PUSH1 0x72 SHL SWAP1 DUP3 ADD MSTORE PUSH2 0x144C SWAP1 PUSH2 0x1AF9 JUMP JUMPDEST PUSH2 0x145E DUP2 PUSH1 0x60 ADD MLOAD DUP3 PUSH1 0xC0 ADD MLOAD PUSH2 0x2C48 JUMP JUMPDEST PUSH2 0x146D PUSH1 0x9 DUP10 DUP10 DUP10 DUP14 DUP8 PUSH2 0x2C8F JUMP JUMPDEST POP PUSH2 0x1479 PUSH1 0x10 DUP11 PUSH2 0x2E43 JUMP JUMPDEST PUSH1 0x40 DUP1 MLOAD PUSH1 0xC0 PUSH1 0x20 PUSH1 0x1F DUP12 ADD DUP2 SWAP1 DIV MUL DUP3 ADD DUP2 ADD SWAP1 SWAP3 MSTORE PUSH1 0xA0 DUP2 ADD DUP10 DUP2 MSTORE PUSH0 SWAP3 DUP3 SWAP2 SWAP1 DUP13 SWAP1 DUP13 SWAP1 DUP2 SWAP1 DUP6 ADD DUP4 DUP3 DUP1 DUP3 DUP5 CALLDATACOPY PUSH0 SWAP3 ADD DUP3 SWAP1 MSTORE POP SWAP4 DUP6 MSTORE POP POP POP PUSH1 0x1 PUSH1 0x1 PUSH1 0xA0 SHL SUB DUP11 AND PUSH1 0x20 DUP4 ADD MSTORE TIMESTAMP PUSH1 0x40 DUP4 ADD DUP2 SWAP1 MSTORE PUSH1 0x60 DUP4 ADD SWAP2 SWAP1 SWAP2 MSTORE PUSH1 0x80 SWAP1 SWAP2 ADD MSTORE SWAP1 POP PUSH2 0x14E9 CALLER DUP12 DUP4 PUSH2 0x2E5F JUMP JUMPDEST CALLER PUSH0 DUP2 DUP2 MSTORE PUSH1 0x8 PUSH1 0x20 SWAP1 DUP2 MSTORE PUSH1 0x40 DUP1 DUP4 KECCAK256 DUP15 DUP5 MSTORE DUP3 MSTORE DUP1 DUP4 KECCAK256 PUSH1 0x3 ADD SLOAD DUP8 DUP5 MSTORE PUSH1 0x4 DUP4 MSTORE DUP2 DUP5 KECCAK256 SSTORE PUSH1 0xF SWAP1 SWAP2 MSTORE SWAP1 DUP2 SWAP1 KECCAK256 DUP1 SLOAD PUSH1 0xFF NOT AND SWAP1 SSTORE MLOAD PUSH1 0x1 PUSH1 0x1 PUSH1 0xA0 SHL SUB DUP10 AND SWAP1 DUP13 SWAP1 PUSH32 0x44E63D90B13C9452584A9658F63F4FF576A4E45034F63DBEC0E8392F9D16EEA SWAP1 PUSH2 0x155F SWAP1 DUP15 SWAP1 DUP15 SWAP1 PUSH2 0x3D97 JUMP JUMPDEST PUSH1 0x40 MLOAD DUP1 SWAP2 SUB SWAP1 LOG4 POP POP POP POP POP POP PUSH2 0xB59 PUSH1 0x1 DUP1 SSTORE JUMP JUMPDEST PUSH2 0x157E PUSH2 0x19CC JUMP JUMPDEST PUSH2 0x1586 PUSH2 0x1A2A JUMP JUMPDEST DUP2 CALLER PUSH2 0x1593 PUSH1 0x10 DUP4 PUSH2 0x1AA7 JUMP JUMPDEST PUSH1 0x1 PUSH1 0x1 PUSH1 0xA0 SHL SUB AND EQ PUSH2 0x15D0 JUMPI PUSH2 0x15D0 PUSH1 0x40 MLOAD DUP1 PUSH1 0x40 ADD PUSH1 0x40 MSTORE DUP1 PUSH1 0xE DUP2 MSTORE PUSH1 0x20 ADD PUSH14 0x139BDD08185D5D1A1BDC9A5E9959 PUSH1 0x92 SHL DUP2 MSTORE POP PUSH2 0x1A8D JUMP JUMPDEST PUSH2 0x15E2 PUSH1 0x10 DUP5 DUP5 PUSH1 0x3C PUSH3 0x15180 PUSH2 0x30AA JUMP JUMPDEST POP PUSH2 0x1126 PUSH1 0x1 DUP1 SSTORE JUMP JUMPDEST PUSH0 DUP3 DUP2 MSTORE PUSH1 0x20 DUP2 SWAP1 MSTORE PUSH1 0x40 SWAP1 KECCAK256 PUSH1 0x1 ADD SLOAD PUSH2 0x1606 DUP2 PUSH2 0x244B JUMP JUMPDEST PUSH2 0xB59 DUP4 DUP4 PUSH2 0x24E4 JUMP JUMPDEST PUSH2 0x1618 PUSH2 0x374B JUMP JUMPDEST PUSH0 DUP3 DUP2 MSTORE PUSH1 0x10 PUSH1 0x20 MSTORE PUSH1 0x40 DUP2 KECCAK256 PUSH1 0x4 ADD SLOAD DUP2 SWAP1 PUSH1 0x60 SWAP1 PUSH2 0x1666 JUMPI PUSH2 0x1666 PUSH1 0x40 MLOAD DUP1 PUSH1 0x40 ADD PUSH1 0x40 MSTORE DUP1 PUSH1 0x13 DUP2 MSTORE PUSH1 0x20 ADD PUSH19 0x125B9D985B1A59081DDBDC9AD99B1BDDC81251 PUSH1 0x6A SHL DUP2 MSTORE POP PUSH2 0x1A72 JUMP JUMPDEST PUSH2 0x1671 PUSH1 0x10 DUP7 PUSH2 0x1EC9 JUMP JUMPDEST PUSH1 0xE0 DUP2 ADD MLOAD PUSH1 0x1 PUSH1 0x1 PUSH1 0xA0 SHL SUB AND PUSH0 SWAP1 DUP2 MSTORE PUSH1 0x8 PUSH1 0x20 SWAP1 DUP2 MSTORE PUSH1 0x40 DUP1 DUP4 KECCAK256 DUP10 DUP5 MSTORE SWAP1 SWAP2 MSTORE SWAP1 KECCAK256 PUSH1 0x4 DUP2 ADD SLOAD PUSH1 0x2 DUP3 ADD SLOAD SWAP3 SWAP7 POP SWAP5 POP SWAP1 SWAP3 POP DUP4 PUSH1 0x1 PUSH1 0x1 PUSH1 0x40 SHL SUB DUP2 GT ISZERO PUSH2 0x16C1 JUMPI PUSH2 0x16C1 PUSH2 0x3E7C JUMP JUMPDEST PUSH1 0x40 MLOAD SWAP1 DUP1 DUP3 MSTORE DUP1 PUSH1 0x20 MUL PUSH1 0x20 ADD DUP3 ADD PUSH1 0x40 MSTORE DUP1 ISZERO PUSH2 0x16EA JUMPI DUP2 PUSH1 0x20 ADD PUSH1 0x20 DUP3 MUL DUP1 CALLDATASIZE DUP4 CALLDATACOPY ADD SWAP1 POP JUMPDEST POP SWAP2 POP PUSH0 JUMPDEST DUP5 DUP2 LT ISZERO PUSH2 0x172E JUMPI PUSH0 DUP2 DUP2 MSTORE PUSH1 0x5 DUP4 ADD PUSH1 0x20 MSTORE PUSH1 0x40 SWAP1 KECCAK256 SLOAD DUP4 MLOAD DUP5 SWAP1 DUP4 SWAP1 DUP2 LT PUSH2 0x171B JUMPI PUSH2 0x171B PUSH2 0x4011 JUMP JUMPDEST PUSH1 0x20 SWAP1 DUP2 MUL SWAP2 SWAP1 SWAP2 ADD ADD MSTORE PUSH1 0x1 ADD PUSH2 0x16EF JUMP JUMPDEST POP POP SWAP2 SWAP4 POP SWAP2 SWAP4 JUMP JUMPDEST PUSH0 PUSH2 0x1741 DUP2 PUSH2 0x244B JUMP JUMPDEST PUSH3 0x278D00 DUP3 LT ISZERO PUSH2 0x177E JUMPI PUSH2 0x177E PUSH1 0x40 MLOAD DUP1 PUSH1 0x40 ADD PUSH1 0x40 MSTORE DUP1 PUSH1 0x11 DUP2 MSTORE PUSH1 0x20 ADD PUSH17 0x5468726573686F6C6420746F6F206C6F77 PUSH1 0x78 SHL DUP2 MSTORE POP PUSH2 0x1AF9 JUMP JUMPDEST POP PUSH1 0x7 SSTORE JUMP JUMPDEST PUSH2 0x178C PUSH2 0x37B7 JUMP JUMPDEST PUSH0 DUP5 DUP2 MSTORE PUSH1 0x10 PUSH1 0x20 MSTORE PUSH1 0x40 SWAP1 KECCAK256 PUSH1 0x4 ADD SLOAD DUP5 SWAP1 PUSH2 0x17DB JUMPI PUSH2 0x17DB PUSH1 0x40 MLOAD DUP1 PUSH1 0x40 ADD PUSH1 0x40 MSTORE DUP1 PUSH1 0x17 DUP2 MSTORE PUSH1 0x20 ADD PUSH23 0x15DBDC9AD99B1BDDC8191BD95CC81B9BDD08195E1A5CDD PUSH1 0x4A SHL DUP2 MSTORE POP PUSH2 0x1A72 JUMP JUMPDEST PUSH0 DUP5 DUP5 PUSH1 0x40 MLOAD PUSH2 0x17EC SWAP3 SWAP2 SWAP1 PUSH2 0x3E04 JUMP JUMPDEST PUSH1 0x40 MLOAD SWAP1 DUP2 SWAP1 SUB SWAP1 KECCAK256 SWAP1 POP PUSH0 PUSH2 0x1803 PUSH1 0x10 DUP9 PUSH2 0x1AA7 JUMP JUMPDEST PUSH0 DUP4 DUP2 MSTORE PUSH1 0x4 PUSH1 0x20 SWAP1 DUP2 MSTORE PUSH1 0x40 DUP1 DUP4 KECCAK256 SLOAD PUSH1 0x1 PUSH1 0x1 PUSH1 0xA0 SHL SUB DUP6 AND DUP5 MSTORE PUSH1 0x8 DUP4 MSTORE DUP2 DUP5 KECCAK256 DUP13 DUP6 MSTORE DUP4 MSTORE DUP2 DUP5 KECCAK256 DUP2 DUP6 MSTORE PUSH1 0x5 DUP2 ADD SWAP1 SWAP4 MSTORE SWAP1 DUP4 KECCAK256 SWAP4 SWAP5 POP SWAP3 SWAP1 SWAP2 JUMPDEST DUP2 SLOAD DUP2 LT ISZERO PUSH2 0x198C JUMPI DUP6 DUP3 DUP3 DUP2 SLOAD DUP2 LT PUSH2 0x185F JUMPI PUSH2 0x185F PUSH2 0x4011 JUMP JUMPDEST SWAP1 PUSH0 MSTORE PUSH1 0x20 PUSH0 KECCAK256 SWAP1 PUSH1 0x5 MUL ADD PUSH0 ADD PUSH1 0x40 MLOAD PUSH2 0x187A SWAP2 SWAP1 PUSH2 0x4093 JUMP JUMPDEST PUSH1 0x40 MLOAD DUP1 SWAP2 SUB SWAP1 KECCAK256 SUB PUSH2 0x1984 JUMPI DUP2 DUP2 DUP2 SLOAD DUP2 LT PUSH2 0x1899 JUMPI PUSH2 0x1899 PUSH2 0x4011 JUMP JUMPDEST SWAP1 PUSH0 MSTORE PUSH1 0x20 PUSH0 KECCAK256 SWAP1 PUSH1 0x5 MUL ADD PUSH1 0x40 MLOAD DUP1 PUSH1 0xA0 ADD PUSH1 0x40 MSTORE SWAP1 DUP2 PUSH0 DUP3 ADD DUP1 SLOAD PUSH2 0x18BF SWAP1 PUSH2 0x3DAA JUMP JUMPDEST DUP1 PUSH1 0x1F ADD PUSH1 0x20 DUP1 SWAP2 DIV MUL PUSH1 0x20 ADD PUSH1 0x40 MLOAD SWAP1 DUP2 ADD PUSH1 0x40 MSTORE DUP1 SWAP3 SWAP2 SWAP1 DUP2 DUP2 MSTORE PUSH1 0x20 ADD DUP3 DUP1 SLOAD PUSH2 0x18EB SWAP1 PUSH2 0x3DAA JUMP JUMPDEST DUP1 ISZERO PUSH2 0x1936 JUMPI DUP1 PUSH1 0x1F LT PUSH2 0x190D JUMPI PUSH2 0x100 DUP1 DUP4 SLOAD DIV MUL DUP4 MSTORE SWAP2 PUSH1 0x20 ADD SWAP2 PUSH2 0x1936 JUMP JUMPDEST DUP3 ADD SWAP2 SWAP1 PUSH0 MSTORE PUSH1 0x20 PUSH0 KECCAK256 SWAP1 JUMPDEST DUP2 SLOAD DUP2 MSTORE SWAP1 PUSH1 0x1 ADD SWAP1 PUSH1 0x20 ADD DUP1 DUP4 GT PUSH2 0x1919 JUMPI DUP3 SWAP1 SUB PUSH1 0x1F AND DUP3 ADD SWAP2 JUMPDEST POP POP POP SWAP2 DUP4 MSTORE POP POP PUSH1 0x1 DUP3 ADD SLOAD PUSH1 0x1 PUSH1 0x1 PUSH1 0xA0 SHL SUB AND PUSH1 0x20 DUP3 ADD MSTORE PUSH1 0x2 DUP3 ADD SLOAD PUSH1 0x40 DUP3 ADD MSTORE PUSH1 0x3 DUP3 ADD SLOAD PUSH1 0xFF AND ISZERO ISZERO PUSH1 0x60 DUP3 ADD MSTORE PUSH1 0x4 SWAP1 SWAP2 ADD SLOAD PUSH1 0x80 SWAP1 SWAP2 ADD MSTORE SWAP8 POP PUSH2 0x19C4 SWAP6 POP POP POP POP POP POP JUMP JUMPDEST PUSH1 0x1 ADD PUSH2 0x1843 JUMP JUMPDEST POP PUSH2 0x19BE PUSH1 0x40 MLOAD DUP1 PUSH1 0x40 ADD PUSH1 0x40 MSTORE DUP1 PUSH1 0x10 DUP2 MSTORE PUSH1 0x20 ADD PUSH16 0x11195D9A58D9481B9BDD08199BDD5B99 PUSH1 0x82 SHL DUP2 MSTORE POP PUSH2 0x1A72 JUMP JUMPDEST POP POP POP POP POP JUMPDEST POP SWAP4 SWAP3 POP POP POP JUMP JUMPDEST PUSH1 0x2 PUSH1 0x1 SLOAD SUB PUSH2 0x1A23 JUMPI PUSH1 0x40 MLOAD PUSH3 0x461BCD PUSH1 0xE5 SHL DUP2 MSTORE PUSH1 0x20 PUSH1 0x4 DUP3 ADD MSTORE PUSH1 0x1F PUSH1 0x24 DUP3 ADD MSTORE PUSH32 0x5265656E7472616E637947756172643A207265656E7472616E742063616C6C00 PUSH1 0x44 DUP3 ADD MSTORE PUSH1 0x64 ADD JUMPDEST PUSH1 0x40 MLOAD DUP1 SWAP2 SUB SWAP1 REVERT JUMPDEST PUSH1 0x2 PUSH1 0x1 SSTORE JUMP JUMPDEST PUSH1 0x2 SLOAD PUSH1 0xFF AND ISZERO PUSH2 0x1A70 JUMPI PUSH1 0x40 MLOAD PUSH3 0x461BCD PUSH1 0xE5 SHL DUP2 MSTORE PUSH1 0x20 PUSH1 0x4 DUP3 ADD MSTORE PUSH1 0x10 PUSH1 0x24 DUP3 ADD MSTORE PUSH16 0x14185D5CD8589B194E881C185D5CD959 PUSH1 0x82 SHL PUSH1 0x44 DUP3 ADD MSTORE PUSH1 0x64 ADD PUSH2 0x1A1A JUMP JUMPDEST JUMP JUMPDEST DUP1 PUSH1 0x40 MLOAD PUSH4 0xD647364F PUSH1 0xE0 SHL DUP2 MSTORE PUSH1 0x4 ADD PUSH2 0x1A1A SWAP2 SWAP1 PUSH2 0x409E JUMP JUMPDEST DUP1 PUSH1 0x40 MLOAD PUSH3 0x1D3E7F PUSH1 0xE0 SHL DUP2 MSTORE PUSH1 0x4 ADD PUSH2 0x1A1A SWAP2 SWAP1 PUSH2 0x409E JUMP JUMPDEST PUSH0 SWAP1 DUP2 MSTORE PUSH1 0x20 SWAP2 SWAP1 SWAP2 MSTORE PUSH1 0x40 SWAP1 KECCAK256 PUSH1 0x7 ADD SLOAD PUSH1 0x1 PUSH1 0x1 PUSH1 0xA0 SHL SUB AND SWAP1 JUMP JUMPDEST PUSH0 DUP4 PUSH1 0x1 ADD DUP4 DUP4 PUSH1 0x40 MLOAD PUSH2 0x1ADA SWAP3 SWAP2 SWAP1 PUSH2 0x3E04 JUMP JUMPDEST SWAP1 DUP2 MSTORE PUSH1 0x40 MLOAD SWAP1 DUP2 SWAP1 SUB PUSH1 0x20 ADD SWAP1 KECCAK256 PUSH1 0x3 ADD SLOAD PUSH1 0xFF AND SWAP1 POP SWAP4 SWAP3 POP POP POP JUMP JUMPDEST DUP1 PUSH1 0x40 MLOAD PUSH4 0xA1B63CEB PUSH1 0xE0 SHL DUP2 MSTORE PUSH1 0x4 ADD PUSH2 0x1A1A SWAP2 SWAP1 PUSH2 0x409E JUMP JUMPDEST PUSH0 DUP5 PUSH1 0x2 ADD DUP5 DUP5 PUSH1 0x40 MLOAD PUSH2 0x1B29 SWAP3 SWAP2 SWAP1 PUSH2 0x3E04 JUMP JUMPDEST SWAP1 DUP2 MSTORE PUSH1 0x40 DUP1 MLOAD PUSH1 0x20 SWAP3 DUP2 SWAP1 SUB DUP4 ADD SWAP1 KECCAK256 PUSH0 DUP6 DUP2 MSTORE SWAP3 MSTORE SWAP1 KECCAK256 SLOAD PUSH1 0xFF AND SWAP1 POP JUMPDEST SWAP5 SWAP4 POP POP POP POP JUMP JUMPDEST PUSH0 DUP1 JUMPDEST PUSH1 0x4 DUP7 ADD SLOAD DUP2 LT ISZERO PUSH2 0x1D21 JUMPI PUSH0 DUP2 DUP2 MSTORE PUSH1 0x5 DUP8 ADD PUSH1 0x20 MSTORE PUSH1 0x40 DUP2 KECCAK256 SWAP1 JUMPDEST DUP2 SLOAD DUP2 LT ISZERO PUSH2 0x1D17 JUMPI DUP7 DUP7 PUSH1 0x40 MLOAD PUSH2 0x1B8A SWAP3 SWAP2 SWAP1 PUSH2 0x3E04 JUMP JUMPDEST PUSH1 0x40 MLOAD DUP1 SWAP2 SUB SWAP1 KECCAK256 DUP3 DUP3 DUP2 SLOAD DUP2 LT PUSH2 0x1BA4 JUMPI PUSH2 0x1BA4 PUSH2 0x4011 JUMP JUMPDEST SWAP1 PUSH0 MSTORE PUSH1 0x20 PUSH0 KECCAK256 SWAP1 PUSH1 0x5 MUL ADD PUSH0 ADD PUSH1 0x40 MLOAD PUSH2 0x1BBF SWAP2 SWAP1 PUSH2 0x4093 JUMP JUMPDEST PUSH1 0x40 MLOAD DUP1 SWAP2 SUB SWAP1 KECCAK256 SUB PUSH2 0x1D0F JUMPI DUP2 SLOAD PUSH2 0x1BDA SWAP1 PUSH1 0x1 SWAP1 PUSH2 0x3E27 JUMP JUMPDEST DUP2 EQ PUSH2 0x1C91 JUMPI DUP2 SLOAD DUP3 SWAP1 PUSH2 0x1BF0 SWAP1 PUSH1 0x1 SWAP1 PUSH2 0x3E27 JUMP JUMPDEST DUP2 SLOAD DUP2 LT PUSH2 0x1C00 JUMPI PUSH2 0x1C00 PUSH2 0x4011 JUMP JUMPDEST SWAP1 PUSH0 MSTORE PUSH1 0x20 PUSH0 KECCAK256 SWAP1 PUSH1 0x5 MUL ADD DUP3 DUP3 DUP2 SLOAD DUP2 LT PUSH2 0x1C1E JUMPI PUSH2 0x1C1E PUSH2 0x4011 JUMP JUMPDEST PUSH0 SWAP2 DUP3 MSTORE PUSH1 0x20 SWAP1 SWAP2 KECCAK256 PUSH1 0x5 SWAP1 SWAP2 MUL ADD DUP1 PUSH2 0x1C38 DUP4 DUP3 PUSH2 0x4108 JUMP JUMPDEST POP PUSH1 0x1 DUP3 DUP2 ADD SLOAD SWAP1 DUP3 ADD DUP1 SLOAD PUSH1 0x1 PUSH1 0x1 PUSH1 0xA0 SHL SUB NOT AND PUSH1 0x1 PUSH1 0x1 PUSH1 0xA0 SHL SUB SWAP1 SWAP3 AND SWAP2 SWAP1 SWAP2 OR SWAP1 SSTORE PUSH1 0x2 DUP1 DUP4 ADD SLOAD SWAP1 DUP3 ADD SSTORE PUSH1 0x3 DUP1 DUP4 ADD SLOAD SWAP1 DUP3 ADD DUP1 SLOAD PUSH1 0xFF SWAP1 SWAP3 AND ISZERO ISZERO PUSH1 0xFF NOT SWAP1 SWAP3 AND SWAP2 SWAP1 SWAP2 OR SWAP1 SSTORE PUSH1 0x4 SWAP2 DUP3 ADD SLOAD SWAP2 ADD SSTORE JUMPDEST DUP2 DUP1 SLOAD DUP1 PUSH2 0x1CA1 JUMPI PUSH2 0x1CA1 PUSH2 0x41D7 JUMP JUMPDEST PUSH0 DUP3 DUP2 MSTORE PUSH1 0x20 DUP2 KECCAK256 PUSH0 NOT SWAP1 SWAP3 ADD SWAP2 PUSH1 0x5 DUP4 MUL ADD SWAP1 PUSH2 0x1CBF DUP3 DUP3 PUSH2 0x37ED JUMP JUMPDEST POP PUSH1 0x1 DUP2 DUP2 ADD DUP1 SLOAD PUSH1 0x1 PUSH1 0x1 PUSH1 0xA0 SHL SUB NOT AND SWAP1 SSTORE PUSH0 PUSH1 0x2 DUP4 ADD DUP2 SWAP1 SSTORE PUSH1 0x3 DUP4 ADD DUP1 SLOAD PUSH1 0xFF NOT AND SWAP1 SSTORE PUSH1 0x4 SWAP1 SWAP3 ADD SWAP2 SWAP1 SWAP2 SSTORE SWAP2 SSTORE PUSH2 0x1CFD SWAP1 DUP7 SWAP1 PUSH2 0x3103 JUMP JUMPDEST PUSH1 0x2 DUP10 ADD SSTORE POP PUSH1 0x1 SWAP3 POP PUSH2 0x1B49 SWAP2 POP POP JUMP JUMPDEST PUSH1 0x1 ADD PUSH2 0x1B71 JUMP JUMPDEST POP POP PUSH1 0x1 ADD PUSH2 0x1B54 JUMP JUMPDEST POP PUSH0 SWAP6 SWAP5 POP POP POP POP POP JUMP JUMPDEST DUP1 PUSH1 0x40 MLOAD PUSH4 0x313CB67 PUSH1 0xE6 SHL DUP2 MSTORE PUSH1 0x4 ADD PUSH2 0x1A1A SWAP2 SWAP1 PUSH2 0x409E JUMP JUMPDEST PUSH1 0x1 PUSH1 0x1 PUSH1 0xA0 SHL SUB DUP3 AND PUSH0 SWAP1 DUP2 MSTORE PUSH1 0x8 PUSH1 0x20 SWAP1 DUP2 MSTORE PUSH1 0x40 DUP1 DUP4 KECCAK256 DUP5 DUP5 MSTORE DUP3 MSTORE DUP1 DUP4 KECCAK256 CALLER DUP5 MSTORE PUSH1 0x5 DUP4 MSTORE DUP2 DUP5 KECCAK256 DUP6 DUP6 MSTORE SWAP1 SWAP3 MSTORE DUP3 KECCAK256 PUSH1 0x2 DUP3 ADD SLOAD SWAP2 SWAP3 SWAP1 SWAP2 SWAP1 SUB PUSH2 0x1D98 JUMPI PUSH2 0x1D93 DUP2 PUSH2 0x310E JUMP JUMPDEST PUSH2 0xB59 JUMP JUMPDEST PUSH1 0x1 PUSH1 0x5 DUP3 ADD SLOAD PUSH1 0xFF AND PUSH1 0x2 DUP2 GT ISZERO PUSH2 0x1DB3 JUMPI PUSH2 0x1DB3 PUSH2 0x3BFF JUMP JUMPDEST EQ DUP1 ISZERO PUSH2 0x1DCF JUMPI POP PUSH1 0x3 DUP2 ADD SLOAD PUSH2 0x1DCC SWAP1 PUSH2 0xE10 PUSH2 0x41EB JUMP JUMPDEST TIMESTAMP GT JUMPDEST ISZERO PUSH2 0xB59 JUMPI PUSH1 0x5 DUP2 ADD DUP1 SLOAD PUSH1 0xFF NOT AND SWAP1 SSTORE PUSH0 PUSH1 0x3 DUP3 ADD DUP2 SWAP1 SSTORE PUSH1 0x4 SWAP1 SWAP2 ADD SSTORE POP POP POP JUMP JUMPDEST PUSH0 DUP1 DUP7 PUSH1 0x1 ADD DUP7 DUP7 PUSH1 0x40 MLOAD PUSH2 0x1E09 SWAP3 SWAP2 SWAP1 PUSH2 0x3E04 JUMP JUMPDEST SWAP1 DUP2 MSTORE PUSH1 0x40 MLOAD SWAP1 DUP2 SWAP1 SUB PUSH1 0x20 ADD DUP2 KECCAK256 PUSH1 0x3 ADD DUP1 SLOAD SWAP3 ISZERO ISZERO PUSH1 0xFF NOT SWAP1 SWAP4 AND SWAP3 SWAP1 SWAP3 OR SWAP1 SWAP2 SSTORE PUSH0 SWAP1 PUSH1 0x2 DUP9 ADD SWAP1 PUSH2 0x1E41 SWAP1 DUP9 SWAP1 DUP9 SWAP1 PUSH2 0x3E04 JUMP JUMPDEST SWAP1 DUP2 MSTORE PUSH1 0x20 ADD PUSH1 0x40 MLOAD DUP1 SWAP2 SUB SWAP1 KECCAK256 PUSH0 DUP6 DUP2 MSTORE PUSH1 0x20 ADD SWAP1 DUP2 MSTORE PUSH1 0x20 ADD PUSH0 KECCAK256 PUSH0 PUSH2 0x100 EXP DUP2 SLOAD DUP2 PUSH1 0xFF MUL NOT AND SWAP1 DUP4 ISZERO ISZERO MUL OR SWAP1 SSTORE POP PUSH2 0x1E84 DUP3 DUP7 DUP7 DUP6 PUSH1 0x2 ADD SLOAD PUSH2 0x1B51 JUMP JUMPDEST SWAP7 SWAP6 POP POP POP POP POP POP JUMP JUMPDEST PUSH0 DUP2 DUP2 MSTORE PUSH1 0x20 DUP4 SWAP1 MSTORE PUSH1 0x40 SWAP1 KECCAK256 PUSH1 0x3 ADD SLOAD ISZERO PUSH2 0x1126 JUMPI PUSH0 DUP2 DUP2 MSTORE PUSH1 0x20 DUP4 SWAP1 MSTORE PUSH1 0x40 DUP2 KECCAK256 PUSH1 0x3 ADD DUP1 SLOAD SWAP2 PUSH2 0x1EC0 DUP4 PUSH2 0x41FE JUMP JUMPDEST SWAP2 SWAP1 POP SSTORE POP POP POP JUMP JUMPDEST PUSH2 0x1ED1 PUSH2 0x374B JUMP JUMPDEST PUSH0 DUP3 DUP2 MSTORE PUSH1 0x20 DUP5 DUP2 MSTORE PUSH1 0x40 SWAP2 DUP3 SWAP1 KECCAK256 DUP3 MLOAD PUSH2 0x160 DUP2 ADD SWAP1 SWAP4 MSTORE DUP1 SLOAD DUP4 MSTORE PUSH1 0x1 DUP2 ADD DUP1 SLOAD SWAP2 SWAP3 DUP5 ADD SWAP2 PUSH2 0x1F02 SWAP1 PUSH2 0x3DAA JUMP JUMPDEST DUP1 PUSH1 0x1F ADD PUSH1 0x20 DUP1 SWAP2 DIV MUL PUSH1 0x20 ADD PUSH1 0x40 MLOAD SWAP1 DUP2 ADD PUSH1 0x40 MSTORE DUP1 SWAP3 SWAP2 SWAP1 DUP2 DUP2 MSTORE PUSH1 0x20 ADD DUP3 DUP1 SLOAD PUSH2 0x1F2E SWAP1 PUSH2 0x3DAA JUMP JUMPDEST DUP1 ISZERO PUSH2 0x1F79 JUMPI DUP1 PUSH1 0x1F LT PUSH2 0x1F50 JUMPI PUSH2 0x100 DUP1 DUP4 SLOAD DIV MUL DUP4 MSTORE SWAP2 PUSH1 0x20 ADD SWAP2 PUSH2 0x1F79 JUMP JUMPDEST DUP3 ADD SWAP2 SWAP1 PUSH0 MSTORE PUSH1 0x20 PUSH0 KECCAK256 SWAP1 JUMPDEST DUP2 SLOAD DUP2 MSTORE SWAP1 PUSH1 0x1 ADD SWAP1 PUSH1 0x20 ADD DUP1 DUP4 GT PUSH2 0x1F5C JUMPI DUP3 SWAP1 SUB PUSH1 0x1F AND DUP3 ADD SWAP2 JUMPDEST POP POP POP POP POP DUP2 MSTORE PUSH1 0x20 ADD PUSH1 0x2 DUP3 ADD DUP1 SLOAD PUSH2 0x1F92 SWAP1 PUSH2 0x3DAA JUMP JUMPDEST DUP1 PUSH1 0x1F ADD PUSH1 0x20 DUP1 SWAP2 DIV MUL PUSH1 0x20 ADD PUSH1 0x40 MLOAD SWAP1 DUP2 ADD PUSH1 0x40 MSTORE DUP1 SWAP3 SWAP2 SWAP1 DUP2 DUP2 MSTORE PUSH1 0x20 ADD DUP3 DUP1 SLOAD PUSH2 0x1FBE SWAP1 PUSH2 0x3DAA JUMP JUMPDEST DUP1 ISZERO PUSH2 0x2009 JUMPI DUP1 PUSH1 0x1F LT PUSH2 0x1FE0 JUMPI PUSH2 0x100 DUP1 DUP4 SLOAD DIV MUL DUP4 MSTORE SWAP2 PUSH1 0x20 ADD SWAP2 PUSH2 0x2009 JUMP JUMPDEST DUP3 ADD SWAP2 SWAP1 PUSH0 MSTORE PUSH1 0x20 PUSH0 KECCAK256 SWAP1 JUMPDEST DUP2 SLOAD DUP2 MSTORE SWAP1 PUSH1 0x1 ADD SWAP1 PUSH1 0x20 ADD DUP1 DUP4 GT PUSH2 0x1FEC JUMPI DUP3 SWAP1 SUB PUSH1 0x1F AND DUP3 ADD SWAP2 JUMPDEST POP POP POP SWAP2 DUP4 MSTORE POP POP PUSH1 0x3 DUP3 ADD SLOAD PUSH1 0x20 DUP3 ADD MSTORE PUSH1 0x4 DUP3 ADD SLOAD PUSH1 0x40 DUP3 ADD MSTORE PUSH1 0x5 DUP3 ADD SLOAD PUSH1 0x60 SWAP1 SWAP2 ADD SWAP1 PUSH1 0xFF AND PUSH1 0x2 DUP2 GT ISZERO PUSH2 0x2044 JUMPI PUSH2 0x2044 PUSH2 0x3BFF JUMP JUMPDEST PUSH1 0x2 DUP2 GT ISZERO PUSH2 0x2055 JUMPI PUSH2 0x2055 PUSH2 0x3BFF JUMP JUMPDEST DUP2 MSTORE PUSH1 0x6 DUP3 ADD SLOAD PUSH1 0x20 DUP3 ADD MSTORE PUSH1 0x7 DUP3 ADD SLOAD PUSH1 0x1 PUSH1 0x1 PUSH1 0xA0 SHL SUB AND PUSH1 0x40 DUP3 ADD MSTORE PUSH1 0x8 DUP3 ADD DUP1 SLOAD PUSH1 0x60 SWAP1 SWAP3 ADD SWAP2 PUSH2 0x2089 SWAP1 PUSH2 0x3DAA JUMP JUMPDEST DUP1 PUSH1 0x1F ADD PUSH1 0x20 DUP1 SWAP2 DIV MUL PUSH1 0x20 ADD PUSH1 0x40 MLOAD SWAP1 DUP2 ADD PUSH1 0x40 MSTORE DUP1 SWAP3 SWAP2 SWAP1 DUP2 DUP2 MSTORE PUSH1 0x20 ADD DUP3 DUP1 SLOAD PUSH2 0x20B5 SWAP1 PUSH2 0x3DAA JUMP JUMPDEST DUP1 ISZERO PUSH2 0x2100 JUMPI DUP1 PUSH1 0x1F LT PUSH2 0x20D7 JUMPI PUSH2 0x100 DUP1 DUP4 SLOAD DIV MUL DUP4 MSTORE SWAP2 PUSH1 0x20 ADD SWAP2 PUSH2 0x2100 JUMP JUMPDEST DUP3 ADD SWAP2 SWAP1 PUSH0 MSTORE PUSH1 0x20 PUSH0 KECCAK256 SWAP1 JUMPDEST DUP2 SLOAD DUP2 MSTORE SWAP1 PUSH1 0x1 ADD SWAP1 PUSH1 0x20 ADD DUP1 DUP4 GT PUSH2 0x20E3 JUMPI DUP3 SWAP1 SUB PUSH1 0x1F AND DUP3 ADD SWAP2 JUMPDEST POP POP POP POP POP DUP2 MSTORE PUSH1 0x20 ADD PUSH1 0x9 DUP3 ADD SLOAD DUP2 MSTORE PUSH1 0x20 ADD PUSH1 0xA DUP3 ADD SLOAD DUP2 MSTORE POP POP SWAP1 POP SWAP3 SWAP2 POP POP JUMP JUMPDEST PUSH1 0x3 DUP3 ADD SLOAD PUSH0 SWAP1 PUSH1 0xFF AND PUSH2 0x2173 JUMPI PUSH1 0x40 MLOAD PUSH4 0xA1B63CEB PUSH1 0xE0 SHL DUP2 MSTORE PUSH1 0x20 PUSH1 0x4 DUP3 ADD MSTORE PUSH1 0x14 PUSH1 0x24 DUP3 ADD MSTORE PUSH20 0x446576696365206973206E6F7420616374697665 PUSH1 0x60 SHL PUSH1 0x44 DUP3 ADD MSTORE PUSH1 0x64 ADD PUSH2 0x1A1A JUMP JUMPDEST DUP3 SLOAD PUSH1 0x1 PUSH1 0x1 PUSH1 0xA0 SHL SUB DUP4 DUP2 AND SWAP2 AND EQ PUSH2 0x21C1 JUMPI PUSH1 0x40 MLOAD PUSH4 0xA1B63CEB PUSH1 0xE0 SHL DUP2 MSTORE PUSH1 0x20 PUSH1 0x4 DUP3 ADD MSTORE PUSH1 0xE PUSH1 0x24 DUP3 ADD MSTORE PUSH14 0x24B73B30B634B21039B2B73232B9 PUSH1 0x91 SHL PUSH1 0x44 DUP3 ADD MSTORE PUSH1 0x64 ADD PUSH2 0x1A1A JUMP JUMPDEST POP PUSH1 0x1 SWAP3 SWAP2 POP POP JUMP JUMPDEST PUSH2 0x21D4 DUP2 DUP4 PUSH2 0x41EB JUMP JUMPDEST DUP4 LT DUP1 PUSH2 0x21E0 JUMPI POP DUP2 DUP4 EQ JUMPDEST ISZERO PUSH2 0x76C JUMPI PUSH1 0x40 MLOAD PUSH4 0xA1B63CEB PUSH1 0xE0 SHL DUP2 MSTORE PUSH1 0x20 PUSH1 0x4 DUP3 ADD MSTORE PUSH1 0x25 PUSH1 0x24 DUP3 ADD MSTORE PUSH32 0x457865637574696F6E20636F6F6C646F776E20706572696F64206E6F7420656C PUSH1 0x44 DUP3 ADD MSTORE PUSH5 0x185C1CD959 PUSH1 0xDA SHL PUSH1 0x64 DUP3 ADD MSTORE PUSH1 0x84 ADD PUSH2 0x1A1A JUMP JUMPDEST PUSH5 0x100000000 DUP2 LT PUSH2 0x2291 JUMPI PUSH1 0x40 MLOAD PUSH4 0xA1B63CEB PUSH1 0xE0 SHL DUP2 MSTORE PUSH1 0x20 PUSH1 0x4 DUP3 ADD MSTORE PUSH1 0x17 PUSH1 0x24 DUP3 ADD MSTORE PUSH32 0x457865637574696F6E206C696D69742072656163686564000000000000000000 PUSH1 0x44 DUP3 ADD MSTORE PUSH1 0x64 ADD PUSH2 0x1A1A JUMP JUMPDEST PUSH2 0x229D PUSH1 0x1 PUSH0 NOT PUSH2 0x3E27 JUMP JUMPDEST DUP2 LT PUSH2 0xBC4 JUMPI PUSH1 0x40 MLOAD PUSH3 0x461BCD PUSH1 0xE5 SHL DUP2 MSTORE PUSH1 0x20 PUSH1 0x4 DUP3 ADD DUP2 SWAP1 MSTORE PUSH1 0x24 DUP3 ADD MSTORE PUSH32 0x457865637574696F6E20636F756E74657220776F756C64206F766572666C6F77 PUSH1 0x44 DUP3 ADD MSTORE PUSH1 0x64 ADD PUSH2 0x1A1A JUMP JUMPDEST PUSH1 0x40 MLOAD PUSH0 SWAP1 TIMESTAMP SWAP1 DUP3 SWAP1 DUP7 SWAP1 PUSH2 0x2303 SWAP1 DUP8 SWAP1 DUP8 SWAP1 PUSH2 0x3E04 JUMP JUMPDEST SWAP1 DUP2 MSTORE PUSH1 0x40 MLOAD SWAP1 DUP2 SWAP1 SUB PUSH1 0x20 ADD SWAP1 KECCAK256 SLOAD SWAP1 POP PUSH0 PUSH2 0x2321 DUP3 PUSH1 0x1 PUSH2 0x41EB JUMP JUMPDEST SWAP1 POP DUP3 DUP8 PUSH1 0x1 ADD DUP8 DUP8 PUSH1 0x40 MLOAD PUSH2 0x2338 SWAP3 SWAP2 SWAP1 PUSH2 0x3E04 JUMP JUMPDEST SWAP1 DUP2 MSTORE PUSH1 0x40 MLOAD SWAP1 DUP2 SWAP1 SUB PUSH1 0x20 ADD DUP2 KECCAK256 SWAP2 SWAP1 SWAP2 SSTORE DUP2 SWAP1 DUP9 SWAP1 PUSH2 0x235C SWAP1 DUP10 SWAP1 DUP10 SWAP1 PUSH2 0x3E04 JUMP JUMPDEST SWAP1 DUP2 MSTORE PUSH1 0x40 MLOAD SWAP1 DUP2 SWAP1 SUB PUSH1 0x20 ADD SWAP1 KECCAK256 SSTORE SWAP3 POP POP POP SWAP4 SWAP3 POP POP POP JUMP JUMPDEST PUSH0 DUP5 DUP5 PUSH1 0x40 MLOAD PUSH2 0x2388 SWAP3 SWAP2 SWAP1 PUSH2 0x3E04 JUMP JUMPDEST PUSH1 0x40 DUP1 MLOAD SWAP2 DUP3 SWAP1 SUB SWAP1 SWAP2 KECCAK256 PUSH0 DUP2 DUP2 MSTORE PUSH1 0x20 DUP6 SWAP1 MSTORE SWAP2 SWAP1 SWAP2 KECCAK256 SLOAD PUSH1 0x4 DUP9 ADD SLOAD SWAP2 SWAP3 POP SWAP1 DUP2 LT PUSH2 0x23B7 JUMPI POP POP PUSH2 0x2444 JUMP JUMPDEST PUSH0 DUP2 DUP2 MSTORE PUSH1 0x5 DUP9 ADD PUSH1 0x20 MSTORE PUSH1 0x40 DUP2 KECCAK256 SWAP1 JUMPDEST DUP2 SLOAD DUP2 LT ISZERO PUSH2 0x243F JUMPI DUP4 DUP3 DUP3 DUP2 SLOAD DUP2 LT PUSH2 0x23E4 JUMPI PUSH2 0x23E4 PUSH2 0x4011 JUMP JUMPDEST SWAP1 PUSH0 MSTORE PUSH1 0x20 PUSH0 KECCAK256 SWAP1 PUSH1 0x5 MUL ADD PUSH0 ADD PUSH1 0x40 MLOAD PUSH2 0x23FF SWAP2 SWAP1 PUSH2 0x4093 JUMP JUMPDEST PUSH1 0x40 MLOAD DUP1 SWAP2 SUB SWAP1 KECCAK256 SUB PUSH2 0x2437 JUMPI DUP6 DUP3 DUP3 DUP2 SLOAD DUP2 LT PUSH2 0x241F JUMPI PUSH2 0x241F PUSH2 0x4011 JUMP JUMPDEST SWAP1 PUSH0 MSTORE PUSH1 0x20 PUSH0 KECCAK256 SWAP1 PUSH1 0x5 MUL ADD PUSH1 0x4 ADD DUP2 SWAP1 SSTORE POP PUSH2 0x243F JUMP JUMPDEST PUSH1 0x1 ADD PUSH2 0x23C8 JUMP JUMPDEST POP POP POP POP JUMPDEST POP POP POP POP POP JUMP JUMPDEST PUSH2 0xBC4 DUP2 CALLER PUSH2 0x314C JUMP JUMPDEST PUSH0 PUSH2 0x2460 DUP4 DUP4 PUSH2 0x107C JUMP JUMPDEST PUSH2 0x24DD JUMPI PUSH0 DUP4 DUP2 MSTORE PUSH1 0x20 DUP2 DUP2 MSTORE PUSH1 0x40 DUP1 DUP4 KECCAK256 PUSH1 0x1 PUSH1 0x1 PUSH1 0xA0 SHL SUB DUP7 AND DUP5 MSTORE SWAP1 SWAP2 MSTORE SWAP1 KECCAK256 DUP1 SLOAD PUSH1 0xFF NOT AND PUSH1 0x1 OR SWAP1 SSTORE PUSH2 0x2495 CALLER SWAP1 JUMP JUMPDEST PUSH1 0x1 PUSH1 0x1 PUSH1 0xA0 SHL SUB AND DUP3 PUSH1 0x1 PUSH1 0x1 PUSH1 0xA0 SHL SUB AND DUP5 PUSH32 0x2F8788117E7EFF1D82E926EC794901D17C78024A50270940304540A733656F0D PUSH1 0x40 MLOAD PUSH1 0x40 MLOAD DUP1 SWAP2 SUB SWAP1 LOG4 POP PUSH1 0x1 PUSH2 0x504 JUMP JUMPDEST POP PUSH0 PUSH2 0x504 JUMP JUMPDEST PUSH0 PUSH2 0x24EF DUP4 DUP4 PUSH2 0x107C JUMP JUMPDEST ISZERO PUSH2 0x24DD JUMPI PUSH0 DUP4 DUP2 MSTORE PUSH1 0x20 DUP2 DUP2 MSTORE PUSH1 0x40 DUP1 DUP4 KECCAK256 PUSH1 0x1 PUSH1 0x1 PUSH1 0xA0 SHL SUB DUP7 AND DUP1 DUP6 MSTORE SWAP3 MSTORE DUP1 DUP4 KECCAK256 DUP1 SLOAD PUSH1 0xFF NOT AND SWAP1 SSTORE MLOAD CALLER SWAP3 DUP7 SWAP2 PUSH32 0xF6391F5C32D9C69D2A47EA670B442974B53935D1EDC7FD64EB21E047A839171B SWAP2 SWAP1 LOG4 POP PUSH1 0x1 PUSH2 0x504 JUMP JUMPDEST PUSH2 0x2555 PUSH2 0x3185 JUMP JUMPDEST PUSH1 0x2 DUP1 SLOAD PUSH1 0xFF NOT AND SWAP1 SSTORE PUSH32 0x5DB9EE0A495BF2E6FF9C91A7834C1BA4FDD244A5E8AA4E537BD38AEAE4B073AA CALLER JUMPDEST PUSH1 0x40 MLOAD PUSH1 0x1 PUSH1 0x1 PUSH1 0xA0 SHL SUB SWAP1 SWAP2 AND DUP2 MSTORE PUSH1 0x20 ADD PUSH1 0x40 MLOAD DUP1 SWAP2 SUB SWAP1 LOG1 JUMP JUMPDEST DUP1 DUP3 LT PUSH2 0x1126 JUMPI PUSH1 0x40 MLOAD PUSH4 0xA1B63CEB PUSH1 0xE0 SHL DUP2 MSTORE PUSH1 0x20 PUSH1 0x4 DUP3 ADD MSTORE PUSH1 0x17 PUSH1 0x24 DUP3 ADD MSTORE PUSH32 0x496E76616C696420706172746974696F6E20696E646578000000000000000000 PUSH1 0x44 DUP3 ADD MSTORE PUSH1 0x64 ADD PUSH2 0x1A1A JUMP JUMPDEST PUSH1 0x1 PUSH1 0x1 PUSH1 0xA0 SHL SUB DUP4 AND PUSH0 SWAP1 DUP2 MSTORE PUSH1 0x8 PUSH1 0x20 SWAP1 DUP2 MSTORE PUSH1 0x40 DUP1 DUP4 KECCAK256 DUP6 DUP5 MSTORE DUP3 MSTORE DUP1 DUP4 KECCAK256 DUP5 DUP5 MSTORE PUSH1 0x5 ADD SWAP1 SWAP2 MSTORE DUP2 KECCAK256 DUP1 SLOAD PUSH1 0x60 SWAP3 SWAP1 PUSH1 0x1 PUSH1 0x1 PUSH1 0x40 SHL SUB DUP2 GT ISZERO PUSH2 0x2639 JUMPI PUSH2 0x2639 PUSH2 0x3E7C JUMP JUMPDEST PUSH1 0x40 MLOAD SWAP1 DUP1 DUP3 MSTORE DUP1 PUSH1 0x20 MUL PUSH1 0x20 ADD DUP3 ADD PUSH1 0x40 MSTORE DUP1 ISZERO PUSH2 0x2672 JUMPI DUP2 PUSH1 0x20 ADD JUMPDEST PUSH2 0x265F PUSH2 0x37B7 JUMP JUMPDEST DUP2 MSTORE PUSH1 0x20 ADD SWAP1 PUSH1 0x1 SWAP1 SUB SWAP1 DUP2 PUSH2 0x2657 JUMPI SWAP1 POP JUMPDEST POP SWAP1 POP PUSH0 JUMPDEST DUP3 SLOAD DUP2 LT ISZERO PUSH2 0x2796 JUMPI DUP3 DUP2 DUP2 SLOAD DUP2 LT PUSH2 0x2692 JUMPI PUSH2 0x2692 PUSH2 0x4011 JUMP JUMPDEST SWAP1 PUSH0 MSTORE PUSH1 0x20 PUSH0 KECCAK256 SWAP1 PUSH1 0x5 MUL ADD PUSH1 0x40 MLOAD DUP1 PUSH1 0xA0 ADD PUSH1 0x40 MSTORE SWAP1 DUP2 PUSH0 DUP3 ADD DUP1 SLOAD PUSH2 0x26B8 SWAP1 PUSH2 0x3DAA JUMP JUMPDEST DUP1 PUSH1 0x1F ADD PUSH1 0x20 DUP1 SWAP2 DIV MUL PUSH1 0x20 ADD PUSH1 0x40 MLOAD SWAP1 DUP2 ADD PUSH1 0x40 MSTORE DUP1 SWAP3 SWAP2 SWAP1 DUP2 DUP2 MSTORE PUSH1 0x20 ADD DUP3 DUP1 SLOAD PUSH2 0x26E4 SWAP1 PUSH2 0x3DAA JUMP JUMPDEST DUP1 ISZERO PUSH2 0x272F JUMPI DUP1 PUSH1 0x1F LT PUSH2 0x2706 JUMPI PUSH2 0x100 DUP1 DUP4 SLOAD DIV MUL DUP4 MSTORE SWAP2 PUSH1 0x20 ADD SWAP2 PUSH2 0x272F JUMP JUMPDEST DUP3 ADD SWAP2 SWAP1 PUSH0 MSTORE PUSH1 0x20 PUSH0 KECCAK256 SWAP1 JUMPDEST DUP2 SLOAD DUP2 MSTORE SWAP1 PUSH1 0x1 ADD SWAP1 PUSH1 0x20 ADD DUP1 DUP4 GT PUSH2 0x2712 JUMPI DUP3 SWAP1 SUB PUSH1 0x1F AND DUP3 ADD SWAP2 JUMPDEST POP POP POP SWAP2 DUP4 MSTORE POP POP PUSH1 0x1 DUP3 ADD SLOAD PUSH1 0x1 PUSH1 0x1 PUSH1 0xA0 SHL SUB AND PUSH1 0x20 DUP3 ADD MSTORE PUSH1 0x2 DUP3 ADD SLOAD PUSH1 0x40 DUP3 ADD MSTORE PUSH1 0x3 DUP3 ADD SLOAD PUSH1 0xFF AND ISZERO ISZERO PUSH1 0x60 DUP3 ADD MSTORE PUSH1 0x4 SWAP1 SWAP2 ADD SLOAD PUSH1 0x80 SWAP1 SWAP2 ADD MSTORE DUP3 MLOAD DUP4 SWAP1 DUP4 SWAP1 DUP2 LT PUSH2 0x2783 JUMPI PUSH2 0x2783 PUSH2 0x4011 JUMP JUMPDEST PUSH1 0x20 SWAP1 DUP2 MUL SWAP2 SWAP1 SWAP2 ADD ADD MSTORE PUSH1 0x1 ADD PUSH2 0x2677 JUMP JUMPDEST POP SWAP6 SWAP5 POP POP POP POP POP JUMP JUMPDEST DUP3 MLOAD PUSH0 SUB PUSH2 0x27E0 JUMPI DUP1 PUSH1 0x40 MLOAD PUSH1 0x20 ADD PUSH2 0x27B9 SWAP2 SWAP1 PUSH2 0x4213 JUMP JUMPDEST PUSH1 0x40 DUP1 MLOAD PUSH1 0x1F NOT DUP2 DUP5 SUB ADD DUP2 MSTORE SWAP1 DUP3 SWAP1 MSTORE PUSH4 0xA1B63CEB PUSH1 0xE0 SHL DUP3 MSTORE PUSH2 0x1A1A SWAP2 PUSH1 0x4 ADD PUSH2 0x409E JUMP JUMPDEST DUP2 DUP4 MLOAD GT ISZERO PUSH2 0x76C JUMPI DUP1 PUSH1 0x40 MLOAD PUSH1 0x20 ADD PUSH2 0x27B9 SWAP2 SWAP1 PUSH2 0x423E JUMP JUMPDEST DUP2 DUP4 LT DUP1 PUSH2 0x2807 JUMPI POP DUP1 DUP4 GT JUMPDEST ISZERO PUSH2 0x76C JUMPI PUSH1 0x40 MLOAD PUSH4 0xA1B63CEB PUSH1 0xE0 SHL DUP2 MSTORE PUSH1 0x20 PUSH1 0x4 DUP3 ADD MSTORE PUSH1 0x1A PUSH1 0x24 DUP3 ADD MSTORE PUSH32 0x496E76616C696420657865637574696F6E20696E74657276616C000000000000 PUSH1 0x44 DUP3 ADD MSTORE PUSH1 0x64 ADD PUSH2 0x1A1A JUMP JUMPDEST DUP4 MLOAD PUSH0 SWAP1 DUP2 MSTORE PUSH1 0x20 DUP7 SWAP1 MSTORE PUSH1 0x40 DUP2 KECCAK256 PUSH1 0x4 ADD SLOAD ISZERO PUSH2 0x28AB JUMPI PUSH1 0x40 MLOAD PUSH4 0x66910449 PUSH1 0xE0 SHL DUP2 MSTORE PUSH1 0x20 PUSH1 0x4 DUP3 ADD MSTORE PUSH1 0x12 PUSH1 0x24 DUP3 ADD MSTORE PUSH18 0x576F726B666C6F7720494420657869737473 PUSH1 0x70 SHL PUSH1 0x44 DUP3 ADD MSTORE PUSH1 0x64 ADD PUSH2 0x1A1A JUMP JUMPDEST PUSH1 0x40 MLOAD DUP1 PUSH2 0x160 ADD PUSH1 0x40 MSTORE DUP1 DUP7 PUSH0 ADD MLOAD DUP2 MSTORE PUSH1 0x20 ADD DUP7 PUSH1 0x20 ADD MLOAD DUP2 MSTORE PUSH1 0x20 ADD DUP7 PUSH1 0x40 ADD MLOAD DUP2 MSTORE PUSH1 0x20 ADD PUSH0 DUP2 MSTORE PUSH1 0x20 ADD TIMESTAMP DUP2 MSTORE PUSH1 0x20 ADD PUSH0 PUSH1 0x2 DUP2 GT ISZERO PUSH2 0x28F2 JUMPI PUSH2 0x28F2 PUSH2 0x3BFF JUMP JUMPDEST DUP2 MSTORE PUSH1 0x20 ADD DUP5 DUP2 MSTORE PUSH1 0x20 ADD DUP6 PUSH1 0x1 PUSH1 0x1 PUSH1 0xA0 SHL SUB AND DUP2 MSTORE PUSH1 0x20 ADD DUP7 PUSH1 0x60 ADD MLOAD DUP2 MSTORE PUSH1 0x20 ADD DUP4 DUP2 MSTORE PUSH1 0x20 ADD DUP7 PUSH1 0x80 ADD MLOAD DUP2 MSTORE POP DUP7 PUSH0 ADD PUSH0 DUP8 PUSH0 ADD MLOAD DUP2 MSTORE PUSH1 0x20 ADD SWAP1 DUP2 MSTORE PUSH1 0x20 ADD PUSH0 KECCAK256 PUSH0 DUP3 ADD MLOAD DUP2 PUSH0 ADD SSTORE PUSH1 0x20 DUP3 ADD MLOAD DUP2 PUSH1 0x1 ADD SWAP1 DUP2 PUSH2 0x2956 SWAP2 SWAP1 PUSH2 0x426C JUMP JUMPDEST POP PUSH1 0x40 DUP3 ADD MLOAD PUSH1 0x2 DUP3 ADD SWAP1 PUSH2 0x296B SWAP1 DUP3 PUSH2 0x426C JUMP JUMPDEST POP PUSH1 0x60 DUP3 ADD MLOAD PUSH1 0x3 DUP3 ADD SSTORE PUSH1 0x80 DUP3 ADD MLOAD PUSH1 0x4 DUP3 ADD SSTORE PUSH1 0xA0 DUP3 ADD MLOAD PUSH1 0x5 DUP3 ADD DUP1 SLOAD PUSH1 0xFF NOT AND PUSH1 0x1 DUP4 PUSH1 0x2 DUP2 GT ISZERO PUSH2 0x29A3 JUMPI PUSH2 0x29A3 PUSH2 0x3BFF JUMP JUMPDEST MUL OR SWAP1 SSTORE POP PUSH1 0xC0 DUP3 ADD MLOAD PUSH1 0x6 DUP3 ADD SSTORE PUSH1 0xE0 DUP3 ADD MLOAD PUSH1 0x7 DUP3 ADD DUP1 SLOAD PUSH1 0x1 PUSH1 0x1 PUSH1 0xA0 SHL SUB NOT AND PUSH1 0x1 PUSH1 0x1 PUSH1 0xA0 SHL SUB SWAP1 SWAP3 AND SWAP2 SWAP1 SWAP2 OR SWAP1 SSTORE PUSH2 0x100 DUP3 ADD MLOAD PUSH1 0x8 DUP3 ADD SWAP1 PUSH2 0x29ED SWAP1 DUP3 PUSH2 0x426C JUMP JUMPDEST POP PUSH2 0x120 DUP3 ADD MLOAD PUSH1 0x9 DUP3 ADD SSTORE PUSH2 0x140 SWAP1 SWAP2 ADD MLOAD PUSH1 0xA SWAP1 SWAP2 ADD SSTORE DUP5 MLOAD PUSH1 0x20 DUP7 ADD MLOAD PUSH1 0x60 DUP8 ADD MLOAD PUSH1 0x40 MLOAD PUSH32 0x6DF915C5AF2C5E4D6E9906FC27DFB18BB42B67D03E5CDB863393DEA18A7C7033 SWAP3 PUSH2 0x2A45 SWAP3 SWAP1 SWAP2 DUP10 SWAP2 SWAP1 PUSH2 0x4312 JUMP JUMPDEST PUSH1 0x40 MLOAD DUP1 SWAP2 SUB SWAP1 LOG2 POP POP SWAP2 MLOAD SWAP4 SWAP3 POP POP POP JUMP JUMPDEST PUSH1 0x1 PUSH1 0x1 PUSH1 0xA0 SHL SUB DUP3 AND PUSH0 SWAP1 DUP2 MSTORE PUSH1 0x8 PUSH1 0x20 SWAP1 DUP2 MSTORE PUSH1 0x40 DUP1 DUP4 KECCAK256 DUP5 DUP5 MSTORE SWAP1 SWAP2 MSTORE SWAP1 KECCAK256 DUP1 SLOAD PUSH1 0xFF AND PUSH2 0x2A9C JUMPI PUSH1 0x40 MLOAD PUSH4 0xEAC3AA0B PUSH1 0xE0 SHL DUP2 MSTORE PUSH1 0x4 ADD PUSH1 0x40 MLOAD DUP1 SWAP2 SUB SWAP1 REVERT JUMPDEST PUSH1 0x78 DUP2 PUSH1 0x1 ADD SLOAD PUSH2 0x2AAD SWAP2 SWAP1 PUSH2 0x41EB JUMP JUMPDEST TIMESTAMP GT PUSH2 0x2ACC JUMPI PUSH1 0x40 MLOAD PUSH4 0xA7550C3F PUSH1 0xE0 SHL DUP2 MSTORE PUSH1 0x4 ADD PUSH1 0x40 MLOAD DUP1 SWAP2 SUB SWAP1 REVERT JUMPDEST DUP1 SLOAD PUSH1 0xFF NOT AND DUP2 SSTORE PUSH0 PUSH1 0x1 DUP3 ADD DUP2 SWAP1 SSTORE PUSH1 0x40 MLOAD DUP4 SWAP2 PUSH1 0x1 PUSH1 0x1 PUSH1 0xA0 SHL SUB DUP7 AND SWAP2 PUSH32 0xAA004840F90269F5EA81B7BCB20124C08E35CCEF4F3548F1E8BD19F23438159F SWAP2 SWAP1 LOG3 POP POP POP JUMP JUMPDEST PUSH0 DUP4 PUSH1 0x4 ADD DUP4 DUP4 PUSH1 0x40 MLOAD PUSH2 0x2B2A SWAP3 SWAP2 SWAP1 PUSH2 0x3E04 JUMP JUMPDEST SWAP1 DUP2 MSTORE PUSH1 0x40 MLOAD SWAP1 DUP2 SWAP1 SUB PUSH1 0x20 ADD SWAP1 KECCAK256 SLOAD PUSH1 0x1 PUSH1 0x1 PUSH1 0xA0 SHL SUB AND SWAP1 POP SWAP4 SWAP3 POP POP POP JUMP JUMPDEST PUSH1 0x1 PUSH1 0x1 PUSH1 0xA0 SHL SUB DUP3 AND PUSH2 0x1126 JUMPI DUP1 PUSH1 0x40 MLOAD PUSH1 0x20 ADD PUSH2 0x27B9 SWAP2 SWAP1 PUSH2 0x4345 JUMP JUMPDEST PUSH0 DUP4 PUSH1 0x3 ADD DUP4 DUP4 PUSH1 0x40 MLOAD PUSH2 0x2B80 SWAP3 SWAP2 SWAP1 PUSH2 0x3E04 JUMP JUMPDEST SWAP1 DUP2 MSTORE PUSH1 0x40 MLOAD SWAP1 DUP2 SWAP1 SUB PUSH1 0x20 ADD DUP2 KECCAK256 SLOAD PUSH1 0xFF AND ISZERO SWAP1 PUSH1 0x3 DUP7 ADD SWAP1 PUSH2 0x2BA7 SWAP1 DUP7 SWAP1 DUP7 SWAP1 PUSH2 0x3E04 JUMP JUMPDEST SWAP1 DUP2 MSTORE PUSH1 0x40 MLOAD SWAP1 DUP2 SWAP1 SUB PUSH1 0x20 ADD DUP2 KECCAK256 DUP1 SLOAD SWAP3 ISZERO ISZERO PUSH1 0xFF NOT SWAP1 SWAP4 AND SWAP3 SWAP1 SWAP3 OR SWAP1 SWAP2 SSTORE PUSH1 0x3 DUP6 ADD SWAP1 PUSH2 0x2BDA SWAP1 DUP6 SWAP1 DUP6 SWAP1 PUSH2 0x3E04 JUMP JUMPDEST SWAP1 DUP2 MSTORE PUSH1 0x40 MLOAD SWAP1 DUP2 SWAP1 SUB PUSH1 0x20 ADD SWAP1 KECCAK256 SLOAD PUSH1 0xFF AND SWAP1 POP SWAP4 SWAP3 POP POP POP JUMP JUMPDEST PUSH2 0x2BFE PUSH2 0x1A2A JUMP JUMPDEST PUSH1 0x2 DUP1 SLOAD PUSH1 0xFF NOT AND PUSH1 0x1 OR SWAP1 SSTORE PUSH32 0x62E78CEA01BEE320CD4E420270B5EA74000D11B0C9F74754EBDBFC544B05A258 PUSH2 0x2582 CALLER SWAP1 JUMP JUMPDEST PUSH0 DUP4 PUSH1 0x3 ADD DUP4 DUP4 PUSH1 0x40 MLOAD PUSH2 0x2BDA SWAP3 SWAP2 SWAP1 PUSH2 0x3E04 JUMP JUMPDEST DUP1 DUP3 LT PUSH2 0x1126 JUMPI PUSH1 0x40 MLOAD PUSH4 0xA1B63CEB PUSH1 0xE0 SHL DUP2 MSTORE PUSH1 0x20 PUSH1 0x4 DUP3 ADD MSTORE PUSH1 0x14 PUSH1 0x24 DUP3 ADD MSTORE PUSH20 0x11195D9A58D9481B1A5B5A5D081C995858DA1959 PUSH1 0x62 SHL PUSH1 0x44 DUP3 ADD MSTORE PUSH1 0x64 ADD PUSH2 0x1A1A JUMP JUMPDEST PUSH2 0x2C97 PUSH2 0x37B7 JUMP JUMPDEST PUSH0 DUP3 DUP2 MSTORE PUSH1 0x6 DUP9 ADD PUSH1 0x20 SWAP1 DUP2 MSTORE PUSH1 0x40 DUP1 DUP4 KECCAK256 DUP1 SLOAD PUSH1 0x1 PUSH1 0xFF NOT SWAP2 DUP3 AND DUP2 OR SWAP1 SWAP3 SSTORE SWAP3 DUP12 SWAP1 MSTORE SWAP3 DUP2 SWAP1 KECCAK256 DUP1 SLOAD SWAP1 SWAP3 AND DUP4 OR SWAP1 SWAP2 SSTORE MLOAD PUSH1 0x2 DUP10 ADD SWAP1 PUSH2 0x2CDD SWAP1 DUP10 SWAP1 DUP10 SWAP1 PUSH2 0x3E04 JUMP JUMPDEST SWAP1 DUP2 MSTORE PUSH1 0x40 DUP1 MLOAD PUSH1 0x20 SWAP3 DUP2 SWAP1 SUB DUP4 ADD DUP2 KECCAK256 PUSH0 DUP9 DUP2 MSTORE SWAP4 MSTORE SWAP2 KECCAK256 DUP1 SLOAD PUSH1 0xFF NOT AND SWAP3 ISZERO ISZERO SWAP3 SWAP1 SWAP3 OR SWAP1 SWAP2 SSTORE DUP5 SWAP1 PUSH1 0x4 DUP10 ADD SWAP1 PUSH2 0x2D1A SWAP1 DUP10 SWAP1 DUP10 SWAP1 PUSH2 0x3E04 JUMP JUMPDEST SWAP1 DUP2 MSTORE PUSH1 0x40 DUP1 MLOAD PUSH1 0x20 SWAP3 DUP2 SWAP1 SUB DUP4 ADD SWAP1 KECCAK256 DUP1 SLOAD PUSH1 0x1 PUSH1 0x1 PUSH1 0xA0 SHL SUB NOT AND PUSH1 0x1 PUSH1 0x1 PUSH1 0xA0 SHL SUB SWAP5 DUP6 AND OR SWAP1 SSTORE SWAP2 DUP7 AND PUSH0 SWAP1 DUP2 MSTORE PUSH1 0x5 DUP11 ADD SWAP1 SWAP2 MSTORE KECCAK256 PUSH2 0x2D5F DUP7 DUP9 DUP4 PUSH2 0x437D JUMP JUMPDEST POP PUSH0 DUP8 PUSH1 0x1 ADD DUP8 DUP8 PUSH1 0x40 MLOAD PUSH2 0x2D75 SWAP3 SWAP2 SWAP1 PUSH2 0x3E04 JUMP JUMPDEST SWAP1 DUP2 MSTORE PUSH1 0x40 DUP1 MLOAD PUSH1 0x20 SWAP3 DUP2 SWAP1 SUB DUP4 ADD DUP2 KECCAK256 DUP1 SLOAD PUSH1 0x1 PUSH1 0x1 PUSH1 0xA0 SHL SUB NOT AND PUSH1 0x1 PUSH1 0x1 PUSH1 0xA0 SHL SUB DUP11 AND OR DUP2 SSTORE TIMESTAMP PUSH1 0x1 DUP1 DUP4 ADD DUP3 SWAP1 SSTORE PUSH1 0x2 DUP4 ADD SWAP2 SWAP1 SWAP2 SSTORE PUSH1 0x3 DUP3 ADD DUP1 SLOAD PUSH1 0xFF NOT SWAP1 DUP2 AND SWAP1 SWAP3 OR SWAP1 SSTORE PUSH0 DUP9 DUP2 MSTORE PUSH1 0x6 DUP15 ADD DUP7 MSTORE DUP5 SWAP1 KECCAK256 DUP1 SLOAD SWAP1 SWAP2 AND SWAP1 SSTORE PUSH1 0x1F DUP11 ADD DUP5 SWAP1 DIV SWAP1 SWAP4 MUL DUP2 ADD PUSH1 0xC0 SWAP1 DUP2 ADD SWAP1 SWAP3 MSTORE PUSH1 0xA0 DUP2 ADD DUP10 DUP2 MSTORE SWAP3 SWAP4 POP SWAP2 DUP3 SWAP2 DUP11 SWAP1 DUP11 SWAP1 DUP2 SWAP1 DUP6 ADD DUP4 DUP3 DUP1 DUP3 DUP5 CALLDATACOPY PUSH0 SWAP3 ADD DUP3 SWAP1 MSTORE POP SWAP4 DUP6 MSTORE POP POP POP PUSH1 0x1 PUSH1 0x1 PUSH1 0xA0 SHL SUB DUP9 AND PUSH1 0x20 DUP4 ADD MSTORE TIMESTAMP PUSH1 0x40 DUP4 ADD DUP2 SWAP1 MSTORE PUSH1 0x60 DUP4 ADD SWAP2 SWAP1 SWAP2 MSTORE PUSH1 0x80 SWAP1 SWAP2 ADD MSTORE SWAP2 POP POP SWAP7 SWAP6 POP POP POP POP POP POP JUMP JUMPDEST PUSH0 DUP2 DUP2 MSTORE PUSH1 0x20 DUP4 SWAP1 MSTORE PUSH1 0x40 DUP2 KECCAK256 PUSH1 0x3 ADD DUP1 SLOAD SWAP2 PUSH2 0x1EC0 DUP4 PUSH2 0x4431 JUMP JUMPDEST PUSH1 0x1 PUSH1 0x1 PUSH1 0xA0 SHL SUB DUP4 AND PUSH0 SWAP1 DUP2 MSTORE PUSH1 0x8 PUSH1 0x20 SWAP1 DUP2 MSTORE PUSH1 0x40 DUP1 DUP4 KECCAK256 DUP6 DUP5 MSTORE SWAP1 SWAP2 MSTORE SWAP1 KECCAK256 DUP1 SLOAD DUP5 SWAP2 DUP5 SWAP2 PUSH1 0xFF AND ISZERO PUSH2 0x2ECF JUMPI PUSH1 0x78 DUP2 PUSH1 0x1 ADD SLOAD TIMESTAMP PUSH2 0x2EA1 SWAP2 SWAP1 PUSH2 0x3E27 JUMP JUMPDEST LT ISZERO PUSH2 0x2EC0 JUMPI PUSH1 0x40 MLOAD PUSH4 0xF5F519BF PUSH1 0xE0 SHL DUP2 MSTORE PUSH1 0x4 ADD PUSH1 0x40 MLOAD DUP1 SWAP2 SUB SWAP1 REVERT JUMPDEST DUP1 SLOAD PUSH1 0xFF NOT AND DUP2 SSTORE PUSH0 PUSH1 0x1 DUP3 ADD SSTORE JUMPDEST DUP1 SLOAD PUSH1 0xFF NOT AND PUSH1 0x1 SWAP1 DUP2 OR DUP3 SSTORE TIMESTAMP SWAP1 DUP3 ADD SSTORE PUSH1 0x40 MLOAD DUP3 SWAP1 PUSH1 0x1 PUSH1 0x1 PUSH1 0xA0 SHL SUB DUP6 AND SWAP1 PUSH32 0xCE898ECADC9F6924B3113028EE92AE575BD48A726AAF0A91385D5A7A77CE7BA2 SWAP1 PUSH0 SWAP1 LOG3 PUSH1 0x1 PUSH1 0x1 PUSH1 0xA0 SHL SUB DUP7 AND PUSH0 DUP2 DUP2 MSTORE PUSH1 0x8 PUSH1 0x20 SWAP1 DUP2 MSTORE PUSH1 0x40 DUP1 DUP4 KECCAK256 DUP10 DUP5 MSTORE DUP3 MSTORE DUP1 DUP4 KECCAK256 SWAP4 DUP4 MSTORE PUSH1 0x5 DUP3 MSTORE DUP1 DUP4 KECCAK256 DUP10 DUP5 MSTORE SWAP1 SWAP2 MSTORE SWAP1 KECCAK256 PUSH1 0x2 DUP3 ADD SLOAD ISZERO DUP1 ISZERO SWAP1 PUSH2 0x2F6C JUMPI POP PUSH1 0x3 SLOAD PUSH1 0x2 DUP3 ADD SLOAD PUSH2 0x2F6A SWAP1 TIMESTAMP PUSH2 0x3E27 JUMP JUMPDEST GT JUMPDEST ISZERO PUSH2 0x2F7D JUMPI PUSH2 0x2F7B DUP3 DUP9 PUSH2 0x31CE JUMP JUMPDEST POP JUMPDEST PUSH0 PUSH2 0x2F87 DUP4 PUSH2 0x3587 JUMP JUMPDEST SWAP1 POP PUSH1 0xA DUP2 LT PUSH2 0x2FAA JUMPI PUSH1 0x40 MLOAD PUSH4 0x4D4F62AD PUSH1 0xE1 SHL DUP2 MSTORE PUSH1 0x4 ADD PUSH1 0x40 MLOAD DUP1 SWAP2 SUB SWAP1 REVERT JUMPDEST PUSH0 DUP2 DUP2 MSTORE PUSH1 0x5 DUP1 DUP6 ADD PUSH1 0x20 SWAP1 DUP2 MSTORE PUSH1 0x40 DUP4 KECCAK256 DUP1 SLOAD PUSH1 0x1 DUP2 ADD DUP3 SSTORE SWAP1 DUP5 MSTORE SWAP3 KECCAK256 DUP10 MLOAD DUP11 SWAP4 SWAP1 SWAP3 MUL ADD SWAP1 DUP2 SWAP1 PUSH2 0x2FDE SWAP1 DUP3 PUSH2 0x426C JUMP JUMPDEST POP PUSH1 0x20 DUP3 DUP2 ADD MLOAD PUSH1 0x1 DUP4 ADD DUP1 SLOAD PUSH1 0x1 PUSH1 0x1 PUSH1 0xA0 SHL SUB NOT AND PUSH1 0x1 PUSH1 0x1 PUSH1 0xA0 SHL SUB SWAP1 SWAP3 AND SWAP2 SWAP1 SWAP2 OR SWAP1 SSTORE PUSH1 0x40 DUP1 DUP5 ADD MLOAD PUSH1 0x2 DUP1 DUP6 ADD SWAP2 SWAP1 SWAP2 SSTORE PUSH1 0x60 DUP6 ADD MLOAD PUSH1 0x3 DUP6 ADD DUP1 SLOAD PUSH1 0xFF NOT AND SWAP2 ISZERO ISZERO SWAP2 SWAP1 SWAP2 OR SWAP1 SSTORE PUSH1 0x80 SWAP1 SWAP5 ADD MLOAD PUSH1 0x4 SWAP4 DUP5 ADD SSTORE DUP11 MLOAD DUP1 MLOAD SWAP1 DUP4 ADD KECCAK256 PUSH0 SWAP1 DUP2 MSTORE SWAP3 SWAP1 SWAP2 MSTORE DUP2 KECCAK256 DUP4 SWAP1 SSTORE SWAP1 DUP5 ADD DUP1 SLOAD SWAP2 PUSH2 0x305D DUP4 PUSH2 0x4431 JUMP JUMPDEST SWAP1 SWAP2 SSTORE POP POP DUP4 SLOAD PUSH1 0xFF NOT AND DUP5 SSTORE POP POP PUSH1 0x40 MLOAD DUP4 SWAP2 POP PUSH1 0x1 PUSH1 0x1 PUSH1 0xA0 SHL SUB DUP6 AND SWAP1 PUSH32 0xAA004840F90269F5EA81B7BCB20124C08E35CCEF4F3548F1E8BD19F23438159F SWAP1 PUSH0 SWAP1 LOG3 POP POP POP POP POP POP JUMP JUMPDEST PUSH2 0x30B5 DUP4 DUP4 DUP4 PUSH2 0x27FA JUMP JUMPDEST PUSH0 DUP5 DUP2 MSTORE PUSH1 0x20 DUP7 DUP2 MSTORE PUSH1 0x40 SWAP2 DUP3 SWAP1 KECCAK256 PUSH1 0xA ADD DUP6 SWAP1 SSTORE SWAP1 MLOAD DUP5 DUP2 MSTORE DUP6 SWAP2 PUSH32 0x76DB966EDAFDF2BED93A433CCD1A363344BED4383F40178727CB1ADE6EEFAFC8 SWAP2 ADD PUSH1 0x40 MLOAD DUP1 SWAP2 SUB SWAP1 LOG2 POP POP POP POP POP JUMP JUMPDEST PUSH0 PUSH2 0xB2E DUP3 DUP5 PUSH2 0x3E27 JUMP JUMPDEST PUSH0 DUP1 DUP3 SSTORE PUSH1 0x1 DUP1 DUP4 ADD DUP3 SWAP1 SSTORE TIMESTAMP PUSH1 0x2 DUP1 DUP6 ADD SWAP2 SWAP1 SWAP2 SSTORE PUSH1 0x3 DUP5 ADD DUP4 SWAP1 SSTORE PUSH1 0x4 DUP5 ADD SWAP3 SWAP1 SWAP3 SSTORE PUSH1 0x5 DUP4 ADD DUP1 SLOAD SWAP1 SWAP2 PUSH1 0xFF NOT SWAP1 SWAP2 AND SWAP1 DUP4 JUMPDEST MUL OR SWAP1 SSTORE POP POP JUMP JUMPDEST PUSH2 0x3156 DUP3 DUP3 PUSH2 0x107C JUMP JUMPDEST PUSH2 0x1126 JUMPI PUSH1 0x40 MLOAD PUSH4 0xE2517D3F PUSH1 0xE0 SHL DUP2 MSTORE PUSH1 0x1 PUSH1 0x1 PUSH1 0xA0 SHL SUB DUP3 AND PUSH1 0x4 DUP3 ADD MSTORE PUSH1 0x24 DUP2 ADD DUP4 SWAP1 MSTORE PUSH1 0x44 ADD PUSH2 0x1A1A JUMP JUMPDEST PUSH1 0x2 SLOAD PUSH1 0xFF AND PUSH2 0x1A70 JUMPI PUSH1 0x40 MLOAD PUSH3 0x461BCD PUSH1 0xE5 SHL DUP2 MSTORE PUSH1 0x20 PUSH1 0x4 DUP3 ADD MSTORE PUSH1 0x14 PUSH1 0x24 DUP3 ADD MSTORE PUSH20 0x14185D5CD8589B194E881B9BDD081C185D5CD959 PUSH1 0x62 SHL PUSH1 0x44 DUP3 ADD MSTORE PUSH1 0x64 ADD PUSH2 0x1A1A JUMP JUMPDEST CALLER PUSH0 SWAP1 DUP2 MSTORE PUSH1 0x5 PUSH1 0x20 SWAP1 DUP2 MSTORE PUSH1 0x40 DUP1 DUP4 KECCAK256 DUP5 DUP5 MSTORE SWAP1 SWAP2 MSTORE DUP2 KECCAK256 PUSH1 0x1 PUSH1 0x5 DUP3 ADD SLOAD PUSH1 0xFF AND PUSH1 0x2 DUP2 GT ISZERO PUSH2 0x3202 JUMPI PUSH2 0x3202 PUSH2 0x3BFF JUMP JUMPDEST EQ DUP1 ISZERO PUSH2 0x321F JUMPI POP PUSH1 0x3 DUP2 ADD SLOAD PUSH2 0x321B SWAP1 PUSH2 0xE10 PUSH2 0x41EB JUMP JUMPDEST TIMESTAMP GT ISZERO JUMPDEST ISZERO PUSH2 0x323D JUMPI PUSH1 0x40 MLOAD PUSH4 0x75275777 PUSH1 0xE1 SHL DUP2 MSTORE PUSH1 0x4 ADD PUSH1 0x40 MLOAD DUP1 SWAP2 SUB SWAP1 REVERT JUMPDEST PUSH1 0x32 DUP2 PUSH1 0x4 ADD SLOAD LT PUSH2 0x325C JUMPI PUSH2 0x3252 DUP2 PUSH2 0x365E JUMP JUMPDEST PUSH1 0x1 SWAP2 POP POP PUSH2 0x504 JUMP JUMPDEST PUSH0 GAS SWAP1 POP PUSH0 DUP1 PUSH1 0x3 SLOAD TIMESTAMP PUSH2 0x3270 SWAP2 SWAP1 PUSH2 0x3E27 JUMP JUMPDEST SWAP1 POP PUSH1 0x1 PUSH1 0x5 DUP6 ADD SLOAD PUSH1 0xFF AND PUSH1 0x2 DUP2 GT ISZERO PUSH2 0x328D JUMPI PUSH2 0x328D PUSH2 0x3BFF JUMP JUMPDEST EQ PUSH2 0x329B JUMPI PUSH2 0x329B DUP5 PUSH2 0x3688 JUMP JUMPDEST DUP4 SLOAD JUMPDEST PUSH1 0x4 DUP9 ADD SLOAD DUP2 LT DUP1 ISZERO PUSH2 0x32B1 JUMPI POP PUSH1 0x14 DUP4 LT JUMPDEST DUP1 ISZERO PUSH2 0x32C9 JUMPI POP PUSH3 0x30D40 GAS PUSH2 0x32C7 SWAP1 DUP7 PUSH2 0x3E27 JUMP JUMPDEST LT JUMPDEST ISZERO PUSH2 0x354C JUMPI PUSH0 DUP2 DUP2 MSTORE PUSH1 0x5 DUP10 ADD PUSH1 0x20 MSTORE PUSH1 0x40 SWAP1 KECCAK256 PUSH1 0x1 DUP7 ADD SLOAD JUMPDEST DUP2 SLOAD DUP2 LT DUP1 ISZERO PUSH2 0x32F3 JUMPI POP PUSH1 0x14 DUP6 LT JUMPDEST DUP1 ISZERO PUSH2 0x330B JUMPI POP PUSH3 0x30D40 GAS PUSH2 0x3309 SWAP1 DUP9 PUSH2 0x3E27 JUMP JUMPDEST LT JUMPDEST ISZERO PUSH2 0x352F JUMPI DUP4 DUP3 DUP3 DUP2 SLOAD DUP2 LT PUSH2 0x3323 JUMPI PUSH2 0x3323 PUSH2 0x4011 JUMP JUMPDEST SWAP1 PUSH0 MSTORE PUSH1 0x20 PUSH0 KECCAK256 SWAP1 PUSH1 0x5 MUL ADD PUSH1 0x4 ADD SLOAD LT ISZERO PUSH2 0x351D JUMPI DUP9 DUP3 DUP3 DUP2 SLOAD DUP2 LT PUSH2 0x334C JUMPI PUSH2 0x334C PUSH2 0x4011 JUMP JUMPDEST SWAP1 PUSH0 MSTORE PUSH1 0x20 PUSH0 KECCAK256 SWAP1 PUSH1 0x5 MUL ADD PUSH0 ADD PUSH1 0x40 MLOAD PUSH2 0x3367 SWAP2 SWAP1 PUSH2 0x4093 JUMP JUMPDEST PUSH1 0x40 MLOAD DUP1 SWAP2 SUB SWAP1 KECCAK256 PUSH32 0xD7AC20A75FD3931F3CED99A513A0A4FD6324176A1F4AF2E9E0CE70137A1082BF DUP5 DUP5 DUP2 SLOAD DUP2 LT PUSH2 0x33A2 JUMPI PUSH2 0x33A2 PUSH2 0x4011 JUMP JUMPDEST SWAP1 PUSH0 MSTORE PUSH1 0x20 PUSH0 KECCAK256 SWAP1 PUSH1 0x5 MUL ADD PUSH1 0x4 ADD SLOAD TIMESTAMP PUSH1 0x40 MLOAD PUSH2 0x33CA SWAP3 SWAP2 SWAP1 SWAP2 DUP3 MSTORE PUSH1 0x20 DUP3 ADD MSTORE PUSH1 0x40 ADD SWAP1 JUMP JUMPDEST PUSH1 0x40 MLOAD DUP1 SWAP2 SUB SWAP1 LOG3 DUP2 SLOAD PUSH2 0x33E0 SWAP1 PUSH1 0x1 SWAP1 PUSH2 0x3E27 JUMP JUMPDEST DUP2 LT ISZERO PUSH2 0x3498 JUMPI DUP2 SLOAD DUP3 SWAP1 PUSH2 0x33F7 SWAP1 PUSH1 0x1 SWAP1 PUSH2 0x3E27 JUMP JUMPDEST DUP2 SLOAD DUP2 LT PUSH2 0x3407 JUMPI PUSH2 0x3407 PUSH2 0x4011 JUMP JUMPDEST SWAP1 PUSH0 MSTORE PUSH1 0x20 PUSH0 KECCAK256 SWAP1 PUSH1 0x5 MUL ADD DUP3 DUP3 DUP2 SLOAD DUP2 LT PUSH2 0x3425 JUMPI PUSH2 0x3425 PUSH2 0x4011 JUMP JUMPDEST PUSH0 SWAP2 DUP3 MSTORE PUSH1 0x20 SWAP1 SWAP2 KECCAK256 PUSH1 0x5 SWAP1 SWAP2 MUL ADD DUP1 PUSH2 0x343F DUP4 DUP3 PUSH2 0x4108 JUMP JUMPDEST POP PUSH1 0x1 DUP3 DUP2 ADD SLOAD SWAP1 DUP3 ADD DUP1 SLOAD PUSH1 0x1 PUSH1 0x1 PUSH1 0xA0 SHL SUB NOT AND PUSH1 0x1 PUSH1 0x1 PUSH1 0xA0 SHL SUB SWAP1 SWAP3 AND SWAP2 SWAP1 SWAP2 OR SWAP1 SSTORE PUSH1 0x2 DUP1 DUP4 ADD SLOAD SWAP1 DUP3 ADD SSTORE PUSH1 0x3 DUP1 DUP4 ADD SLOAD SWAP1 DUP3 ADD DUP1 SLOAD PUSH1 0xFF SWAP1 SWAP3 AND ISZERO ISZERO PUSH1 0xFF NOT SWAP1 SWAP3 AND SWAP2 SWAP1 SWAP2 OR SWAP1 SSTORE PUSH1 0x4 SWAP2 DUP3 ADD SLOAD SWAP2 ADD SSTORE JUMPDEST DUP2 DUP1 SLOAD DUP1 PUSH2 0x34A8 JUMPI PUSH2 0x34A8 PUSH2 0x41D7 JUMP JUMPDEST PUSH0 DUP3 DUP2 MSTORE PUSH1 0x20 DUP2 KECCAK256 PUSH0 NOT SWAP1 SWAP3 ADD SWAP2 PUSH1 0x5 DUP4 MUL ADD SWAP1 PUSH2 0x34C6 DUP3 DUP3 PUSH2 0x37ED JUMP JUMPDEST POP PUSH1 0x1 DUP2 ADD DUP1 SLOAD PUSH1 0x1 PUSH1 0x1 PUSH1 0xA0 SHL SUB NOT AND SWAP1 SSTORE PUSH0 PUSH1 0x2 DUP1 DUP4 ADD DUP3 SWAP1 SSTORE PUSH1 0x3 DUP4 ADD DUP1 SLOAD PUSH1 0xFF NOT AND SWAP1 SSTORE PUSH1 0x4 SWAP1 SWAP3 ADD DUP2 SWAP1 SSTORE SWAP2 SWAP1 SWAP3 SSTORE SWAP1 DUP12 ADD DUP1 SLOAD SWAP2 PUSH2 0x3509 DUP4 PUSH2 0x41FE JUMP JUMPDEST SWAP2 SWAP1 POP SSTORE POP DUP5 DUP1 PUSH2 0x3519 SWAP1 PUSH2 0x4431 JUMP JUMPDEST SWAP6 POP POP JUMPDEST DUP1 PUSH2 0x3527 DUP2 PUSH2 0x4431 JUMP JUMPDEST SWAP2 POP POP PUSH2 0x32E3 JUMP JUMPDEST POP POP DUP1 DUP6 SSTORE PUSH0 PUSH1 0x1 DUP7 ADD SSTORE DUP1 PUSH2 0x3544 DUP2 PUSH2 0x4431 JUMP JUMPDEST SWAP2 POP POP PUSH2 0x329E JUMP JUMPDEST POP PUSH1 0x4 DUP8 ADD SLOAD PUSH2 0x355E SWAP1 PUSH1 0x1 SWAP1 PUSH2 0x3E27 JUMP JUMPDEST DUP5 SLOAD LT PUSH2 0x357B JUMPI PUSH2 0x356E DUP5 PUSH2 0x365E JUMP JUMPDEST PUSH1 0x1 SWAP5 POP POP POP POP POP PUSH2 0x504 JUMP JUMPDEST POP PUSH0 SWAP7 SWAP6 POP POP POP POP POP POP JUMP JUMPDEST PUSH0 DUP1 JUMPDEST PUSH1 0x4 DUP4 ADD SLOAD DUP2 LT ISZERO PUSH2 0x35F6 JUMPI DUP3 PUSH1 0x4 ADD DUP2 DUP2 SLOAD DUP2 LT PUSH2 0x35AB JUMPI PUSH2 0x35AB PUSH2 0x4011 JUMP JUMPDEST PUSH0 SWAP2 DUP3 MSTORE PUSH1 0x20 SWAP1 SWAP2 KECCAK256 PUSH1 0x2 PUSH1 0x3 SWAP1 SWAP3 MUL ADD ADD SLOAD PUSH1 0xFF AND ISZERO DUP1 ISZERO PUSH2 0x35DD JUMPI POP PUSH0 DUP2 DUP2 MSTORE PUSH1 0x5 DUP5 ADD PUSH1 0x20 MSTORE PUSH1 0x40 SWAP1 KECCAK256 SLOAD PUSH1 0x64 GT JUMPDEST ISZERO PUSH2 0x35EE JUMPI PUSH1 0x3 SWAP1 SWAP3 ADD DUP3 SWAP1 SSTORE POP SWAP1 JUMP JUMPDEST PUSH1 0x1 ADD PUSH2 0x358A JUMP JUMPDEST POP PUSH0 JUMPDEST PUSH1 0x4 DUP4 ADD SLOAD DUP2 LT ISZERO PUSH2 0x362F JUMPI PUSH0 DUP2 DUP2 MSTORE PUSH1 0x5 DUP5 ADD PUSH1 0x20 MSTORE PUSH1 0x40 DUP2 KECCAK256 SLOAD SWAP1 SUB PUSH2 0x3627 JUMPI PUSH1 0x3 SWAP1 SWAP3 ADD DUP3 SWAP1 SSTORE POP SWAP1 JUMP JUMPDEST PUSH1 0x1 ADD PUSH2 0x35F9 JUMP JUMPDEST POP PUSH1 0x4 DUP3 ADD SLOAD PUSH1 0xA GT PUSH2 0x3655 JUMPI PUSH1 0x40 MLOAD PUSH4 0xFE6D8F29 PUSH1 0xE0 SHL DUP2 MSTORE PUSH1 0x4 ADD PUSH1 0x40 MLOAD DUP1 SWAP2 SUB SWAP1 REVERT JUMPDEST PUSH2 0x504 DUP3 PUSH2 0x36A9 JUMP JUMPDEST PUSH1 0x5 DUP2 ADD DUP1 SLOAD PUSH1 0xFF NOT AND PUSH1 0x2 SWAP1 DUP2 OR SWAP1 SWAP2 SSTORE TIMESTAMP SWAP1 DUP3 ADD SSTORE PUSH0 DUP1 DUP3 SSTORE PUSH1 0x1 DUP3 ADD DUP2 SWAP1 SSTORE PUSH1 0x4 SWAP1 SWAP2 ADD SSTORE JUMP JUMPDEST TIMESTAMP PUSH1 0x3 DUP3 ADD SSTORE PUSH0 PUSH1 0x4 DUP3 ADD SSTORE PUSH1 0x5 DUP2 ADD DUP1 SLOAD PUSH1 0x1 SWAP2 SWAP1 PUSH1 0xFF NOT AND DUP3 DUP1 PUSH2 0x3144 JUMP JUMPDEST PUSH1 0x4 DUP2 ADD DUP1 SLOAD PUSH1 0x40 DUP1 MLOAD PUSH1 0x60 DUP2 ADD DUP3 MSTORE TIMESTAMP DUP1 DUP3 MSTORE PUSH0 PUSH1 0x20 DUP1 DUP5 ADD DUP3 DUP2 MSTORE DUP5 DUP7 ADD DUP4 DUP2 MSTORE PUSH1 0x1 DUP1 DUP10 ADD DUP11 SSTORE SWAP9 DUP5 MSTORE DUP3 DUP5 KECCAK256 SWAP6 MLOAD PUSH1 0x3 DUP1 DUP11 MUL SWAP1 SWAP8 ADD SWAP1 DUP2 SSTORE SWAP2 MLOAD SWAP9 DUP3 ADD SWAP9 SWAP1 SWAP9 SSTORE SWAP7 MLOAD PUSH1 0x2 SWAP1 SWAP8 ADD DUP1 SLOAD PUSH1 0xFF NOT AND SWAP8 ISZERO ISZERO SWAP8 SWAP1 SWAP8 OR SWAP1 SWAP7 SSTORE SWAP2 DUP7 ADD DUP5 SWAP1 SSTORE DUP3 MLOAD SWAP1 DUP2 MSTORE SWAP4 DUP5 ADD DUP2 SWAP1 MSTORE SWAP3 DUP3 SWAP2 PUSH32 0xA713BCA924DE7AD0AB23342813A8BCC71A1F707AC80DB4ABA117E9037BBACFCF SWAP2 ADD PUSH1 0x40 MLOAD DUP1 SWAP2 SUB SWAP1 LOG2 SWAP3 SWAP2 POP POP JUMP JUMPDEST PUSH1 0x40 MLOAD DUP1 PUSH2 0x160 ADD PUSH1 0x40 MSTORE DUP1 PUSH0 DUP2 MSTORE PUSH1 0x20 ADD PUSH1 0x60 DUP2 MSTORE PUSH1 0x20 ADD PUSH1 0x60 DUP2 MSTORE PUSH1 0x20 ADD PUSH0 DUP2 MSTORE PUSH1 0x20 ADD PUSH0 DUP2 MSTORE PUSH1 0x20 ADD PUSH0 PUSH1 0x2 DUP2 GT ISZERO PUSH2 0x3789 JUMPI PUSH2 0x3789 PUSH2 0x3BFF JUMP JUMPDEST DUP2 MSTORE PUSH1 0x20 ADD PUSH0 DUP2 MSTORE PUSH1 0x20 ADD PUSH0 PUSH1 0x1 PUSH1 0x1 PUSH1 0xA0 SHL SUB AND DUP2 MSTORE PUSH1 0x20 ADD PUSH1 0x60 DUP2 MSTORE PUSH1 0x20 ADD PUSH0 DUP2 MSTORE PUSH1 0x20 ADD PUSH0 DUP2 MSTORE POP SWAP1 JUMP JUMPDEST PUSH1 0x40 MLOAD DUP1 PUSH1 0xA0 ADD PUSH1 0x40 MSTORE DUP1 PUSH1 0x60 DUP2 MSTORE PUSH1 0x20 ADD PUSH0 PUSH1 0x1 PUSH1 0x1 PUSH1 0xA0 SHL SUB AND DUP2 MSTORE PUSH1 0x20 ADD PUSH0 DUP2 MSTORE PUSH1 0x20 ADD PUSH0 ISZERO ISZERO DUP2 MSTORE PUSH1 0x20 ADD PUSH0 DUP2 MSTORE POP SWAP1 JUMP JUMPDEST POP DUP1 SLOAD PUSH2 0x37F9 SWAP1 PUSH2 0x3DAA JUMP JUMPDEST PUSH0 DUP3 SSTORE DUP1 PUSH1 0x1F LT PUSH2 0x3808 JUMPI POP POP JUMP JUMPDEST PUSH1 0x1F ADD PUSH1 0x20 SWAP1 DIV SWAP1 PUSH0 MSTORE PUSH1 0x20 PUSH0 KECCAK256 SWAP1 DUP2 ADD SWAP1 PUSH2 0xBC4 SWAP2 SWAP1 JUMPDEST DUP1 DUP3 GT ISZERO PUSH2 0x3833 JUMPI PUSH0 DUP2 SSTORE PUSH1 0x1 ADD PUSH2 0x3820 JUMP JUMPDEST POP SWAP1 JUMP JUMPDEST PUSH0 PUSH1 0x20 DUP3 DUP5 SUB SLT ISZERO PUSH2 0x3847 JUMPI PUSH0 DUP1 REVERT JUMPDEST DUP2 CALLDATALOAD PUSH1 0x1 PUSH1 0x1 PUSH1 0xE0 SHL SUB NOT DUP2 AND DUP2 EQ PUSH2 0xB2E JUMPI PUSH0 DUP1 REVERT JUMPDEST PUSH0 DUP1 DUP4 PUSH1 0x1F DUP5 ADD SLT PUSH2 0x386E JUMPI PUSH0 DUP1 REVERT JUMPDEST POP DUP2 CALLDATALOAD PUSH1 0x1 PUSH1 0x1 PUSH1 0x40 SHL SUB DUP2 GT ISZERO PUSH2 0x3884 JUMPI PUSH0 DUP1 REVERT JUMPDEST PUSH1 0x20 DUP4 ADD SWAP2 POP DUP4 PUSH1 0x20 DUP3 DUP6 ADD ADD GT ISZERO PUSH2 0x389B JUMPI PUSH0 DUP1 REVERT JUMPDEST SWAP3 POP SWAP3 SWAP1 POP JUMP JUMPDEST PUSH0 DUP1 PUSH0 PUSH1 0x40 DUP5 DUP7 SUB SLT ISZERO PUSH2 0x38B4 JUMPI PUSH0 DUP1 REVERT JUMPDEST DUP4 CALLDATALOAD SWAP3 POP PUSH1 0x20 DUP5 ADD CALLDATALOAD PUSH1 0x1 PUSH1 0x1 PUSH1 0x40 SHL SUB DUP2 GT ISZERO PUSH2 0x38D0 JUMPI PUSH0 DUP1 REVERT JUMPDEST PUSH2 0x38DC DUP7 DUP3 DUP8 ADD PUSH2 0x385E JUMP JUMPDEST SWAP5 SWAP8 SWAP1 SWAP7 POP SWAP4 SWAP5 POP POP POP POP JUMP JUMPDEST PUSH0 PUSH1 0x20 DUP3 DUP5 SUB SLT ISZERO PUSH2 0x38F9 JUMPI PUSH0 DUP1 REVERT JUMPDEST POP CALLDATALOAD SWAP2 SWAP1 POP JUMP JUMPDEST DUP1 CALLDATALOAD PUSH1 0x1 PUSH1 0x1 PUSH1 0xA0 SHL SUB DUP2 AND DUP2 EQ PUSH2 0xDE2 JUMPI PUSH0 DUP1 REVERT JUMPDEST PUSH0 DUP1 PUSH1 0x40 DUP4 DUP6 SUB SLT ISZERO PUSH2 0x3927 JUMPI PUSH0 DUP1 REVERT JUMPDEST PUSH2 0x3930 DUP4 PUSH2 0x3900 JUMP JUMPDEST SWAP5 PUSH1 0x20 SWAP4 SWAP1 SWAP4 ADD CALLDATALOAD SWAP4 POP POP POP JUMP JUMPDEST PUSH0 PUSH1 0x20 DUP3 DUP5 SUB SLT ISZERO PUSH2 0x394E JUMPI PUSH0 DUP1 REVERT JUMPDEST PUSH2 0xB2E DUP3 PUSH2 0x3900 JUMP JUMPDEST PUSH0 DUP1 PUSH0 PUSH1 0x40 DUP5 DUP7 SUB SLT ISZERO PUSH2 0x3969 JUMPI PUSH0 DUP1 REVERT JUMPDEST DUP4 CALLDATALOAD PUSH1 0x1 PUSH1 0x1 PUSH1 0x40 SHL SUB DUP2 GT ISZERO PUSH2 0x397E JUMPI PUSH0 DUP1 REVERT JUMPDEST PUSH2 0x398A DUP7 DUP3 DUP8 ADD PUSH2 0x385E JUMP JUMPDEST SWAP1 SWAP8 SWAP1 SWAP7 POP PUSH1 0x20 SWAP6 SWAP1 SWAP6 ADD CALLDATALOAD SWAP5 SWAP4 POP POP POP POP JUMP JUMPDEST PUSH0 DUP1 PUSH1 0x40 DUP4 DUP6 SUB SLT ISZERO PUSH2 0x39AF JUMPI PUSH0 DUP1 REVERT JUMPDEST DUP3 CALLDATALOAD SWAP2 POP PUSH2 0x39BF PUSH1 0x20 DUP5 ADD PUSH2 0x3900 JUMP JUMPDEST SWAP1 POP SWAP3 POP SWAP3 SWAP1 POP JUMP JUMPDEST PUSH0 DUP1 PUSH0 PUSH1 0x60 DUP5 DUP7 SUB SLT ISZERO PUSH2 0x39DA JUMPI PUSH0 DUP1 REVERT JUMPDEST DUP4 CALLDATALOAD SWAP3 POP PUSH2 0x39EA PUSH1 0x20 DUP6 ADD PUSH2 0x3900 JUMP JUMPDEST SWAP3 SWAP6 SWAP3 SWAP5 POP POP POP PUSH1 0x40 SWAP2 SWAP1 SWAP2 ADD CALLDATALOAD SWAP1 JUMP JUMPDEST PUSH0 DUP2 MLOAD DUP1 DUP5 MSTORE DUP1 PUSH1 0x20 DUP5 ADD PUSH1 0x20 DUP7 ADD MCOPY PUSH0 PUSH1 0x20 DUP3 DUP7 ADD ADD MSTORE PUSH1 0x20 PUSH1 0x1F NOT PUSH1 0x1F DUP4 ADD AND DUP6 ADD ADD SWAP2 POP POP SWAP3 SWAP2 POP POP JUMP JUMPDEST PUSH0 DUP2 MLOAD PUSH1 0xA0 DUP5 MSTORE PUSH2 0x3A3D PUSH1 0xA0 DUP6 ADD DUP3 PUSH2 0x39FB JUMP JUMPDEST PUSH1 0x20 DUP5 DUP2 ADD MLOAD PUSH1 0x1 PUSH1 0x1 PUSH1 0xA0 SHL SUB AND SWAP1 DUP7 ADD MSTORE PUSH1 0x40 DUP1 DUP6 ADD MLOAD SWAP1 DUP7 ADD MSTORE PUSH1 0x60 DUP1 DUP6 ADD MLOAD ISZERO ISZERO SWAP1 DUP7 ADD MSTORE PUSH1 0x80 SWAP4 DUP5 ADD MLOAD SWAP4 SWAP1 SWAP5 ADD SWAP3 SWAP1 SWAP3 MSTORE POP SWAP1 SWAP2 SWAP1 POP JUMP JUMPDEST PUSH1 0x20 DUP2 MSTORE PUSH0 PUSH1 0xC0 DUP3 ADD DUP4 MLOAD PUSH1 0xA0 PUSH1 0x20 DUP6 ADD MSTORE DUP2 DUP2 MLOAD DUP1 DUP5 MSTORE PUSH1 0xE0 DUP7 ADD SWAP2 POP PUSH1 0xE0 DUP2 PUSH1 0x5 SHL DUP8 ADD ADD SWAP4 POP PUSH1 0x20 DUP4 ADD SWAP3 POP PUSH0 JUMPDEST DUP2 DUP2 LT ISZERO PUSH2 0x3ADD JUMPI PUSH1 0xDF NOT DUP8 DUP7 SUB ADD DUP4 MSTORE PUSH2 0x3AC8 DUP6 DUP6 MLOAD PUSH2 0x3A29 JUMP JUMPDEST SWAP5 POP PUSH1 0x20 SWAP4 DUP5 ADD SWAP4 SWAP3 SWAP1 SWAP3 ADD SWAP2 PUSH1 0x1 ADD PUSH2 0x3AAC JUMP JUMPDEST POP POP POP POP PUSH1 0x20 DUP5 ADD MLOAD PUSH1 0x40 DUP5 ADD MSTORE PUSH1 0x40 DUP5 ADD MLOAD PUSH1 0x60 DUP5 ADD MSTORE PUSH1 0x60 DUP5 ADD MLOAD PUSH1 0x80 DUP5 ADD MSTORE PUSH1 0x80 DUP5 ADD MLOAD PUSH2 0x19C4 PUSH1 0xA0 DUP6 ADD DUP3 ISZERO ISZERO SWAP1 MSTORE JUMP JUMPDEST PUSH0 PUSH1 0x20 DUP3 DUP5 SUB SLT ISZERO PUSH2 0x3B22 JUMPI PUSH0 DUP1 REVERT JUMPDEST DUP2 CALLDATALOAD PUSH1 0x1 PUSH1 0x1 PUSH1 0x40 SHL SUB DUP2 GT ISZERO PUSH2 0x3B37 JUMPI PUSH0 DUP1 REVERT JUMPDEST DUP3 ADD PUSH1 0xA0 DUP2 DUP6 SUB SLT ISZERO PUSH2 0xB2E JUMPI PUSH0 DUP1 REVERT JUMPDEST PUSH0 DUP1 PUSH1 0x20 DUP4 DUP6 SUB SLT ISZERO PUSH2 0x3B59 JUMPI PUSH0 DUP1 REVERT JUMPDEST DUP3 CALLDATALOAD PUSH1 0x1 PUSH1 0x1 PUSH1 0x40 SHL SUB DUP2 GT ISZERO PUSH2 0x3B6E JUMPI PUSH0 DUP1 REVERT JUMPDEST PUSH2 0x3B7A DUP6 DUP3 DUP7 ADD PUSH2 0x385E JUMP JUMPDEST SWAP1 SWAP7 SWAP1 SWAP6 POP SWAP4 POP POP POP POP JUMP JUMPDEST PUSH0 DUP1 PUSH0 DUP1 PUSH1 0x60 DUP6 DUP8 SUB SLT ISZERO PUSH2 0x3B99 JUMPI PUSH0 DUP1 REVERT JUMPDEST DUP5 CALLDATALOAD SWAP4 POP PUSH1 0x20 DUP6 ADD CALLDATALOAD PUSH1 0x1 PUSH1 0x1 PUSH1 0x40 SHL SUB DUP2 GT ISZERO PUSH2 0x3BB5 JUMPI PUSH0 DUP1 REVERT JUMPDEST PUSH2 0x3BC1 DUP8 DUP3 DUP9 ADD PUSH2 0x385E JUMP JUMPDEST SWAP1 SWAP5 POP SWAP3 POP PUSH2 0x3BD4 SWAP1 POP PUSH1 0x40 DUP7 ADD PUSH2 0x3900 JUMP JUMPDEST SWAP1 POP SWAP3 SWAP6 SWAP2 SWAP5 POP SWAP3 POP JUMP JUMPDEST PUSH0 DUP1 PUSH1 0x40 DUP4 DUP6 SUB SLT ISZERO PUSH2 0x3BF0 JUMPI PUSH0 DUP1 REVERT JUMPDEST POP POP DUP1 CALLDATALOAD SWAP3 PUSH1 0x20 SWAP1 SWAP2 ADD CALLDATALOAD SWAP2 POP JUMP JUMPDEST PUSH4 0x4E487B71 PUSH1 0xE0 SHL PUSH0 MSTORE PUSH1 0x21 PUSH1 0x4 MSTORE PUSH1 0x24 PUSH0 REVERT JUMPDEST PUSH1 0x3 DUP2 LT PUSH2 0x3C2F JUMPI PUSH4 0x4E487B71 PUSH1 0xE0 SHL PUSH0 MSTORE PUSH1 0x21 PUSH1 0x4 MSTORE PUSH1 0x24 PUSH0 REVERT JUMPDEST SWAP1 MSTORE JUMP JUMPDEST PUSH0 DUP2 MLOAD DUP1 DUP5 MSTORE PUSH1 0x20 DUP5 ADD SWAP4 POP PUSH1 0x20 DUP4 ADD PUSH0 JUMPDEST DUP3 DUP2 LT ISZERO PUSH2 0x3C63 JUMPI DUP2 MLOAD DUP7 MSTORE PUSH1 0x20 SWAP6 DUP7 ADD SWAP6 SWAP1 SWAP2 ADD SWAP1 PUSH1 0x1 ADD PUSH2 0x3C45 JUMP JUMPDEST POP SWAP4 SWAP5 SWAP4 POP POP POP POP JUMP JUMPDEST PUSH1 0x80 DUP2 MSTORE DUP5 MLOAD PUSH1 0x80 DUP3 ADD MSTORE PUSH0 PUSH1 0x20 DUP7 ADD MLOAD PUSH2 0x160 PUSH1 0xA0 DUP5 ADD MSTORE PUSH2 0x3C94 PUSH2 0x1E0 DUP5 ADD DUP3 PUSH2 0x39FB JUMP JUMPDEST SWAP1 POP PUSH1 0x40 DUP8 ADD MLOAD PUSH1 0x7F NOT DUP5 DUP4 SUB ADD PUSH1 0xC0 DUP6 ADD MSTORE PUSH2 0x3CB1 DUP3 DUP3 PUSH2 0x39FB JUMP JUMPDEST SWAP2 POP POP PUSH1 0x60 DUP8 ADD MLOAD PUSH1 0xE0 DUP5 ADD MSTORE PUSH1 0x80 DUP8 ADD MLOAD PUSH2 0x100 DUP5 ADD MSTORE PUSH1 0xA0 DUP8 ADD MLOAD PUSH2 0x3CDC PUSH2 0x120 DUP6 ADD DUP3 PUSH2 0x3C13 JUMP JUMPDEST POP PUSH1 0xC0 DUP8 ADD MLOAD PUSH2 0x140 DUP5 ADD MSTORE PUSH1 0xE0 DUP8 ADD MLOAD PUSH1 0x1 PUSH1 0x1 PUSH1 0xA0 SHL SUB AND PUSH2 0x160 DUP5 ADD MSTORE PUSH2 0x100 DUP8 ADD MLOAD DUP4 DUP3 SUB PUSH1 0x7F NOT ADD PUSH2 0x180 DUP6 ADD MSTORE PUSH2 0x3D19 DUP3 DUP3 PUSH2 0x39FB JUMP JUMPDEST SWAP2 POP POP PUSH2 0x120 DUP8 ADD MLOAD PUSH2 0x1A0 DUP5 ADD MSTORE PUSH2 0x140 DUP8 ADD MLOAD PUSH2 0x1C0 DUP5 ADD MSTORE DUP6 PUSH1 0x20 DUP5 ADD MSTORE DUP5 PUSH1 0x40 DUP5 ADD MSTORE DUP3 DUP2 SUB PUSH1 0x60 DUP5 ADD MSTORE PUSH2 0x3D52 DUP2 DUP6 PUSH2 0x3C33 JUMP JUMPDEST SWAP8 SWAP7 POP POP POP POP POP POP POP JUMP JUMPDEST PUSH1 0x20 DUP2 MSTORE PUSH0 PUSH2 0xB2E PUSH1 0x20 DUP4 ADD DUP5 PUSH2 0x3A29 JUMP JUMPDEST DUP2 DUP4 MSTORE DUP2 DUP2 PUSH1 0x20 DUP6 ADD CALLDATACOPY POP PUSH0 DUP3 DUP3 ADD PUSH1 0x20 SWAP1 DUP2 ADD SWAP2 SWAP1 SWAP2 MSTORE PUSH1 0x1F SWAP1 SWAP2 ADD PUSH1 0x1F NOT AND SWAP1 SWAP2 ADD ADD SWAP1 JUMP JUMPDEST PUSH1 0x20 DUP2 MSTORE PUSH0 PUSH2 0x1B49 PUSH1 0x20 DUP4 ADD DUP5 DUP7 PUSH2 0x3D6F JUMP JUMPDEST PUSH1 0x1 DUP2 DUP2 SHR SWAP1 DUP3 AND DUP1 PUSH2 0x3DBE JUMPI PUSH1 0x7F DUP3 AND SWAP2 POP JUMPDEST PUSH1 0x20 DUP3 LT DUP2 SUB PUSH2 0x3DDC JUMPI PUSH4 0x4E487B71 PUSH1 0xE0 SHL PUSH0 MSTORE PUSH1 0x22 PUSH1 0x4 MSTORE PUSH1 0x24 PUSH0 REVERT JUMPDEST POP SWAP2 SWAP1 POP JUMP JUMPDEST PUSH0 DUP2 MLOAD DUP1 PUSH1 0x20 DUP5 ADD DUP6 MCOPY PUSH0 SWAP4 ADD SWAP3 DUP4 MSTORE POP SWAP1 SWAP2 SWAP1 POP JUMP JUMPDEST PUSH0 PUSH2 0xB2E DUP3 DUP5 PUSH2 0x3DE2 JUMP JUMPDEST DUP2 DUP4 DUP3 CALLDATACOPY PUSH0 SWAP2 ADD SWAP1 DUP2 MSTORE SWAP2 SWAP1 POP JUMP JUMPDEST PUSH4 0x4E487B71 PUSH1 0xE0 SHL PUSH0 MSTORE PUSH1 0x11 PUSH1 0x4 MSTORE PUSH1 0x24 PUSH0 REVERT JUMPDEST DUP2 DUP2 SUB DUP2 DUP2 GT ISZERO PUSH2 0x504 JUMPI PUSH2 0x504 PUSH2 0x3E13 JUMP JUMPDEST PUSH0 DUP1 DUP4 CALLDATALOAD PUSH1 0x1E NOT DUP5 CALLDATASIZE SUB ADD DUP2 SLT PUSH2 0x3E4F JUMPI PUSH0 DUP1 REVERT JUMPDEST DUP4 ADD DUP1 CALLDATALOAD SWAP2 POP PUSH1 0x1 PUSH1 0x1 PUSH1 0x40 SHL SUB DUP3 GT ISZERO PUSH2 0x3E68 JUMPI PUSH0 DUP1 REVERT JUMPDEST PUSH1 0x20 ADD SWAP2 POP CALLDATASIZE DUP2 SWAP1 SUB DUP3 SGT ISZERO PUSH2 0x389B JUMPI PUSH0 DUP1 REVERT JUMPDEST PUSH4 0x4E487B71 PUSH1 0xE0 SHL PUSH0 MSTORE PUSH1 0x41 PUSH1 0x4 MSTORE PUSH1 0x24 PUSH0 REVERT JUMPDEST PUSH1 0x40 MLOAD PUSH1 0xA0 DUP2 ADD PUSH1 0x1 PUSH1 0x1 PUSH1 0x40 SHL SUB DUP2 GT DUP3 DUP3 LT OR ISZERO PUSH2 0x3EB2 JUMPI PUSH2 0x3EB2 PUSH2 0x3E7C JUMP JUMPDEST PUSH1 0x40 MSTORE SWAP1 JUMP JUMPDEST PUSH0 DUP3 PUSH1 0x1F DUP4 ADD SLT PUSH2 0x3EC7 JUMPI PUSH0 DUP1 REVERT JUMPDEST DUP2 CALLDATALOAD PUSH1 0x1 PUSH1 0x1 PUSH1 0x40 SHL SUB DUP2 GT ISZERO PUSH2 0x3EE0 JUMPI PUSH2 0x3EE0 PUSH2 0x3E7C JUMP JUMPDEST PUSH1 0x40 MLOAD PUSH1 0x1F DUP3 ADD PUSH1 0x1F NOT SWAP1 DUP2 AND PUSH1 0x3F ADD AND DUP2 ADD PUSH1 0x1 PUSH1 0x1 PUSH1 0x40 SHL SUB DUP2 GT DUP3 DUP3 LT OR ISZERO PUSH2 0x3F0E JUMPI PUSH2 0x3F0E PUSH2 0x3E7C JUMP JUMPDEST PUSH1 0x40 MSTORE DUP2 DUP2 MSTORE DUP4 DUP3 ADD PUSH1 0x20 ADD DUP6 LT ISZERO PUSH2 0x3F25 JUMPI PUSH0 DUP1 REVERT JUMPDEST DUP2 PUSH1 0x20 DUP6 ADD PUSH1 0x20 DUP4 ADD CALLDATACOPY PUSH0 SWAP2 DUP2 ADD PUSH1 0x20 ADD SWAP2 SWAP1 SWAP2 MSTORE SWAP4 SWAP3 POP POP POP JUMP JUMPDEST PUSH0 PUSH1 0xA0 DUP3 CALLDATASIZE SUB SLT ISZERO PUSH2 0x3F51 JUMPI PUSH0 DUP1 REVERT JUMPDEST PUSH2 0x3F59 PUSH2 0x3E90 JUMP JUMPDEST DUP3 CALLDATALOAD DUP2 MSTORE PUSH1 0x20 DUP4 ADD CALLDATALOAD PUSH1 0x1 PUSH1 0x1 PUSH1 0x40 SHL SUB DUP2 GT ISZERO PUSH2 0x3F75 JUMPI PUSH0 DUP1 REVERT JUMPDEST PUSH2 0x3F81 CALLDATASIZE DUP3 DUP7 ADD PUSH2 0x3EB8 JUMP JUMPDEST PUSH1 0x20 DUP4 ADD MSTORE POP PUSH1 0x40 DUP4 ADD CALLDATALOAD PUSH1 0x1 PUSH1 0x1 PUSH1 0x40 SHL SUB DUP2 GT ISZERO PUSH2 0x3F9F JUMPI PUSH0 DUP1 REVERT JUMPDEST PUSH2 0x3FAB CALLDATASIZE DUP3 DUP7 ADD PUSH2 0x3EB8 JUMP JUMPDEST PUSH1 0x40 DUP4 ADD MSTORE POP PUSH1 0x60 DUP4 ADD CALLDATALOAD PUSH1 0x1 PUSH1 0x1 PUSH1 0x40 SHL SUB DUP2 GT ISZERO PUSH2 0x3FC9 JUMPI PUSH0 DUP1 REVERT JUMPDEST PUSH2 0x3FD5 CALLDATASIZE DUP3 DUP7 ADD PUSH2 0x3EB8 JUMP JUMPDEST PUSH1 0x60 DUP4 ADD MSTORE POP PUSH1 0x80 SWAP3 DUP4 ADD CALLDATALOAD SWAP3 DUP2 ADD SWAP3 SWAP1 SWAP3 MSTORE POP SWAP1 JUMP JUMPDEST PUSH1 0x40 DUP2 MSTORE PUSH0 PUSH2 0x3FFF PUSH1 0x40 DUP4 ADD DUP6 DUP8 PUSH2 0x3D6F JUMP JUMPDEST SWAP1 POP DUP3 ISZERO ISZERO PUSH1 0x20 DUP4 ADD MSTORE SWAP5 SWAP4 POP POP POP POP JUMP JUMPDEST PUSH4 0x4E487B71 PUSH1 0xE0 SHL PUSH0 MSTORE PUSH1 0x32 PUSH1 0x4 MSTORE PUSH1 0x24 PUSH0 REVERT JUMPDEST PUSH0 DUP2 SLOAD PUSH2 0x4031 DUP2 PUSH2 0x3DAA JUMP JUMPDEST PUSH1 0x1 DUP3 AND DUP1 ISZERO PUSH2 0x4048 JUMPI PUSH1 0x1 DUP2 EQ PUSH2 0x405D JUMPI PUSH2 0x408A JUMP JUMPDEST PUSH1 0xFF NOT DUP4 AND DUP7 MSTORE DUP2 ISZERO ISZERO DUP3 MUL DUP7 ADD SWAP4 POP PUSH2 0x408A JUMP JUMPDEST DUP5 PUSH0 MSTORE PUSH1 0x20 PUSH0 KECCAK256 PUSH0 JUMPDEST DUP4 DUP2 LT ISZERO PUSH2 0x4082 JUMPI DUP2 SLOAD DUP9 DUP3 ADD MSTORE PUSH1 0x1 SWAP1 SWAP2 ADD SWAP1 PUSH1 0x20 ADD PUSH2 0x4066 JUMP JUMPDEST POP POP DUP2 DUP7 ADD SWAP4 POP JUMPDEST POP POP POP SWAP3 SWAP2 POP POP JUMP JUMPDEST PUSH0 PUSH2 0xB2E DUP3 DUP5 PUSH2 0x4025 JUMP JUMPDEST PUSH1 0x20 DUP2 MSTORE PUSH0 PUSH2 0xB2E PUSH1 0x20 DUP4 ADD DUP5 PUSH2 0x39FB JUMP JUMPDEST PUSH1 0x1F DUP3 GT ISZERO PUSH2 0x76C JUMPI DUP1 PUSH0 MSTORE PUSH1 0x20 PUSH0 KECCAK256 PUSH1 0x1F DUP5 ADD PUSH1 0x5 SHR DUP2 ADD PUSH1 0x20 DUP6 LT ISZERO PUSH2 0x40D5 JUMPI POP DUP1 JUMPDEST PUSH1 0x1F DUP5 ADD PUSH1 0x5 SHR DUP3 ADD SWAP2 POP JUMPDEST DUP2 DUP2 LT ISZERO PUSH2 0x2444 JUMPI PUSH0 DUP2 SSTORE PUSH1 0x1 ADD PUSH2 0x40E1 JUMP JUMPDEST PUSH0 NOT PUSH1 0x3 DUP4 SWAP1 SHL SHR NOT AND PUSH1 0x1 SWAP2 SWAP1 SWAP2 SHL OR SWAP1 JUMP JUMPDEST DUP2 DUP2 SUB PUSH2 0x4113 JUMPI POP POP JUMP JUMPDEST PUSH2 0x411D DUP3 SLOAD PUSH2 0x3DAA JUMP JUMPDEST PUSH1 0x1 PUSH1 0x1 PUSH1 0x40 SHL SUB DUP2 GT ISZERO PUSH2 0x4134 JUMPI PUSH2 0x4134 PUSH2 0x3E7C JUMP JUMPDEST PUSH2 0x4148 DUP2 PUSH2 0x4142 DUP5 SLOAD PUSH2 0x3DAA JUMP JUMPDEST DUP5 PUSH2 0x40B0 JUMP JUMPDEST PUSH0 PUSH1 0x1F DUP3 GT PUSH1 0x1 DUP2 EQ PUSH2 0x4174 JUMPI PUSH0 DUP4 ISZERO PUSH2 0x4162 JUMPI POP DUP5 DUP3 ADD SLOAD JUMPDEST PUSH2 0x416C DUP5 DUP3 PUSH2 0x40F4 JUMP JUMPDEST DUP6 SSTORE POP PUSH2 0x2444 JUMP JUMPDEST PUSH0 DUP6 DUP2 MSTORE PUSH1 0x20 DUP1 DUP3 KECCAK256 DUP7 DUP4 MSTORE SWAP1 DUP3 KECCAK256 PUSH1 0x1F NOT DUP7 AND SWAP3 JUMPDEST DUP4 DUP2 LT ISZERO PUSH2 0x41AA JUMPI DUP3 DUP7 ADD SLOAD DUP3 SSTORE PUSH1 0x1 SWAP6 DUP7 ADD SWAP6 SWAP1 SWAP2 ADD SWAP1 PUSH1 0x20 ADD PUSH2 0x418A JUMP JUMPDEST POP DUP6 DUP4 LT ISZERO PUSH2 0x41C7 JUMPI DUP2 DUP6 ADD SLOAD PUSH0 NOT PUSH1 0x3 DUP9 SWAP1 SHL PUSH1 0xF8 AND SHR NOT AND DUP2 SSTORE JUMPDEST POP POP POP POP POP PUSH1 0x1 SWAP1 DUP2 SHL ADD SWAP1 SSTORE POP JUMP JUMPDEST PUSH4 0x4E487B71 PUSH1 0xE0 SHL PUSH0 MSTORE PUSH1 0x31 PUSH1 0x4 MSTORE PUSH1 0x24 PUSH0 REVERT JUMPDEST DUP1 DUP3 ADD DUP1 DUP3 GT ISZERO PUSH2 0x504 JUMPI PUSH2 0x504 PUSH2 0x3E13 JUMP JUMPDEST PUSH0 DUP2 PUSH2 0x420C JUMPI PUSH2 0x420C PUSH2 0x3E13 JUMP JUMPDEST POP PUSH0 NOT ADD SWAP1 JUMP JUMPDEST PUSH0 PUSH2 0x421E DUP3 DUP5 PUSH2 0x3DE2 JUMP JUMPDEST PUSH16 0x2063616E6E6F7420626520656D707479 PUSH1 0x80 SHL DUP2 MSTORE PUSH1 0x10 ADD SWAP4 SWAP3 POP POP POP JUMP JUMPDEST PUSH0 PUSH2 0x4249 DUP3 DUP5 PUSH2 0x3DE2 JUMP JUMPDEST PUSH19 0x40CAF0C6CACAC8E640DAC2F040D8CADCCEE8D PUSH1 0x6B SHL DUP2 MSTORE PUSH1 0x13 ADD SWAP4 SWAP3 POP POP POP JUMP JUMPDEST DUP2 MLOAD PUSH1 0x1 PUSH1 0x1 PUSH1 0x40 SHL SUB DUP2 GT ISZERO PUSH2 0x4285 JUMPI PUSH2 0x4285 PUSH2 0x3E7C JUMP JUMPDEST PUSH2 0x4293 DUP2 PUSH2 0x4142 DUP5 SLOAD PUSH2 0x3DAA JUMP JUMPDEST PUSH1 0x20 PUSH1 0x1F DUP3 GT PUSH1 0x1 DUP2 EQ PUSH2 0x42B7 JUMPI PUSH0 DUP4 ISZERO PUSH2 0x4162 JUMPI POP DUP5 DUP3 ADD MLOAD PUSH2 0x416C DUP5 DUP3 PUSH2 0x40F4 JUMP JUMPDEST PUSH0 DUP5 DUP2 MSTORE PUSH1 0x20 DUP2 KECCAK256 PUSH1 0x1F NOT DUP6 AND SWAP2 JUMPDEST DUP3 DUP2 LT ISZERO PUSH2 0x42E6 JUMPI DUP8 DUP6 ADD MLOAD DUP3 SSTORE PUSH1 0x20 SWAP5 DUP6 ADD SWAP5 PUSH1 0x1 SWAP1 SWAP3 ADD SWAP2 ADD PUSH2 0x42C6 JUMP JUMPDEST POP DUP5 DUP3 LT ISZERO PUSH2 0x4303 JUMPI DUP7 DUP5 ADD MLOAD PUSH0 NOT PUSH1 0x3 DUP8 SWAP1 SHL PUSH1 0xF8 AND SHR NOT AND DUP2 SSTORE JUMPDEST POP POP POP POP PUSH1 0x1 SWAP1 DUP2 SHL ADD SWAP1 SSTORE POP JUMP JUMPDEST PUSH1 0x60 DUP2 MSTORE PUSH0 PUSH2 0x4324 PUSH1 0x60 DUP4 ADD DUP7 PUSH2 0x39FB JUMP JUMPDEST PUSH1 0x1 PUSH1 0x1 PUSH1 0xA0 SHL SUB DUP6 AND PUSH1 0x20 DUP5 ADD MSTORE DUP3 DUP2 SUB PUSH1 0x40 DUP5 ADD MSTORE PUSH2 0x1E84 DUP2 DUP6 PUSH2 0x39FB JUMP JUMPDEST PUSH0 PUSH2 0x4350 DUP3 DUP5 PUSH2 0x3DE2 JUMP JUMPDEST PUSH32 0x2063616E6E6F74206265207A65726F2061646472657373000000000000000000 DUP2 MSTORE PUSH1 0x17 ADD SWAP4 SWAP3 POP POP POP JUMP JUMPDEST PUSH1 0x1 PUSH1 0x1 PUSH1 0x40 SHL SUB DUP4 GT ISZERO PUSH2 0x4394 JUMPI PUSH2 0x4394 PUSH2 0x3E7C JUMP JUMPDEST PUSH2 0x43A8 DUP4 PUSH2 0x43A2 DUP4 SLOAD PUSH2 0x3DAA JUMP JUMPDEST DUP4 PUSH2 0x40B0 JUMP JUMPDEST PUSH0 PUSH1 0x1F DUP5 GT PUSH1 0x1 DUP2 EQ PUSH2 0x43D4 JUMPI PUSH0 DUP6 ISZERO PUSH2 0x43C2 JUMPI POP DUP4 DUP3 ADD CALLDATALOAD JUMPDEST PUSH2 0x43CC DUP7 DUP3 PUSH2 0x40F4 JUMP JUMPDEST DUP5 SSTORE POP PUSH2 0x2444 JUMP JUMPDEST PUSH0 DUP4 DUP2 MSTORE PUSH1 0x20 DUP2 KECCAK256 PUSH1 0x1F NOT DUP8 AND SWAP2 JUMPDEST DUP3 DUP2 LT ISZERO PUSH2 0x4403 JUMPI DUP7 DUP6 ADD CALLDATALOAD DUP3 SSTORE PUSH1 0x20 SWAP5 DUP6 ADD SWAP5 PUSH1 0x1 SWAP1 SWAP3 ADD SWAP2 ADD PUSH2 0x43E3 JUMP JUMPDEST POP DUP7 DUP3 LT ISZERO PUSH2 0x441F JUMPI PUSH0 NOT PUSH1 0xF8 DUP9 PUSH1 0x3 SHL AND SHR NOT DUP5 DUP8 ADD CALLDATALOAD AND DUP2 SSTORE JUMPDEST POP POP PUSH1 0x1 DUP6 PUSH1 0x1 SHL ADD DUP4 SSTORE POP POP POP POP POP JUMP JUMPDEST PUSH0 PUSH1 0x1 DUP3 ADD PUSH2 0x4442 JUMPI PUSH2 0x4442 PUSH2 0x3E13 JUMP JUMPDEST POP PUSH1 0x1 ADD SWAP1 JUMP INVALID PREVRANDAO PUSH6 0x766963652072 PUSH6 0x676973747261 PUSH21 0x696F6E20616C726561647920696E2070726F677265 PUSH20 0x73A26469706673582212208593DC462FA56857A3 PUSH26 0x595CC09E41DE35396CEC07114134F1DA03785428F0E264736F6C PUSH4 0x4300081A STOP CALLER PUSH6 0xD7A28E3265B3 PUSH27 0x6474929F336521B332C1681B933F6CB9F3376673440D862A000000 "
		},
		"gasEstimates": {
			"creation": {
				"codeDepositCost": "3514800",
				"executionCost": "infinite",
				"totalCost": "infinite"
			},
			"external": {
				"DEFAULT_ADMIN_ROLE()": "238",
				"cleanupThreshold()": "2383",
				"cleanupThresholdPeriod()": "2385",
				"createWorkflow((uint256,string,string,string,uint256))": "infinite",
				"deregTime(bytes32)": "2503",
				"deregisterDevice(uint256,string)": "infinite",
				"devStore(address,uint256)": "9094",
				"forceUnlock(address,uint256)": "38097",
				"getDevice(uint256,string)": "infinite",
				"getDeviceExecutionMetricsByAddress(address)": "infinite",
				"getRoleAdmin(bytes32)": "2490",
				"getWorkflowDevices(uint256,address,uint256)": "infinite",
				"getWorkflowInfo(uint256)": "infinite",
				"grantRole(bytes32,address)": "infinite",
				"hasRole(bytes32,address)": "2759",
				"isDeviceRegistered(string)": "infinite",
				"isRegistrationInProgress(string)": "infinite",
				"partIndex(bytes32)": "2480",
				"pause()": "infinite",
				"paused()": "2403",
				"registerDevice(uint256,string,address)": "infinite",
				"renounceRole(bytes32,address)": "29086",
				"revokeRole(bytes32,address)": "infinite",
				"setCleanupThreshold(uint256)": "infinite",
				"submitRecord(string,uint256)": "infinite",
				"supportsInterface(bytes4)": "470",
				"toggleDeviceBlacklist(string)": "infinite",
				"toggleWorkflowPause(uint256)": "infinite",
				"transferAdminRole(address)": "infinite",
				"unpause()": "infinite",
				"updateWorkflowExecutionInterval(uint256,uint256)": "infinite"
			}
		},
		"methodIdentifiers": {
			"DEFAULT_ADMIN_ROLE()": "a217fddf",
			"cleanupThreshold()": "8e0bb5dd",
			"cleanupThresholdPeriod()": "0d969f2c",
			"createWorkflow((uint256,string,string,string,uint256))": "584ddaf0",
			"deregTime(bytes32)": "636702d1",
			"deregisterDevice(uint256,string)": "07b4766b",
			"devStore(address,uint256)": "273bb6a4",
			"forceUnlock(address,uint256)": "5c7700df",
			"getDevice(uint256,string)": "ec6a8ea1",
			"getDeviceExecutionMetricsByAddress(address)": "291a8d1d",
			"getRoleAdmin(bytes32)": "248a9ca3",
			"getWorkflowDevices(uint256,address,uint256)": "4cfb5e79",
			"getWorkflowInfo(uint256)": "df7459f0",
			"grantRole(bytes32,address)": "2f2ff15d",
			"hasRole(bytes32,address)": "91d14854",
			"isDeviceRegistered(string)": "68ba4eaf",
			"isRegistrationInProgress(string)": "6f6e326d",
			"partIndex(bytes32)": "7d592292",
			"pause()": "8456cb59",
			"paused()": "5c975abb",
			"registerDevice(uint256,string,address)": "b0df789a",
			"renounceRole(bytes32,address)": "36568abe",
			"revokeRole(bytes32,address)": "d547741f",
			"setCleanupThreshold(uint256)": "e88c754c",
			"submitRecord(string,uint256)": "2dd98c45",
			"supportsInterface(bytes4)": "01ffc9a7",
			"toggleDeviceBlacklist(string)": "5feb08b2",
			"toggleWorkflowPause(uint256)": "592ebbe9",
			"transferAdminRole(address)": "ada8f919",
			"unpause()": "3f4ba83a",
			"updateWorkflowExecutionInterval(uint256,uint256)": "b74dabbe"
		}
	},
	"abi": [
		{
			"inputs": [],
			"stateMutability": "nonpayable",
			"type": "constructor"
		},
		{
			"inputs": [],
			"name": "AccessControlBadConfirmation",
			"type": "error"
		},
		{
			"inputs": [
				{
					"internalType": "address",
					"name": "account",
					"type": "address"
				},
				{
					"internalType": "bytes32",
					"name": "neededRole",
					"type": "bytes32"
				}
			],
			"name": "AccessControlUnauthorizedAccount",
			"type": "error"
		},
		{
			"inputs": [],
			"name": "CleanupInProgress",
			"type": "error"
		},
		{
			"inputs": [
				{
					"internalType": "string",
					"name": "message",
					"type": "string"
				}
			],
			"name": "GenericError",
			"type": "error"
		},
		{
			"inputs": [
				{
					"internalType": "string",
					"name": "message",
					"type": "string"
				}
			],
			"name": "InvalidInput",
			"type": "error"
		},
		{
			"inputs": [],
			"name": "InvalidPartitionIndex",
			"type": "error"
		},
		{
			"inputs": [],
			"name": "LockTimeoutActive",
			"type": "error"
		},
		{
			"inputs": [],
			"name": "MaxPartitionsReached",
			"type": "error"
		},
		{
			"inputs": [
				{
					"internalType": "string",
					"name": "message",
					"type": "string"
				}
			],
			"name": "SecurityError",
			"type": "error"
		},
		{
			"inputs": [],
			"name": "StorageNotLocked",
			"type": "error"
		},
		{
			"inputs": [],
			"name": "TimeoutNotElapsed",
			"type": "error"
		},
		{
			"inputs": [
				{
					"internalType": "string",
					"name": "message",
					"type": "string"
				}
			],
			"name": "ValidationError",
			"type": "error"
		},
		{
			"inputs": [
				{
					"internalType": "string",
					"name": "message",
					"type": "string"
				}
			],
			"name": "ValidationError",
			"type": "error"
		},
		{
			"inputs": [
				{
					"internalType": "string",
					"name": "message",
					"type": "string"
				}
			],
			"name": "WorkflowError",
			"type": "error"
		},
		{
			"anonymous": false,
			"inputs": [
				{
					"indexed": false,
					"internalType": "string",
					"name": "walletId",
					"type": "string"
				},
				{
					"indexed": true,
					"internalType": "address",
					"name": "deviceAddress",
					"type": "address"
				},
				{
					"indexed": true,
					"internalType": "address",
					"name": "blacklister",
					"type": "address"
				},
				{
					"indexed": false,
					"internalType": "bool",
					"name": "status",
					"type": "bool"
				}
			],
			"name": "DeviceBlacklisted",
			"type": "event"
		},
		{
			"anonymous": false,
			"inputs": [
				{
					"indexed": true,
					"internalType": "string",
					"name": "walletId",
					"type": "string"
				},
				{
					"indexed": true,
					"internalType": "uint256",
					"name": "workflowId",
					"type": "uint256"
				},
				{
					"indexed": false,
					"internalType": "uint256",
					"name": "lastActiveTimestamp",
					"type": "uint256"
				},
				{
					"indexed": false,
					"internalType": "uint256",
					"name": "cleanupTimestamp",
					"type": "uint256"
				}
			],
			"name": "DeviceCleanedUp",
			"type": "event"
		},
		{
			"anonymous": false,
			"inputs": [
				{
					"indexed": true,
					"internalType": "uint256",
					"name": "workflowId",
					"type": "uint256"
				},
				{
					"indexed": false,
					"internalType": "string",
					"name": "walletId",
					"type": "string"
				},
				{
					"indexed": true,
					"internalType": "address",
					"name": "deregistrar",
					"type": "address"
				}
			],
			"name": "DeviceDeregistered",
			"type": "event"
		},
		{
			"anonymous": false,
			"inputs": [
				{
					"indexed": true,
					"internalType": "uint256",
					"name": "partitionIndex",
					"type": "uint256"
				},
				{
					"indexed": false,
					"internalType": "uint256",
					"name": "startBlock",
					"type": "uint256"
				},
				{
					"indexed": false,
					"internalType": "uint256",
					"name": "endBlock",
					"type": "uint256"
				}
			],
			"name": "DevicePartitionCreated",
			"type": "event"
		},
		{
			"anonymous": false,
			"inputs": [
				{
					"indexed": true,
					"internalType": "uint256",
					"name": "partitionIndex",
					"type": "uint256"
				}
			],
			"name": "DevicePartitionFilled",
			"type": "event"
		},
		{
			"anonymous": false,
			"inputs": [
				{
					"indexed": true,
					"internalType": "uint256",
					"name": "workflowId",
					"type": "uint256"
				},
				{
					"indexed": false,
					"internalType": "string",
					"name": "walletId",
					"type": "string"
				},
				{
					"indexed": true,
					"internalType": "address",
					"name": "deviceAddress",
					"type": "address"
				},
				{
					"indexed": true,
					"internalType": "address",
					"name": "registrar",
					"type": "address"
				}
			],
			"name": "DeviceRegistered",
			"type": "event"
		},
		{
			"anonymous": false,
			"inputs": [
				{
					"indexed": true,
					"internalType": "uint256",
					"name": "workflowId",
					"type": "uint256"
				},
				{
					"indexed": false,
					"internalType": "string",
					"name": "walletId",
					"type": "string"
				},
				{
					"indexed": false,
					"internalType": "uint256",
					"name": "partition",
					"type": "uint256"
				},
				{
					"indexed": false,
					"internalType": "uint256",
					"name": "timestamp",
					"type": "uint256"
				}
			],
			"name": "DeviceRemoved",
			"type": "event"
		},
		{
			"anonymous": false,
			"inputs": [
				{
					"indexed": false,
					"internalType": "address",
					"name": "account",
					"type": "address"
				}
			],
			"name": "Paused",
			"type": "event"
		},
		{
			"anonymous": false,
			"inputs": [
				{
					"indexed": true,
					"internalType": "string",
					"name": "walletId",
					"type": "string"
				},
				{
					"indexed": true,
					"internalType": "uint256",
					"name": "workflowId",
					"type": "uint256"
				},
				{
					"indexed": false,
					"internalType": "uint256",
					"name": "counter",
					"type": "uint256"
				}
			],
			"name": "RecordUpdated",
			"type": "event"
		},
		{
			"anonymous": false,
			"inputs": [
				{
					"indexed": true,
					"internalType": "bytes32",
					"name": "role",
					"type": "bytes32"
				},
				{
					"indexed": true,
					"internalType": "bytes32",
					"name": "previousAdminRole",
					"type": "bytes32"
				},
				{
					"indexed": true,
					"internalType": "bytes32",
					"name": "newAdminRole",
					"type": "bytes32"
				}
			],
			"name": "RoleAdminChanged",
			"type": "event"
		},
		{
			"anonymous": false,
			"inputs": [
				{
					"indexed": true,
					"internalType": "bytes32",
					"name": "role",
					"type": "bytes32"
				},
				{
					"indexed": true,
					"internalType": "address",
					"name": "account",
					"type": "address"
				},
				{
					"indexed": true,
					"internalType": "address",
					"name": "sender",
					"type": "address"
				}
			],
			"name": "RoleGranted",
			"type": "event"
		},
		{
			"anonymous": false,
			"inputs": [
				{
					"indexed": true,
					"internalType": "bytes32",
					"name": "role",
					"type": "bytes32"
				},
				{
					"indexed": true,
					"internalType": "address",
					"name": "account",
					"type": "address"
				},
				{
					"indexed": true,
					"internalType": "address",
					"name": "sender",
					"type": "address"
				}
			],
			"name": "RoleRevoked",
			"type": "event"
		},
		{
			"anonymous": false,
			"inputs": [
				{
					"indexed": true,
					"internalType": "address",
					"name": "user",
					"type": "address"
				},
				{
					"indexed": true,
					"internalType": "uint256",
					"name": "workflowId",
					"type": "uint256"
				},
				{
					"indexed": false,
					"internalType": "uint256",
					"name": "deletedCount",
					"type": "uint256"
				},
				{
					"indexed": false,
					"internalType": "uint256",
					"name": "timestamp",
					"type": "uint256"
				}
			],
			"name": "StorageCleanup",
			"type": "event"
		},
		{
			"anonymous": false,
			"inputs": [
				{
					"indexed": true,
					"internalType": "address",
					"name": "user",
					"type": "address"
				},
				{
					"indexed": true,
					"internalType": "uint256",
					"name": "workflowId",
					"type": "uint256"
				}
			],
			"name": "StorageLocked",
			"type": "event"
		},
		{
			"anonymous": false,
			"inputs": [
				{
					"indexed": true,
					"internalType": "address",
					"name": "user",
					"type": "address"
				},
				{
					"indexed": true,
					"internalType": "uint256",
					"name": "workflowId",
					"type": "uint256"
				}
			],
			"name": "StorageUnlocked",
			"type": "event"
		},
		{
			"anonymous": false,
			"inputs": [
				{
					"indexed": false,
					"internalType": "address",
					"name": "account",
					"type": "address"
				}
			],
			"name": "Unpaused",
			"type": "event"
		},
		{
			"anonymous": false,
			"inputs": [
				{
					"indexed": true,
					"internalType": "uint256",
					"name": "id",
					"type": "uint256"
				},
				{
					"indexed": false,
					"internalType": "string",
					"name": "title",
					"type": "string"
				},
				{
					"indexed": false,
					"internalType": "address",
					"name": "owner",
					"type": "address"
				},
				{
					"indexed": false,
					"internalType": "string",
					"name": "schemaId",
					"type": "string"
				}
			],
			"name": "WorkflowCreated",
			"type": "event"
		},
		{
			"anonymous": false,
			"inputs": [
				{
					"indexed": true,
					"internalType": "uint256",
					"name": "workflowId",
					"type": "uint256"
				},
				{
					"indexed": false,
					"internalType": "uint256",
					"name": "newInterval",
					"type": "uint256"
				}
			],
			"name": "WorkflowExecutionIntervalUpdated",
			"type": "event"
		},
		{
			"anonymous": false,
			"inputs": [
				{
					"indexed": true,
					"internalType": "uint256",
					"name": "workflowId",
					"type": "uint256"
				},
				{
					"indexed": false,
					"internalType": "bool",
					"name": "isPaused",
					"type": "bool"
				}
			],
			"name": "WorkflowPauseToggled",
			"type": "event"
		},
		{
			"inputs": [],
			"name": "DEFAULT_ADMIN_ROLE",
			"outputs": [
				{
					"internalType": "bytes32",
					"name": "",
					"type": "bytes32"
				}
			],
			"stateMutability": "view",
			"type": "function"
		},
		{
			"inputs": [],
			"name": "cleanupThreshold",
			"outputs": [
				{
					"internalType": "uint256",
					"name": "",
					"type": "uint256"
				}
			],
			"stateMutability": "view",
			"type": "function"
		},
		{
			"inputs": [],
			"name": "cleanupThresholdPeriod",
			"outputs": [
				{
					"internalType": "uint256",
					"name": "",
					"type": "uint256"
				}
			],
			"stateMutability": "view",
			"type": "function"
		},
		{
			"inputs": [
				{
					"components": [
						{
							"internalType": "uint256",
							"name": "wid",
							"type": "uint256"
						},
						{
							"internalType": "string",
							"name": "title",
							"type": "string"
						},
						{
							"internalType": "string",
							"name": "description",
							"type": "string"
						},
						{
							"internalType": "string",
							"name": "schemaId",
							"type": "string"
						},
						{
							"internalType": "uint256",
							"name": "executionInterval",
							"type": "uint256"
						}
					],
					"internalType": "struct IWorkflow.CreateWorkflowInput",
					"name": "input",
					"type": "tuple"
				}
			],
			"name": "createWorkflow",
			"outputs": [
				{
					"internalType": "uint256",
					"name": "",
					"type": "uint256"
				}
			],
			"stateMutability": "nonpayable",
			"type": "function"
		},
		{
			"inputs": [
				{
					"internalType": "bytes32",
					"name": "",
					"type": "bytes32"
				}
			],
			"name": "deregTime",
			"outputs": [
				{
					"internalType": "uint256",
					"name": "",
					"type": "uint256"
				}
			],
			"stateMutability": "view",
			"type": "function"
		},
		{
			"inputs": [
				{
					"internalType": "uint256",
					"name": "workflowId",
					"type": "uint256"
				},
				{
					"internalType": "string",
					"name": "walletId",
					"type": "string"
				}
			],
			"name": "deregisterDevice",
			"outputs": [],
			"stateMutability": "nonpayable",
			"type": "function"
		},
		{
			"inputs": [
				{
					"internalType": "address",
					"name": "",
					"type": "address"
				},
				{
					"internalType": "uint256",
					"name": "",
					"type": "uint256"
				}
			],
			"name": "devStore",
			"outputs": [
				{
					"internalType": "bool",
					"name": "locked",
					"type": "bool"
				},
				{
					"internalType": "uint256",
					"name": "lockTime",
					"type": "uint256"
				},
				{
					"internalType": "uint256",
					"name": "totalDevs",
					"type": "uint256"
				},
				{
					"internalType": "uint256",
					"name": "activeIdx",
					"type": "uint256"
				}
			],
			"stateMutability": "view",
			"type": "function"
		},
		{
			"inputs": [
				{
					"internalType": "address",
					"name": "user",
					"type": "address"
				},
				{
					"internalType": "uint256",
					"name": "workflowId",
					"type": "uint256"
				}
			],
			"name": "forceUnlock",
			"outputs": [],
			"stateMutability": "nonpayable",
			"type": "function"
		},
		{
			"inputs": [
				{
					"internalType": "uint256",
					"name": "workflowId",
					"type": "uint256"
				},
				{
					"internalType": "string",
					"name": "walletId",
					"type": "string"
				}
			],
			"name": "getDevice",
			"outputs": [
				{
					"components": [
						{
							"internalType": "string",
							"name": "walletId",
							"type": "string"
						},
						{
							"internalType": "address",
							"name": "deviceAddress",
							"type": "address"
						},
						{
							"internalType": "uint256",
							"name": "registeredAt",
							"type": "uint256"
						},
						{
							"internalType": "bool",
							"name": "blacklisted",
							"type": "bool"
						},
						{
							"internalType": "uint256",
							"name": "lastActive",
							"type": "uint256"
						}
					],
					"internalType": "struct IMedusaStorage.Device",
					"name": "",
					"type": "tuple"
				}
			],
			"stateMutability": "view",
			"type": "function"
		},
		{
			"inputs": [
				{
					"internalType": "address",
					"name": "deviceAddress",
					"type": "address"
				}
			],
			"name": "getDeviceExecutionMetricsByAddress",
			"outputs": [
				{
					"internalType": "uint256",
					"name": "count",
					"type": "uint256"
				},
				{
					"internalType": "uint256",
					"name": "lastExecuted",
					"type": "uint256"
				},
				{
					"internalType": "bool",
					"name": "isActive",
					"type": "bool"
				}
			],
			"stateMutability": "view",
			"type": "function"
		},
		{
			"inputs": [
				{
					"internalType": "bytes32",
					"name": "role",
					"type": "bytes32"
				}
			],
			"name": "getRoleAdmin",
			"outputs": [
				{
					"internalType": "bytes32",
					"name": "",
					"type": "bytes32"
				}
			],
			"stateMutability": "view",
			"type": "function"
		},
		{
			"inputs": [
				{
					"internalType": "uint256",
					"name": "workflowId",
					"type": "uint256"
				},
				{
					"internalType": "address",
					"name": "user",
					"type": "address"
				},
				{
					"internalType": "uint256",
					"name": "partitionIndex",
					"type": "uint256"
				}
			],
			"name": "getWorkflowDevices",
			"outputs": [
				{
					"components": [
						{
							"components": [
								{
									"internalType": "string",
									"name": "walletId",
									"type": "string"
								},
								{
									"internalType": "address",
									"name": "deviceAddress",
									"type": "address"
								},
								{
									"internalType": "uint256",
									"name": "registeredAt",
									"type": "uint256"
								},
								{
									"internalType": "bool",
									"name": "blacklisted",
									"type": "bool"
								},
								{
									"internalType": "uint256",
									"name": "lastActive",
									"type": "uint256"
								}
							],
							"internalType": "struct IMedusaStorage.Device[]",
							"name": "devices",
							"type": "tuple[]"
						},
						{
							"internalType": "uint256",
							"name": "totalPartitions",
							"type": "uint256"
						},
						{
							"internalType": "uint256",
							"name": "currentPartition",
							"type": "uint256"
						},
						{
							"internalType": "uint256",
							"name": "totalDevices",
							"type": "uint256"
						},
						{
							"internalType": "bool",
							"name": "hasMore",
							"type": "bool"
						}
					],
					"internalType": "struct IMedusaStorage.PaginatedDevices",
					"name": "",
					"type": "tuple"
				}
			],
			"stateMutability": "view",
			"type": "function"
		},
		{
			"inputs": [
				{
					"internalType": "uint256",
					"name": "workflowId",
					"type": "uint256"
				}
			],
			"name": "getWorkflowInfo",
			"outputs": [
				{
					"components": [
						{
							"internalType": "uint256",
							"name": "id",
							"type": "uint256"
						},
						{
							"internalType": "string",
							"name": "title",
							"type": "string"
						},
						{
							"internalType": "string",
							"name": "description",
							"type": "string"
						},
						{
							"internalType": "uint256",
							"name": "contributorCount",
							"type": "uint256"
						},
						{
							"internalType": "uint256",
							"name": "timestamp",
							"type": "uint256"
						},
						{
							"internalType": "enum IWorkflow.WorkflowStatus",
							"name": "status",
							"type": "uint8"
						},
						{
							"internalType": "uint256",
							"name": "deviceLimit",
							"type": "uint256"
						},
						{
							"internalType": "address",
							"name": "owner",
							"type": "address"
						},
						{
							"internalType": "string",
							"name": "schemaId",
							"type": "string"
						},
						{
							"internalType": "uint256",
							"name": "partitionSize",
							"type": "uint256"
						},
						{
							"internalType": "uint256",
							"name": "executionInterval",
							"type": "uint256"
						}
					],
					"internalType": "struct IWorkflow.Workflow",
					"name": "workflow",
					"type": "tuple"
				},
				{
					"internalType": "uint256",
					"name": "totalPartitions",
					"type": "uint256"
				},
				{
					"internalType": "uint256",
					"name": "totalDevices",
					"type": "uint256"
				},
				{
					"internalType": "uint256[]",
					"name": "devicesPerPartition",
					"type": "uint256[]"
				}
			],
			"stateMutability": "view",
			"type": "function"
		},
		{
			"inputs": [
				{
					"internalType": "bytes32",
					"name": "role",
					"type": "bytes32"
				},
				{
					"internalType": "address",
					"name": "account",
					"type": "address"
				}
			],
			"name": "grantRole",
			"outputs": [],
			"stateMutability": "nonpayable",
			"type": "function"
		},
		{
			"inputs": [
				{
					"internalType": "bytes32",
					"name": "role",
					"type": "bytes32"
				},
				{
					"internalType": "address",
					"name": "account",
					"type": "address"
				}
			],
			"name": "hasRole",
			"outputs": [
				{
					"internalType": "bool",
					"name": "",
					"type": "bool"
				}
			],
			"stateMutability": "view",
			"type": "function"
		},
		{
			"inputs": [
				{
					"internalType": "string",
					"name": "walletId",
					"type": "string"
				}
			],
			"name": "isDeviceRegistered",
			"outputs": [
				{
					"internalType": "bool",
					"name": "",
					"type": "bool"
				}
			],
			"stateMutability": "view",
			"type": "function"
		},
		{
			"inputs": [
				{
					"internalType": "string",
					"name": "walletId",
					"type": "string"
				}
			],
			"name": "isRegistrationInProgress",
			"outputs": [
				{
					"internalType": "bool",
					"name": "",
					"type": "bool"
				}
			],
			"stateMutability": "view",
			"type": "function"
		},
		{
			"inputs": [
				{
					"internalType": "bytes32",
					"name": "",
					"type": "bytes32"
				}
			],
			"name": "partIndex",
			"outputs": [
				{
					"internalType": "uint256",
					"name": "",
					"type": "uint256"
				}
			],
			"stateMutability": "view",
			"type": "function"
		},
		{
			"inputs": [],
			"name": "pause",
			"outputs": [],
			"stateMutability": "nonpayable",
			"type": "function"
		},
		{
			"inputs": [],
			"name": "paused",
			"outputs": [
				{
					"internalType": "bool",
					"name": "",
					"type": "bool"
				}
			],
			"stateMutability": "view",
			"type": "function"
		},
		{
			"inputs": [
				{
					"internalType": "uint256",
					"name": "workflowId",
					"type": "uint256"
				},
				{
					"internalType": "string",
					"name": "walletId",
					"type": "string"
				},
				{
					"internalType": "address",
					"name": "deviceAddress",
					"type": "address"
				}
			],
			"name": "registerDevice",
			"outputs": [],
			"stateMutability": "nonpayable",
			"type": "function"
		},
		{
			"inputs": [
				{
					"internalType": "bytes32",
					"name": "role",
					"type": "bytes32"
				},
				{
					"internalType": "address",
					"name": "callerConfirmation",
					"type": "address"
				}
			],
			"name": "renounceRole",
			"outputs": [],
			"stateMutability": "nonpayable",
			"type": "function"
		},
		{
			"inputs": [
				{
					"internalType": "bytes32",
					"name": "role",
					"type": "bytes32"
				},
				{
					"internalType": "address",
					"name": "account",
					"type": "address"
				}
			],
			"name": "revokeRole",
			"outputs": [],
			"stateMutability": "nonpayable",
			"type": "function"
		},
		{
			"inputs": [
				{
					"internalType": "uint256",
					"name": "newThreshold",
					"type": "uint256"
				}
			],
			"name": "setCleanupThreshold",
			"outputs": [],
			"stateMutability": "nonpayable",
			"type": "function"
		},
		{
			"inputs": [
				{
					"internalType": "string",
					"name": "walletId",
					"type": "string"
				},
				{
					"internalType": "uint256",
					"name": "workflowId",
					"type": "uint256"
				}
			],
			"name": "submitRecord",
			"outputs": [
				{
					"internalType": "uint256",
					"name": "",
					"type": "uint256"
				}
			],
			"stateMutability": "nonpayable",
			"type": "function"
		},
		{
			"inputs": [
				{
					"internalType": "bytes4",
					"name": "interfaceId",
					"type": "bytes4"
				}
			],
			"name": "supportsInterface",
			"outputs": [
				{
					"internalType": "bool",
					"name": "",
					"type": "bool"
				}
			],
			"stateMutability": "view",
			"type": "function"
		},
		{
			"inputs": [
				{
					"internalType": "string",
					"name": "walletId",
					"type": "string"
				}
			],
			"name": "toggleDeviceBlacklist",
			"outputs": [],
			"stateMutability": "nonpayable",
			"type": "function"
		},
		{
			"inputs": [
				{
					"internalType": "uint256",
					"name": "workflowId",
					"type": "uint256"
				}
			],
			"name": "toggleWorkflowPause",
			"outputs": [],
			"stateMutability": "nonpayable",
			"type": "function"
		},
		{
			"inputs": [
				{
					"internalType": "address",
					"name": "newAdmin",
					"type": "address"
				}
			],
			"name": "transferAdminRole",
			"outputs": [],
			"stateMutability": "nonpayable",
			"type": "function"
		},
		{
			"inputs": [],
			"name": "unpause",
			"outputs": [],
			"stateMutability": "nonpayable",
			"type": "function"
		},
		{
			"inputs": [
				{
					"internalType": "uint256",
					"name": "workflowId",
					"type": "uint256"
				},
				{
					"internalType": "uint256",
					"name": "newInterval",
					"type": "uint256"
				}
			],
			"name": "updateWorkflowExecutionInterval",
			"outputs": [],
			"stateMutability": "nonpayable",
			"type": "function"
		}
	]
}